{
  "address": "0x61e1EC1513A3Ac020E44c514F9a178A73CAd0533",
  "abi": [
    {
      "inputs": [
        {
          "internalType": "address",
          "name": "foundation_",
          "type": "address"
        },
        {
          "internalType": "address",
          "name": "weth_",
          "type": "address"
        },
        {
          "internalType": "address",
          "name": "loot_",
          "type": "address"
        }
      ],
      "stateMutability": "nonpayable",
      "type": "constructor"
    },
    {
      "anonymous": false,
      "inputs": [
        {
          "indexed": true,
          "internalType": "address",
          "name": "owner",
          "type": "address"
        },
        {
          "indexed": true,
          "internalType": "address",
          "name": "approved",
          "type": "address"
        },
        {
          "indexed": true,
          "internalType": "uint256",
          "name": "tokenId",
          "type": "uint256"
        }
      ],
      "name": "Approval",
      "type": "event"
    },
    {
      "anonymous": false,
      "inputs": [
        {
          "indexed": true,
          "internalType": "address",
          "name": "owner",
          "type": "address"
        },
        {
          "indexed": true,
          "internalType": "address",
          "name": "operator",
          "type": "address"
        },
        {
          "indexed": false,
          "internalType": "bool",
          "name": "approved",
          "type": "bool"
        }
      ],
      "name": "ApprovalForAll",
      "type": "event"
    },
    {
      "anonymous": false,
      "inputs": [
        {
          "indexed": true,
          "internalType": "uint256",
          "name": "tokenId",
          "type": "uint256"
        },
        {
          "indexed": true,
          "internalType": "address",
          "name": "owner",
          "type": "address"
        }
      ],
      "name": "ArtworkAirdropped",
      "type": "event"
    },
    {
      "anonymous": false,
      "inputs": [
        {
          "indexed": true,
          "internalType": "uint256",
          "name": "tokenId",
          "type": "uint256"
        },
        {
          "indexed": true,
          "internalType": "address",
          "name": "owner",
          "type": "address"
        }
      ],
      "name": "ArtworkClaimed",
      "type": "event"
    },
    {
      "anonymous": false,
      "inputs": [
        {
          "indexed": false,
          "internalType": "uint256",
          "name": "minBidIncrementBps",
          "type": "uint256"
        }
      ],
      "name": "AuctionMinBidIncrementBpsChanged",
      "type": "event"
    },
    {
      "anonymous": false,
      "inputs": [
        {
          "indexed": false,
          "internalType": "uint256",
          "name": "reservePrice",
          "type": "uint256"
        }
      ],
      "name": "AuctionReservePriceChanged",
      "type": "event"
    },
    {
      "anonymous": false,
      "inputs": [
        {
          "indexed": true,
          "internalType": "uint256",
          "name": "tokenId",
          "type": "uint256"
        },
        {
          "indexed": true,
          "internalType": "address",
          "name": "winner",
          "type": "address"
        },
        {
          "indexed": false,
          "internalType": "uint256",
          "name": "amount",
          "type": "uint256"
        }
      ],
      "name": "AuctionSettled",
      "type": "event"
    },
    {
      "anonymous": false,
      "inputs": [
        {
          "indexed": true,
          "internalType": "uint256",
          "name": "tokenId",
          "type": "uint256"
        },
        {
          "indexed": true,
          "internalType": "address",
          "name": "bidder",
          "type": "address"
        },
        {
          "indexed": false,
          "internalType": "uint256",
          "name": "amount",
          "type": "uint256"
        }
      ],
      "name": "BidPlaced",
      "type": "event"
    },
    {
      "anonymous": false,
      "inputs": [
        {
          "indexed": false,
          "internalType": "uint256",
          "name": "claimingPrice",
          "type": "uint256"
        }
      ],
      "name": "ClaimingPriceChanged",
      "type": "event"
    },
    {
      "anonymous": false,
      "inputs": [
        {
          "indexed": false,
          "internalType": "uint256",
          "name": "amount",
          "type": "uint256"
        }
      ],
      "name": "EngravingPriceChanged",
      "type": "event"
    },
    {
      "anonymous": false,
      "inputs": [
        {
          "indexed": false,
          "internalType": "uint256",
          "name": "amount",
          "type": "uint256"
        }
      ],
      "name": "ErasingPriceChanged",
      "type": "event"
    },
    {
      "anonymous": false,
      "inputs": [
        {
          "indexed": true,
          "internalType": "uint256",
          "name": "tokenId",
          "type": "uint256"
        },
        {
          "indexed": true,
          "internalType": "address",
          "name": "owner",
          "type": "address"
        },
        {
          "indexed": false,
          "internalType": "string",
          "name": "note",
          "type": "string"
        }
      ],
      "name": "NoteEngraved",
      "type": "event"
    },
    {
      "anonymous": false,
      "inputs": [
        {
          "indexed": true,
          "internalType": "uint256",
          "name": "tokenId",
          "type": "uint256"
        },
        {
          "indexed": true,
          "internalType": "address",
          "name": "owner",
          "type": "address"
        }
      ],
      "name": "NoteErased",
      "type": "event"
    },
    {
      "anonymous": false,
      "inputs": [
        {
          "indexed": false,
          "internalType": "uint256",
          "name": "length",
          "type": "uint256"
        }
      ],
      "name": "NoteSizeLimitChanged",
      "type": "event"
    },
    {
      "anonymous": false,
      "inputs": [
        {
          "indexed": true,
          "internalType": "address",
          "name": "previousOwner",
          "type": "address"
        },
        {
          "indexed": true,
          "internalType": "address",
          "name": "newOwner",
          "type": "address"
        }
      ],
      "name": "OwnershipTransferred",
      "type": "event"
    },
    {
      "anonymous": false,
      "inputs": [
        {
          "indexed": true,
          "internalType": "address",
          "name": "from",
          "type": "address"
        },
        {
          "indexed": true,
          "internalType": "address",
          "name": "to",
          "type": "address"
        },
        {
          "indexed": true,
          "internalType": "uint256",
          "name": "tokenId",
          "type": "uint256"
        }
      ],
      "name": "Transfer",
      "type": "event"
    },
    {
      "stateMutability": "payable",
      "type": "fallback"
    },
    {
      "inputs": [
        {
          "internalType": "address[]",
          "name": "addresses",
          "type": "address[]"
        },
        {
          "internalType": "uint256[]",
          "name": "tokenIds",
          "type": "uint256[]"
        }
      ],
      "name": "airdrop",
      "outputs": [],
      "stateMutability": "nonpayable",
      "type": "function"
    },
    {
      "inputs": [
        {
          "internalType": "address",
          "name": "to",
          "type": "address"
        },
        {
          "internalType": "uint256",
          "name": "tokenId",
          "type": "uint256"
        }
      ],
      "name": "approve",
      "outputs": [],
      "stateMutability": "nonpayable",
      "type": "function"
    },
    {
      "inputs": [
        {
          "internalType": "uint256",
          "name": "tokenId",
          "type": "uint256"
        }
      ],
      "name": "available",
      "outputs": [
        {
          "internalType": "bool",
          "name": "",
          "type": "bool"
        }
      ],
      "stateMutability": "view",
      "type": "function"
    },
    {
      "inputs": [
        {
          "internalType": "address",
          "name": "owner",
          "type": "address"
        }
      ],
      "name": "balanceOf",
      "outputs": [
        {
          "internalType": "uint256",
          "name": "",
          "type": "uint256"
        }
      ],
      "stateMutability": "view",
      "type": "function"
    },
    {
      "inputs": [
        {
          "internalType": "uint256",
          "name": "tokenId",
          "type": "uint256"
        }
      ],
      "name": "claim",
      "outputs": [],
      "stateMutability": "payable",
      "type": "function"
    },
    {
      "inputs": [],
      "name": "claimingPrice",
      "outputs": [
        {
          "internalType": "uint256",
          "name": "",
          "type": "uint256"
        }
      ],
      "stateMutability": "view",
      "type": "function"
    },
    {
      "inputs": [
        {
          "internalType": "uint256",
          "name": "_days",
          "type": "uint256"
        }
      ],
      "name": "daysToDate",
      "outputs": [
        {
          "internalType": "uint256",
          "name": "year",
          "type": "uint256"
        },
        {
          "internalType": "uint256",
          "name": "month",
          "type": "uint256"
        },
        {
          "internalType": "uint256",
          "name": "day",
          "type": "uint256"
        }
      ],
      "stateMutability": "pure",
      "type": "function"
    },
    {
      "inputs": [
        {
          "internalType": "uint256",
          "name": "tokenId",
          "type": "uint256"
        },
        {
          "internalType": "string",
          "name": "note",
          "type": "string"
        }
      ],
      "name": "engraveNote",
      "outputs": [],
      "stateMutability": "payable",
      "type": "function"
    },
    {
      "inputs": [],
      "name": "engravingPrice",
      "outputs": [
        {
          "internalType": "uint256",
          "name": "",
          "type": "uint256"
        }
      ],
      "stateMutability": "view",
      "type": "function"
    },
    {
      "inputs": [
        {
          "internalType": "uint256",
          "name": "tokenId",
          "type": "uint256"
        }
      ],
      "name": "eraseNote",
      "outputs": [],
      "stateMutability": "payable",
      "type": "function"
    },
    {
      "inputs": [],
      "name": "erasingPrice",
      "outputs": [
        {
          "internalType": "uint256",
          "name": "",
          "type": "uint256"
        }
      ],
      "stateMutability": "view",
      "type": "function"
    },
    {
      "inputs": [
        {
          "internalType": "string",
          "name": "symbol",
          "type": "string"
        }
      ],
      "name": "escapeQuotes",
      "outputs": [
        {
          "internalType": "string",
          "name": "",
          "type": "string"
        }
      ],
      "stateMutability": "pure",
      "type": "function"
    },
    {
      "inputs": [
        {
          "internalType": "string",
          "name": "s",
          "type": "string"
        }
      ],
      "name": "escapeXML",
      "outputs": [
        {
          "internalType": "string",
          "name": "",
          "type": "string"
        }
      ],
      "stateMutability": "pure",
      "type": "function"
    },
    {
      "inputs": [
        {
          "internalType": "uint256",
          "name": "tokenId",
          "type": "uint256"
        }
      ],
      "name": "exists",
      "outputs": [
        {
          "internalType": "bool",
          "name": "",
          "type": "bool"
        }
      ],
      "stateMutability": "view",
      "type": "function"
    },
    {
      "inputs": [
        {
          "internalType": "uint256",
          "name": "tokenId",
          "type": "uint256"
        }
      ],
      "name": "generateMetadata",
      "outputs": [
        {
          "internalType": "string",
          "name": "",
          "type": "string"
        }
      ],
      "stateMutability": "view",
      "type": "function"
    },
    {
      "inputs": [
        {
          "internalType": "uint256",
          "name": "tokenId",
          "type": "uint256"
        }
      ],
      "name": "generateSVGImage",
      "outputs": [
        {
          "internalType": "string",
          "name": "",
          "type": "string"
        }
      ],
      "stateMutability": "view",
      "type": "function"
    },
    {
      "inputs": [
        {
          "internalType": "uint256",
          "name": "tokenId",
          "type": "uint256"
        }
      ],
      "name": "getApproved",
      "outputs": [
        {
          "internalType": "address",
          "name": "",
          "type": "address"
        }
      ],
      "stateMutability": "view",
      "type": "function"
    },
    {
      "inputs": [],
      "name": "getCurrentAuctionTokenId",
      "outputs": [
        {
          "internalType": "uint256",
          "name": "",
          "type": "uint256"
        }
      ],
      "stateMutability": "view",
      "type": "function"
    },
    {
      "inputs": [],
      "name": "getCurrentMinimumBid",
      "outputs": [
        {
          "internalType": "uint256",
          "name": "amount",
          "type": "uint256"
        }
      ],
      "stateMutability": "view",
      "type": "function"
    },
    {
      "inputs": [
        {
          "internalType": "uint256",
          "name": "tokenId",
          "type": "uint256"
        }
      ],
      "name": "getDate",
      "outputs": [
        {
          "internalType": "string",
          "name": "",
          "type": "string"
        }
      ],
      "stateMutability": "pure",
      "type": "function"
    },
    {
      "inputs": [
        {
          "internalType": "uint256",
          "name": "tokenId",
          "type": "uint256"
        }
      ],
      "name": "getHighestBid",
      "outputs": [
        {
          "internalType": "address",
          "name": "bidder",
          "type": "address"
        },
        {
          "internalType": "uint256",
          "name": "amount",
          "type": "uint256"
        }
      ],
      "stateMutability": "view",
      "type": "function"
    },
    {
      "inputs": [
        {
          "internalType": "uint256",
          "name": "tokenId",
          "type": "uint256"
        }
      ],
      "name": "getNote",
      "outputs": [
        {
          "internalType": "string",
          "name": "",
          "type": "string"
        }
      ],
      "stateMutability": "view",
      "type": "function"
    },
    {
      "inputs": [
        {
          "internalType": "address",
          "name": "owner",
          "type": "address"
        },
        {
          "internalType": "address",
          "name": "operator",
          "type": "address"
        }
      ],
      "name": "isApprovedForAll",
      "outputs": [
        {
          "internalType": "bool",
          "name": "",
          "type": "bool"
        }
      ],
      "stateMutability": "view",
      "type": "function"
    },
    {
      "inputs": [],
      "name": "minBidIncrementBps",
      "outputs": [
        {
          "internalType": "uint256",
          "name": "",
          "type": "uint256"
        }
      ],
      "stateMutability": "view",
      "type": "function"
    },
    {
      "inputs": [],
      "name": "name",
      "outputs": [
        {
          "internalType": "string",
          "name": "",
          "type": "string"
        }
      ],
      "stateMutability": "view",
      "type": "function"
    },
    {
      "inputs": [],
      "name": "noteSizeLimit",
      "outputs": [
        {
          "internalType": "uint256",
          "name": "",
          "type": "uint256"
        }
      ],
      "stateMutability": "view",
      "type": "function"
    },
    {
      "inputs": [],
      "name": "owner",
      "outputs": [
        {
          "internalType": "address",
          "name": "",
          "type": "address"
        }
      ],
      "stateMutability": "view",
      "type": "function"
    },
    {
      "inputs": [
        {
          "internalType": "uint256",
          "name": "tokenId",
          "type": "uint256"
        }
      ],
      "name": "ownerOf",
      "outputs": [
        {
          "internalType": "address",
          "name": "",
          "type": "address"
        }
      ],
      "stateMutability": "view",
      "type": "function"
    },
    {
      "inputs": [],
      "name": "placeBid",
      "outputs": [],
      "stateMutability": "payable",
      "type": "function"
    },
    {
      "inputs": [],
      "name": "renounceOwnership",
      "outputs": [],
      "stateMutability": "nonpayable",
      "type": "function"
    },
    {
      "inputs": [],
      "name": "reservePrice",
      "outputs": [
        {
          "internalType": "uint256",
          "name": "",
          "type": "uint256"
        }
      ],
      "stateMutability": "view",
      "type": "function"
    },
    {
      "inputs": [],
      "name": "royaltyBps",
      "outputs": [
        {
          "internalType": "uint256",
          "name": "",
          "type": "uint256"
        }
      ],
      "stateMutability": "view",
      "type": "function"
    },
    {
      "inputs": [
        {
          "internalType": "uint256",
          "name": "tokenId",
          "type": "uint256"
        },
        {
          "internalType": "uint256",
          "name": "salePrice",
          "type": "uint256"
        }
      ],
      "name": "royaltyInfo",
      "outputs": [
        {
          "internalType": "address",
          "name": "receiver",
          "type": "address"
        },
        {
          "internalType": "uint256",
          "name": "royaltyAmount",
          "type": "uint256"
        }
      ],
      "stateMutability": "view",
      "type": "function"
    },
    {
      "inputs": [
        {
          "internalType": "address",
          "name": "from",
          "type": "address"
        },
        {
          "internalType": "address",
          "name": "to",
          "type": "address"
        },
        {
          "internalType": "uint256",
          "name": "tokenId",
          "type": "uint256"
        }
      ],
      "name": "safeTransferFrom",
      "outputs": [],
      "stateMutability": "nonpayable",
      "type": "function"
    },
    {
      "inputs": [
        {
          "internalType": "address",
          "name": "from",
          "type": "address"
        },
        {
          "internalType": "address",
          "name": "to",
          "type": "address"
        },
        {
          "internalType": "uint256",
          "name": "tokenId",
          "type": "uint256"
        },
        {
          "internalType": "bytes",
          "name": "_data",
          "type": "bytes"
        }
      ],
      "name": "safeTransferFrom",
      "outputs": [],
      "stateMutability": "nonpayable",
      "type": "function"
    },
    {
      "inputs": [
        {
          "internalType": "address",
          "name": "operator",
          "type": "address"
        },
        {
          "internalType": "bool",
          "name": "approved",
          "type": "bool"
        }
      ],
      "name": "setApprovalForAll",
      "outputs": [],
      "stateMutability": "nonpayable",
      "type": "function"
    },
    {
      "inputs": [
        {
          "internalType": "uint256",
          "name": "minBidIncrementBps_",
          "type": "uint256"
        }
      ],
      "name": "setAuctionMinBidIncrementBps",
      "outputs": [],
      "stateMutability": "nonpayable",
      "type": "function"
    },
    {
      "inputs": [
        {
          "internalType": "uint256",
          "name": "reservePrice_",
          "type": "uint256"
        }
      ],
      "name": "setAuctionReservePrice",
      "outputs": [],
      "stateMutability": "nonpayable",
      "type": "function"
    },
    {
      "inputs": [
        {
          "internalType": "uint256",
          "name": "claimingPrice_",
          "type": "uint256"
        }
      ],
      "name": "setClaimingPrice",
      "outputs": [],
      "stateMutability": "nonpayable",
      "type": "function"
    },
    {
      "inputs": [
        {
          "internalType": "uint256",
          "name": "engravingPrice_",
          "type": "uint256"
        }
      ],
      "name": "setEngravingPrice",
      "outputs": [],
      "stateMutability": "nonpayable",
      "type": "function"
    },
    {
      "inputs": [
        {
          "internalType": "uint256",
          "name": "erasingPrice_",
          "type": "uint256"
        }
      ],
      "name": "setErasingPrice",
      "outputs": [],
      "stateMutability": "nonpayable",
      "type": "function"
    },
    {
      "inputs": [
        {
          "internalType": "uint256",
          "name": "noteSizeLimit_",
          "type": "uint256"
        }
      ],
      "name": "setNoteSizeLimit",
      "outputs": [],
      "stateMutability": "nonpayable",
      "type": "function"
    },
    {
      "inputs": [
        {
          "internalType": "uint256",
          "name": "royaltyBps_",
          "type": "uint256"
        }
      ],
      "name": "setRoyaltyBps",
      "outputs": [],
      "stateMutability": "nonpayable",
      "type": "function"
    },
    {
      "inputs": [
        {
          "internalType": "string[]",
          "name": "svgImageTemplate_",
          "type": "string[]"
        }
      ],
      "name": "setSVGImageTemplate",
      "outputs": [],
      "stateMutability": "nonpayable",
      "type": "function"
    },
    {
      "inputs": [
        {
          "internalType": "string",
          "name": "tokenDescription_",
          "type": "string"
        }
      ],
      "name": "setTokenDescription",
      "outputs": [],
      "stateMutability": "nonpayable",
      "type": "function"
    },
    {
      "inputs": [],
      "name": "settleLastAuction",
      "outputs": [],
      "stateMutability": "nonpayable",
      "type": "function"
    },
    {
      "inputs": [
        {
          "internalType": "bytes4",
          "name": "interfaceId",
          "type": "bytes4"
        }
      ],
      "name": "supportsInterface",
      "outputs": [
        {
          "internalType": "bool",
          "name": "",
          "type": "bool"
        }
      ],
      "stateMutability": "view",
      "type": "function"
    },
    {
      "inputs": [
        {
          "internalType": "uint256",
          "name": "",
          "type": "uint256"
        }
      ],
      "name": "svgImageTemplate",
      "outputs": [
        {
          "internalType": "string",
          "name": "",
          "type": "string"
        }
      ],
      "stateMutability": "view",
      "type": "function"
    },
    {
      "inputs": [],
      "name": "symbol",
      "outputs": [
        {
          "internalType": "string",
          "name": "",
          "type": "string"
        }
      ],
      "stateMutability": "view",
      "type": "function"
    },
    {
      "inputs": [
        {
          "internalType": "uint256",
          "name": "index",
          "type": "uint256"
        }
      ],
      "name": "tokenByIndex",
      "outputs": [
        {
          "internalType": "uint256",
          "name": "",
          "type": "uint256"
        }
      ],
      "stateMutability": "view",
      "type": "function"
    },
    {
      "inputs": [],
      "name": "tokenDescription",
      "outputs": [
        {
          "internalType": "string",
          "name": "",
          "type": "string"
        }
      ],
      "stateMutability": "view",
      "type": "function"
    },
    {
      "inputs": [
        {
          "internalType": "address",
          "name": "owner",
          "type": "address"
        },
        {
          "internalType": "uint256",
          "name": "index",
          "type": "uint256"
        }
      ],
      "name": "tokenOfOwnerByIndex",
      "outputs": [
        {
          "internalType": "uint256",
          "name": "",
          "type": "uint256"
        }
      ],
      "stateMutability": "view",
      "type": "function"
    },
    {
      "inputs": [
        {
          "internalType": "uint256",
          "name": "tokenId",
          "type": "uint256"
        }
      ],
      "name": "tokenURI",
      "outputs": [
        {
          "internalType": "string",
          "name": "",
          "type": "string"
        }
      ],
      "stateMutability": "view",
      "type": "function"
    },
    {
      "inputs": [],
      "name": "totalSupply",
      "outputs": [
        {
          "internalType": "uint256",
          "name": "",
          "type": "uint256"
        }
      ],
      "stateMutability": "view",
      "type": "function"
    },
    {
      "inputs": [
        {
          "internalType": "address",
          "name": "from",
          "type": "address"
        },
        {
          "internalType": "address",
          "name": "to",
          "type": "address"
        },
        {
          "internalType": "uint256",
          "name": "tokenId",
          "type": "uint256"
        }
      ],
      "name": "transferFrom",
      "outputs": [],
      "stateMutability": "nonpayable",
      "type": "function"
    },
    {
      "inputs": [
        {
          "internalType": "address",
          "name": "newOwner",
          "type": "address"
        }
      ],
      "name": "transferOwnership",
      "outputs": [],
      "stateMutability": "nonpayable",
      "type": "function"
    },
    {
      "stateMutability": "payable",
      "type": "receive"
    }
  ],
  "transactionHash": "0xcff09b8dd0f4e831eb114f2d63c7b02374be1d53189e2e8d4d8e46dc9c23e16c",
  "args": [
    "0xc946805514C5Ca3E8157b739462F00b576658116",
    "0xC02aaA39b223FE8D0A0e5C4F27eAD9083C756Cc2",
    "0xFF9C1b15B16263C61d017ee9F65C50e4AE0113D7"
  ],
  "solcInputHash": "51ddeb58631a7e20cff010bd84ba53ee",
  "bytecode": "0x662386f26fc10000600c819055600d556103e8600e81905566b1a2bc2ec50000600f5567016345785d8a000060105560646011556012556102e06040526101d560e081815290620051b2610100398051620000639160139160209091019062000268565b5060408051610200810190915261013360a0820181815282916200538760c08401398152602001604051806040016040528060088152602001677b7b646174657d7d60c01b81525081526020016040518060600160405280603b8152602001620054ba603b91398152602001604051806040016040528060088152602001677b7b6e6f74657d7d60c01b81525081526020016040518060400160405280600d81526020016c1e17ba32bc3a1f1e17b9bb339f60991b815250815250601490600562000130929190620002f7565b5060006018553480156200014357600080fd5b50604051620054f5380380620054f58339810160408190526200016691620003ee565b6040805180820182526008815267546865204461746560c01b6020808301918252835180850190945260048452634441544560e01b908401528151919291620001b29160009162000268565b508051620001c890600190602084019062000268565b505050620001e5620001df6200021260201b60201c565b62000216565b6001600b556001600160601b0319606093841b811660805291831b821660a05290911b1660c05262000474565b3390565b600a80546001600160a01b038381166001600160a01b0319831681179093556040519116919082907f8be0079c531659141344cd1fd0a4f28419497f9722a3daafe3b4186f6b6457e090600090a35050565b828054620002769062000437565b90600052602060002090601f0160209004810192826200029a5760008555620002e5565b82601f10620002b557805160ff1916838001178555620002e5565b82800160010185558215620002e5579182015b82811115620002e5578251825591602001919060010190620002c8565b50620002f392915062000357565b5090565b82805482825590600052602060002090810192821562000349579160200282015b828111156200034957825180516200033891849160209091019062000268565b509160200191906001019062000318565b50620002f39291506200036e565b5b80821115620002f3576000815560010162000358565b80821115620002f35760006200038582826200038f565b506001016200036e565b5080546200039d9062000437565b6000825580601f10620003ae575050565b601f016020900490600052602060002090810190620003ce919062000357565b50565b80516001600160a01b0381168114620003e957600080fd5b919050565b60008060006060848603121562000403578283fd5b6200040e84620003d1565b92506200041e60208501620003d1565b91506200042e60408501620003d1565b90509250925092565b600181811c908216806200044c57607f821691505b602082108114156200046e57634e487b7160e01b600052602260045260246000fd5b50919050565b60805160601c60a05160601c60c05160601c614ce2620004d060003960006113b9015260008181612dd00152612e650152600081816111b3015281816114ce0152818161171101528181612b1a01526137700152614ce26000f3fe60806040526004361061033e5760003560e01c806367243482116101ae578063a8818847116100eb578063db2e1eed1161008f578063f070d81d1161006c578063f070d81d146109bd578063f2fde38b146109d0578063f3f5d36b146109f0578063fc43dbd014610a0657005b8063db2e1eed14610956578063e985e9c51461096c578063ecfc7ecc146109b557005b8063b88d4fde116100c8578063b88d4fde146108ea578063c63adb2b1461090a578063c87b56dd14610920578063da7a739f1461094057005b8063a881884714610894578063a965a941146108aa578063aed80c55146108ca57005b806395d89b41116101525780639daec71e1161012f5780639daec71e1461081f5780639dc3d8121461083f578063a22cb4651461085f578063a74a3e9f1461087f57005b806395d89b41146107ca57806396e494e8146107df578063970c4310146107ff57005b80637a9ae2401161018b5780637a9ae240146107325780638da5cb5b146107525780638dfd1ec8146107705780638f2886441461078657005b806367243482146106dd57806370a08231146106fd578063715018a61461071d57005b80632b57298b1161027c57806347b89031116102205780634f558e79116101fd5780634f558e791461065d5780634f6ccce71461067d578063598acd261461069d5780636352211e146106bd57005b806347b89031146105fd578063499305c41461061d5780634d58364b1461063d57005b8063396961a311610259578063396961a3146105955780633c085e12146105aa5780633fe800ef146105bd57806342842e0e146105dd57005b80632b57298b146105425780632f745c5914610562578063379607f51461058257005b806318160ddd116102e35780631f72d831116102c05780631f72d831146104ae57806323b872dd146104ce57806325e6f516146104ee5780632a55205a1461050357005b806318160ddd146104635780631c117150146104785780631e826bc01461048e57005b806306fdde031161031c57806306fdde03146103d3578063081812fc146103e85780630954305d14610420578063095ea7b31461044357005b8062d5da021461034d578063015e1a0b1461036d57806301ffc9a7146103a357005b3661034b5761034b610a41565b005b34801561035957600080fd5b5061034b6103683660046143f5565b610c0f565b34801561037957600080fd5b5061038d610388366004614428565b610c50565b60405161039a919061481d565b60405180910390f35b3480156103af57600080fd5b506103c36103be3660046143bd565b610d89565b604051901515815260200161039a565b3480156103df57600080fd5b5061038d610db5565b3480156103f457600080fd5b50610408610403366004614428565b610e47565b6040516001600160a01b03909116815260200161039a565b34801561042c57600080fd5b50610435610ecf565b60405190815260200161039a565b34801561044f57600080fd5b5061034b61045e366004614206565b610ee3565b34801561046f57600080fd5b50600854610435565b34801561048457600080fd5b50610435600e5481565b34801561049a57600080fd5b5061034b6104a9366004614428565b610ff9565b3480156104ba57600080fd5b5061034b6104c9366004614428565b61105f565b3480156104da57600080fd5b5061034b6104e936600461411c565b6110ef565b3480156104fa57600080fd5b5061038d611120565b34801561050f57600080fd5b5061052361051e366004614493565b6111ae565b604080516001600160a01b03909316835260208301919091520161039a565b34801561054e57600080fd5b5061038d61055d366004614428565b6111f8565b34801561056e57600080fd5b5061043561057d366004614206565b6112c0565b61034b610590366004614428565b611356565b3480156105a157600080fd5b5061034b61154d565b61034b6105b8366004614428565b6115bd565b3480156105c957600080fd5b5061038d6105d8366004614428565b61179d565b3480156105e957600080fd5b5061034b6105f836600461411c565b611af8565b34801561060957600080fd5b5061038d6106183660046143f5565b611b13565b34801561062957600080fd5b5061034b6106383660046142f0565b611d0d565b34801561064957600080fd5b5061038d610658366004614428565b611d4a565b34801561066957600080fd5b506103c3610678366004614428565b611d75565b34801561068957600080fd5b50610435610698366004614428565b611d80565b3480156106a957600080fd5b5061034b6106b8366004614428565b611e21565b3480156106c957600080fd5b506104086106d8366004614428565b611e80565b3480156106e957600080fd5b5061034b6106f836600461422f565b611ef7565b34801561070957600080fd5b506104356107183660046140d0565b612012565b34801561072957600080fd5b5061034b612099565b34801561073e57600080fd5b5061034b61074d366004614428565b6120cf565b34801561075e57600080fd5b50600a546001600160a01b0316610408565b34801561077c57600080fd5b50610435600c5481565b34801561079257600080fd5b506105236107a1366004614428565b6000908152601660209081526040808320546017909252909120546001600160a01b0390911691565b3480156107d657600080fd5b5061038d61212e565b3480156107eb57600080fd5b506103c36107fa366004614428565b61213d565b34801561080b57600080fd5b5061034b61081a366004614428565b61219d565b34801561082b57600080fd5b5061034b61083a366004614428565b6121fc565b34801561084b57600080fd5b5061034b61085a366004614428565b61225b565b34801561086b57600080fd5b5061034b61087a3660046141d0565b6122ba565b34801561088b57600080fd5b5061043561237f565b3480156108a057600080fd5b5061043560105481565b3480156108b657600080fd5b5061038d6108c5366004614428565b6123df565b3480156108d657600080fd5b5061038d6108e53660046143f5565b612481565b3480156108f657600080fd5b5061034b610905366004614157565b61269b565b34801561091657600080fd5b5061043560125481565b34801561092c57600080fd5b5061038d61093b366004614428565b6126d3565b34801561094c57600080fd5b50610435600f5481565b34801561096257600080fd5b50610435600d5481565b34801561097857600080fd5b506103c36109873660046140ea565b6001600160a01b03918216600090815260056020908152604080832093909416825291909152205460ff1690565b61034b610a41565b61034b6109cb366004614458565b612758565b3480156109dc57600080fd5b5061034b6109eb3660046140d0565b612bb4565b3480156109fc57600080fd5b5061043560115481565b348015610a1257600080fd5b50610a26610a21366004614428565b612c4c565b6040805193845260208401929092529082015260600161039a565b6002600b541415610a6d5760405162461bcd60e51b8152600401610a6490614951565b60405180910390fd5b6002600b556000610a816201518042614a64565b600d549091503490811015610ad85760405162461bcd60e51b815260206004820181905260248201527f4d7573742073656e64206d6f7265207468616e207265736572766550726963656044820152606401610a64565b610ae061237f565b811015610b4a5760405162461bcd60e51b815260206004820152603260248201527f4d7573742073656e64206d6f7265207468616e206c61737420626964206279206044820152716d696e426964496e6372656d656e7442707360701b6064820152608401610a64565b6000828152601660205260409020546001600160a01b0316610b7857610b6e61154d565b6018829055610ba6565b600082815260166020908152604080832054601790925290912054610ba6916001600160a01b031690612dc0565b600082815260166020908152604080832080546001600160a01b0319163390811790915560178352928190208490555183815284917f0e54eff26401bf69b81b26f60bd85ef47f5d85275c1d268d84f68d6897431c47910160405180910390a350506001600b55565b600a546001600160a01b03163314610c395760405162461bcd60e51b8152600401610a64906148cb565b8051610c4c906013906020840190613e85565b5050565b6060610c5b82612ee5565b610ca15760405162461bcd60e51b81526020600482015260176024820152761d1bdad95b9259081a5cc81b9bdb8b595e1a5cdd195b9d604a1b6044820152606401610a64565b6000610cb4610caf8461179d565b612f02565b90506000610cc184613078565b610cca856111f8565b610d5d60138054610cda90614b9c565b80601f0160208091040260200160405190810160405280929190818152602001828054610d0690614b9c565b8015610d535780601f10610d2857610100808354040283529160200191610d53565b820191906000526020600020905b815481529060010190602001808311610d3657829003601f168201915b5050505050611b13565b84604051602001610d7194939291906146aa565b60408051601f19818403018152919052949350505050565b6000610d948261319a565b80610daf575063152a902d60e11b6001600160e01b03198316145b92915050565b606060008054610dc490614b9c565b80601f0160208091040260200160405190810160405280929190818152602001828054610df090614b9c565b8015610e3d5780601f10610e1257610100808354040283529160200191610e3d565b820191906000526020600020905b815481529060010190602001808311610e2057829003601f168201915b5050505050905090565b6000610e5282612ee5565b610eb35760405162461bcd60e51b815260206004820152602c60248201527f4552433732313a20617070726f76656420717565727920666f72206e6f6e657860448201526b34b9ba32b73a103a37b5b2b760a11b6064820152608401610a64565b506000908152600460205260409020546001600160a01b031690565b6000610ede6201518042614a64565b905090565b6000610eee82611e80565b9050806001600160a01b0316836001600160a01b03161415610f5c5760405162461bcd60e51b815260206004820152602160248201527f4552433732313a20617070726f76616c20746f2063757272656e74206f776e656044820152603960f91b6064820152608401610a64565b336001600160a01b0382161480610f785750610f788133610987565b610fea5760405162461bcd60e51b815260206004820152603860248201527f4552433732313a20617070726f76652063616c6c6572206973206e6f74206f7760448201527f6e6572206e6f7220617070726f76656420666f7220616c6c00000000000000006064820152608401610a64565b610ff483836131bf565b505050565b600a546001600160a01b031633146110235760405162461bcd60e51b8152600401610a64906148cb565b600c8190556040518181527f696ca9f32ad4aedb63d39a2bc82f3a93b74dd917d4c64f03b7dd37a2bfa79c3e906020015b60405180910390a150565b600a546001600160a01b031633146110895760405162461bcd60e51b8152600401610a64906148cb565b6127108111156110ea5760405162461bcd60e51b815260206004820152602660248201527f726f79616c74794270732073686f756c642062652077697468696e205b302c2060448201526531303030305d60d01b6064820152608401610a64565b601255565b6110f9338261322d565b6111155760405162461bcd60e51b8152600401610a6490614900565b610ff4838383613313565b6013805461112d90614b9c565b80601f016020809104026020016040519081016040528092919081815260200182805461115990614b9c565b80156111a65780601f1061117b576101008083540402835291602001916111a6565b820191906000526020600020905b81548152906001019060200180831161118957829003601f168201915b505050505081565b6000807f0000000000000000000000000000000000000000000000000000000000000000612710601254856111e39190614afb565b6111ed9190614a64565b915091509250929050565b6060600080600061120885612c4c565b925092509250600061121984613078565b9050600061122684613078565b905080516001141561125557806040516020016112439190614681565b60405160208183030381529060405290505b600061126084613078565b905080516001141561128f578060405160200161127d9190614681565b60405160208183030381529060405290505b8282826040516020016112a4939291906145fe565b6040516020818303038152906040529650505050505050919050565b60006112cb83612012565b821061132d5760405162461bcd60e51b815260206004820152602b60248201527f455243373231456e756d657261626c653a206f776e657220696e646578206f7560448201526a74206f6620626f756e647360a81b6064820152608401610a64565b506001600160a01b03919091166000908152600660209081526040808320938352929052205490565b6002600b5414156113795760405162461bcd60e51b8152600401610a6490614951565b6002600b5533611391600a546001600160a01b031690565b6001600160a01b0316148061143d57506040516370a0823160e01b81523360048201526000907f00000000000000000000000000000000000000000000000000000000000000006001600160a01b0316906370a082319060240160206040518083038186803b15801561140357600080fd5b505afa158015611417573d6000803e3d6000fd5b505050506040513d601f19601f8201168201806040525081019061143b9190614440565b115b8061144a5750600c543410155b6114a95760405162461bcd60e51b815260206004820152602a60248201527f53686f756c642070617920636c61696d696e675072696365206f72206f776e206044820152691848131bdbdd0813919560b21b6064820152608401610a64565b6114b161154d565b6114bb33826134be565b3415611518576040516001600160a01b037f000000000000000000000000000000000000000000000000000000000000000016903480156108fc02916000818181858888f19350505050158015611516573d6000803e3d6000fd5b505b604051339082907fce8230f82e484df1d81d3f449132eed44e758f95df463079b72a869f75d341cf90600090a3506001600b55565b6018548061155e6201518042614a64565b11801561158157506000818152601660205260409020546001600160a01b031615155b801561159a575060008181526017602052604090205415155b80156115ac57506115aa81612ee5565b155b156115ba576115ba816135f6565b50565b80336115c882611e80565b6001600160a01b0316146115ee5760405162461bcd60e51b8152600401610a6490614882565b33611601600a546001600160a01b031690565b6001600160a01b0316148061161857506010543410155b6116645760405162461bcd60e51b815260206004820152601760248201527f53686f756c64207061792065726173696e6750726963650000000000000000006044820152606401610a64565b6000828152601560205260408120805461167d90614b9c565b9050116116db5760405162461bcd60e51b815260206004820152602660248201527f4e6f74652073686f756c64206265206e6f6e656d707479206265666f72652065604482015265726173696e6760d01b6064820152608401610a64565b6040805160208082018084526000808452868152601590925292902090516117039290613e85565b506040516001600160a01b037f000000000000000000000000000000000000000000000000000000000000000016903480156108fc02916000818181858888f19350505050158015611759573d6000803e3d6000fd5b5061176382611e80565b6001600160a01b0316827ff5cd03e250f4dc67cb934696b1ae84a530d007600f8c2b64cb1097e04cd49ae960405160405180910390a35050565b60606117a882612ee5565b6117ee5760405162461bcd60e51b81526020600482015260176024820152761d1bdad95b9259081a5cc81b9bdb8b595e1a5cdd195b9d604a1b6044820152606401610a64565b60006117f9836111f8565b90506000611806846123df565b60408051602081019091526000808252919250905b601454811015611aef5760606119046014838154811061184b57634e487b7160e01b600052603260045260246000fd5b90600052602060002001805461186090614b9c565b80601f016020809104026020016040519081016040528092919081815260200182805461188c90614b9c565b80156118d95780601f106118ae576101008083540402835291602001916118d9565b820191906000526020600020905b8154815290600101906020018083116118bc57829003601f168201915b5050505050604051806040016040528060088152602001677b7b646174657d7d60c01b815250613814565b15611910575083611ab9565b6119ed6014838154811061193457634e487b7160e01b600052603260045260246000fd5b90600052602060002001805461194990614b9c565b80601f016020809104026020016040519081016040528092919081815260200182805461197590614b9c565b80156119c25780601f10611997576101008083540402835291602001916119c2565b820191906000526020600020905b8154815290600101906020018083116119a557829003601f168201915b5050505050604051806040016040528060088152602001677b7b6e6f74657d7d60c01b815250613814565b15611a02576119fb84612481565b9050611ab9565b60148281548110611a2357634e487b7160e01b600052603260045260246000fd5b906000526020600020018054611a3890614b9c565b80601f0160208091040260200160405190810160405280929190818152602001828054611a6490614b9c565b8015611ab15780601f10611a8657610100808354040283529160200191611ab1565b820191906000526020600020905b815481529060010190602001808311611a9457829003601f168201915b505050505090505b8281604051602001611acc92919061452b565b60405160208183030381529060405292505080611ae890614bd7565b905061181b565b50949350505050565b610ff48383836040518060200160405280600081525061269b565b6060816000805b8251811015611b7e57828181518110611b4357634e487b7160e01b600052603260045260246000fd5b6020910101516001600160f81b031916601160f91b1415611b6c5781611b6881614bd7565b9250505b80611b7681614bd7565b915050611b1a565b508015611d05576000818351611b949190614a1e565b67ffffffffffffffff811115611bba57634e487b7160e01b600052604160045260246000fd5b6040519080825280601f01601f191660200182016040528015611be4576020820181803683370190505b5090506000805b8451811015611cfa57848181518110611c1457634e487b7160e01b600052603260045260246000fd5b6020910101516001600160f81b031916601160f91b1415611c7757601760fa1b8383611c3f81614bd7565b945081518110611c5f57634e487b7160e01b600052603260045260246000fd5b60200101906001600160f81b031916908160001a9053505b848181518110611c9757634e487b7160e01b600052603260045260246000fd5b01602001516001600160f81b0319168383611cb181614bd7565b945081518110611cd157634e487b7160e01b600052603260045260246000fd5b60200101906001600160f81b031916908160001a90535080611cf281614bd7565b915050611beb565b509095945050505050565b509192915050565b600a546001600160a01b03163314611d375760405162461bcd60e51b8152600401610a64906148cb565b8051610c4c906014906020840190613f09565b60148181548110611d5a57600080fd5b90600052602060002001600091509050805461112d90614b9c565b6000610daf82612ee5565b6000611d8b60085490565b8210611dee5760405162461bcd60e51b815260206004820152602c60248201527f455243373231456e756d657261626c653a20676c6f62616c20696e646578206f60448201526b7574206f6620626f756e647360a01b6064820152608401610a64565b60088281548110611e0f57634e487b7160e01b600052603260045260246000fd5b90600052602060002001549050919050565b600a546001600160a01b03163314611e4b5760405162461bcd60e51b8152600401610a64906148cb565b600f8190556040518181527f6ea43baebf767c8984d2da6f4e06b71e7093fcb9d3c0c516cd51ac6b15fa11d790602001611054565b6000818152600260205260408120546001600160a01b031680610daf5760405162461bcd60e51b815260206004820152602960248201527f4552433732313a206f776e657220717565727920666f72206e6f6e657869737460448201526832b73a103a37b5b2b760b91b6064820152608401610a64565b6002600b541415611f1a5760405162461bcd60e51b8152600401610a6490614951565b6002600b55600a546001600160a01b03163314611f495760405162461bcd60e51b8152600401610a64906148cb565b611f5161154d565b60005b8151811015612008576000838281518110611f7f57634e487b7160e01b600052603260045260246000fd5b602002602001015190506000838381518110611fab57634e487b7160e01b600052603260045260246000fd5b60200260200101519050611fbf82826134be565b6040516001600160a01b0383169082907f6f1a5977e7036a4d672e1db1ca046ec0bd742ef9a38fe8d46823fd17dae6083190600090a350508061200190614bd7565b9050611f54565b50506001600b5550565b60006001600160a01b03821661207d5760405162461bcd60e51b815260206004820152602a60248201527f4552433732313a2062616c616e636520717565727920666f7220746865207a65604482015269726f206164647265737360b01b6064820152608401610a64565b506001600160a01b031660009081526003602052604090205490565b600a546001600160a01b031633146120c35760405162461bcd60e51b8152600401610a64906148cb565b6120cd6000613879565b565b600a546001600160a01b031633146120f95760405162461bcd60e51b8152600401610a64906148cb565b60118190556040518181527f808020969425956198bf055c9d59c389614dd21f915904f05b2d21ea161cd4ec90602001611054565b606060018054610dc490614b9c565b600061214c6201518042614a64565b8210801561218657506000828152601660205260409020546001600160a01b03161580156121865750600082815260176020526040902054155b8015610daf575061219682612ee5565b1592915050565b600a546001600160a01b031633146121c75760405162461bcd60e51b8152600401610a64906148cb565b600e8190556040518181527ff4ec2a844abf83d803887787f1c1ce8de91c40e66ea4a395779beb8c0d904a4190602001611054565b600a546001600160a01b031633146122265760405162461bcd60e51b8152600401610a64906148cb565b600d8190556040518181527f921c658aa55473adf5c5112e48ef56de846ddb3e4e57e8888cb24a81b3b2727390602001611054565b600a546001600160a01b031633146122855760405162461bcd60e51b8152600401610a64906148cb565b60108190556040518181527f1b5c73c6da4bab6f305baea61b3dfd41973701830ad8e35dfdf24eba3d3d6de090602001611054565b6001600160a01b0382163314156123135760405162461bcd60e51b815260206004820152601960248201527f4552433732313a20617070726f766520746f2063616c6c6572000000000000006044820152606401610a64565b3360008181526005602090815260408083206001600160a01b03871680855290835292819020805460ff191686151590811790915590519081529192917f17307eab39ab6107e8899845ad3d59bd9653f200f220920489ca2b5937696c31910160405180910390a35050565b60008061238f6201518042614a64565b90506000612710600e546127106123a69190614a1e565b6000848152601760205260409020546123bf9190614afb565b6123c99190614a64565b905080600d541115610daf5750600d5492915050565b60008181526015602052604090208054606091906123fc90614b9c565b80601f016020809104026020016040519081016040528092919081815260200182805461242890614b9c565b80156124755780601f1061244a57610100808354040283529160200191612475565b820191906000526020600020905b81548152906001019060200180831161245857829003601f168201915b50505050509050919050565b6040805160208101909152600080825260609183915b8251811015612693578281815181106124c057634e487b7160e01b600052603260045260246000fd5b6020910101516001600160f81b031916600f60fa1b141561250257816040516020016124ec9190614584565b6040516020818303038152906040529150612681565b82818151811061252257634e487b7160e01b600052603260045260246000fd5b6020910101516001600160f81b031916601f60f91b141561254e57816040516020016124ec91906145ac565b82818151811061256e57634e487b7160e01b600052603260045260246000fd5b6020910101516001600160f81b031916601360f91b141561259a57816040516020016124ec9190614658565b8281815181106125ba57634e487b7160e01b600052603260045260246000fd5b6020910101516001600160f81b031916601160f91b14156125e657816040516020016124ec91906145d4565b82818151811061260657634e487b7160e01b600052603260045260246000fd5b6020910101516001600160f81b031916602760f81b141561263257816040516020016124ec919061455a565b8183828151811061265357634e487b7160e01b600052603260045260246000fd5b602001015160f81c60f81b60405160200161266f9291906144fc565b60405160208183030381529060405291505b8061268b81614bd7565b915050612497565b509392505050565b6126a5338361322d565b6126c15760405162461bcd60e51b8152600401610a6490614900565b6126cd848484846138cb565b50505050565b60606126de82612ee5565b6127235760405162461bcd60e51b81526020600482015260166024820152751d1bdad95b9259081a5cc81b9bdb995e1a5cdd195b9d60521b6044820152606401610a64565b6000612731610caf84610c50565b604051602001612741919061479b565b60408051601f198184030181529190529392505050565b813361276382611e80565b6001600160a01b0316146127895760405162461bcd60e51b8152600401610a6490614882565b60115482518391829111156127f25760405162461bcd60e51b815260206004820152602960248201527f4e6f74652073686f756c642062652073686f72746572207468616e206e6f746560448201526814da5e99531a5b5a5d60ba1b6064820152608401610a64565b60005b8151811015612a0057602060f81b82828151811061282357634e487b7160e01b600052603260045260246000fd5b01602001516001600160f81b03191610801590612873575081818151811061285b57634e487b7160e01b600052603260045260246000fd5b6020910101516001600160f81b031916607f60f81b14155b6128e15760405162461bcd60e51b815260206004820152603960248201527f546865726520697320433020636f6e74726f6c206368617261637465722e20506044820152783934b73a30b136329031b430b930b1ba32b9399037b7363c9760391b6064820152608401610a64565b81818151811061290157634e487b7160e01b600052603260045260246000fd5b6020910101516001600160f81b031916606160f91b14801561292d5750815161292b826001614a1e565b105b156129ee57600560fd1b82612943836001614a1e565b8151811061296157634e487b7160e01b600052603260045260246000fd5b01602001516001600160f81b03191610156129e05760405162461bcd60e51b815260206004820152603960248201527f546865726520697320433120636f6e74726f6c206368617261637465722e20506044820152783934b73a30b136329031b430b930b1ba32b9399037b7363c9760391b6064820152608401610a64565b806129ea81614bd7565b9150505b806129f881614bd7565b9150506127f5565b5033612a14600a546001600160a01b031690565b6001600160a01b03161480612a2b5750600f543410155b612a775760405162461bcd60e51b815260206004820152601960248201527f53686f756c642070617920656e67726176696e675072696365000000000000006044820152606401610a64565b60008581526015602052604090208054612a9090614b9c565b159050612aed5760405162461bcd60e51b815260206004820152602560248201527f4e6f74652073686f756c6420626520656d707479206265666f726520656e67726044820152646176696e6760d81b6064820152608401610a64565b60008581526015602090815260409091208551612b0c92870190613e85565b506040516001600160a01b037f000000000000000000000000000000000000000000000000000000000000000016903480156108fc02916000818181858888f19350505050158015612b62573d6000803e3d6000fd5b50612b6c85611e80565b6001600160a01b0316857fed9e0bea058528ee91b5c24513bbdb6ad21da03e6bc7108b7623af9d1231e07b86604051612ba5919061481d565b60405180910390a35050505050565b600a546001600160a01b03163314612bde5760405162461bcd60e51b8152600401610a64906148cb565b6001600160a01b038116612c435760405162461bcd60e51b815260206004820152602660248201527f4f776e61626c653a206e6577206f776e657220697320746865207a65726f206160448201526564647265737360d01b6064820152608401610a64565b6115ba81613879565b60008080838162253d8c612c638362010bd96149dd565b612c6d91906149dd565b9050600062023ab1612c80836004614a78565b612c8a9190614a36565b90506004612c9b8262023ab1614a78565b612ca69060036149dd565b612cb09190614a36565b612cba9083614b1a565b9150600062164b09612ccd8460016149dd565b612cd990610fa0614a78565b612ce39190614a36565b90506004612cf3826105b5614a78565b612cfd9190614a36565b612d079084614b1a565b612d1290601f6149dd565b9250600061098f612d24856050614a78565b612d2e9190614a36565b905060006050612d408361098f614a78565b612d4a9190614a36565b612d549086614b1a565b9050612d61600b83614a36565b9450612d6e85600c614a78565b612d798360026149dd565b612d839190614b1a565b91508483612d92603187614b1a565b612d9d906064614a78565b612da791906149dd565b612db191906149dd565b9a919950975095505050505050565b612dca82826138fe565b610c4c577f00000000000000000000000000000000000000000000000000000000000000006001600160a01b031663d0e30db0826040518263ffffffff1660e01b81526004016000604051808303818588803b158015612e2957600080fd5b505af1158015612e3d573d6000803e3d6000fd5b505060405163a9059cbb60e01b81526001600160a01b038681166004830152602482018690527f000000000000000000000000000000000000000000000000000000000000000016935063a9059cbb92506044019050602060405180830381600087803b158015612ead57600080fd5b505af1158015612ec1573d6000803e3d6000fd5b505050506040513d601f19601f82011682018060405250810190610ff491906143a1565b6000908152600260205260409020546001600160a01b0316151590565b6060815160001415612f2257505060408051602081019091526000815290565b6000604051806060016040528060408152602001614c6d6040913990506000600384516002612f519190614a1e565b612f5b9190614a64565b612f66906004614afb565b90506000612f75826020614a1e565b67ffffffffffffffff811115612f9b57634e487b7160e01b600052604160045260246000fd5b6040519080825280601f01601f191660200182016040528015612fc5576020820181803683370190505b509050818152600183018586518101602084015b818310156130335760039283018051603f601282901c811687015160f890811b8552600c83901c8216880151811b6001860152600683901c8216880151811b60028601529116860151901b93820193909352600401612fd9565b60038951066001811461304d576002811461305e5761306a565b613d3d60f01b60011983015261306a565b603d60f81b6000198301525b509398975050505050505050565b60608161309c5750506040805180820190915260018152600360fc1b602082015290565b8160005b81156130c657806130b081614bd7565b91506130bf9050600a83614a64565b91506130a0565b60008167ffffffffffffffff8111156130ef57634e487b7160e01b600052604160045260246000fd5b6040519080825280601f01601f191660200182016040528015613119576020820181803683370190505b5090505b84156131925761312e600183614b59565b915061313b600a86614bf2565b613146906030614a1e565b60f81b81838151811061316957634e487b7160e01b600052603260045260246000fd5b60200101906001600160f81b031916908160001a90535061318b600a86614a64565b945061311d565b949350505050565b60006001600160e01b0319821663780e9d6360e01b1480610daf5750610daf8261396c565b600081815260046020526040902080546001600160a01b0319166001600160a01b03841690811790915581906131f482611e80565b6001600160a01b03167f8c5be1e5ebec7d5bd14f71427d1e84f3dd0314c0f7b2291e5b200ac8c7c3b92560405160405180910390a45050565b600061323882612ee5565b6132995760405162461bcd60e51b815260206004820152602c60248201527f4552433732313a206f70657261746f7220717565727920666f72206e6f6e657860448201526b34b9ba32b73a103a37b5b2b760a11b6064820152608401610a64565b60006132a483611e80565b9050806001600160a01b0316846001600160a01b031614806132df5750836001600160a01b03166132d484610e47565b6001600160a01b0316145b8061319257506001600160a01b0380821660009081526005602090815260408083209388168352929052205460ff16613192565b826001600160a01b031661332682611e80565b6001600160a01b03161461338e5760405162461bcd60e51b815260206004820152602960248201527f4552433732313a207472616e73666572206f6620746f6b656e2074686174206960448201526839903737ba1037bbb760b91b6064820152608401610a64565b6001600160a01b0382166133f05760405162461bcd60e51b8152602060048201526024808201527f4552433732313a207472616e7366657220746f20746865207a65726f206164646044820152637265737360e01b6064820152608401610a64565b6133fb8383836139bc565b6134066000826131bf565b6001600160a01b038316600090815260036020526040812080546001929061342f908490614b59565b90915550506001600160a01b038216600090815260036020526040812080546001929061345d908490614a1e565b909155505060008181526002602052604080822080546001600160a01b0319166001600160a01b0386811691821790925591518493918716917fddf252ad1be2c89b69c2b068fc378daa952ba7f163c4a11628f55a4df523b3ef91a4505050565b6134cb6201518042614a64565b81106135195760405162461bcd60e51b815260206004820152601e60248201527f4f6e6c79207061737420746f6b656e496420697320636c61696d61626c6500006044820152606401610a64565b6000818152601660205260409020546001600160a01b031615801561354a5750600081815260176020526040902054155b6135965760405162461bcd60e51b815260206004820152601f60248201527f746f6b656e49642073686f756c64206e6f742062652061756374696f6e6564006044820152606401610a64565b61359f81612ee5565b156135ec5760405162461bcd60e51b815260206004820152601d60248201527f746f6b656e49642073686f756c64206e6f7420626520636c61696d65640000006044820152606401610a64565b610c4c82826139c7565b806136046201518042614a64565b116136495760405162461bcd60e51b8152602060048201526015602482015274105d58dd1a5bdb881b9bdd081e595d08195b991959605a1b6044820152606401610a64565b6000818152601660205260409020546001600160a01b03161580159061367c575060008181526017602052604090205415155b6136dc5760405162461bcd60e51b815260206004820152602b60248201527f54686572652073686f756c64206265206174206c65617374206120626964206660448201526a6f7220746865206461746560a81b6064820152608401610a64565b6136e581612ee5565b156137325760405162461bcd60e51b815260206004820152601e60248201527f53686f756c64206e6f74207265636c61696d207468652061756374696f6e00006044820152606401610a64565b600081815260166020526040902054613754906001600160a01b0316826139c7565b6000818152601760205260408082205490516001600160a01b037f0000000000000000000000000000000000000000000000000000000000000000169282156108fc02929190818181858888f193505050501580156137b7573d6000803e3d6000fd5b5060008181526016602090815260408083205460178352928190205490519081526001600160a01b039092169183917fc9f72b276a388619c6d185d146697036241880c36654b1a3ffdad07c24038d99910160405180910390a350565b60008151835114801561387257508160405160200161383391906144e0565b604051602081830303815290604052805190602001208360405160200161385a91906144e0565b60405160208183030381529060405280519060200120145b9392505050565b600a80546001600160a01b038381166001600160a01b0319831681179093556040519116919082907f8be0079c531659141344cd1fd0a4f28419497f9722a3daafe3b4186f6b6457e090600090a35050565b6138d6848484613313565b6138e284848484613b06565b6126cd5760405162461bcd60e51b8152600401610a6490614830565b6040805160008082526020820190925281906001600160a01b0385169061753090859060405161392e91906144e0565b600060405180830381858888f193505050503d8060008114611cfa576040519150601f19603f3d011682016040523d82523d6000602084013e611cfa565b60006001600160e01b031982166380ac58cd60e01b148061399d57506001600160e01b03198216635b5e139f60e01b145b80610daf57506301ffc9a760e01b6001600160e01b0319831614610daf565b610ff4838383613c13565b6001600160a01b038216613a1d5760405162461bcd60e51b815260206004820181905260248201527f4552433732313a206d696e7420746f20746865207a65726f20616464726573736044820152606401610a64565b613a2681612ee5565b15613a735760405162461bcd60e51b815260206004820152601c60248201527f4552433732313a20746f6b656e20616c7265616479206d696e746564000000006044820152606401610a64565b613a7f600083836139bc565b6001600160a01b0382166000908152600360205260408120805460019290613aa8908490614a1e565b909155505060008181526002602052604080822080546001600160a01b0319166001600160a01b03861690811790915590518392907fddf252ad1be2c89b69c2b068fc378daa952ba7f163c4a11628f55a4df523b3ef908290a45050565b60006001600160a01b0384163b15613c0857604051630a85bd0160e11b81526001600160a01b0385169063150b7a0290613b4a9033908990889088906004016147e0565b602060405180830381600087803b158015613b6457600080fd5b505af1925050508015613b94575060408051601f3d908101601f19168201909252613b91918101906143d9565b60015b613bee573d808015613bc2576040519150601f19603f3d011682016040523d82523d6000602084013e613bc7565b606091505b508051613be65760405162461bcd60e51b8152600401610a6490614830565b805181602001fd5b6001600160e01b031916630a85bd0160e11b149050613192565b506001949350505050565b6001600160a01b038316613c6e57613c6981600880546000838152600960205260408120829055600182018355919091527ff3f7a9fe364faab93b216da50a3214154f22a0a2b415b23a84c8169e8b636ee30155565b613c91565b816001600160a01b0316836001600160a01b031614613c9157613c918382613ccb565b6001600160a01b038216613ca857610ff481613d68565b826001600160a01b0316826001600160a01b031614610ff457610ff48282613e41565b60006001613cd884612012565b613ce29190614b59565b600083815260076020526040902054909150808214613d35576001600160a01b03841660009081526006602090815260408083208584528252808320548484528184208190558352600790915290208190555b5060009182526007602090815260408084208490556001600160a01b039094168352600681528383209183525290812055565b600854600090613d7a90600190614b59565b60008381526009602052604081205460088054939450909284908110613db057634e487b7160e01b600052603260045260246000fd5b906000526020600020015490508060088381548110613ddf57634e487b7160e01b600052603260045260246000fd5b6000918252602080832090910192909255828152600990915260408082208490558582528120556008805480613e2557634e487b7160e01b600052603160045260246000fd5b6001900381819060005260206000200160009055905550505050565b6000613e4c83612012565b6001600160a01b039093166000908152600660209081526040808320868452825280832085905593825260079052919091209190915550565b828054613e9190614b9c565b90600052602060002090601f016020900481019282613eb35760008555613ef9565b82601f10613ecc57805160ff1916838001178555613ef9565b82800160010185558215613ef9579182015b82811115613ef9578251825591602001919060010190613ede565b50613f05929150613f62565b5090565b828054828255906000526020600020908101928215613f56579160200282015b82811115613f565782518051613f46918491602090910190613e85565b5091602001919060010190613f29565b50613f05929150613f77565b5b80821115613f055760008155600101613f63565b80821115613f05576000613f8b8282613f94565b50600101613f77565b508054613fa090614b9c565b6000825580601f10613fb0575050565b601f0160209004906000526020600020908101906115ba9190613f62565b600067ffffffffffffffff831115613fe857613fe8614c32565b613ffb601f8401601f1916602001614988565b905082815283838301111561400f57600080fd5b828260208301376000602084830101529392505050565b80356001600160a01b038116811461403d57600080fd5b919050565b600082601f830112614052578081fd5b81356020614067614062836149b9565b614988565b80838252828201915082860187848660051b8901011115614086578586fd5b855b858110156140a457813584529284019290840190600101614088565b5090979650505050505050565b600082601f8301126140c1578081fd5b61387283833560208501613fce565b6000602082840312156140e1578081fd5b61387282614026565b600080604083850312156140fc578081fd5b61410583614026565b915061411360208401614026565b90509250929050565b600080600060608486031215614130578081fd5b61413984614026565b925061414760208501614026565b9150604084013590509250925092565b6000806000806080858703121561416c578081fd5b61417585614026565b935061418360208601614026565b925060408501359150606085013567ffffffffffffffff8111156141a5578182fd5b8501601f810187136141b5578182fd5b6141c487823560208401613fce565b91505092959194509250565b600080604083850312156141e2578182fd5b6141eb83614026565b915060208301356141fb81614c48565b809150509250929050565b60008060408385031215614218578182fd5b61422183614026565b946020939093013593505050565b60008060408385031215614241578182fd5b823567ffffffffffffffff80821115614258578384fd5b818501915085601f83011261426b578384fd5b8135602061427b614062836149b9565b8083825282820191508286018a848660051b890101111561429a578889fd5b8896505b848710156142c3576142af81614026565b83526001969096019591830191830161429e565b50965050860135925050808211156142d9578283fd5b506142e685828601614042565b9150509250929050565b60006020808385031215614302578182fd5b823567ffffffffffffffff80821115614319578384fd5b818501915085601f83011261432c578384fd5b813561433a614062826149b9565b80828252858201915085850189878560051b8801011115614359578788fd5b875b848110156143925781358681111561437157898afd5b61437f8c8a838b01016140b1565b855250928701929087019060010161435b565b50909998505050505050505050565b6000602082840312156143b2578081fd5b815161387281614c48565b6000602082840312156143ce578081fd5b813561387281614c56565b6000602082840312156143ea578081fd5b815161387281614c56565b600060208284031215614406578081fd5b813567ffffffffffffffff81111561441c578182fd5b613192848285016140b1565b600060208284031215614439578081fd5b5035919050565b600060208284031215614451578081fd5b5051919050565b6000806040838503121561446a578182fd5b82359150602083013567ffffffffffffffff811115614487578182fd5b6142e6858286016140b1565b600080604083850312156144a5578182fd5b50508035926020909101359150565b600081518084526144cc816020860160208601614b70565b601f01601f19169290920160200192915050565b600082516144f2818460208701614b70565b9190910192915050565b6000835161450e818460208801614b70565b6001600160f81b0319939093169190920190815260010192915050565b6000835161453d818460208801614b70565b835190830190614551818360208801614b70565b01949350505050565b6000825161456c818460208701614b70565b652661706f733b60d01b920191825250600601919050565b60008251614596818460208701614b70565b63266c743b60e01b920191825250600401919050565b600082516145be818460208701614b70565b632667743b60e01b920191825250600401919050565b600082516145e6818460208701614b70565b652671756f743b60d01b920191825250600601919050565b60008451614610818460208901614b70565b8083019050602d60f81b8082528551614630816001850160208a01614b70565b6001920191820152835161464b816002840160208801614b70565b0160020195945050505050565b6000825161466a818460208701614b70565b6426616d703b60d81b920191825250600501919050565b600360fc1b81526000825161469d816001850160208701614b70565b9190910160010192915050565b737b226e616d65223a20225468652044617465202360601b815284516000906146da816014850160208a01614b70565b6101d160f51b60149184019182015285516146fc816016840160208a01614b70565b72111610113232b9b1b934b83a34b7b7111d101160691b601692909101918201528451614730816029840160208901614b70565b7f222c2022696d616765223a2022646174613a696d6167652f7376672b786d6c3b602992909101918201526618985cd94d8d0b60ca1b6049820152835161477e816050840160208801614b70565b61227d60f01b605092909101918201526052019695505050505050565b7f646174613a6170706c69636174696f6e2f6a736f6e3b6261736536342c0000008152600082516147d381601d850160208701614b70565b91909101601d0192915050565b6001600160a01b0385811682528416602082015260408101839052608060608201819052600090614813908301846144b4565b9695505050505050565b60208152600061387260208301846144b4565b60208082526032908201527f4552433732313a207472616e7366657220746f206e6f6e20455243373231526560408201527131b2b4bb32b91034b6b83632b6b2b73a32b960711b606082015260800190565b60208082526029908201527f43616c6c65722073686f756c6420626520746865206f776e6572206f662074686040820152686520617274776f726b60b81b606082015260800190565b6020808252818101527f4f776e61626c653a2063616c6c6572206973206e6f7420746865206f776e6572604082015260600190565b60208082526031908201527f4552433732313a207472616e736665722063616c6c6572206973206e6f74206f6040820152701ddb995c881b9bdc88185c1c1c9bdd9959607a1b606082015260800190565b6020808252601f908201527f5265656e7472616e637947756172643a207265656e7472616e742063616c6c00604082015260600190565b604051601f8201601f1916810167ffffffffffffffff811182821017156149b1576149b1614c32565b604052919050565b600067ffffffffffffffff8211156149d3576149d3614c32565b5060051b60200190565b600080821280156001600160ff1b03849003851316156149ff576149ff614c06565b600160ff1b8390038412811615614a1857614a18614c06565b50500190565b60008219821115614a3157614a31614c06565b500190565b600082614a4557614a45614c1c565b600160ff1b821460001984141615614a5f57614a5f614c06565b500590565b600082614a7357614a73614c1c565b500490565b60006001600160ff1b0381841382841380821686840486111615614a9e57614a9e614c06565b600160ff1b84871282811687830589121615614abc57614abc614c06565b858712925087820587128484161615614ad757614ad7614c06565b87850587128184161615614aed57614aed614c06565b505050929093029392505050565b6000816000190483118215151615614b1557614b15614c06565b500290565b60008083128015600160ff1b850184121615614b3857614b38614c06565b6001600160ff1b0384018313811615614b5357614b53614c06565b50500390565b600082821015614b6b57614b6b614c06565b500390565b60005b83811015614b8b578181015183820152602001614b73565b838111156126cd5750506000910152565b600181811c90821680614bb057607f821691505b60208210811415614bd157634e487b7160e01b600052602260045260246000fd5b50919050565b6000600019821415614beb57614beb614c06565b5060010190565b600082614c0157614c01614c1c565b500690565b634e487b7160e01b600052601160045260246000fd5b634e487b7160e01b600052601260045260246000fd5b634e487b7160e01b600052604160045260246000fd5b80151581146115ba57600080fd5b6001600160e01b0319811681146115ba57600080fdfe4142434445464748494a4b4c4d4e4f505152535455565758595a6162636465666768696a6b6c6d6e6f707172737475767778797a303132333435363738392b2fa264697066735822122007867bdc3d3891506e1368fb320bb0c164b9be5bb2a81ea4b0217a99cae6a61264736f6c63430008040033546865204461746520697320616e20696e74657261637461626c65206f6e2d636861696e206d65746164617461204e46542070726f6a6563742061626f75742074696d6520616e64206d65616e696e672e204561636820666c656574696e672064617920776f756c6420626520696d7072696e74656420696e746f20616e204e4654206173206d6574616461746120696d6d757461626c792e2045766572796461792c205468652044617465206f662074686174206461792077696c6c2062652061756374696f6e65642e204f6e652054686520446174652061206461792c2072756e6e696e6720666f72657665722e20546865206f776e65722063616e20696e746572616374207769746820546865204461746520627920656e67726176696e67206f722065726173696e672061206e6f7465206174746163686564206173206164646974696f6e616c206d657461646174612e20496d616765732c20617070656172616e6365732c20616e64206f746865722066756e6374696f6e616c69746965732061726520696e74656e74696f6e616c6c79206f6d697474656420666f72206f746865727320746f20696e746572707265742e20536565206d6f72653a2068747470733a2f2f746865646174652e6172743c73766720786d6c6e733d22687474703a2f2f7777772e77332e6f72672f323030302f73766722207072657365727665417370656374526174696f3d22784d696e594d696e206d656574222076696577426f783d223020302035303020353030223e3c726563742077696474683d223130302522206865696768743d2231303025222066696c6c3d22626c61636b22202f3e3c7374796c653e2e62617365207b2066696c6c3a2077686974653b20666f6e742d66616d696c793a206d6f6e6f73706163653b20646f6d696e616e742d626173656c696e653a206d6964646c653b20746578742d616e63686f723a206d6964646c653b207d3c2f7374796c653e3c7465787420783d223530252220793d223530252220666f6e742d73697a653d22353070782220636c6173733d2262617365223e3c2f746578743e3c7465787420783d223530252220793d223930252220666f6e742d73697a653d22313070782220636c6173733d2262617365223e",
  "devdoc": {
    "kind": "dev",
    "methods": {
      "approve(address,uint256)": {
        "details": "See {IERC721-approve}."
      },
      "balanceOf(address)": {
        "details": "See {IERC721-balanceOf}."
      },
      "getApproved(uint256)": {
        "details": "See {IERC721-getApproved}."
      },
      "isApprovedForAll(address,address)": {
        "details": "See {IERC721-isApprovedForAll}."
      },
      "name()": {
        "details": "See {IERC721Metadata-name}."
      },
      "owner()": {
        "details": "Returns the address of the current owner."
      },
      "ownerOf(uint256)": {
        "details": "See {IERC721-ownerOf}."
      },
      "renounceOwnership()": {
        "details": "Leaves the contract without owner. It will not be possible to call `onlyOwner` functions anymore. Can only be called by the current owner. NOTE: Renouncing ownership will leave the contract without an owner, thereby removing any functionality that is only available to the owner."
      },
      "royaltyInfo(uint256,uint256)": {
        "details": "Called with the sale price to determine how much royalty is owed and to whom.",
        "params": {
          "salePrice": "- the sale price of the NFT asset specified by `tokenId`",
          "tokenId": "- the NFT asset queried for royalty information"
        },
        "returns": {
          "receiver": "- address of who should be sent the royalty payment",
          "royaltyAmount": "- the royalty payment amount for `salePrice`"
        }
      },
      "safeTransferFrom(address,address,uint256)": {
        "details": "See {IERC721-safeTransferFrom}."
      },
      "safeTransferFrom(address,address,uint256,bytes)": {
        "details": "See {IERC721-safeTransferFrom}."
      },
      "setApprovalForAll(address,bool)": {
        "details": "See {IERC721-setApprovalForAll}."
      },
      "symbol()": {
        "details": "See {IERC721Metadata-symbol}."
      },
      "tokenByIndex(uint256)": {
        "details": "See {IERC721Enumerable-tokenByIndex}."
      },
      "tokenOfOwnerByIndex(address,uint256)": {
        "details": "See {IERC721Enumerable-tokenOfOwnerByIndex}."
      },
      "tokenURI(uint256)": {
        "details": "See {IERC721Metadata-tokenURI}."
      },
      "totalSupply()": {
        "details": "See {IERC721Enumerable-totalSupply}."
      },
      "transferFrom(address,address,uint256)": {
        "details": "See {IERC721-transferFrom}."
      },
      "transferOwnership(address)": {
        "details": "Transfers ownership of the contract to a new account (`newOwner`). Can only be called by the current owner."
      }
    },
    "version": 1
  },
  "userdoc": {
    "kind": "user",
    "methods": {},
    "version": 1
  },
  "storageLayout": {
    "storage": [
      {
        "astId": 2479,
        "contract": "contracts/TheDate.sol:TheDate",
        "label": "_name",
        "offset": 0,
        "slot": "0",
        "type": "t_string_storage"
      },
      {
        "astId": 2481,
        "contract": "contracts/TheDate.sol:TheDate",
        "label": "_symbol",
        "offset": 0,
        "slot": "1",
        "type": "t_string_storage"
      },
      {
        "astId": 2485,
        "contract": "contracts/TheDate.sol:TheDate",
        "label": "_owners",
        "offset": 0,
        "slot": "2",
        "type": "t_mapping(t_uint256,t_address)"
      },
      {
        "astId": 2489,
        "contract": "contracts/TheDate.sol:TheDate",
        "label": "_balances",
        "offset": 0,
        "slot": "3",
        "type": "t_mapping(t_address,t_uint256)"
      },
      {
        "astId": 2493,
        "contract": "contracts/TheDate.sol:TheDate",
        "label": "_tokenApprovals",
        "offset": 0,
        "slot": "4",
        "type": "t_mapping(t_uint256,t_address)"
      },
      {
        "astId": 2499,
        "contract": "contracts/TheDate.sol:TheDate",
        "label": "_operatorApprovals",
        "offset": 0,
        "slot": "5",
        "type": "t_mapping(t_address,t_mapping(t_address,t_bool))"
      },
      {
        "astId": 3418,
        "contract": "contracts/TheDate.sol:TheDate",
        "label": "_ownedTokens",
        "offset": 0,
        "slot": "6",
        "type": "t_mapping(t_address,t_mapping(t_uint256,t_uint256))"
      },
      {
        "astId": 3422,
        "contract": "contracts/TheDate.sol:TheDate",
        "label": "_ownedTokensIndex",
        "offset": 0,
        "slot": "7",
        "type": "t_mapping(t_uint256,t_uint256)"
      },
      {
        "astId": 3425,
        "contract": "contracts/TheDate.sol:TheDate",
        "label": "_allTokens",
        "offset": 0,
        "slot": "8",
        "type": "t_array(t_uint256)dyn_storage"
      },
      {
        "astId": 3429,
        "contract": "contracts/TheDate.sol:TheDate",
        "label": "_allTokensIndex",
        "offset": 0,
        "slot": "9",
        "type": "t_mapping(t_uint256,t_uint256)"
      },
      {
        "astId": 7,
        "contract": "contracts/TheDate.sol:TheDate",
        "label": "_owner",
        "offset": 0,
        "slot": "10",
        "type": "t_address"
      },
      {
        "astId": 431,
        "contract": "contracts/TheDate.sol:TheDate",
        "label": "_status",
        "offset": 0,
        "slot": "11",
        "type": "t_uint256"
      },
      {
        "astId": 6428,
        "contract": "contracts/TheDate.sol:TheDate",
        "label": "claimingPrice",
        "offset": 0,
        "slot": "12",
        "type": "t_uint256"
      },
      {
        "astId": 6431,
        "contract": "contracts/TheDate.sol:TheDate",
        "label": "reservePrice",
        "offset": 0,
        "slot": "13",
        "type": "t_uint256"
      },
      {
        "astId": 6434,
        "contract": "contracts/TheDate.sol:TheDate",
        "label": "minBidIncrementBps",
        "offset": 0,
        "slot": "14",
        "type": "t_uint256"
      },
      {
        "astId": 6437,
        "contract": "contracts/TheDate.sol:TheDate",
        "label": "engravingPrice",
        "offset": 0,
        "slot": "15",
        "type": "t_uint256"
      },
      {
        "astId": 6440,
        "contract": "contracts/TheDate.sol:TheDate",
        "label": "erasingPrice",
        "offset": 0,
        "slot": "16",
        "type": "t_uint256"
      },
      {
        "astId": 6443,
        "contract": "contracts/TheDate.sol:TheDate",
        "label": "noteSizeLimit",
        "offset": 0,
        "slot": "17",
        "type": "t_uint256"
      },
      {
        "astId": 6446,
        "contract": "contracts/TheDate.sol:TheDate",
        "label": "royaltyBps",
        "offset": 0,
        "slot": "18",
        "type": "t_uint256"
      },
      {
        "astId": 6449,
        "contract": "contracts/TheDate.sol:TheDate",
        "label": "tokenDescription",
        "offset": 0,
        "slot": "19",
        "type": "t_string_storage"
      },
      {
        "astId": 6458,
        "contract": "contracts/TheDate.sol:TheDate",
        "label": "svgImageTemplate",
        "offset": 0,
        "slot": "20",
        "type": "t_array(t_string_storage)dyn_storage"
      },
      {
        "astId": 6534,
        "contract": "contracts/TheDate.sol:TheDate",
        "label": "_notes",
        "offset": 0,
        "slot": "21",
        "type": "t_mapping(t_uint256,t_string_storage)"
      },
      {
        "astId": 6538,
        "contract": "contracts/TheDate.sol:TheDate",
        "label": "_highestBidder",
        "offset": 0,
        "slot": "22",
        "type": "t_mapping(t_uint256,t_address)"
      },
      {
        "astId": 6542,
        "contract": "contracts/TheDate.sol:TheDate",
        "label": "_highestBid",
        "offset": 0,
        "slot": "23",
        "type": "t_mapping(t_uint256,t_uint256)"
      },
      {
        "astId": 6545,
        "contract": "contracts/TheDate.sol:TheDate",
        "label": "_lastUnchaimedAuctionedTokenId",
        "offset": 0,
        "slot": "24",
        "type": "t_uint256"
      }
    ],
    "types": {
      "t_address": {
        "encoding": "inplace",
        "label": "address",
        "numberOfBytes": "20"
      },
      "t_array(t_string_storage)dyn_storage": {
        "base": "t_string_storage",
        "encoding": "dynamic_array",
        "label": "string[]",
        "numberOfBytes": "32"
      },
      "t_array(t_uint256)dyn_storage": {
        "base": "t_uint256",
        "encoding": "dynamic_array",
        "label": "uint256[]",
        "numberOfBytes": "32"
      },
      "t_bool": {
        "encoding": "inplace",
        "label": "bool",
        "numberOfBytes": "1"
      },
      "t_mapping(t_address,t_bool)": {
        "encoding": "mapping",
        "key": "t_address",
        "label": "mapping(address => bool)",
        "numberOfBytes": "32",
        "value": "t_bool"
      },
      "t_mapping(t_address,t_mapping(t_address,t_bool))": {
        "encoding": "mapping",
        "key": "t_address",
        "label": "mapping(address => mapping(address => bool))",
        "numberOfBytes": "32",
        "value": "t_mapping(t_address,t_bool)"
      },
      "t_mapping(t_address,t_mapping(t_uint256,t_uint256))": {
        "encoding": "mapping",
        "key": "t_address",
        "label": "mapping(address => mapping(uint256 => uint256))",
        "numberOfBytes": "32",
        "value": "t_mapping(t_uint256,t_uint256)"
      },
      "t_mapping(t_address,t_uint256)": {
        "encoding": "mapping",
        "key": "t_address",
        "label": "mapping(address => uint256)",
        "numberOfBytes": "32",
        "value": "t_uint256"
      },
      "t_mapping(t_uint256,t_address)": {
        "encoding": "mapping",
        "key": "t_uint256",
        "label": "mapping(uint256 => address)",
        "numberOfBytes": "32",
        "value": "t_address"
      },
      "t_mapping(t_uint256,t_string_storage)": {
        "encoding": "mapping",
        "key": "t_uint256",
        "label": "mapping(uint256 => string)",
        "numberOfBytes": "32",
        "value": "t_string_storage"
      },
      "t_mapping(t_uint256,t_uint256)": {
        "encoding": "mapping",
        "key": "t_uint256",
        "label": "mapping(uint256 => uint256)",
        "numberOfBytes": "32",
        "value": "t_uint256"
      },
      "t_string_storage": {
        "encoding": "bytes",
        "label": "string",
        "numberOfBytes": "32"
      },
      "t_uint256": {
        "encoding": "inplace",
        "label": "uint256",
        "numberOfBytes": "32"
      }
    }
  }
}