{
  "address": "0x7D4623D31442167037fE3B5b88BB992De41Ed00d",
  "abi": [
    {
      "inputs": [
        {
          "internalType": "address[]",
          "name": "payees",
          "type": "address[]"
        },
        {
          "internalType": "uint256[]",
          "name": "shares",
          "type": "uint256[]"
        }
      ],
      "stateMutability": "nonpayable",
      "type": "constructor"
    },
    {
      "anonymous": false,
      "inputs": [
        {
          "indexed": false,
          "internalType": "address",
          "name": "to",
          "type": "address"
        },
        {
          "indexed": false,
          "internalType": "address",
          "name": "token",
          "type": "address"
        },
        {
          "indexed": false,
          "internalType": "uint256",
          "name": "id",
          "type": "uint256"
        },
        {
          "indexed": false,
          "internalType": "uint256",
          "name": "value",
          "type": "uint256"
        }
      ],
      "name": "ERC1155PaymentReleased",
      "type": "event"
    },
    {
      "anonymous": false,
      "inputs": [
        {
          "indexed": false,
          "internalType": "address",
          "name": "to",
          "type": "address"
        },
        {
          "indexed": false,
          "internalType": "uint256",
          "name": "amount",
          "type": "uint256"
        },
        {
          "indexed": false,
          "internalType": "address",
          "name": "currency",
          "type": "address"
        }
      ],
      "name": "ERC20PaymentReleased",
      "type": "event"
    },
    {
      "anonymous": false,
      "inputs": [
        {
          "indexed": false,
          "internalType": "address",
          "name": "to",
          "type": "address"
        },
        {
          "indexed": false,
          "internalType": "address",
          "name": "token",
          "type": "address"
        },
        {
          "indexed": false,
          "internalType": "uint256",
          "name": "id",
          "type": "uint256"
        }
      ],
      "name": "ERC721PaymentReleased",
      "type": "event"
    },
    {
      "anonymous": false,
      "inputs": [
        {
          "indexed": false,
          "internalType": "address",
          "name": "account",
          "type": "address"
        },
        {
          "indexed": false,
          "internalType": "uint256",
          "name": "shares",
          "type": "uint256"
        }
      ],
      "name": "PayeeAdded",
      "type": "event"
    },
    {
      "anonymous": false,
      "inputs": [
        {
          "indexed": false,
          "internalType": "address",
          "name": "from",
          "type": "address"
        },
        {
          "indexed": false,
          "internalType": "uint256",
          "name": "amount",
          "type": "uint256"
        }
      ],
      "name": "PaymentReceived",
      "type": "event"
    },
    {
      "anonymous": false,
      "inputs": [
        {
          "indexed": false,
          "internalType": "address",
          "name": "to",
          "type": "address"
        },
        {
          "indexed": false,
          "internalType": "uint256",
          "name": "amount",
          "type": "uint256"
        }
      ],
      "name": "PaymentReleased",
      "type": "event"
    },
    {
      "inputs": [
        {
          "internalType": "address",
          "name": "",
          "type": "address"
        },
        {
          "internalType": "address",
          "name": "",
          "type": "address"
        },
        {
          "internalType": "uint256[]",
          "name": "",
          "type": "uint256[]"
        },
        {
          "internalType": "uint256[]",
          "name": "",
          "type": "uint256[]"
        },
        {
          "internalType": "bytes",
          "name": "",
          "type": "bytes"
        }
      ],
      "name": "onERC1155BatchReceived",
      "outputs": [
        {
          "internalType": "bytes4",
          "name": "",
          "type": "bytes4"
        }
      ],
      "stateMutability": "nonpayable",
      "type": "function"
    },
    {
      "inputs": [
        {
          "internalType": "address",
          "name": "",
          "type": "address"
        },
        {
          "internalType": "address",
          "name": "",
          "type": "address"
        },
        {
          "internalType": "uint256",
          "name": "",
          "type": "uint256"
        },
        {
          "internalType": "uint256",
          "name": "",
          "type": "uint256"
        },
        {
          "internalType": "bytes",
          "name": "",
          "type": "bytes"
        }
      ],
      "name": "onERC1155Received",
      "outputs": [
        {
          "internalType": "bytes4",
          "name": "",
          "type": "bytes4"
        }
      ],
      "stateMutability": "nonpayable",
      "type": "function"
    },
    {
      "inputs": [
        {
          "internalType": "address",
          "name": "",
          "type": "address"
        },
        {
          "internalType": "address",
          "name": "",
          "type": "address"
        },
        {
          "internalType": "uint256",
          "name": "",
          "type": "uint256"
        },
        {
          "internalType": "bytes",
          "name": "",
          "type": "bytes"
        }
      ],
      "name": "onERC721Received",
      "outputs": [
        {
          "internalType": "bytes4",
          "name": "",
          "type": "bytes4"
        }
      ],
      "stateMutability": "nonpayable",
      "type": "function"
    },
    {
      "inputs": [
        {
          "internalType": "uint256",
          "name": "index",
          "type": "uint256"
        }
      ],
      "name": "payee",
      "outputs": [
        {
          "internalType": "address",
          "name": "",
          "type": "address"
        }
      ],
      "stateMutability": "view",
      "type": "function"
    },
    {
      "inputs": [
        {
          "internalType": "address payable",
          "name": "account",
          "type": "address"
        }
      ],
      "name": "release",
      "outputs": [],
      "stateMutability": "nonpayable",
      "type": "function"
    },
    {
      "inputs": [
        {
          "internalType": "address payable",
          "name": "account",
          "type": "address"
        },
        {
          "internalType": "address",
          "name": "token",
          "type": "address"
        },
        {
          "internalType": "uint256",
          "name": "tokenId",
          "type": "uint256"
        },
        {
          "internalType": "uint256",
          "name": "value",
          "type": "uint256"
        }
      ],
      "name": "releaseERC1155",
      "outputs": [],
      "stateMutability": "nonpayable",
      "type": "function"
    },
    {
      "inputs": [
        {
          "internalType": "address payable",
          "name": "account",
          "type": "address"
        },
        {
          "internalType": "address",
          "name": "currency",
          "type": "address"
        }
      ],
      "name": "releaseERC20",
      "outputs": [],
      "stateMutability": "nonpayable",
      "type": "function"
    },
    {
      "inputs": [
        {
          "internalType": "address payable",
          "name": "account",
          "type": "address"
        },
        {
          "internalType": "address",
          "name": "token",
          "type": "address"
        },
        {
          "internalType": "uint256",
          "name": "tokenId",
          "type": "uint256"
        }
      ],
      "name": "releaseERC721",
      "outputs": [],
      "stateMutability": "nonpayable",
      "type": "function"
    },
    {
      "inputs": [
        {
          "internalType": "address",
          "name": "account",
          "type": "address"
        }
      ],
      "name": "released",
      "outputs": [
        {
          "internalType": "uint256",
          "name": "",
          "type": "uint256"
        }
      ],
      "stateMutability": "view",
      "type": "function"
    },
    {
      "inputs": [
        {
          "internalType": "address",
          "name": "account",
          "type": "address"
        },
        {
          "internalType": "address",
          "name": "currency",
          "type": "address"
        }
      ],
      "name": "releasedERC20",
      "outputs": [
        {
          "internalType": "uint256",
          "name": "",
          "type": "uint256"
        }
      ],
      "stateMutability": "view",
      "type": "function"
    },
    {
      "inputs": [
        {
          "internalType": "address",
          "name": "account",
          "type": "address"
        }
      ],
      "name": "shares",
      "outputs": [
        {
          "internalType": "uint256",
          "name": "",
          "type": "uint256"
        }
      ],
      "stateMutability": "view",
      "type": "function"
    },
    {
      "inputs": [
        {
          "internalType": "bytes4",
          "name": "interfaceId",
          "type": "bytes4"
        }
      ],
      "name": "supportsInterface",
      "outputs": [
        {
          "internalType": "bool",
          "name": "",
          "type": "bool"
        }
      ],
      "stateMutability": "view",
      "type": "function"
    },
    {
      "inputs": [],
      "name": "totalReleased",
      "outputs": [
        {
          "internalType": "uint256",
          "name": "",
          "type": "uint256"
        }
      ],
      "stateMutability": "view",
      "type": "function"
    },
    {
      "inputs": [
        {
          "internalType": "address",
          "name": "currency",
          "type": "address"
        }
      ],
      "name": "totalReleasedERC20",
      "outputs": [
        {
          "internalType": "uint256",
          "name": "",
          "type": "uint256"
        }
      ],
      "stateMutability": "view",
      "type": "function"
    },
    {
      "inputs": [],
      "name": "totalShares",
      "outputs": [
        {
          "internalType": "uint256",
          "name": "",
          "type": "uint256"
        }
      ],
      "stateMutability": "view",
      "type": "function"
    },
    {
      "stateMutability": "payable",
      "type": "receive"
    }
  ],
  "transactionHash": "0x63ca3f48c61c35b25620c4b5d30fd1667badff660957087189534a4fd66d11a7",
  "args": [
    [
      "0x324F8D97e19d12F319Ac09252214a3078aB23f97",
      "0x3a5b12D29269C94c787698B63313b8645f516a29"
    ],
    [
      600000,
      400000
    ]
  ],
  "solcInputHash": "9911880482954dfb2486889cabbe9db2",
  "bytecode": "0x60806040523480156200001157600080fd5b5060405162001d4c38038062001d4c8339810160408190526200003491620003ed565b81818051825114620000a85760405162461bcd60e51b815260206004820152603260248201527f5061796d656e7453706c69747465723a2070617965657320616e6420736861726044820152710cae640d8cadccee8d040dad2e6dac2e8c6d60731b60648201526084015b60405180910390fd5b6000825111620000fb5760405162461bcd60e51b815260206004820152601a60248201527f5061796d656e7453706c69747465723a206e6f2070617965657300000000000060448201526064016200009f565b60005b82518110156200017f576200016a8382815181106200012d57634e487b7160e01b600052603260045260246000fd5b60200260200101518383815181106200015657634e487b7160e01b600052603260045260246000fd5b60200260200101516200018a60201b60201c565b8062000176816200053e565b915050620000fe565b505050505062000588565b6001600160a01b038216620001f75760405162461bcd60e51b815260206004820152602c60248201527f5061796d656e7453706c69747465723a206163636f756e74206973207468652060448201526b7a65726f206164647265737360a01b60648201526084016200009f565b60008111620002495760405162461bcd60e51b815260206004820152601d60248201527f5061796d656e7453706c69747465723a2073686172657320617265203000000060448201526064016200009f565b6001600160a01b03821660009081526002602052604090205415620002c55760405162461bcd60e51b815260206004820152602b60248201527f5061796d656e7453706c69747465723a206163636f756e7420616c726561647960448201526a206861732073686172657360a81b60648201526084016200009f565b60048054600181019091557f8a35acfbc15ff81a39ae7d344fd709f28e8600b4aa8c65c6b64bfe7fe36bd19b0180546001600160a01b0319166001600160a01b0384169081179091556000908152600260205260408120829055546200032d90829062000523565b600055604080516001600160a01b0384168152602081018390527f40c340f65e17194d14ddddb073d3c9f888e3cb52b5aae0c6c7706b4fbc905fac910160405180910390a15050565b600082601f83011262000387578081fd5b81516020620003a06200039a83620004fd565b620004ca565b80838252828201915082860187848660051b8901011115620003c0578586fd5b855b85811015620003e057815184529284019290840190600101620003c2565b5090979650505050505050565b6000806040838503121562000400578182fd5b82516001600160401b038082111562000417578384fd5b818501915085601f8301126200042b578384fd5b815160206200043e6200039a83620004fd565b8083825282820191508286018a848660051b89010111156200045e578889fd5b8896505b84871015620004975780516001600160a01b03811681146200048257898afd5b83526001969096019591830191830162000462565b5091880151919650909350505080821115620004b1578283fd5b50620004c08582860162000376565b9150509250929050565b604051601f8201601f191681016001600160401b0381118282101715620004f557620004f562000572565b604052919050565b60006001600160401b0382111562000519576200051962000572565b5060051b60200190565b600082198211156200053957620005396200055c565b500190565b60006000198214156200055557620005556200055c565b5060010190565b634e487b7160e01b600052601160045260246000fd5b634e487b7160e01b600052604160045260246000fd5b6117b480620005986000396000f3fe6080604052600436106100ec5760003560e01c8063a9d273751161008a578063d826584611610059578063d826584614610328578063e33b7de314610348578063f23a6e611461035d578063f9a76be21461038957600080fd5b8063a9d2737514610286578063bc197c81146102a6578063cdd9ac38146102d2578063ce7c2ac2146102f257600080fd5b806319766c48116100c657806319766c48146101d55780633a98ef39146102035780638b83209b146102185780639852595c1461025057600080fd5b806301ffc9a71461013a578063150b7a021461016f57806319165587146101b357600080fd5b36610135577f6ef95f06320e7a25a04a175ca677b7052bdd97131872c2192525a629f51be77033604080516001600160a01b0390921682523460208301520160405180910390a1005b600080fd5b34801561014657600080fd5b5061015a610155366004611592565b6103a9565b60405190151581526020015b60405180910390f35b34801561017b57600080fd5b5061019a61018a3660046114a1565b630a85bd0160e11b949350505050565b6040516001600160e01b03199091168152602001610166565b3480156101bf57600080fd5b506101d36101ce36600461130c565b6103e0565b005b3480156101e157600080fd5b506101f56101f036600461130c565b6105b5565b604051908152602001610166565b34801561020f57600080fd5b506000546101f5565b34801561022457600080fd5b506102386102333660046115ba565b6106a6565b6040516001600160a01b039091168152602001610166565b34801561025c57600080fd5b506101f561026b36600461130c565b6001600160a01b031660009081526003602052604090205490565b34801561029257600080fd5b506101d36102a13660046113a0565b6106e4565b3480156102b257600080fd5b5061019a6102c13660046113f7565b63bc197c8160e01b95945050505050565b3480156102de57600080fd5b506101f56102ed3660046113e5565b61085d565b3480156102fe57600080fd5b506101f561030d36600461130c565b6001600160a01b031660009081526002602052604090205490565b34801561033457600080fd5b506101d3610343366004611360565b61095e565b34801561035457600080fd5b506001546101f5565b34801561036957600080fd5b5061019a61037836600461150b565b63f23a6e6160e01b95945050505050565b34801561039557600080fd5b506101d36103a4366004611328565b610aba565b60006001600160e01b03198216630271189760e51b14806103da57506301ffc9a760e01b6001600160e01b03198316145b92915050565b6001600160a01b0381166000908152600260205260409020546104595760405162461bcd60e51b815260206004820152602660248201527f5061796d656e7453706c69747465723a206163636f756e7420686173206e6f2060448201526573686172657360d01b60648201526084015b60405180910390fd5b60006001544761046991906116cc565b6001600160a01b0383166000908152600360209081526040808320548354600290935290832054939450919261049f9085611704565b6104a991906116e4565b6104b39190611723565b9050806105165760405162461bcd60e51b815260206004820152602b60248201527f5061796d656e7453706c69747465723a206163636f756e74206973206e6f742060448201526a191d59481c185e5b595b9d60aa1b6064820152608401610450565b6001600160a01b03831660009081526003602052604090205461053a9082906116cc565b6001600160a01b0384166000908152600360205260409020556001546105619082906116cc565b60015561056e8382610fc1565b604080516001600160a01b0385168152602081018390527fdf20fd1e76bc69d672e4814fafb2c449bba3a5369d8359adf9e05e6fde87b056910160405180910390a1505050565b6000816105c1816110df565b156105f8576105d7816336372b0760e01b611112565b6105f35760405162461bcd60e51b815260040161045090611664565b610689565b6000816001600160a01b03166318160ddd6040518163ffffffff1660e01b815260040160206040518083038186803b15801561063357600080fd5b505afa158015610647573d6000803e3d6000fd5b505050506040513d601f19601f8201168201806040525081019061066b91906115d2565b10156106895760405162461bcd60e51b815260040161045090611664565b50506001600160a01b031660009081526005602052604090205490565b6000600482815481106106c957634e487b7160e01b600052603260045260246000fd5b6000918252602090912001546001600160a01b031692915050565b826106f681636cdb3d1360e11b611112565b6107425760405162461bcd60e51b815260206004820152601f60248201527f466f756e646174696f6e3a206e6f7420612076616c69642045524331313535006044820152606401610450565b846000610764826001600160a01b031660009081526002602052604090205490565b116107815760405162461bcd60e51b815260040161045090611623565b604051637921219560e11b81523060048201526001600160a01b038781166024830152604482018690526064820185905260a06084830152600060a483015286919082169063f242432a9060c401600060405180830381600087803b1580156107e957600080fd5b505af11580156107fd573d6000803e3d6000fd5b5050604080516001600160a01b03808c1682528a166020820152908101889052606081018790527f12083f7accd14a913497e12d70f5a6426961873c93aff1d18c19f1a725dacfca9250608001905060405180910390a150505050505050565b600081610869816110df565b156108a05761087f816336372b0760e01b611112565b61089b5760405162461bcd60e51b815260040161045090611664565b610931565b6000816001600160a01b03166318160ddd6040518163ffffffff1660e01b815260040160206040518083038186803b1580156108db57600080fd5b505afa1580156108ef573d6000803e3d6000fd5b505050506040513d601f19601f8201168201806040525081019061091391906115d2565b10156109315760405162461bcd60e51b815260040161045090611664565b50506001600160a01b03918216600090815260066020908152604080832093909416825291909152205490565b81610970816380ac58cd60e01b611112565b6109bc5760405162461bcd60e51b815260206004820152601e60248201527f466f756e646174696f6e3a206e6f7420612076616c69642045524337323100006044820152606401610450565b8360006109de826001600160a01b031660009081526002602052604090205490565b116109fb5760405162461bcd60e51b815260040161045090611623565b604051632142170760e11b81523060048201526001600160a01b038681166024830152604482018590528591908216906342842e0e90606401600060405180830381600087803b158015610a4e57600080fd5b505af1158015610a62573d6000803e3d6000fd5b5050604080516001600160a01b03808b168252891660208201529081018790527f15ea44f8c370b66b7e50b8c17500252d999e4fabfccaad01f2cfab228ea003649250606001905060405180910390a1505050505050565b80610ac4816110df565b15610afb57610ada816336372b0760e01b611112565b610af65760405162461bcd60e51b815260040161045090611664565b610b8c565b6000816001600160a01b03166318160ddd6040518163ffffffff1660e01b815260040160206040518083038186803b158015610b3657600080fd5b505afa158015610b4a573d6000803e3d6000fd5b505050506040513d601f19601f82011682018060405250810190610b6e91906115d2565b1015610b8c5760405162461bcd60e51b815260040161045090611664565b826000610bae826001600160a01b031660009081526002602052604090205490565b11610bcb5760405162461bcd60e51b815260040161045090611623565b6001600160a01b0383166000818152600560205260408082205490516370a0823160e01b81523060048201528693906370a082319060240160206040518083038186803b158015610c1b57600080fd5b505afa158015610c2f573d6000803e3d6000fd5b505050506040513d601f19601f82011682018060405250810190610c5391906115d2565b610c5d91906116cc565b6001600160a01b038088166000908152600660209081526040808320938a1683529290529081205491925090610c9260005490565b6001600160a01b038916600090815260026020526040902054610cb59085611704565b610cbf91906116e4565b610cc99190611723565b905060008111610d2a5760405162461bcd60e51b815260206004820152602660248201527f466f756e646174696f6e3a206163636f756e74206973206e6f74206475652070604482015265185e5b595b9d60d21b6064820152608401610450565b60405163095ea7b360e01b8152306004820152602481018290526000906001600160a01b0385169063095ea7b390604401602060405180830381600087803b158015610d7557600080fd5b505af1158015610d89573d6000803e3d6000fd5b505050506040513d601f19601f82011682018060405250810190610dad9190611572565b905080610e135760405162461bcd60e51b815260206004820152602e60248201527f466f756e646174696f6e3a20455243323020646f6573206e6f7420617070726f60448201526d1d99481d1a19481c185e5b595b9d60921b6064820152608401610450565b6040516323b872dd60e01b81523060048201526001600160a01b03898116602483015260448201849052600091908616906323b872dd90606401602060405180830381600087803b158015610e6757600080fd5b505af1158015610e7b573d6000803e3d6000fd5b505050506040513d601f19601f82011682018060405250810190610e9f9190611572565b905080610f035760405162461bcd60e51b815260206004820152602c60248201527f466f756e646174696f6e3a204552433230207472616e73666572206973206e6f60448201526b1d081cdd58d8d95cdcd99d5b60a21b6064820152608401610450565b6001600160a01b03808a166000908152600660209081526040808320938c1683529290529081208054859290610f3a9084906116cc565b90915550506001600160a01b03881660009081526005602052604081208054859290610f679084906116cc565b9091555050604080516001600160a01b038b81168252602082018690528a168183015290517f8197a9e2768bbdb1a86328467612ccc099a6776e4e3a02463608fba4976c659f9181900360600190a1505050505050505050565b804710156110115760405162461bcd60e51b815260206004820152601d60248201527f416464726573733a20696e73756666696369656e742062616c616e63650000006044820152606401610450565b6000826001600160a01b03168260405160006040518083038185875af1925050503d806000811461105e576040519150601f19603f3d011682016040523d82523d6000602084013e611063565b606091505b50509050806110da5760405162461bcd60e51b815260206004820152603a60248201527f416464726573733a20756e61626c6520746f2073656e642076616c75652c207260448201527f6563697069656e74206d617920686176652072657665727465640000000000006064820152608401610450565b505050565b60006110f2826301ffc9a760e01b611135565b80156103da575061110b826001600160e01b0319611135565b1592915050565b600061111d836110df565b801561112e575061112e8383611135565b9392505050565b604080516001600160e01b0319831660248083019190915282518083039091018152604490910182526020810180516001600160e01b03166301ffc9a760e01b179052905160009190829081906001600160a01b038716906175309061119c9086906115ea565b6000604051808303818686fa925050503d80600081146111d8576040519150601f19603f3d011682016040523d82523d6000602084013e6111dd565b606091505b50915091506020815110156111f857600093505050506103da565b8180156112145750808060200190518101906112149190611572565b9695505050505050565b600082601f83011261122e578081fd5b8135602067ffffffffffffffff82111561124a5761124a611750565b8160051b61125982820161169b565b838152828101908684018388018501891015611273578687fd5b8693505b85841015611295578035835260019390930192918401918401611277565b50979650505050505050565b600082601f8301126112b1578081fd5b813567ffffffffffffffff8111156112cb576112cb611750565b6112de601f8201601f191660200161169b565b8181528460208386010111156112f2578283fd5b816020850160208301379081016020019190915292915050565b60006020828403121561131d578081fd5b813561112e81611766565b6000806040838503121561133a578081fd5b823561134581611766565b9150602083013561135581611766565b809150509250929050565b600080600060608486031215611374578081fd5b833561137f81611766565b9250602084013561138f81611766565b929592945050506040919091013590565b600080600080608085870312156113b5578081fd5b84356113c081611766565b935060208501356113d081611766565b93969395505050506040820135916060013590565b6000806040838503121561133a578182fd5b600080600080600060a0868803121561140e578081fd5b853561141981611766565b9450602086013561142981611766565b9350604086013567ffffffffffffffff80821115611445578283fd5b61145189838a0161121e565b94506060880135915080821115611466578283fd5b61147289838a0161121e565b93506080880135915080821115611487578283fd5b50611494888289016112a1565b9150509295509295909350565b600080600080608085870312156114b6578384fd5b84356114c181611766565b935060208501356114d181611766565b925060408501359150606085013567ffffffffffffffff8111156114f3578182fd5b6114ff878288016112a1565b91505092959194509250565b600080600080600060a08688031215611522578081fd5b853561152d81611766565b9450602086013561153d81611766565b93506040860135925060608601359150608086013567ffffffffffffffff811115611566578182fd5b611494888289016112a1565b600060208284031215611583578081fd5b8151801515811461112e578182fd5b6000602082840312156115a3578081fd5b81356001600160e01b03198116811461112e578182fd5b6000602082840312156115cb578081fd5b5035919050565b6000602082840312156115e3578081fd5b5051919050565b60008251815b8181101561160a57602081860181015185830152016115f0565b818111156116185782828501525b509190910192915050565b60208082526021908201527f466f756e646174696f6e3a206163636f756e7420686173206e6f2073686172656040820152607360f81b606082015260800190565b6020808252601d908201527f466f756e646174696f6e3a206e6f7420612076616c6964204552433230000000604082015260600190565b604051601f8201601f1916810167ffffffffffffffff811182821017156116c4576116c4611750565b604052919050565b600082198211156116df576116df61173a565b500190565b6000826116ff57634e487b7160e01b81526012600452602481fd5b500490565b600081600019048311821515161561171e5761171e61173a565b500290565b6000828210156117355761173561173a565b500390565b634e487b7160e01b600052601160045260246000fd5b634e487b7160e01b600052604160045260246000fd5b6001600160a01b038116811461177b57600080fd5b5056fea26469706673582212205354daadf1ad9da3f361811c9173e0f778f42ff44a4d1c9f8e3ef6ae8063bbed64736f6c63430008040033",
  "devdoc": {
    "kind": "dev",
    "methods": {
      "onERC721Received(address,address,uint256,bytes)": {
        "details": "See {IERC721Receiver-onERC721Received}. Always returns `IERC721Receiver.onERC721Received.selector`."
      },
      "payee(uint256)": {
        "details": "Getter for the address of the payee number `index`."
      },
      "release(address)": {
        "details": "Triggers a transfer to `account` of the amount of Ether they are owed, according to their percentage of the total shares and their previous withdrawals."
      },
      "released(address)": {
        "details": "Getter for the amount of Ether already released to a payee."
      },
      "shares(address)": {
        "details": "Getter for the amount of shares held by an account."
      },
      "supportsInterface(bytes4)": {
        "details": "See {IERC165-supportsInterface}."
      },
      "totalReleased()": {
        "details": "Getter for the total amount of Ether already released."
      },
      "totalShares()": {
        "details": "Getter for the total shares held by payees."
      }
    },
    "version": 1
  },
  "userdoc": {
    "kind": "user",
    "methods": {},
    "version": 1
  },
  "storageLayout": {
    "storage": [
      {
        "astId": 131,
        "contract": "contracts/Foundation.sol:Foundation",
        "label": "_totalShares",
        "offset": 0,
        "slot": "0",
        "type": "t_uint256"
      },
      {
        "astId": 133,
        "contract": "contracts/Foundation.sol:Foundation",
        "label": "_totalReleased",
        "offset": 0,
        "slot": "1",
        "type": "t_uint256"
      },
      {
        "astId": 137,
        "contract": "contracts/Foundation.sol:Foundation",
        "label": "_shares",
        "offset": 0,
        "slot": "2",
        "type": "t_mapping(t_address,t_uint256)"
      },
      {
        "astId": 141,
        "contract": "contracts/Foundation.sol:Foundation",
        "label": "_released",
        "offset": 0,
        "slot": "3",
        "type": "t_mapping(t_address,t_uint256)"
      },
      {
        "astId": 144,
        "contract": "contracts/Foundation.sol:Foundation",
        "label": "_payees",
        "offset": 0,
        "slot": "4",
        "type": "t_array(t_address)dyn_storage"
      },
      {
        "astId": 5000,
        "contract": "contracts/Foundation.sol:Foundation",
        "label": "_totalReleasedERC20",
        "offset": 0,
        "slot": "5",
        "type": "t_mapping(t_address,t_uint256)"
      },
      {
        "astId": 5006,
        "contract": "contracts/Foundation.sol:Foundation",
        "label": "_releasedERC20",
        "offset": 0,
        "slot": "6",
        "type": "t_mapping(t_address,t_mapping(t_address,t_uint256))"
      }
    ],
    "types": {
      "t_address": {
        "encoding": "inplace",
        "label": "address",
        "numberOfBytes": "20"
      },
      "t_array(t_address)dyn_storage": {
        "base": "t_address",
        "encoding": "dynamic_array",
        "label": "address[]",
        "numberOfBytes": "32"
      },
      "t_mapping(t_address,t_mapping(t_address,t_uint256))": {
        "encoding": "mapping",
        "key": "t_address",
        "label": "mapping(address => mapping(address => uint256))",
        "numberOfBytes": "32",
        "value": "t_mapping(t_address,t_uint256)"
      },
      "t_mapping(t_address,t_uint256)": {
        "encoding": "mapping",
        "key": "t_address",
        "label": "mapping(address => uint256)",
        "numberOfBytes": "32",
        "value": "t_uint256"
      },
      "t_uint256": {
        "encoding": "inplace",
        "label": "uint256",
        "numberOfBytes": "32"
      }
    }
  }
}