{
  "address": "0x312ccd77369875151dD816e315de0676541DfEF4",
  "abi": [
    {
      "inputs": [
        {
          "internalType": "address",
          "name": "foundation_",
          "type": "address"
        }
      ],
      "stateMutability": "nonpayable",
      "type": "constructor"
    },
    {
      "anonymous": false,
      "inputs": [
        {
          "indexed": true,
          "internalType": "address",
          "name": "owner",
          "type": "address"
        },
        {
          "indexed": true,
          "internalType": "address",
          "name": "approved",
          "type": "address"
        },
        {
          "indexed": true,
          "internalType": "uint256",
          "name": "tokenId",
          "type": "uint256"
        }
      ],
      "name": "Approval",
      "type": "event"
    },
    {
      "anonymous": false,
      "inputs": [
        {
          "indexed": true,
          "internalType": "address",
          "name": "owner",
          "type": "address"
        },
        {
          "indexed": true,
          "internalType": "address",
          "name": "operator",
          "type": "address"
        },
        {
          "indexed": false,
          "internalType": "bool",
          "name": "approved",
          "type": "bool"
        }
      ],
      "name": "ApprovalForAll",
      "type": "event"
    },
    {
      "anonymous": false,
      "inputs": [
        {
          "indexed": true,
          "internalType": "bytes32",
          "name": "role",
          "type": "bytes32"
        },
        {
          "indexed": true,
          "internalType": "bytes32",
          "name": "previousAdminRole",
          "type": "bytes32"
        },
        {
          "indexed": true,
          "internalType": "bytes32",
          "name": "newAdminRole",
          "type": "bytes32"
        }
      ],
      "name": "RoleAdminChanged",
      "type": "event"
    },
    {
      "anonymous": false,
      "inputs": [
        {
          "indexed": true,
          "internalType": "bytes32",
          "name": "role",
          "type": "bytes32"
        },
        {
          "indexed": true,
          "internalType": "address",
          "name": "account",
          "type": "address"
        },
        {
          "indexed": true,
          "internalType": "address",
          "name": "sender",
          "type": "address"
        }
      ],
      "name": "RoleGranted",
      "type": "event"
    },
    {
      "anonymous": false,
      "inputs": [
        {
          "indexed": true,
          "internalType": "bytes32",
          "name": "role",
          "type": "bytes32"
        },
        {
          "indexed": true,
          "internalType": "address",
          "name": "account",
          "type": "address"
        },
        {
          "indexed": true,
          "internalType": "address",
          "name": "sender",
          "type": "address"
        }
      ],
      "name": "RoleRevoked",
      "type": "event"
    },
    {
      "anonymous": false,
      "inputs": [
        {
          "indexed": true,
          "internalType": "address",
          "name": "from",
          "type": "address"
        },
        {
          "indexed": true,
          "internalType": "address",
          "name": "to",
          "type": "address"
        },
        {
          "indexed": true,
          "internalType": "uint256",
          "name": "tokenId",
          "type": "uint256"
        }
      ],
      "name": "Transfer",
      "type": "event"
    },
    {
      "inputs": [],
      "name": "DEFAULT_ADMIN_ROLE",
      "outputs": [
        {
          "internalType": "bytes32",
          "name": "",
          "type": "bytes32"
        }
      ],
      "stateMutability": "view",
      "type": "function"
    },
    {
      "inputs": [
        {
          "internalType": "address",
          "name": "to",
          "type": "address"
        },
        {
          "internalType": "uint256",
          "name": "tokenId",
          "type": "uint256"
        }
      ],
      "name": "approve",
      "outputs": [],
      "stateMutability": "nonpayable",
      "type": "function"
    },
    {
      "inputs": [
        {
          "internalType": "address",
          "name": "owner",
          "type": "address"
        }
      ],
      "name": "balanceOf",
      "outputs": [
        {
          "internalType": "uint256",
          "name": "",
          "type": "uint256"
        }
      ],
      "stateMutability": "view",
      "type": "function"
    },
    {
      "inputs": [],
      "name": "claim",
      "outputs": [],
      "stateMutability": "payable",
      "type": "function"
    },
    {
      "inputs": [],
      "name": "currentTokenId",
      "outputs": [
        {
          "internalType": "uint256",
          "name": "",
          "type": "uint256"
        }
      ],
      "stateMutability": "view",
      "type": "function"
    },
    {
      "inputs": [
        {
          "internalType": "uint256",
          "name": "tokenId",
          "type": "uint256"
        }
      ],
      "name": "generateMetadata",
      "outputs": [
        {
          "internalType": "string",
          "name": "",
          "type": "string"
        }
      ],
      "stateMutability": "view",
      "type": "function"
    },
    {
      "inputs": [
        {
          "internalType": "uint256",
          "name": "tokenId",
          "type": "uint256"
        }
      ],
      "name": "generateSVGImage",
      "outputs": [
        {
          "internalType": "string",
          "name": "",
          "type": "string"
        }
      ],
      "stateMutability": "view",
      "type": "function"
    },
    {
      "inputs": [
        {
          "internalType": "uint256",
          "name": "tokenId",
          "type": "uint256"
        }
      ],
      "name": "getAdaptation",
      "outputs": [
        {
          "internalType": "string",
          "name": "",
          "type": "string"
        }
      ],
      "stateMutability": "view",
      "type": "function"
    },
    {
      "inputs": [
        {
          "internalType": "uint256",
          "name": "tokenId",
          "type": "uint256"
        }
      ],
      "name": "getApproved",
      "outputs": [
        {
          "internalType": "address",
          "name": "",
          "type": "address"
        }
      ],
      "stateMutability": "view",
      "type": "function"
    },
    {
      "inputs": [],
      "name": "getCurrentClaimingPrice",
      "outputs": [
        {
          "internalType": "uint256",
          "name": "",
          "type": "uint256"
        }
      ],
      "stateMutability": "view",
      "type": "function"
    },
    {
      "inputs": [
        {
          "internalType": "uint256",
          "name": "tokenId",
          "type": "uint256"
        }
      ],
      "name": "getElementMimicry",
      "outputs": [
        {
          "internalType": "string",
          "name": "",
          "type": "string"
        }
      ],
      "stateMutability": "view",
      "type": "function"
    },
    {
      "inputs": [
        {
          "internalType": "uint256",
          "name": "tokenId",
          "type": "uint256"
        }
      ],
      "name": "getEmission",
      "outputs": [
        {
          "internalType": "string",
          "name": "",
          "type": "string"
        }
      ],
      "stateMutability": "view",
      "type": "function"
    },
    {
      "inputs": [
        {
          "internalType": "uint256",
          "name": "tokenId",
          "type": "uint256"
        }
      ],
      "name": "getEnhancedPhysicalSkills",
      "outputs": [
        {
          "internalType": "string",
          "name": "",
          "type": "string"
        }
      ],
      "stateMutability": "view",
      "type": "function"
    },
    {
      "inputs": [
        {
          "internalType": "uint256",
          "name": "tokenId",
          "type": "uint256"
        }
      ],
      "name": "getMentalityBasedPower",
      "outputs": [
        {
          "internalType": "string",
          "name": "",
          "type": "string"
        }
      ],
      "stateMutability": "view",
      "type": "function"
    },
    {
      "inputs": [
        {
          "internalType": "uint256",
          "name": "tokenId",
          "type": "uint256"
        }
      ],
      "name": "getOrganicMimicry",
      "outputs": [
        {
          "internalType": "string",
          "name": "",
          "type": "string"
        }
      ],
      "stateMutability": "view",
      "type": "function"
    },
    {
      "inputs": [
        {
          "internalType": "uint256",
          "name": "tokenId",
          "type": "uint256"
        }
      ],
      "name": "getPersonalPhysicalPower",
      "outputs": [
        {
          "internalType": "string",
          "name": "",
          "type": "string"
        }
      ],
      "stateMutability": "view",
      "type": "function"
    },
    {
      "inputs": [
        {
          "internalType": "uint256",
          "name": "tokenId",
          "type": "uint256"
        }
      ],
      "name": "getRealityManipulation",
      "outputs": [
        {
          "internalType": "string",
          "name": "",
          "type": "string"
        }
      ],
      "stateMutability": "view",
      "type": "function"
    },
    {
      "inputs": [
        {
          "internalType": "bytes32",
          "name": "role",
          "type": "bytes32"
        }
      ],
      "name": "getRoleAdmin",
      "outputs": [
        {
          "internalType": "bytes32",
          "name": "",
          "type": "bytes32"
        }
      ],
      "stateMutability": "view",
      "type": "function"
    },
    {
      "inputs": [
        {
          "internalType": "uint256",
          "name": "tokenId",
          "type": "uint256"
        }
      ],
      "name": "getSupernaturalPhysicalSkills",
      "outputs": [
        {
          "internalType": "string",
          "name": "",
          "type": "string"
        }
      ],
      "stateMutability": "view",
      "type": "function"
    },
    {
      "inputs": [
        {
          "internalType": "uint256",
          "name": "tokenId",
          "type": "uint256"
        }
      ],
      "name": "getTravel",
      "outputs": [
        {
          "internalType": "string",
          "name": "",
          "type": "string"
        }
      ],
      "stateMutability": "view",
      "type": "function"
    },
    {
      "inputs": [
        {
          "internalType": "uint256",
          "name": "tokenId",
          "type": "uint256"
        }
      ],
      "name": "getVision",
      "outputs": [
        {
          "internalType": "string",
          "name": "",
          "type": "string"
        }
      ],
      "stateMutability": "view",
      "type": "function"
    },
    {
      "inputs": [
        {
          "internalType": "bytes32",
          "name": "role",
          "type": "bytes32"
        },
        {
          "internalType": "address",
          "name": "account",
          "type": "address"
        }
      ],
      "name": "grantRole",
      "outputs": [],
      "stateMutability": "nonpayable",
      "type": "function"
    },
    {
      "inputs": [
        {
          "internalType": "bytes32",
          "name": "role",
          "type": "bytes32"
        },
        {
          "internalType": "address",
          "name": "account",
          "type": "address"
        }
      ],
      "name": "hasRole",
      "outputs": [
        {
          "internalType": "bool",
          "name": "",
          "type": "bool"
        }
      ],
      "stateMutability": "view",
      "type": "function"
    },
    {
      "inputs": [
        {
          "internalType": "address",
          "name": "owner",
          "type": "address"
        },
        {
          "internalType": "address",
          "name": "operator",
          "type": "address"
        }
      ],
      "name": "isApprovedForAll",
      "outputs": [
        {
          "internalType": "bool",
          "name": "",
          "type": "bool"
        }
      ],
      "stateMutability": "view",
      "type": "function"
    },
    {
      "inputs": [],
      "name": "name",
      "outputs": [
        {
          "internalType": "string",
          "name": "",
          "type": "string"
        }
      ],
      "stateMutability": "view",
      "type": "function"
    },
    {
      "inputs": [
        {
          "internalType": "uint256",
          "name": "tokenId",
          "type": "uint256"
        }
      ],
      "name": "ownerOf",
      "outputs": [
        {
          "internalType": "address",
          "name": "",
          "type": "address"
        }
      ],
      "stateMutability": "view",
      "type": "function"
    },
    {
      "inputs": [
        {
          "internalType": "bytes32",
          "name": "role",
          "type": "bytes32"
        },
        {
          "internalType": "address",
          "name": "account",
          "type": "address"
        }
      ],
      "name": "renounceRole",
      "outputs": [],
      "stateMutability": "nonpayable",
      "type": "function"
    },
    {
      "inputs": [
        {
          "internalType": "bytes32",
          "name": "role",
          "type": "bytes32"
        },
        {
          "internalType": "address",
          "name": "account",
          "type": "address"
        }
      ],
      "name": "revokeRole",
      "outputs": [],
      "stateMutability": "nonpayable",
      "type": "function"
    },
    {
      "inputs": [],
      "name": "royaltyBps",
      "outputs": [
        {
          "internalType": "uint256",
          "name": "",
          "type": "uint256"
        }
      ],
      "stateMutability": "view",
      "type": "function"
    },
    {
      "inputs": [
        {
          "internalType": "uint256",
          "name": "tokenId",
          "type": "uint256"
        },
        {
          "internalType": "uint256",
          "name": "salePrice",
          "type": "uint256"
        }
      ],
      "name": "royaltyInfo",
      "outputs": [
        {
          "internalType": "address",
          "name": "receiver",
          "type": "address"
        },
        {
          "internalType": "uint256",
          "name": "royaltyAmount",
          "type": "uint256"
        }
      ],
      "stateMutability": "view",
      "type": "function"
    },
    {
      "inputs": [
        {
          "internalType": "address",
          "name": "from",
          "type": "address"
        },
        {
          "internalType": "address",
          "name": "to",
          "type": "address"
        },
        {
          "internalType": "uint256",
          "name": "tokenId",
          "type": "uint256"
        }
      ],
      "name": "safeTransferFrom",
      "outputs": [],
      "stateMutability": "nonpayable",
      "type": "function"
    },
    {
      "inputs": [
        {
          "internalType": "address",
          "name": "from",
          "type": "address"
        },
        {
          "internalType": "address",
          "name": "to",
          "type": "address"
        },
        {
          "internalType": "uint256",
          "name": "tokenId",
          "type": "uint256"
        },
        {
          "internalType": "bytes",
          "name": "_data",
          "type": "bytes"
        }
      ],
      "name": "safeTransferFrom",
      "outputs": [],
      "stateMutability": "nonpayable",
      "type": "function"
    },
    {
      "inputs": [
        {
          "internalType": "address",
          "name": "operator",
          "type": "address"
        },
        {
          "internalType": "bool",
          "name": "approved",
          "type": "bool"
        }
      ],
      "name": "setApprovalForAll",
      "outputs": [],
      "stateMutability": "nonpayable",
      "type": "function"
    },
    {
      "inputs": [
        {
          "internalType": "uint256",
          "name": "royaltyBps_",
          "type": "uint256"
        }
      ],
      "name": "setRoyaltyBps",
      "outputs": [],
      "stateMutability": "nonpayable",
      "type": "function"
    },
    {
      "inputs": [
        {
          "internalType": "string[]",
          "name": "svgImageTemplate_",
          "type": "string[]"
        }
      ],
      "name": "setSVGImageTemplate",
      "outputs": [],
      "stateMutability": "nonpayable",
      "type": "function"
    },
    {
      "inputs": [
        {
          "internalType": "string",
          "name": "tokenDescription_",
          "type": "string"
        }
      ],
      "name": "setTokenDescription",
      "outputs": [],
      "stateMutability": "nonpayable",
      "type": "function"
    },
    {
      "inputs": [
        {
          "internalType": "bytes4",
          "name": "interfaceId",
          "type": "bytes4"
        }
      ],
      "name": "supportsInterface",
      "outputs": [
        {
          "internalType": "bool",
          "name": "",
          "type": "bool"
        }
      ],
      "stateMutability": "view",
      "type": "function"
    },
    {
      "inputs": [
        {
          "internalType": "uint256",
          "name": "",
          "type": "uint256"
        }
      ],
      "name": "svgImageTemplate",
      "outputs": [
        {
          "internalType": "string",
          "name": "",
          "type": "string"
        }
      ],
      "stateMutability": "view",
      "type": "function"
    },
    {
      "inputs": [],
      "name": "symbol",
      "outputs": [
        {
          "internalType": "string",
          "name": "",
          "type": "string"
        }
      ],
      "stateMutability": "view",
      "type": "function"
    },
    {
      "inputs": [
        {
          "internalType": "uint256",
          "name": "index",
          "type": "uint256"
        }
      ],
      "name": "tokenByIndex",
      "outputs": [
        {
          "internalType": "uint256",
          "name": "",
          "type": "uint256"
        }
      ],
      "stateMutability": "view",
      "type": "function"
    },
    {
      "inputs": [],
      "name": "tokenDescription",
      "outputs": [
        {
          "internalType": "string",
          "name": "",
          "type": "string"
        }
      ],
      "stateMutability": "view",
      "type": "function"
    },
    {
      "inputs": [
        {
          "internalType": "address",
          "name": "owner",
          "type": "address"
        },
        {
          "internalType": "uint256",
          "name": "index",
          "type": "uint256"
        }
      ],
      "name": "tokenOfOwnerByIndex",
      "outputs": [
        {
          "internalType": "uint256",
          "name": "",
          "type": "uint256"
        }
      ],
      "stateMutability": "view",
      "type": "function"
    },
    {
      "inputs": [
        {
          "internalType": "uint256",
          "name": "tokenId",
          "type": "uint256"
        }
      ],
      "name": "tokenURI",
      "outputs": [
        {
          "internalType": "string",
          "name": "",
          "type": "string"
        }
      ],
      "stateMutability": "view",
      "type": "function"
    },
    {
      "inputs": [],
      "name": "totalSupply",
      "outputs": [
        {
          "internalType": "uint256",
          "name": "",
          "type": "uint256"
        }
      ],
      "stateMutability": "view",
      "type": "function"
    },
    {
      "inputs": [
        {
          "internalType": "address",
          "name": "from",
          "type": "address"
        },
        {
          "internalType": "address",
          "name": "to",
          "type": "address"
        },
        {
          "internalType": "uint256",
          "name": "tokenId",
          "type": "uint256"
        }
      ],
      "name": "transferFrom",
      "outputs": [],
      "stateMutability": "nonpayable",
      "type": "function"
    }
  ],
  "transactionHash": "0x7d0504ed800ddeeaa2db48c4e82b8c93fa2f59246deb5b5c84dc84c774ba52b6",
  "args": [
    "0x694D1C96AE25476a16054454e6d575ea5077E413"
  ],
  "solcInputHash": "73b1a6d5882b94494f775abaddf92acb",
  "bytecode": "0x600a610940818152693336302d44656772656560b01b6109605260a0908152600b6109808181526a1058d8d95b195c985d195960aa1b6109a05260c05260066109c081815265105cdd1c985b60d21b6109e05260e052610a008181526541746f6d696360d01b610a2052610100526011610a40818152704175676d656e746564205265616c69747960781b610a6052610120526004610a80818152634175726160e01b610aa05261014052610ac086815269426c6f6f642d466c6f7760b01b610ae052610160526007610b00818152664361757374696360c81b610b205261018052610b40818152664368616f74696360c81b610b60526101a0526005610b80818152644368656d6f60d81b610ba0526101c052610bc0858152654368726f6e6f60d01b610be0526101e052610c008181526421b7b637b960d91b610c205261020052610c40838152634461726b60e01b610c605261022052610c8081815264088cac2e8d60db1b610ca05261024052610cc082815266111a59da5d185b60ca1b610ce05261026052610d008681526a111a5b595b9cda5bdb985b60aa1b610d2052610280526003610d4081815262444e4160e81b610d60526102a052610d808781526a4563746f706c61736d696360a81b610da0526102c052600f610dc08181526e456c656374726f6d61676e6574696360881b610de0526102e052610e008481526622b6b7ba34b7b760c91b610e205261030052610e4087815265456e6572677960d01b610e6052610320526009610e808181526822bc383637b9b4b7b760b91b610ea05261034052610ec0868152634669726560e01b610ee05261036052610f0088815265467265657a6560d01b610f205261038052610f408481526447616d6d6160d81b610f60526103a052610f80858152664772617068696360c81b610fa0526103c052610fc0858152664865616c696e6760c81b610fe0526103e052611000868152631219585d60e21b61102052610400526008611040818152674879706e6f74696360c01b61106052610420526110808181526724b6363ab9b4b7b760c11b6110a052610440526110c085815264496f6e696360d81b6110e0526104605261110081815267125b999c985c995960c21b6111205261048052600c6111408181526b496e7669736962696c69747960a01b611160526104a052611180878152664b696e6574696360c81b6111a0526104c0526111c0868152642630b9b2b960d91b6111e0526104e052611200888152634c69666560e01b611220526105005261124086815264131a59da1d60da1b6112605261052052611280838152684c696768746e696e6760b81b6112a052610540526112c086815264263ab730b960d91b6112e05261056052611300868152644d6167696360d81b6113205261058052611340878152664d657267696e6760c81b611360526105a0526113808b81526a4d6963726f73636f70696360a81b6113a0526105c0526113c0838152684d6963726f7761766560b81b6113e0526105e05261140082815267135bdd995b595b9d60c21b611420526106005261144098895270135d5b1d1a4b511a5c9958dd1a5bdb985b607a1b6114605261062098909852611480818152674d756c7469706c6560c01b6114a052610640526114c0878152632732b7b760e11b6114e0526106605261150085815264139a59da1d60da1b61152052610680526115409384526213da5b60ea1b611560526106a093909352611580858152664f7267616e696360c81b6115a0526106c0526115c08981526a50686f746f67726170687960a81b6115e0526106e05261160088815265506c61736d6160d01b61162052610700526116408981526a50726f626162696c69747960a81b6116605261072052611680858152665175616e74756d60c81b6116a052610740526116c084815264526164696f60d81b6116e052610760526117008981526a526164696f61637469766560a81b61172052610780526117409485526629b1b0b73732b960c91b611760526107a0949094526117809687526514da185c995960d21b6117a0526107c0969096526117c082815264536c696d6560d81b6117e0526107e05261180092835268536f756e647761766560b81b61182052610800929092526118408881526929bab832b931b7b637b960b11b61186052610820526118808481526b14dd5c195c9b985d1d5c985b60a21b6118a052610840526118c08681526a54656c656b696e6574696360a81b6118e052610860526119009788526954656c6573636f70696360b01b61192052610880979097526119409384526e151a5b595b1a5b994b54da185c9959608a1b611960526108a09390935261198092835267556c74696d61746560c01b6119a0526108c0929092526119c09283526a155b1d1c985d9a5bdb195d60aa1b6119e0526108e092909252611a009081526315da5b9960e21b611a205261090052611a80604052611a4092835264582d52617960d81b611a605261092092909252620007339190604562005cec565b50604051806107400160405280604051806040016040528060128152602001713474682057616c6c2041776172656e65737360701b815250815260200160405180604001604052806009815260200168111d585b08135a5b9960ba1b81525081526020016040518060400160405280601281526020017145636f6c6f676963616c20456d706174687960701b81525081526020016040518060400160405280601581526020017f456e68616e63656420496e74656c6c6967656e6365000000000000000000000081525081526020016040518060400160405280601981526020017f53757065726e61747572616c20496e74656c6c6967656e63650000000000000081525081526020016040518060400160405280600f81526020016e456e68616e636564204d656d6f727960881b81525081526020016040518060400160405280600d81526020016c456e68616e636564205769747360981b81525081526020016040518060400160405280601181526020017053757065726e61747572616c205769747360781b81525081526020016040518060400160405280600a81526020016911995c985b08135a5b9960b21b815250815260200160405180604001604052806012815260200171496e7475697469766520417074697475646560701b81525081526020016040518060400160405280601581526020017f4b6e6f776c65646765205265706c69636174696f6e00000000000000000000008152508152602001604051806040016040528060098152602001684d656e74696665727960b81b81525081526020016040518060400160405280600b81526020016a4f6d6e69736369656e636560a81b81525081526020016040518060400160405280600e81526020016d4f6d6e696c696e6775616c69736d60901b81525081526020016040518060400160405280601781526020017f426f74616e6963616c20436f6d6d756e69636174696f6e00000000000000000081525081526020016040518060400160405280601381526020017f437962657220436f6d6d756e69636174696f6e0000000000000000000000000081525081526020016040518060400160405280601e81526020017f4578747261746572726573747269616c20436f6d6d756e69636174696f6e000081525081526020016040518060400160405280601481526020017f4661756e616c20436f6d6d756e69636174696f6e0000000000000000000000008152508152602001604051806040016040528060128152602001712839bcb1b434b1902730bb34b3b0ba34b7b760711b81525081526020016040518060400160405280600e81526020016d141cde58da1a58c814da1a595b1960921b81525081526020016040518060400160405280601781526020017f546563686e6f6c6f6779204d616e6970756c6174696f6e00000000000000000081525081526020016040518060400160405280601181526020017020b9ba3930b610283937b532b1ba34b7b760791b81525081526020016040518060400160405280600f81526020016e436c616972636f676e697a616e636560881b81525081526020016040518060400160405280600c81526020016b436c616972766f79616e636560a01b81525081526020016040518060400160405280601081526020016f2230b733b2b91024b73a3ab4ba34b7b760811b81525081526020016040518060400160405280601581526020017f44696d656e73696f6e616c2041776172656e6573730000000000000000000000815250815260200160405180604001604052806007815260200166456d706174687960c81b81525081526020016040518060400160405280601781526020017f457874726173656e736f72792050657263657074696f6e00000000000000000081525081526020016040518060400160405280600a81526020016904d656469756d736869760b41b81525081526020016040518060400160405280601381526020017f4d656e64616369747920446574656374696f6e0000000000000000000000000081525081526020016040518060400160405280601181526020017026b2b73a30b610283937b532b1ba34b7b760791b81525081526020016040518060400160405280601381526020017f4f6666737072696e6720446574656374696f6e0000000000000000000000000081525081526020016040518060400160405280600c81526020016b283932b1b7b3b734ba34b7b760a11b81525081526020016040518060400160405280600a815260200169416261636f6d616e637960b01b81525081526020016040518060400160405280600a8152602001694e756d65726f6c6f677960b01b81525081526020016040518060400160405280600b81526020016a4f6e6569726f6d616e637960a81b81525081526020016040518060400160405280600b81526020016a50737963686f6d6574727960a81b81525081526020016040518060400160405280600e81526020016d2932ba3937b1b7b3b734ba34b7b760911b81525081526020016040518060400160405280600981526020016854656c65706174687960b81b81525081526020016040518060400160405280600f81526020016e41737472616c205472617070696e6760881b815250815260200160405180604001604052806012815260200171223932b0b69026b0b734b83ab630ba34b7b760711b81525081526020016040518060400160405280601481526020017f456d6f74696f6e204d616e6970756c6174696f6e00000000000000000000000081525081526020016040518060400160405280600f81526020016e1199585c88125b991d58d95b595b9d608a1b8152508152602001604051806040016040528060088152602001674879706e6f73697360c01b81525081526020016040518060400160405280601381526020017f4d656d6f7279204d616e6970756c6174696f6e0000000000000000000000000081525081526020016040518060400160405280601381526020017f4d656e74616c204d616e6970756c6174696f6e0000000000000000000000000081525081526020016040518060400160405280600c81526020016b135a5b990810dbdb9d1c9bdb60a21b81525081526020016040518060400160405280601881526020017f4d696e647363617065205472616e73706f72746174696f6e000000000000000081525081526020016040518060400160405280600a8152602001692837b9b9b2b9b9b4b7b760b11b8152508152602001604051806040016040528060128152602001712839b4b7b734b19024b73ab73230ba34b7b760711b8152508152602001604051806040016040528060128152602001715073796368696320436f6e7374727563747360701b81525081526020016040518060400160405280600a815260200169536972656e20536f6e6760b01b81525081526020016040518060400160405280600f81526020016e536f6369616c20436c6f616b696e6760881b81525081526020016040518060400160405280601281526020017115995c9d1a59dbc8125b991d58d95b595b9d60721b815250815260200160405180604001604052806012815260200171159bd8d85b08135a5b990810dbdb9d1c9bdb60721b81525081526020016040518060400160405280601181526020017010995b1a595988125b991d58d95b595b9d607a1b81525081526020016040518060400160405280601a81526020017f556e636f6e7363696f75736e65737320496e647563656d656e7400000000000081525081526020016040518060400160405280601781526020017f59696e20262059616e67204d616e6970756c6174696f6e000000000000000000815250815250600d90603a6200124992919062005d50565b50604080516105208101825260146104e082019081527f416363656c65726174656420526f746174696f6e00000000000000000000000061050083015281528151808301835260108082526f4164646974696f6e616c204c696d627360801b602083810191909152808401929092528351808501855260168082527f41646f7074697665204d7573636c65204d656d6f727900000000000000000000828501528486019190915284518086018652600c8082526b20b6b0b633b0b6b0ba34b7b760a11b82860152606086019190915285518087018752600d8082526c506c616e74204d657267696e6760981b828701526080870191909152865180880188529081526c536f6c6964204d657267696e6760981b8186015260a08601528551808701875260158082527f416e61746f6d6963616c204c696265726174696f6e00000000000000000000008287015260c0870191909152865180880188528381527f426f6479205061727420537562737469747574696f6e000000000000000000008187015260e0870152865180880188526011808252702137b7329026b0b734b83ab630ba34b7b760791b8288015261010088019190915287518089018952600a8082526943616d6f75666c61676560b01b828901526101208901919091528851808a018a52600f8082526e21b630bb902932ba3930b1ba34b7b760891b828a01526101408a01919091528951808b018b52828152692232b33632b1ba34b7b760b11b818a01526101608a01528951808b018b528181526e2330b733902932ba3930b1ba34b7b760891b818a01526101808a01528951808b018b528781526f2330ba1026b0b734b83ab630ba34b7b760811b818a01526101a08a01528951808b018b529384527f48656c69636f707465722050726f70756c73696f6e0000000000000000000000848901526101c08901939093528851808a018a528481526b496e7669736962696c69747960a01b818901526101e08901528851808a018a5281815269496d6d6f62696c69747960b01b818901526102008901528851808a018a528481526b496d6d75746162696c69747960a01b818901526102208901528851808a018a528381526e496e76756c6e65726162696c69747960881b818901526102408901528851808a018a52600e8082526d2532ba10283937b83ab639b4b7b760911b828a01526102608a01919091528951808b018b528781526f26b0ba3a32b91024b733b2b9ba34b7b760811b818a01526102808a01528951808b018b528681527f4d6f62696c6520496e76756c6e65726162696c69747900000000000000000000818a01526102a08a01528951808b018b5260138082527f4d7573636c65204d616e6970756c6174696f6e00000000000000000000000000828b01526102c08b01919091528a51808c018c52848152702730b4b61026b0b734b83ab630ba34b7b760791b818b01526102e08b01528a51808c018c52848152702732b2b2363290283937b532b1ba34b7b760791b818b01526103008b01528a51808c018c526012808252714f7267616e696320436f6e7374727563747360701b828c01526103208c01919091528b51808d018d528681526e283932b432b739b4b632902430b4b960891b818c01526103408c01528b51808d018d528681526e141c995a195b9cda5b194815185a5b608a1b818c01526103608c01528b51808d018d529485527050726568656e73696c6520546f6e67756560781b858b01526103808b01949094528a51808c018c52601b81527f526567656e65726174697665204865616c696e6720466163746f720000000000818b01526103a08b01528a51808c018c52600b81526a2932b83634b1b0ba34b7b760a91b818b01526103c08b01528a51808c018c529485526e29b2b63316a232ba37b730ba34b7b760891b858a01526103e08a01949094528951808b018b529182526914da185c9c0815185a5b60b21b828901526104008901919091528851808a018a529586526f29b834b5b290283937ba393ab9b4b7b760811b86880152610420880195909552875180890189529182527f537472756374757265205765616b656e696e670000000000000000000000000082870152610440870191909152865180880188529283527f54656e7461636c65204d616e69666573746174696f6e000000000000000000008386015261046086019290925285518087018752828152712a32b7323934b61023b2b732b930ba34b7b760711b81860152610480860152855180870187529182527156616d706972652050687973696f6c6f677960701b828501526104a0850191909152845180860190955284526b57616c6c637261776c696e6760a01b918401919091526104c08201929092526200191d9190602762005da2565b506040805161038081018252600f61034082018181526e20b1b4b21023b2b732b930ba34b7b760891b610360840152825282518084018452600e8082526d20b9b41023b2b732b930ba34b7b760911b6020838101919091528085019290925284518086018652601180825270213ab13136329023b2b732b930ba34b7b760791b8285015285870191909152855180870187528481526e223ab9ba1023b2b732b930ba34b7b760891b81850152606086015285518087018752818152702837bbb232b91023b2b732b930ba34b7b760791b81850152608086015285518087018752600c8082526b22b1b437b637b1b0ba34b7b760a11b8286015260a0870191909152865180880188528581526e08adcd0c2dcc6cac84084e4cac2e8d608b1b8186015260c087015286518088018852600b81526a08cd2e4ca4084e4cac2e8d60ab1b8186015260e0870152865180880188528581526e2334b9329023b2b732b930ba34b7b760891b81860152610100870152865180880188528381526d2337b39023b2b732b930ba34b7b760911b81860152610120870152865180880188528381526d23b7b79023b2b732b930ba34b7b760911b81860152610140870152865180880188528581526e2432b0ba1023b2b732b930ba34b7b760891b81860152610160870152865180880188528381526d24b7359023b2b732b930ba34b7b760911b81860152610180870152865180880188528581526e26b4b0b9b6b09022b6b4b9b9b4b7b760891b818601526101a087015286518088018852601781527f43686c6f72696e65204761732047656e65726174696f6e000000000000000000818601526101c087015286518088018852601481527f4e65727665204761732047656e65726174696f6e000000000000000000000000818601526101e087015286518088018852601581527f506f69736f6e204761732047656e65726174696f6e000000000000000000000081860152610200870152865180880188528381526d27b4b61023b2b732b930ba34b7b760911b8186015261022087015286518088018852601681527f506865726f6d6f6e65204d616e6970756c6174696f6e000000000000000000008186015261024087015286518088018852828152702837b4b9b7b71023b2b732b930ba34b7b760791b818601526102608701528651808801885260108082526f29b1b0b6321023b2b732b930ba34b7b760811b82870152610280880191909152875180890189528181526f29b6b7b5b29023b2b732b930ba34b7b760811b818701526102a0880152875180890189529182526b536f6e69632053637265616d60a01b828601526102c0870191909152865180880188529182527029ba32b731b41023b2b732b930ba34b7b760791b828501526102e0860191909152855180870187529081526f2bb0ba32b91023b2b732b930ba34b7b760811b81840152610300850152845180860190955284526d2bb2b11023b2b732b930ba34b7b760911b9084015261032082019290925262001d7c9190601a62005df4565b50604080516102408101825260116102008201818152704171756174696320427265617468696e6760781b610220840152825282518084018452601681527f41746d6f737068657269632041646170746174696f6e000000000000000000006020828101919091528084019190915283518085018552601881527f456e7669726f6e6d656e74616c2041646170746174696f6e00000000000000008183015283850152835180850185528281527020b2b934b0b61020b230b83a30ba34b7b760791b818301526060840152835180850185528281527020b931ba34b19020b230b83a30ba34b7b760791b81830152608084015283518085018552828152702232b9b2b93a1020b230b83a30ba34b7b760791b8183015260a0840152835180850185526012808252712330b63637baba1020b230b83a30ba34b7b760711b8284015260c08501919091528451808601865260138082527f4d6f756e7461696e2041646170746174696f6e000000000000000000000000008285015260e086019190915285518087018752601781527f53756274657272616e65616e2041646170746174696f6e0000000000000000008185015261010086015285518087018752828152712bb2ba3630b7321020b230b83a30ba34b7b760711b8185015261012086015285518087018752600f8082526e506f69736f6e20496d6d756e69747960881b82860152610140870191909152865180880188529182527f52656163746976652041646170746174696f6e0000000000000000000000000082850152610160860191909152855180870187529081526e53656c662d53757374656e616e636560881b818401526101808501528451808601865290815271546865726d616c20526573697374616e636560701b818301526101a08401528351808501855260108082526f2a3930b1b5b4b7339022bb30b9b4b7b760811b828401526101c08501919091528451808601909552918452702b30b1babab69020b230b83a30ba34b7b760791b908401526101e08201929092526200207a91908162005e46565b5060405180610320016040528060405180604001604052806011815260200170456e68616e63656420416363757261637960781b81525081526020016040518060400160405280601081526020016f456e68616e636564204167696c69747960801b81525081526020016040518060400160405280600f81526020016e115b9a185b98d9590810dbdb58985d608a1b81525081526020016040518060400160405280601281526020017122b73430b731b2b21021b7b73234ba34b7b760711b815250815260200160405180604001604052806011815260200170456e68616e636564204372616674696e6760781b815250815260200160405180604001604052806012815260200171456e68616e6365642044657874657269747960701b81525081526020016040518060400160405280601381526020017f456e68616e636564204475726162696c6974790000000000000000000000000081525081526020016040518060400160405280601481526020017f456e68616e63656420466c65786962696c69747900000000000000000000000081525081526020016040518060400160405280600d81526020016c0456e68616e636564204c65617609c1b81525081526020016040518060400160405280601681526020017f456e68616e636564204c756e6720436170616369747900000000000000000000815250815260200160405180604001604052806011815260200170456e68616e636564205265666c6578657360781b81525081526020016040518060400160405280600f81526020016e456e68616e6365642053656e73657360881b81525081526020016040518060400160405280601081526020016f456e68616e6365642048656172696e6760801b81525081526020016040518060400160405280600e81526020016d115b9a185b98d9590814db595b1b60921b81525081526020016040518060400160405280601481526020017f456e68616e6365642053796e657374686573696100000000000000000000000081525081526020016040518060400160405280600e81526020016d456e68616e63656420546173746560901b81525081526020016040518060400160405280600e81526020016d08adcd0c2dcc6cac840a8deeac6d60931b81525081526020016040518060400160405280600f81526020016e22b73430b731b2b2102b34b9b4b7b760891b81525081526020016040518060400160405280600f81526020016e48797065722041776172656e65737360881b81525081526020016040518060400160405280601081526020016f456e68616e636564205374616d696e6160801b81525081526020016040518060400160405280601181526020017008adcd0c2dcc6cac840a6e8e4cadccee8d607b1b81525081526020016040518060400160405280601681526020017f456e68616e6365642053776f7264736d616e7368697000000000000000000000815250815260200160405180604001604052806011815260200170456e68616e63656420546869657665727960781b81525081526020016040518060400160405280601381526020017f456e68616e636564205669736962696c6974790000000000000000000000000081525081526020016040518060400160405280600d81526020016c506f77657266756c204269746560981b81525081525060119060196200255c92919062005e98565b50604080516102a081018252601561026082018181527f53757065726e61747572616c204163637572616379000000000000000000000061028084015282528251808401845260148082527f53757065726e61747572616c204167696c697479000000000000000000000000602083810191909152808501929092528451808601865260138082527f53757065726e61747572616c20436f6d6261740000000000000000000000000082850152858701919091528551808701875260168082527f53757065726e61747572616c20436f6e646974696f6e00000000000000000000828601526060870191909152865180880188529081527f53757065726e61747572616c204465787465726974790000000000000000000081850152608086015285518087018752601781527f53757065726e61747572616c204475726162696c6974790000000000000000008185015260a086015285518087018752601881527f53757065726e61747572616c20466c65786962696c69747900000000000000008185015260c0860152855180870187526011815270053757065726e61747572616c204c65617607c1b8185015260e0860152855180870187528481527f53757065726e61747572616c205265666c65786573000000000000000000000081850152610100860152855180870187528181527f53757065726e61747572616c2053656e7365730000000000000000000000000081850152610120860152855180870187528281527f53757065726e61747572616c2048656172696e67000000000000000000000000818501526101408601528551808701875260128082527114dd5c195c9b985d1d5c985b0814db595b1b60721b82860152610160870191909152865180880188528181527153757065726e61747572616c20546173746560701b8186015261018087015286518088018852818152710a6eae0cae4dcc2e8eae4c2d840a8deeac6d60731b818601526101a0870152865180880188528281527f53757065726e61747572616c20566973696f6e00000000000000000000000000818601526101c0870152865180880188529283527f53757065726e61747572616c205374616d696e61000000000000000000000000838501526101e0860192909252855180870187528481527f53757065726e61747572616c20537472656e67746800000000000000000000008185015261020086015285518087018752601a81527f53757065726e61747572616c2053776f7264736d616e736869700000000000008185015261022086015285518087019096529285527f53757065726e61747572616c2054686965766572790000000000000000000000918501919091526102408301939093526200295392919062005eea565b5060408051610c00810182526014610bc082018181527f41636365737320616e64204f63636c7573696f6e000000000000000000000000610be0840152825282518084018452601981527f41637469766174696f6e202620446561637469766174696f6e000000000000006020828101919091528084019190915283518085018552600981526820b734b6b0ba34b7b760b91b8183015283850152835180850185526008815267436c6f616b696e6760c01b8183015260608401528351808501855260108082526f1119585d1a08125b991d58d95b595b9d60821b82840152608085019190915284518086018652600b8082526a2232b43cb23930ba34b7b760a91b8285015260a086019190915285518087018752600d8082526c2232b7bc3cb3b2b730ba34b7b760991b8286015260c08701919091528651808801885260138082527f44696d656e73696f6e616c2053746f72616765000000000000000000000000008287015260e088019190915287518089018952600e81526d2234b9b4b73a32b3b930ba34b7b760911b81870152610100880152875180890189528681527f456d6f74696f6e204d616e6970756c6174696f6e00000000000000000000000081870152610120880152875180890189526007808252664865616c696e6760c81b828801526101408901919091528851808a018a528381526c496e74616e676962696c69747960981b818801526101608901528851808a018a5260158082527f4c6966652d466f726365204162736f727074696f6e0000000000000000000000828901526101808a01919091528951808b018b52918252664d656c74696e6760c81b828801526101a08901919091528851808a018a528381526c4d696e642045786368616e676560981b818801526101c08901528851808a018a528781527f506172616c7973697320496e647563656d656e74000000000000000000000000818801526101e08901528851808a018a529283526c2832ba3934b334b1b0ba34b7b760991b83870152610200880192909252875180890189528681527f506879736963616c20526573746f726174696f6e000000000000000000000000818701526102208801528751808901895260168082527f50726f6a656374656420546865726d6f67726170687900000000000000000000828801526102408901919091528851808a018a528281527f5365646174696f6e20496e647563656d656e7400000000000000000000000000818801526102608901528851808a018a52600a81526929b2b63316a9b830bbb760b11b818801526102808901528851808a018a528581526f20b3b29026b0b734b83ab630ba34b7b760811b818801526102a08901528851808a018a5260118082527020bab9309026b0b734b83ab630ba34b7b760791b828901526102c08a01919091528951808b018b5260178082527f42696f6c6f676963616c204d616e6970756c6174696f6e000000000000000000828a01526102e08b01919091528a51808c018c528481527f436f736d6963204d616e6970756c6174696f6e00000000000000000000000000818a01526103008b01528a51808c018c528581527f4461726b6e657373204d616e6970756c6174696f6e0000000000000000000000818a01526103208b01528a51808c018c52600f8082526e11195b9cda5d1e4810dbdb9d1c9bdb608a1b828b01526103408c01919091528b51808d018d528281527f456c656d656e74616c205472616e736d75746174696f6e000000000000000000818b01526103608c01528b51808d018d52601f81527f46756e64616d656e74616c20466f72636573204d616e6970756c6174696f6e00818b01526103808c01528b51808d018d528a81527f47726176697479204d616e6970756c6174696f6e000000000000000000000000818b01526103a08c01528b51808d018d526012808252712634b3b43a1026b0b734b83ab630ba34b7b760711b828c01526103c08d01919091528c51808e018e528181527121b7b637b91026b0b734b83ab630ba34b7b760711b818c01526103e08d01528c51808e018e528b81527f5261696e626f77204d616e6970756c6174696f6e000000000000000000000000818c01526104008d01528c51808e018e5281815271263ab730b91026b0b734b83ab630ba34b7b760711b818c01526104208d01528c51808e018e528581527f4d61676e657469736d204d616e6970756c6174696f6e00000000000000000000818c01526104408d01528c51808e018e528481527026b0b9b99026b0b734b83ab630ba34b7b760791b818c01526104608d01528c51808e018e528581527f4d6f6c6563756c6172204d616e6970756c6174696f6e00000000000000000000818c01526104808d01528c51808e018e52818152712732b93b329026b0b734b83ab630ba34b7b760711b818c01526104a08d01528c51808e018e5260188082527f4e6f7468696e676e657373204d616e6970756c6174696f6e0000000000000000828d01526104c08e01919091528d51808f018f528c81527f50687973696373204d616e6970756c6174696f6e000000000000000000000000818d01526104e08e01528d51808f018f528881527f5072657373757265204d616e6970756c6174696f6e0000000000000000000000818d01526105008e01528d51808f018f528181527f50726f626162696c697479204d616e6970756c6174696f6e0000000000000000818d01526105208e01528d51808f018f529283526e5265616c6974792057617270696e6760881b838c01526105408d01929092528c51808e018e529788526a2932b0b734b6b0ba34b7b760a91b888b01526105608c01979097528b51808d018d528781527129b7b630b91026b0b734b83ab630ba34b7b760711b818b01526105808c01528b51808d018d528781527129b7bab7321026b0b734b83ab630ba34b7b760711b818b01526105a08c01528b51808d018d528a81527f5370617469616c204d616e6970756c6174696f6e000000000000000000000000818b01526105c08c01528b51808d018d528681527f54656d706f72616c204d616e6970756c6174696f6e0000000000000000000000818b01526105e08c01528b51808d018d528581527f576569676874204d616e6970756c6174696f6e00000000000000000000000000818b01526106008c01528b51808d018d528481527f43697263616469616e204d616e6970756c6174696f6e00000000000000000000818b01526106208c01528b51808d018d528881526f24b7359026b0b734b83ab630ba34b7b760811b818b01526106408c01528b51808d018d528681527f4c69746572617279204d616e6970756c6174696f6e0000000000000000000000818b01526106608c01528b51808d018d528581527f4d6972726f72204d616e6970756c6174696f6e00000000000000000000000000818b01526106808c01528b51808d018d528881526f27b4b61026b0b734b83ab630ba34b7b760811b818b01526106a08c01528b51808d018d528581527f536561736f6e204d616e6970756c6174696f6e00000000000000000000000000818b01526106c08c01528b51808d018d528581527f566563746f72204d616e6970756c6174696f6e00000000000000000000000000818b01526106e08c01528b51808d018d528881526f20b4b91026b0b734b83ab630ba34b7b760811b818b01526107008c01528b51808d018d528781527129b6b7b5b29026b0b734b83ab630ba34b7b760711b818b01526107208c01528b51808d018d528581527f416e696d616c204d616e6970756c6174696f6e00000000000000000000000000818b01526107408c01528b51808d018d529384527f416d7068696269616e204d616e6970756c6174696f6e00000000000000000000848a01526107608b01939093528a51808c018c529485527f41726163686e6964204d616e6970756c6174696f6e0000000000000000000000858901526107808a01949094528951808b018b528581527120bb34b0b71026b0b734b83ab630ba34b7b760711b818901526107a08a01528951808b018b52818152702334b9b41026b0b734b83ab630ba34b7b760791b818901526107c08a01528951808b018b528381527f496e73656374204d616e6970756c6174696f6e00000000000000000000000000818901526107e08a01528951808b018b528381527f4d616d6d616c204d616e6970756c6174696f6e00000000000000000000000000818901526108008a01528951808b018b528881527f52657074696c65204d616e6970756c6174696f6e000000000000000000000000818901526108208a01528951808b018b528681526f20b9b41026b0b734b83ab630ba34b7b760811b818901526108408a01528951808b018b5281815270223ab9ba1026b0b734b83ab630ba34b7b760791b818901526108608a01528951808b018b528581527122b0b93a341026b0b734b83ab630ba34b7b760711b818901526108808a01528951808b018b528881527f4372797374616c204d616e6970756c6174696f6e000000000000000000000000818901526108a08a01528951808b018b528581527123b630b9b99026b0b734b83ab630ba34b7b760711b818901526108c08a01528951808b018b528581527126b0b3b6b09026b0b734b83ab630ba34b7b760711b818901526108e08a01528951808b018b528581527126b2ba30b61026b0b734b83ab630ba34b7b760711b818901526109008a01528951808b018b528181527029b0b7321026b0b734b83ab630ba34b7b760791b818901526109208a01528951808b018b529182527f456c656374726963697479204d616e6970756c6174696f6e0000000000000000828801526109408901919091528851808a018a52601d81527f456c656374726f6d61676e657469736d204d616e6970756c6174696f6e000000818801526109608901528851808a018a52818152702334b9329026b0b734b83ab630ba34b7b760791b818801526109808901528851808a018a529485526f24b1b29026b0b734b83ab630ba34b7b760811b858701526109a08801949094528751808901895283815271283630b73a1026b0b734b83ab630ba34b7b760711b818701526109c0880152875180890189528181527f466c6f776572204d616e6970756c6174696f6e00000000000000000000000000818701526109e0880152875180890189529182527f53706163652d54696d65204d616e6970756c6174696f6e00000000000000000082860152610a0087019190915286518088018852601c8082527f5061727469636c6520456e65726779204d616e6970756c6174696f6e0000000082870152610a20880191909152875180890189529081527f46727569742f566567657461626c65204d616e6970756c6174696f6e0000000081860152610a40870152865180880188528181527f46756e677573204d616e6970756c6174696f6e0000000000000000000000000081860152610a60870152865180880188528181527f4e6174757265204d616e6970756c6174696f6e0000000000000000000000000081860152610a8087015286518088018852828152712830b832b91026b0b734b83ab630ba34b7b760711b81860152610aa087015286518088018852600c81526b0a0d8c2dce8408ee4deeee8d60a31b81860152610ac0870152865180880188528181527f506f6c6c656e204d616e6970756c6174696f6e0000000000000000000000000081860152610ae087015286518088018852928352702bb7b7b21026b0b734b83ab630ba34b7b760791b83850152610b0086019290925285518087018752818152712bb0ba32b91026b0b734b83ab630ba34b7b760711b81850152610b2086015285518087018752818152712b30b837b91026b0b734b83ab630ba34b7b760711b81850152610b40860152855180870187529384527f57656174686572204d616e6970756c6174696f6e00000000000000000000000084840152610b60850193909352845180860186528381527121b637bab21026b0b734b83ab630ba34b7b760711b81840152610b8085015284518086019095529184527129ba37b9369026b0b734b83ab630ba34b7b760711b90840152610ba082019290925262003ad19190605e62005f3c565b506040805161024081018252600f61020082018181526e2132b0b1b7b71022b6b4b9b9b4b7b760891b610220840152825282518084018452600980825268427572726f77696e6760b81b602083810191909152808501929092528451808601865260148082527f436f736d69632054656c65706f72746174696f6e000000000000000000000000828501528587019190915285518087018752601280825271111a5b595b9cda5bdb985b08151c985d995b60721b82860152606087019190915286518088018852601981527f456c656374726963616c205472616e73706f72746174696f6e00000000000000818601526080870152865180880188528581526e45736361706520417274697374727960881b8186015260a0870152865180880188529485526e2837b93a30b61021b932b0ba34b7b760891b8585015260c086019490945285518087018752600e81526d5370656564205377696d6d696e6760901b8185015260e0860152855180870187529182526853756d6d6f6e696e6760b81b8284015261010085019190915284518086018652600b8082526a14dd5c195c8814dc19595960aa1b8285015261012086019190915285518087018752600d8082526c2a32b632b837b93a30ba34b7b760991b82860152610140870191909152865180880188529182526a151a5b5948151c985d995b60aa1b828501526101608601919091528551808701875260118152702bb7b936b437b6329021b932b0ba34b7b760791b81850152610180860152855180870187529081526c466c69676874476c6964696e6760981b818401526101a085015284518086018652600a8152692632bb34ba30ba34b7b760b11b818401526101c08501528451808601909552918452712bb4b7339026b0b734b332b9ba30ba34b7b760711b908401526101e082019290925262003d859190601062005e46565b506040805161044081018252600b61040082018181526a416972204d696d6963727960a81b610420840152825282518084018452601081526f4461726b6e657373204d696d6963727960801b6020828101919091528084019190915283518085018552600d8082526c4d6574616c204d696d6963727960981b828401528486019190915284518086018652600c8082526b476f6c64204d696d6963727960a01b82850152606086019190915285518087018752601180825270496e6f7267616e6963204d696d6963727960781b828601526080870191909152865180880188528281526b46697265204d696d6963727960a01b8186015260a0870152865180880188528381526c4d61676d61204d696d6963727960981b8186015260c0870152865180880188528281526b53616e64204d696d6963727960a01b8186015260e0870152865180880188528581526a496e6b204d696d6963727960a81b818601526101008701528651808801885281815270456c656d656e74616c204d696d6963727960781b81860152610120870152865180880188528281526b436c6179204d696d6963727960a01b81860152610140870152865180880188528381526c536c696d65204d696d6963727960981b81860152610160870152865180880188528381526c536d6f6b65204d696d6963727960981b818601526101808701528651808801885260138082527f456c656374726963697479204d696d6963727900000000000000000000000000828701526101a088019190915287518089018952600f8082526e4372797374616c204d696d6963727960881b828801526101c08901919091528851808a018a528181526e4469616d6f6e64204d696d6963727960881b818801526101e08901528851808a018a528581526c5061706572204d696d6963727960981b818801526102008901528851808a018a528481526b4469676974616c20466f726d60a01b818801526102208901528851808a018a528181526e54616368796f6e204d696d6963727960881b818801526102408901528851808a018a528781526a496365204d696d6963727960a81b818801526102608901528851808a018a5260128152715374656c6c61722050687973696f6c6f677960701b818801526102808901528851808a018a529081526e5370617469616c204d696d6963727960881b818701526102a08801528751808901895291825270456e657267792050687973696f6c6f677960781b828601526102c0870191909152865180880188528281526b44757374204d696d6963727960a01b818601526102e0870152865180880188528581526a417368204d696d6963727960a81b81860152610300870152865180880188529283526c506c616e74204d696d6963727960981b8385015261032086019290925285518087018752600e8082526d466c6f776572204d696d6963727960901b82860152610340870191909152865180880188529081526d46756e67616c204d696d6963727960901b81850152610360860152855180870187529081526b576f6f64204d696d6963727960a01b818401526103808501528451808601865260098152684368696d657269736d60b81b818401526103a0850152845180860186529283526a121e589c9a590814dbdd5b60aa1b838301526103c084019290925283518085019094529083527f556e6963656c6c756c6172204d696d6963727900000000000000000000000000838201526103e082019290925262004294916015919062005f8e565b506040805161102081018252601f610fe082018181527f456c656374726f6d61676e6574696320576176652050687973696f6c6f67790061100084015282528251808401845260208082527f4172746966696369616c6c7920456e68616e6365642050687973696f6c6f677982820152808401919091528351808501855260148082527f416d7068696269616e2050687973696f6c6f677900000000000000000000000082840152848601919091528451808601865260138082527f41726163686e69642050687973696f6c6f677900000000000000000000000000828501526060860191909152855180870187528181527f53636f7270696f6e2050687973696f6c6f677900000000000000000000000000818501526080860152855180870187526011808252705370696465722050687973696f6c6f677960781b8286015260a08701919091528651808801885260108082526f417669616e2050687973696f6c6f677960801b8287015260c08801919091528751808901895282815270436f727669642050687973696f6c6f677960781b8187015260e088015287518089018952600e8082526d4f776c2050687973696f6c6f677960901b828801526101008901919091528851808a018a5283815270506172726f742050687973696f6c6f677960781b818801526101208901528851808a018a52600f8082526e466973682050687973696f6c6f677960881b828901526101408a01919091528951808b018b528381526f536861726b2050687973696f6c6f677960801b818901526101608a01528951808b018b5284815270496e736563742050687973696f6c6f677960781b818901526101808a01528951808b018b528281526d416e742050687973696f6c6f677960901b818901526101a08a01528951808b018b528281526d4265652050687973696f6c6f677960901b818901526101c08a01528951808b018b5284815270426565746c652050687973696f6c6f677960781b818901526101e08a01528951808b018b528681527f426c6174746f6465612050687973696f6c6f6779000000000000000000000000818901526102008a01528951808b018b528681527f427574746572666c792050687973696f6c6f6779000000000000000000000000818901526102208a01528951808b018b528181526e4d6f74682050687973696f6c6f677960881b818901526102408a01528951808b018b5260158082527f43657068616c6f706f642050687973696f6c6f67790000000000000000000000828a01526102608b01919091528a51808c018c528781527f436e6964617269616e2050687973696f6c6f6779000000000000000000000000818a01526102808b01528a51808c018c528181527f4372757374616365616e2050687973696f6c6f67790000000000000000000000818a01526102a08b01528a51808c018c528181527f456368696e6f6465726d2050687973696f6c6f67790000000000000000000000818a01526102c08b01528a51808c018c528781527f4d616d6d616c69616e2050687973696f6c6f6779000000000000000000000000818a01526102e08b01528a51808c018c528381526d4261742050687973696f6c6f677960901b818a01526103008b01528a51808c018c5285815270426f76696e652050687973696f6c6f677960781b818a01526103208b01528a51808c018c5260128082527143616d656c69642050687973696f6c6f677960701b828b01526103408c01919091528b51808d018d528681527043616e696e652050687973696f6c6f677960781b818b01526103608c01528b51808d018d52868152704365727669642050687973696f6c6f677960781b818b01526103808c01528b51808d018d528781527f436574616365616e2050687973696f6c6f677900000000000000000000000000818b01526103a08c01528b51808d018d528781527f456c657068616e742050687973696f6c6f677900000000000000000000000000818b01526103c08c01528b51808d018d528581526f45717569642050687973696f6c6f677960801b818b01526103e08c01528b51808d018d528581526f486f7273652050687973696f6c6f677960801b818b01526104008c01528b51808d018d528681527046656c696e652050687973696f6c6f677960781b818b01526104208c01528b51808d018d5281815271476972616666652050687973696f6c6f677960701b818b01526104408c01528b51808d018d528581526f4879656e612050687973696f6c6f677960801b818b01526104608c01528b51808d018d528881527f4c61676f6d6f7270682050687973696f6c6f6779000000000000000000000000818b01526104808c01528b51808d018d528881527f4d617273757069616c2050687973696f6c6f6779000000000000000000000000818b01526104a08c01528b51808d018d528781527f4d6f6e676f6f73652050687973696f6c6f677900000000000000000000000000818b01526104c08c01528b51808d018d528881527f4d6f6e6f7472656d652050687973696f6c6f6779000000000000000000000000818b01526104e08c01528b51808d018d528781527f50696e6e697065642050687973696f6c6f677900000000000000000000000000818b01526105008c01528b51808d018d52818152715072696d6174652050687973696f6c6f677960701b818b01526105208c01528b51808d018d528881527f50726f63796f6e69642050687973696f6c6f6779000000000000000000000000818b01526105408c01528b51808d018d528881527f50726f73696d69616e2050687973696f6c6f6779000000000000000000000000818b01526105608c01528b51808d018d528281527f5268696e6f6365726f732050687973696f6c6f67790000000000000000000000818b01526105808c01528b51808d018d5286815270526f64656e742050687973696f6c6f677960781b818b01526105a08c01528b51808d018d5281815271536972656e69612050687973696f6c6f677960701b818b01526105c08c01528b51808d018d5286815270557273696e652050687973696f6c6f677960781b818b01526105e08c01528b51808d018d528881527f58656e6172746872612050687973696f6c6f6779000000000000000000000000818b01526106008c01528b51808d018d528781527f50617261736974652050687973696f6c6f677900000000000000000000000000818b01526106208c01528b51808d018d528881527f52657074696c69616e2050687973696f6c6f6779000000000000000000000000818b01526106408c01528b51808d018d528781527f44696e6f736175722050687973696f6c6f677900000000000000000000000000818b01526106608c01528b51808d018d5286815270447261676f6e2050687973696f6c6f677960781b818b01526106808c01528b51808d018d528881527f507465726f736175722050687973696f6c6f6779000000000000000000000000818b01526106a08c01528b51808d018d528581526f536e616b652050687973696f6c6f677960801b818b01526106c08c01528b51808d018d528781527f546f72746f6973652050687973696f6c6f677900000000000000000000000000818b01526106e08c01528b51808d018d5286815270547572746c652050687973696f6c6f677960781b818b01526107008c01528b51808d018d52868152704d79746869632050687973696f6c6f677960781b818b018190526107208d01919091528c51808e018e528681526f416c69656e2050687973696f6c6f677960801b818c01526107408d01528c51808e018e528681526f416e67656c2050687973696f6c6f677960801b818c01526107608d01528c51808e018e528881527f42616b656e656b6f2050687973696f6c6f677900000000000000000000000000818c01526107808d01528c51808e018e528681526f44656d6f6e2050687973696f6c6f677960801b818c01526107a08d01528c51808e018e528581526d456c662050687973696f6c6f677960901b818c01526107c08d01528c51808e018e528681526f46616972792050687973696f6c6f677960801b818c01526107e08d01528c51808e018e528881527f476172676f796c652050687973696f6c6f677900000000000000000000000000818c01526108008d01528c51808e018e528681526f47656e69652050687973696f6c6f677960801b818c01526108208d01528c51808e018e528681526f47686f73742050687973696f6c6f677960801b818c01526108408d01528c51808e018e528681526f4769616e742050687973696f6c6f677960801b818c01526108608d01528c51808e018e5287815270476f72676f6e2050687973696f6c6f677960781b818c01526108808d01528c51808e018e52828152714772696666696e2050687973696f6c6f677960701b818c01526108a08d01528c51808e018e5260168082527f4772696d205265617065722050687973696f6c6f677900000000000000000000828d01526108c08e01919091528d51808f018f528a81527f48656c6c686f756e642050687973696f6c6f6779000000000000000000000000818d01526108e08e01528d51808f018f52838152714b697473756e652050687973696f6c6f677960701b818d01526109008e01528d51808f018f52838152714d6572666f6c6b2050687973696f6c6f677960701b818d01526109208e01528d51808f018f528981527f4d696e6f746175722050687973696f6c6f677900000000000000000000000000818d01526109408e01528d51808f018f52838152714d6f6e737465722050687973696f6c6f677960701b818d01526109608e01528d51808f018f529485526e4e6167612050687973696f6c6f677960881b858c01526109808d01949094528c51808e018e528881527f4e657068696c696d2050687973696f6c6f677900000000000000000000000000818c01526109a08d01528c51808e018e529485526d4f6e692050687973696f6c6f677960901b858b01526109c08c01949094528b51808d018d5281815271506567617375732050687973696f6c6f677960701b818b01526109e08c01528b51808d018d528181527150686f656e69782050687973696f6c6f677960701b818b0152610a008c01528b51808d018d528581526f5261696a752050687973696f6c6f677960801b818b0152610a208c01528b51808d018d529788527f5361737175617463682050687973696f6c6f6779000000000000000000000000888a0152610a408b01979097528a51808c018c52858152705370697269742050687973696f6c6f677960781b818a0152610a608b01528a51808c018c528681527f53756363756275732050687973696f6c6f677900000000000000000000000000818a0152610a808b01528a51808c018c528481526f54656e67752050687973696f6c6f677960801b818a0152610aa08b01528a51808c018c528281527f5468756e646572626972642050687973696f6c6f677900000000000000000000818a0152610ac08b01528a51808c018c528481526f54726f6c6c2050687973696f6c6f677960801b818a0152610ae08b01528a51808c018c5285815270556e646561642050687973696f6c6f677960781b818a0152610b008b01528a51808c018c5287815271556e69636f726e2050687973696f6c6f677960701b818a0152610b208b01528a51808c018c528781527156616d706972652050687973696f6c6f677960701b818a0152610b408b01528a51808c018c529687527157656e6469676f2050687973696f6c6f677960701b87890152610b608a01969096528951808b018b529485527f57657265776f6c662050687973696f6c6f67790000000000000000000000000085880152610b808901949094528851808a018a5260178082527f5472616e7363656e64656e742050687973696f6c6f677900000000000000000082890152610ba08a01919091528951808b018b5260188082527f436f736d696320456e746974792050687973696f6c6f67790000000000000000828a0152610bc08b01919091528a51808c018c529889527f437468756c6875204d7974686f732044656974792050687973696f6c6f67790089890152610be08a01989098528951808b018b5284815280880192909252610c008901919091528851808a018a52601b8082527f41626f726967696e616c2044656974792050687973696f6c6f6779000000000082890152610c208a01919091528951808b018b528881527f4166726963616e2044656974792050687973696f6c6f6779000000000000000081890152610c408a01528951808b018b528281527f416c746169632044656974792050687973696f6c6f677900000000000000000081890152610c608a01528951808b018b528681527f417261622044656974792050687973696f6c6f6779000000000000000000000081890152610c808a01528951808b018b5260198082527f41726d656e69616e2044656974792050687973696f6c6f677900000000000000828a0152610ca08b01919091528a51808c018c528681527f417a7465632044656974792050687973696f6c6f677900000000000000000000818a0152610cc08b01528a51808c018c52601a81527f43616e61616e6974652044656974792050687973696f6c6f6779000000000000818a0152610ce08b01528a51808c018c528381527f43656c7469632044656974792050687973696f6c6f6779000000000000000000818a0152610d008b01528a51808c018c528981527f4368696e6573652044656974792050687973696f6c6f67790000000000000000818a0152610d208b01528a51808c018c528181527f456779707469616e2044656974792050687973696f6c6f677900000000000000818a0152610d408b01528a51808c018c528981527f46696e6e6973682044656974792050687973696f6c6f67790000000000000000818a0152610d608b01528a51808c018c528681527f477265656b2044656974792050687973696f6c6f677900000000000000000000818a0152610d808b01528a51808c018c528781527f50726f746f67656e6f692050687973696f6c6f67790000000000000000000000818a0152610da08b01528a51808c018c529384526f546974616e2050687973696f6c6f677960801b84890152610dc08a01939093528951808b018b528881527f47756172616e692044656974792050687973696f6c6f6779000000000000000081890152610de08a01528951808b018b528581527f48696e64752044656974792050687973696f6c6f67790000000000000000000081890152610e008a01528951808b018b529586527f496e63612044656974792050687973696f6c6f6779000000000000000000000086880152610e208901959095528851808a018a528481527f4d6179616e2044656974792050687973696f6c6f67790000000000000000000081880152610e408901528851808a018a52601d81527f4d65736f706f74616d69616e2044656974792050687973696f6c6f677900000081880152610e608901528851808a018a528681527f4e617469766520416d65726963616e2044656974792050687973696f6c6f677981880152610e808901528851808a018a528481527f4e6f7273652044656974792050687973696f6c6f67790000000000000000000081880152610ea08901528851808a018a529687527f4f6365616e69632044656974792050687973696f6c6f6779000000000000000087870152610ec088019690965287518089018952918252704f72697368612050687973696f6c6f677960781b82860152610ee0870191909152865180880188529283527f5068696c697070696e652044656974792050687973696f6c6f6779000000000083850152610f00860192909252855180870187528181527f526f6d616e2044656974792050687973696f6c6f67790000000000000000000081850152610f20860152855180870187528481527f5368696e746f2044656974792050687973696f6c6f677900000000000000000081850152610f40860152855180870187529182527f536962657269616e2044656974792050687973696f6c6f67790000000000000082840152610f60850191909152845180860186529283527f536c617669632044656974792050687973696f6c6f677900000000000000000083830152610f80840192909252835180850185528281527f566f646f752044656974792050687973696f6c6f67790000000000000000000081830152610fa08401528351808501909452601c84527f5a6f726f6173747269616e2044656974792050687973696f6c6f67790000000090840152610fc082019290925262005a849190607f62005fe0565b506040518060a00160405280606381526020016200a66c60639139805162005ab59160179160209091019062006032565b506040805161028081019091526101ca6080820181815282916200a6cf60a08401398152602001604051806040016040528060128152602001713dbdba37b5b2b724b23ebe9e17ba32bc3a1f60711b81525081526020016040518060600160405280602a81526020016200a899602a91398152602001604051806040016040528060068152602001651e17b9bb339f60d11b815250815250601890600462005b5f929190620060bd565b506103e86019556000601a55662386f26fc10000601b5534801562005b8357600080fd5b506040516200a8c33803806200a8c383398101604081905262005ba69162006189565b604080518082018252600a81526929bab832b93837bbb2b960b11b60208083019182528351808501909452600484526329a82ba960e11b90840152815191929162005bf49160009162006032565b50805162005c0a90600190602084019062006032565b50506001600b55506001600160601b0319606082901b1660805262005c3160003362005c38565b50620061f8565b62005c44828262005c48565b5050565b6000828152600a602090815260408083206001600160a01b038516845290915290205460ff1662005c44576000828152600a602090815260408083206001600160a01b03851684529091529020805460ff1916600117905562005ca83390565b6001600160a01b0316816001600160a01b0316837f2f8788117e7eff1d82e926ec794901d17c78024a50270940304540a733656f0d60405160405180910390a45050565b82805482825590600052602060002090810192821562005d3e579160200282015b8281111562005d3e578251805162005d2d91849160209091019062006032565b509160200191906001019062005d0d565b5062005d4c9291506200610f565b5090565b82805482825590600052602060002090810192821562005d3e579160200282015b8281111562005d3e578251805162005d9191849160209091019062006032565b509160200191906001019062005d71565b82805482825590600052602060002090810192821562005d3e579160200282015b8281111562005d3e578251805162005de391849160209091019062006032565b509160200191906001019062005dc3565b82805482825590600052602060002090810192821562005d3e579160200282015b8281111562005d3e578251805162005e3591849160209091019062006032565b509160200191906001019062005e15565b82805482825590600052602060002090810192821562005d3e579160200282015b8281111562005d3e578251805162005e8791849160209091019062006032565b509160200191906001019062005e67565b82805482825590600052602060002090810192821562005d3e579160200282015b8281111562005d3e578251805162005ed991849160209091019062006032565b509160200191906001019062005eb9565b82805482825590600052602060002090810192821562005d3e579160200282015b8281111562005d3e578251805162005f2b91849160209091019062006032565b509160200191906001019062005f0b565b82805482825590600052602060002090810192821562005d3e579160200282015b8281111562005d3e578251805162005f7d91849160209091019062006032565b509160200191906001019062005f5d565b82805482825590600052602060002090810192821562005d3e579160200282015b8281111562005d3e578251805162005fcf91849160209091019062006032565b509160200191906001019062005faf565b82805482825590600052602060002090810192821562005d3e579160200282015b8281111562005d3e57825180516200602191849160209091019062006032565b509160200191906001019062006001565b8280546200604090620061bb565b90600052602060002090601f016020900481019282620060645760008555620060af565b82601f106200607f57805160ff1916838001178555620060af565b82800160010185558215620060af579182015b82811115620060af57825182559160200191906001019062006092565b5062005d4c92915062006130565b82805482825590600052602060002090810192821562005d3e579160200282015b8281111562005d3e5782518051620060fe91849160209091019062006032565b5091602001919060010190620060de565b8082111562005d4c57600062006126828262006147565b506001016200610f565b5b8082111562005d4c576000815560010162006131565b5080546200615590620061bb565b6000825580601f1062006166575050565b601f01602090049060005260206000209081019062006186919062006130565b50565b6000602082840312156200619c57600080fd5b81516001600160a01b0381168114620061b457600080fd5b9392505050565b600181811c90821680620061d057607f821691505b60208210811415620061f257634e487b7160e01b600052602260045260246000fd5b50919050565b60805160601c61444e6200621e60003960008181610e8e0152611de4015261444e6000f3fe6080604052600436106102705760003560e01c80634d58364b1161014f578063a217fddf116100c1578063c63adb2b1161007a578063c63adb2b1461076a578063c87b56dd14610780578063d547741f146107a0578063df89a7d2146107c0578063e985e9c5146107e0578063fc8bd3ff1461082957600080fd5b8063a217fddf146106b5578063a22cb465146106ca578063b88d4fde146106ea578063bba7e5b21461070a578063c08369e91461072a578063c5de62861461074a57600080fd5b80638095286611610113578063809528661461060b57806384c167ea1461062b578063897ecca11461064057806391d148541461066057806395d89b41146106805780639e426dd91461069557600080fd5b80634d58364b146105835780634e71d92d146105a35780634f6ccce7146105ab5780636352211e146105cb57806370a08231146105eb57600080fd5b806323b872dd116101e85780632f745c59116101ac5780632f745c59146104c357806336568abe146104e35780633fe800ef1461050357806342842e0e14610523578063446f50c214610543578063499305c41461056357600080fd5b806323b872dd146103ff578063248a9ca31461041f57806325e6f5161461044f5780632a55205a146104645780632f2ff15d146104a357600080fd5b806306fdde031161023a57806306fdde031461033d578063081812fc1461035257806308b9fa841461038a578063095ea7b3146103aa57806318160ddd146103ca5780631f72d831146103df57600080fd5b80629a9b7b14610275578062d5da021461029e578063015e1a0b146102c057806301ffc9a7146102ed57806303e7b4e91461031d575b600080fd5b34801561028157600080fd5b5061028b601a5481565b6040519081526020015b60405180910390f35b3480156102aa57600080fd5b506102be6102b9366004613db1565b610849565b005b3480156102cc57600080fd5b506102e06102db366004613d3b565b61086d565b604051610295919061415e565b3480156102f957600080fd5b5061030d610308366004613d77565b6108bc565b6040519015158152602001610295565b34801561032957600080fd5b506102e0610338366004613d3b565b610912565b34801561034957600080fd5b506102e0610a10565b34801561035e57600080fd5b5061037261036d366004613d3b565b610aa2565b6040516001600160a01b039091168152602001610295565b34801561039657600080fd5b506102e06103a5366004613d3b565b610b3c565b3480156103b657600080fd5b506102be6103c5366004613c49565b610c46565b3480156103d657600080fd5b5060085461028b565b3480156103eb57600080fd5b506102be6103fa366004613d3b565b610d57565b34801561040b57600080fd5b506102be61041a366004613b55565b610dca565b34801561042b57600080fd5b5061028b61043a366004613d3b565b6000908152600a602052604090206001015490565b34801561045b57600080fd5b506102e0610dfb565b34801561047057600080fd5b5061048461047f366004613de6565b610e89565b604080516001600160a01b039093168352602083019190915201610295565b3480156104af57600080fd5b506102be6104be366004613d54565b610ed3565b3480156104cf57600080fd5b5061028b6104de366004613c49565b610ef9565b3480156104ef57600080fd5b506102be6104fe366004613d54565b610f8f565b34801561050f57600080fd5b506102e061051e366004613d3b565b61100d565b34801561052f57600080fd5b506102be61053e366004613b55565b611b25565b34801561054f57600080fd5b506102e061055e366004613d3b565b611b40565b34801561056f57600080fd5b506102be61057e366004613c73565b611c40565b34801561058f57600080fd5b506102e061059e366004613d3b565b611c5f565b6102be611c8a565b3480156105b757600080fd5b5061028b6105c6366004613d3b565b611e34565b3480156105d757600080fd5b506103726105e6366004613d3b565b611ec7565b3480156105f757600080fd5b5061028b610606366004613b07565b611f3e565b34801561061757600080fd5b506102e0610626366004613d3b565b611fc5565b34801561063757600080fd5b5061028b6120c7565b34801561064c57600080fd5b506102e061065b366004613d3b565b6120eb565b34801561066c57600080fd5b5061030d61067b366004613d54565b6121e2565b34801561068c57600080fd5b506102e061220d565b3480156106a157600080fd5b506102e06106b0366004613d3b565b61221c565b3480156106c157600080fd5b5061028b600081565b3480156106d657600080fd5b506102be6106e5366004613c0d565b612317565b3480156106f657600080fd5b506102be610705366004613b91565b6123dc565b34801561071657600080fd5b506102e0610725366004613d3b565b612414565b34801561073657600080fd5b506102e0610745366004613d3b565b612517565b34801561075657600080fd5b506102e0610765366004613d3b565b612630565b34801561077657600080fd5b5061028b60195481565b34801561078c57600080fd5b506102e061079b366004613d3b565b612723565b3480156107ac57600080fd5b506102be6107bb366004613d54565b61275a565b3480156107cc57600080fd5b506102e06107db366004613d3b565b612780565b3480156107ec57600080fd5b5061030d6107fb366004613b22565b6001600160a01b03918216600090815260056020908152604080832093909416825291909152205460ff1690565b34801561083557600080fd5b506102e0610844366004613d3b565b612880565b6000610855813361297b565b8151610868906017906020850190613927565b505050565b6060600061088261087d8461100d565b6129df565b9050600061088f84612b47565b6017836040516020016108a493929190613f16565b60408051601f19818403018152919052949350505050565b60006108c782612c4d565b806108d657506108d682612c72565b806108f1575063152a902d60e11b6001600160e01b03198316145b8061090c57506301ffc9a760e01b6001600160e01b03198316145b92915050565b606061090c826040518060400160405280600881526020016732b6b4b9b9b4b7b760c11b815250600f805480602002602001604051908101604052809291908181526020016000905b82821015610a0757838290600052602060002001805461097a906142ea565b80601f01602080910402602001604051908101604052809291908181526020018280546109a6906142ea565b80156109f35780601f106109c8576101008083540402835291602001916109f3565b820191906000526020600020905b8154815290600101906020018083116109d657829003601f168201915b50505050508152602001906001019061095b565b50505050612c97565b606060008054610a1f906142ea565b80601f0160208091040260200160405190810160405280929190818152602001828054610a4b906142ea565b8015610a985780601f10610a6d57610100808354040283529160200191610a98565b820191906000526020600020905b815481529060010190602001808311610a7b57829003601f168201915b5050505050905090565b6000818152600260205260408120546001600160a01b0316610b205760405162461bcd60e51b815260206004820152602c60248201527f4552433732313a20617070726f76656420717565727920666f72206e6f6e657860448201526b34b9ba32b73a103a37b5b2b760a11b60648201526084015b60405180910390fd5b506000908152600460205260409020546001600160a01b031690565b606061090c826040518060400160405280601a81526020017f73757065726e61747572616c506879736963616c536b696c6c730000000000008152506012805480602002602001604051908101604052809291908181526020016000905b82821015610a07578382906000526020600020018054610bb9906142ea565b80601f0160208091040260200160405190810160405280929190818152602001828054610be5906142ea565b8015610c325780601f10610c0757610100808354040283529160200191610c32565b820191906000526020600020905b815481529060010190602001808311610c1557829003601f168201915b505050505081526020019060010190610b9a565b6000610c5182611ec7565b9050806001600160a01b0316836001600160a01b03161415610cbf5760405162461bcd60e51b815260206004820152602160248201527f4552433732313a20617070726f76616c20746f2063757272656e74206f776e656044820152603960f91b6064820152608401610b17565b336001600160a01b0382161480610cdb5750610cdb81336107fb565b610d4d5760405162461bcd60e51b815260206004820152603860248201527f4552433732313a20617070726f76652063616c6c6572206973206e6f74206f7760448201527f6e6572206e6f7220617070726f76656420666f7220616c6c00000000000000006064820152608401610b17565b6108688383612d89565b6000610d63813361297b565b612710821115610dc45760405162461bcd60e51b815260206004820152602660248201527f726f79616c74794270732073686f756c642062652077697468696e205b302c2060448201526531303030305d60d01b6064820152608401610b17565b50601955565b610dd43382612df7565b610df05760405162461bcd60e51b8152600401610b17906141c3565b610868838383612eea565b60178054610e08906142ea565b80601f0160208091040260200160405190810160405280929190818152602001828054610e34906142ea565b8015610e815780601f10610e5657610100808354040283529160200191610e81565b820191906000526020600020905b815481529060010190602001808311610e6457829003601f168201915b505050505081565b6000807f000000000000000000000000000000000000000000000000000000000000000061271060195485610ebe9190614271565b610ec8919061425d565b915091509250929050565b6000828152600a6020526040902060010154610eef813361297b565b6108688383613095565b6000610f0483611f3e565b8210610f665760405162461bcd60e51b815260206004820152602b60248201527f455243373231456e756d657261626c653a206f776e657220696e646578206f7560448201526a74206f6620626f756e647360a81b6064820152608401610b17565b506001600160a01b03919091166000908152600660209081526040808320938352929052205490565b6001600160a01b0381163314610fff5760405162461bcd60e51b815260206004820152602f60248201527f416363657373436f6e74726f6c3a2063616e206f6e6c792072656e6f756e636560448201526e103937b632b9903337b91039b2b63360891b6064820152608401610b17565b611009828261311b565b5050565b60408051602081019091526000808252606091905b601854811015611b1e5760606110ff6018838154811061104457611044614396565b906000526020600020018054611059906142ea565b80601f0160208091040260200160405190810160405280929190818152602001828054611085906142ea565b80156110d25780601f106110a7576101008083540402835291602001916110d2565b820191906000526020600020905b8154815290600101906020018083116110b557829003601f168201915b50505050506040518060400160405280600a8152602001697b7b766973696f6e7d7d60b01b815250613182565b156111145761110d85612517565b9050611ae8565b6111f86018838154811061112a5761112a614396565b90600052602060002001805461113f906142ea565b80601f016020809104026020016040519081016040528092919081815260200182805461116b906142ea565b80156111b85780601f1061118d576101008083540402835291602001916111b8565b820191906000526020600020905b81548152906001019060200180831161119b57829003601f168201915b50505050506040518060400160405280601781526020017f7b7b6d656e74616c6974794261736564506f7765727d7d000000000000000000815250613182565b156112065761110d85611b40565b6112ea6018838154811061121c5761121c614396565b906000526020600020018054611231906142ea565b80601f016020809104026020016040519081016040528092919081815260200182805461125d906142ea565b80156112aa5780601f1061127f576101008083540402835291602001916112aa565b820191906000526020600020905b81548152906001019060200180831161128d57829003601f168201915b50505050506040518060400160405280601981526020017f7b7b706572736f6e616c506879736963616c506f7765727d7d00000000000000815250613182565b156112f85761110d85611fc5565b6113cb6018838154811061130e5761130e614396565b906000526020600020018054611323906142ea565b80601f016020809104026020016040519081016040528092919081815260200182805461134f906142ea565b801561139c5780601f106113715761010080835404028352916020019161139c565b820191906000526020600020905b81548152906001019060200180831161137f57829003601f168201915b50505050506040518060400160405280600c81526020016b7b7b656d697373696f6e7d7d60a01b815250613182565b156113d95761110d85610912565b6114ae601883815481106113ef576113ef614396565b906000526020600020018054611404906142ea565b80601f0160208091040260200160405190810160405280929190818152602001828054611430906142ea565b801561147d5780601f106114525761010080835404028352916020019161147d565b820191906000526020600020905b81548152906001019060200180831161146057829003601f168201915b50505050506040518060400160405280600e81526020016d7b7b61646170746174696f6e7d7d60901b815250613182565b156114bc5761110d856120eb565b6115a0601883815481106114d2576114d2614396565b9060005260206000200180546114e7906142ea565b80601f0160208091040260200160405190810160405280929190818152602001828054611513906142ea565b80156115605780601f1061153557610100808354040283529160200191611560565b820191906000526020600020905b81548152906001019060200180831161154357829003601f168201915b50505050506040518060400160405280601a81526020017f7b7b656e68616e636564506879736963616c536b696c6c737d7d000000000000815250613182565b156115ae5761110d85612414565b611692601883815481106115c4576115c4614396565b9060005260206000200180546115d9906142ea565b80601f0160208091040260200160405190810160405280929190818152602001828054611605906142ea565b80156116525780601f1061162757610100808354040283529160200191611652565b820191906000526020600020905b81548152906001019060200180831161163557829003601f168201915b50505050506040518060400160405280601e81526020017f7b7b73757065726e61747572616c506879736963616c536b696c6c737d7d0000815250613182565b156116a05761110d85610b3c565b611784601883815481106116b6576116b6614396565b9060005260206000200180546116cb906142ea565b80601f01602080910402602001604051908101604052809291908181526020018280546116f7906142ea565b80156117445780601f1061171957610100808354040283529160200191611744565b820191906000526020600020905b81548152906001019060200180831161172757829003601f168201915b50505050506040518060400160405280601781526020017f7b7b7265616c6974794d616e6970756c6174696f6e7d7d000000000000000000815250613182565b156117925761110d85612780565b611863601883815481106117a8576117a8614396565b9060005260206000200180546117bd906142ea565b80601f01602080910402602001604051908101604052809291908181526020018280546117e9906142ea565b80156118365780601f1061180b57610100808354040283529160200191611836565b820191906000526020600020905b81548152906001019060200180831161181957829003601f168201915b50505050506040518060400160405280600a8152602001697b7b74726176656c7d7d60b01b815250613182565b156118715761110d85612630565b61194a6018838154811061188757611887614396565b90600052602060002001805461189c906142ea565b80601f01602080910402602001604051908101604052809291908181526020018280546118c8906142ea565b80156119155780601f106118ea57610100808354040283529160200191611915565b820191906000526020600020905b8154815290600101906020018083116118f857829003601f168201915b5050505050604051806040016040528060128152602001717b7b656c656d656e744d696d696372797d7d60701b815250613182565b156119585761110d85612880565b611a316018838154811061196e5761196e614396565b906000526020600020018054611983906142ea565b80601f01602080910402602001604051908101604052809291908181526020018280546119af906142ea565b80156119fc5780601f106119d1576101008083540402835291602001916119fc565b820191906000526020600020905b8154815290600101906020018083116119df57829003601f168201915b5050505050604051806040016040528060128152602001717b7b6f7267616e69634d696d696372797d7d60701b815250613182565b15611a3f5761110d8561221c565b60188281548110611a5257611a52614396565b906000526020600020018054611a67906142ea565b80601f0160208091040260200160405190810160405280929190818152602001828054611a93906142ea565b8015611ae05780601f10611ab557610100808354040283529160200191611ae0565b820191906000526020600020905b815481529060010190602001808311611ac357829003601f168201915b505050505090505b8281604051602001611afb929190613e6c565b60405160208183030381529060405292505080611b1790614325565b9050611022565b5092915050565b610868838383604051806020016040528060008152506123dc565b606061090c826040518060400160405280601381526020017236b2b73a30b634ba3ca130b9b2b22837bbb2b960691b815250600d805480602002602001604051908101604052809291908181526020016000905b82821015610a07578382906000526020600020018054611bb3906142ea565b80601f0160208091040260200160405190810160405280929190818152602001828054611bdf906142ea565b8015611c2c5780601f10611c0157610100808354040283529160200191611c2c565b820191906000526020600020905b815481529060010190602001808311611c0f57829003601f168201915b505050505081526020019060010190611b94565b6000611c4c813361297b565b81516108689060189060208501906139ab565b60188181548110611c6f57600080fd5b906000526020600020016000915090508054610e08906142ea565b6002600b541415611cdd5760405162461bcd60e51b815260206004820152601f60248201527f5265656e7472616e637947756172643a207265656e7472616e742063616c6c006044820152606401610b17565b6002600b55601a54612b6790611cf4906001614245565b1115611d425760405162461bcd60e51b815260206004820152601760248201527f4c696d6974656420746f20313131313120746f6b656e730000000000000000006044820152606401610b17565b611d4a6120c7565b341015611db25760405162461bcd60e51b815260206004820152603060248201527f53686f756c6420706179203e3d20636c61696d696e675374616972737465705060448201526f072696365202a207374616972737465760841b6064820152608401610b17565b6001601a6000828254611dc59190614245565b90915550611dd7905033601a546131e7565b6040516001600160a01b037f000000000000000000000000000000000000000000000000000000000000000016903480156108fc02916000818181858888f19350505050158015611e2c573d6000803e3d6000fd5b506001600b55565b6000611e3f60085490565b8210611ea25760405162461bcd60e51b815260206004820152602c60248201527f455243373231456e756d657261626c653a20676c6f62616c20696e646578206f60448201526b7574206f6620626f756e647360a01b6064820152608401610b17565b60088281548110611eb557611eb5614396565b90600052602060002001549050919050565b6000818152600260205260408120546001600160a01b03168061090c5760405162461bcd60e51b815260206004820152602960248201527f4552433732313a206f776e657220717565727920666f72206e6f6e657869737460448201526832b73a103a37b5b2b760b91b6064820152608401610b17565b60006001600160a01b038216611fa95760405162461bcd60e51b815260206004820152602a60248201527f4552433732313a2062616c616e636520717565727920666f7220746865207a65604482015269726f206164647265737360b01b6064820152608401610b17565b506001600160a01b031660009081526003602052604090205490565b606061090c82604051806040016040528060158152602001743832b939b7b730b628343cb9b4b1b0b62837bbb2b960591b815250600e805480602002602001604051908101604052809291908181526020016000905b82821015610a0757838290600052602060002001805461203a906142ea565b80601f0160208091040260200160405190810160405280929190818152602001828054612066906142ea565b80156120b35780601f10612088576101008083540402835291602001916120b3565b820191906000526020600020905b81548152906001019060200180831161209657829003601f168201915b50505050508152602001906001019061201b565b6000601b54610457601a546120dc919061425d565b6120e69190614271565b905090565b606061090c826040518060400160405280600a81526020016930b230b83a30ba34b7b760b11b8152506010805480602002602001604051908101604052809291908181526020016000905b82821015610a07578382906000526020600020018054612155906142ea565b80601f0160208091040260200160405190810160405280929190818152602001828054612181906142ea565b80156121ce5780601f106121a3576101008083540402835291602001916121ce565b820191906000526020600020905b8154815290600101906020018083116121b157829003601f168201915b505050505081526020019060010190612136565b6000918252600a602090815260408084206001600160a01b0393909316845291905290205460ff1690565b606060018054610a1f906142ea565b606061090c826040518060400160405280600e81526020016d6f7267616e69634d696d6963727960901b8152506016805480602002602001604051908101604052809291908181526020016000905b82821015610a0757838290600052602060002001805461228a906142ea565b80601f01602080910402602001604051908101604052809291908181526020018280546122b6906142ea565b80156123035780601f106122d857610100808354040283529160200191612303565b820191906000526020600020905b8154815290600101906020018083116122e657829003601f168201915b50505050508152602001906001019061226b565b6001600160a01b0382163314156123705760405162461bcd60e51b815260206004820152601960248201527f4552433732313a20617070726f766520746f2063616c6c6572000000000000006044820152606401610b17565b3360008181526005602090815260408083206001600160a01b03871680855290835292819020805460ff191686151590811790915590519081529192917f17307eab39ab6107e8899845ad3d59bd9653f200f220920489ca2b5937696c31910160405180910390a35050565b6123e63383612df7565b6124025760405162461bcd60e51b8152600401610b17906141c3565b61240e84848484613201565b50505050565b606061090c8260405180604001604052806016815260200175656e68616e636564506879736963616c536b696c6c7360501b8152506011805480602002602001604051908101604052809291908181526020016000905b82821015610a0757838290600052602060002001805461248a906142ea565b80601f01602080910402602001604051908101604052809291908181526020018280546124b6906142ea565b80156125035780601f106124d857610100808354040283529160200191612503565b820191906000526020600020905b8154815290600101906020018083116124e657829003601f168201915b50505050508152602001906001019061246b565b606061260a82604051806040016040528060068152602001653b34b9b4b7b760d11b815250600c805480602002602001604051908101604052809291908181526020016000905b82821015610a0757838290600052602060002001805461257d906142ea565b80601f01602080910402602001604051908101604052809291908181526020018280546125a9906142ea565b80156125f65780601f106125cb576101008083540402835291602001916125f6565b820191906000526020600020905b8154815290600101906020018083116125d957829003601f168201915b50505050508152602001906001019061255e565b60405160200161261a9190613eeb565b6040516020818303038152906040529050919050565b606061090c82604051806040016040528060068152602001651d1c985d995b60d21b8152506014805480602002602001604051908101604052809291908181526020016000905b82821015610a07578382906000526020600020018054612696906142ea565b80601f01602080910402602001604051908101604052809291908181526020018280546126c2906142ea565b801561270f5780601f106126e45761010080835404028352916020019161270f565b820191906000526020600020905b8154815290600101906020018083116126f257829003601f168201915b505050505081526020019060010190612677565b6060600061273361087d8461086d565b6040516020016127439190614067565b60408051601f198184030181529190529392505050565b6000828152600a6020526040902060010154612776813361297b565b610868838361311b565b606061090c82604051806040016040528060138152602001723932b0b634ba3ca6b0b734b83ab630ba34b7b760691b8152506013805480602002602001604051908101604052809291908181526020016000905b82821015610a075783829060005260206000200180546127f3906142ea565b80601f016020809104026020016040519081016040528092919081815260200182805461281f906142ea565b801561286c5780601f106128415761010080835404028352916020019161286c565b820191906000526020600020905b81548152906001019060200180831161284f57829003601f168201915b5050505050815260200190600101906127d4565b606061090c826040518060400160405280600e81526020016d656c656d656e744d696d6963727960901b8152506015805480602002602001604051908101604052809291908181526020016000905b82821015610a075783829060005260206000200180546128ee906142ea565b80601f016020809104026020016040519081016040528092919081815260200182805461291a906142ea565b80156129675780601f1061293c57610100808354040283529160200191612967565b820191906000526020600020905b81548152906001019060200180831161294a57829003601f168201915b5050505050815260200190600101906128cf565b61298582826121e2565b6110095761299d816001600160a01b03166014613234565b6129a8836020613234565b6040516020016129b99291906140ac565b60408051601f198184030181529082905262461bcd60e51b8252610b179160040161415e565b60608151600014156129ff57505060408051602081019091526000815290565b60006040518060600160405280604081526020016143d96040913990506000600384516002612a2e9190614245565b612a38919061425d565b612a43906004614271565b90506000612a52826020614245565b67ffffffffffffffff811115612a6a57612a6a6143ac565b6040519080825280601f01601f191660200182016040528015612a94576020820181803683370190505b509050818152600183018586518101602084015b81831015612b025760039283018051603f601282901c811687015160f890811b8552600c83901c8216880151811b6001860152600683901c8216880151811b60028601529116860151901b93820193909352600401612aa8565b600389510660018114612b1c5760028114612b2d57612b39565b613d3d60f01b600119830152612b39565b603d60f81b6000198301525b509398975050505050505050565b606081612b6b5750506040805180820190915260018152600360fc1b602082015290565b8160005b8115612b955780612b7f81614325565b9150612b8e9050600a8361425d565b9150612b6f565b60008167ffffffffffffffff811115612bb057612bb06143ac565b6040519080825280601f01601f191660200182016040528015612bda576020820181803683370190505b5090505b8415612c4557612bef600183614290565b9150612bfc600a86614340565b612c07906030614245565b60f81b818381518110612c1c57612c1c614396565b60200101906001600160f81b031916908160001a905350612c3e600a8661425d565b9450612bde565b949350505050565b60006001600160e01b0319821663780e9d6360e01b148061090c575061090c826133d0565b60006001600160e01b03198216637965db0b60e01b148061090c575061090c82612c4d565b60606000612ccd84612ca887612b47565b604051602001612cb9929190613e6c565b604051602081830303815290604052613420565b9050600084604051602001612ce29190613ec5565b60408051601f1981840301815291905290506000612d0261271084614340565b90506107d0811115612d5c578185865185612d1d9190614340565b81518110612d2d57612d2d614396565b6020026020010151604051602001612d46929190613e6c565b6040516020818303038152906040529150612d7f565b81604051602001612d6d9190613e9b565b60405160208183030381529060405291505b5095945050505050565b600081815260046020526040902080546001600160a01b0319166001600160a01b0384169081179091558190612dbe82611ec7565b6001600160a01b03167f8c5be1e5ebec7d5bd14f71427d1e84f3dd0314c0f7b2291e5b200ac8c7c3b92560405160405180910390a45050565b6000818152600260205260408120546001600160a01b0316612e705760405162461bcd60e51b815260206004820152602c60248201527f4552433732313a206f70657261746f7220717565727920666f72206e6f6e657860448201526b34b9ba32b73a103a37b5b2b760a11b6064820152608401610b17565b6000612e7b83611ec7565b9050806001600160a01b0316846001600160a01b03161480612eb65750836001600160a01b0316612eab84610aa2565b6001600160a01b0316145b80612c4557506001600160a01b0380821660009081526005602090815260408083209388168352929052205460ff16612c45565b826001600160a01b0316612efd82611ec7565b6001600160a01b031614612f655760405162461bcd60e51b815260206004820152602960248201527f4552433732313a207472616e73666572206f6620746f6b656e2074686174206960448201526839903737ba1037bbb760b91b6064820152608401610b17565b6001600160a01b038216612fc75760405162461bcd60e51b8152602060048201526024808201527f4552433732313a207472616e7366657220746f20746865207a65726f206164646044820152637265737360e01b6064820152608401610b17565b612fd2838383613451565b612fdd600082612d89565b6001600160a01b0383166000908152600360205260408120805460019290613006908490614290565b90915550506001600160a01b0382166000908152600360205260408120805460019290613034908490614245565b909155505060008181526002602052604080822080546001600160a01b0319166001600160a01b0386811691821790925591518493918716917fddf252ad1be2c89b69c2b068fc378daa952ba7f163c4a11628f55a4df523b3ef91a4505050565b61309f82826121e2565b611009576000828152600a602090815260408083206001600160a01b03851684529091529020805460ff191660011790556130d73390565b6001600160a01b0316816001600160a01b0316837f2f8788117e7eff1d82e926ec794901d17c78024a50270940304540a733656f0d60405160405180910390a45050565b61312582826121e2565b15611009576000828152600a602090815260408083206001600160a01b0385168085529252808320805460ff1916905551339285917ff6391f5c32d9c69d2a47ea670b442974b53935d1edc7fd64eb21e047a839171b9190a45050565b6000815183511480156131e05750816040516020016131a19190613e50565b60405160208183030381529060405280519060200120836040516020016131c89190613e50565b60405160208183030381529060405280519060200120145b9392505050565b611009828260405180602001604052806000815250613509565b61320c848484612eea565b6132188484848461353c565b61240e5760405162461bcd60e51b8152600401610b1790614171565b60606000613243836002614271565b61324e906002614245565b67ffffffffffffffff811115613266576132666143ac565b6040519080825280601f01601f191660200182016040528015613290576020820181803683370190505b509050600360fc1b816000815181106132ab576132ab614396565b60200101906001600160f81b031916908160001a905350600f60fb1b816001815181106132da576132da614396565b60200101906001600160f81b031916908160001a90535060006132fe846002614271565b613309906001614245565b90505b6001811115613381576f181899199a1a9b1b9c1cb0b131b232b360811b85600f166010811061333d5761333d614396565b1a60f81b82828151811061335357613353614396565b60200101906001600160f81b031916908160001a90535060049490941c9361337a816142d3565b905061330c565b5083156131e05760405162461bcd60e51b815260206004820181905260248201527f537472696e67733a20686578206c656e67746820696e73756666696369656e746044820152606401610b17565b60006001600160e01b031982166380ac58cd60e01b148061340157506001600160e01b03198216635b5e139f60e01b145b8061090c57506301ffc9a760e01b6001600160e01b031983161461090c565b6000816040516020016134339190613e50565b60408051601f19818403018152919052805160209091012092915050565b6001600160a01b0383166134ac576134a781600880546000838152600960205260408120829055600182018355919091527ff3f7a9fe364faab93b216da50a3214154f22a0a2b415b23a84c8169e8b636ee30155565b6134cf565b816001600160a01b0316836001600160a01b0316146134cf576134cf8382613649565b6001600160a01b0382166134e657610868816136e6565b826001600160a01b0316826001600160a01b031614610868576108688282613795565b61351383836137d9565b613520600084848461353c565b6108685760405162461bcd60e51b8152600401610b1790614171565b60006001600160a01b0384163b1561363e57604051630a85bd0160e11b81526001600160a01b0385169063150b7a0290613580903390899088908890600401614121565b602060405180830381600087803b15801561359a57600080fd5b505af19250505080156135ca575060408051601f3d908101601f191682019092526135c791810190613d94565b60015b613624573d8080156135f8576040519150601f19603f3d011682016040523d82523d6000602084013e6135fd565b606091505b50805161361c5760405162461bcd60e51b8152600401610b1790614171565b805181602001fd5b6001600160e01b031916630a85bd0160e11b149050612c45565b506001949350505050565b6000600161365684611f3e565b6136609190614290565b6000838152600760205260409020549091508082146136b3576001600160a01b03841660009081526006602090815260408083208584528252808320548484528184208190558352600790915290208190555b5060009182526007602090815260408084208490556001600160a01b039094168352600681528383209183525290812055565b6008546000906136f890600190614290565b6000838152600960205260408120546008805493945090928490811061372057613720614396565b90600052602060002001549050806008838154811061374157613741614396565b600091825260208083209091019290925582815260099091526040808220849055858252812055600880548061377957613779614380565b6001900381819060005260206000200160009055905550505050565b60006137a083611f3e565b6001600160a01b039093166000908152600660209081526040808320868452825280832085905593825260079052919091209190915550565b6001600160a01b03821661382f5760405162461bcd60e51b815260206004820181905260248201527f4552433732313a206d696e7420746f20746865207a65726f20616464726573736044820152606401610b17565b6000818152600260205260409020546001600160a01b0316156138945760405162461bcd60e51b815260206004820152601c60248201527f4552433732313a20746f6b656e20616c7265616479206d696e746564000000006044820152606401610b17565b6138a060008383613451565b6001600160a01b03821660009081526003602052604081208054600192906138c9908490614245565b909155505060008181526002602052604080822080546001600160a01b0319166001600160a01b03861690811790915590518392907fddf252ad1be2c89b69c2b068fc378daa952ba7f163c4a11628f55a4df523b3ef908290a45050565b828054613933906142ea565b90600052602060002090601f016020900481019282613955576000855561399b565b82601f1061396e57805160ff191683800117855561399b565b8280016001018555821561399b579182015b8281111561399b578251825591602001919060010190613980565b506139a7929150613a04565b5090565b8280548282559060005260206000209081019282156139f8579160200282015b828111156139f857825180516139e8918491602090910190613927565b50916020019190600101906139cb565b506139a7929150613a19565b5b808211156139a75760008155600101613a05565b808211156139a7576000613a2d8282613a36565b50600101613a19565b508054613a42906142ea565b6000825580601f10613a52575050565b601f016020900490600052602060002090810190613a709190613a04565b50565b600067ffffffffffffffff831115613a8d57613a8d6143ac565b613aa0601f8401601f1916602001614214565b9050828152838383011115613ab457600080fd5b828260208301376000602084830101529392505050565b80356001600160a01b0381168114613ae257600080fd5b919050565b600082601f830112613af857600080fd5b6131e083833560208501613a73565b600060208284031215613b1957600080fd5b6131e082613acb565b60008060408385031215613b3557600080fd5b613b3e83613acb565b9150613b4c60208401613acb565b90509250929050565b600080600060608486031215613b6a57600080fd5b613b7384613acb565b9250613b8160208501613acb565b9150604084013590509250925092565b60008060008060808587031215613ba757600080fd5b613bb085613acb565b9350613bbe60208601613acb565b925060408501359150606085013567ffffffffffffffff811115613be157600080fd5b8501601f81018713613bf257600080fd5b613c0187823560208401613a73565b91505092959194509250565b60008060408385031215613c2057600080fd5b613c2983613acb565b915060208301358015158114613c3e57600080fd5b809150509250929050565b60008060408385031215613c5c57600080fd5b613c6583613acb565b946020939093013593505050565b60006020808385031215613c8657600080fd5b823567ffffffffffffffff80821115613c9e57600080fd5b818501915085601f830112613cb257600080fd5b813581811115613cc457613cc46143ac565b8060051b613cd3858201614214565b8281528581019085870183870188018b1015613cee57600080fd5b60009350835b85811015613d2b57813587811115613d0a578586fd5b613d188d8b838c0101613ae7565b8552509288019290880190600101613cf4565b50909a9950505050505050505050565b600060208284031215613d4d57600080fd5b5035919050565b60008060408385031215613d6757600080fd5b82359150613b4c60208401613acb565b600060208284031215613d8957600080fd5b81356131e0816143c2565b600060208284031215613da657600080fd5b81516131e0816143c2565b600060208284031215613dc357600080fd5b813567ffffffffffffffff811115613dda57600080fd5b612c4584828501613ae7565b60008060408385031215613df957600080fd5b50508035926020909101359150565b60008151808452613e208160208601602086016142a7565b601f01601f19169290920160200192915050565b60008151613e468185602086016142a7565b9290920192915050565b60008251613e628184602087016142a7565b9190910192915050565b60008351613e7e8184602088016142a7565b835190830190613e928183602088016142a7565b01949350505050565b60008251613ead8184602087016142a7565b65286e6f6e652960d01b920191825250600601919050565b60008251613ed78184602087016142a7565b6101d160f51b920191825250600201919050565b60008251613efd8184602087016142a7565b66102b34b9b4b7b760c91b920191825250600701919050565b7f7b226e616d65223a20225375706572706f7765722053657420230000000000008152600084516020613f4f82601a8601838a016142a7565b72111610113232b9b1b934b83a34b7b7111d101160691b601a928501928301528554602d90600090600181811c9080831680613f8c57607f831692505b868310811415613faa57634e487b7160e01b85526022600452602485fd5b808015613fbe5760018114613fd357614004565b60ff1985168988015283890187019550614004565b60008d81526020902060005b85811015613ffa5781548b82018a0152908401908901613fdf565b505086848a010195505b50507f222c2022696d616765223a2022646174613a696d6167652f7376672b786d6c3b845250506618985cd94d8d0b60ca1b60208301525061405a61404c6027830189613e34565b61227d60f01b815260020190565b9998505050505050505050565b7f646174613a6170706c69636174696f6e2f6a736f6e3b6261736536342c00000081526000825161409f81601d8501602087016142a7565b91909101601d0192915050565b7f416363657373436f6e74726f6c3a206163636f756e74200000000000000000008152600083516140e48160178501602088016142a7565b7001034b99036b4b9b9b4b733903937b6329607d1b60179184019182015283516141158160288401602088016142a7565b01602801949350505050565b6001600160a01b038581168252841660208201526040810183905260806060820181905260009061415490830184613e08565b9695505050505050565b6020815260006131e06020830184613e08565b60208082526032908201527f4552433732313a207472616e7366657220746f206e6f6e20455243373231526560408201527131b2b4bb32b91034b6b83632b6b2b73a32b960711b606082015260800190565b60208082526031908201527f4552433732313a207472616e736665722063616c6c6572206973206e6f74206f6040820152701ddb995c881b9bdc88185c1c1c9bdd9959607a1b606082015260800190565b604051601f8201601f1916810167ffffffffffffffff8111828210171561423d5761423d6143ac565b604052919050565b6000821982111561425857614258614354565b500190565b60008261426c5761426c61436a565b500490565b600081600019048311821515161561428b5761428b614354565b500290565b6000828210156142a2576142a2614354565b500390565b60005b838110156142c25781810151838201526020016142aa565b8381111561240e5750506000910152565b6000816142e2576142e2614354565b506000190190565b600181811c908216806142fe57607f821691505b6020821081141561431f57634e487b7160e01b600052602260045260246000fd5b50919050565b600060001982141561433957614339614354565b5060010190565b60008261434f5761434f61436a565b500690565b634e487b7160e01b600052601160045260246000fd5b634e487b7160e01b600052601260045260246000fd5b634e487b7160e01b600052603160045260246000fd5b634e487b7160e01b600052603260045260246000fd5b634e487b7160e01b600052604160045260246000fd5b6001600160e01b031981168114613a7057600080fdfe4142434445464748494a4b4c4d4e4f505152535455565758595a6162636465666768696a6b6c6d6e6f707172737475767778797a303132333435363738392b2fa2646970667358221220b3b384d594b7c3459d6d7e67425ea679f39dd3c523d9c7375145a4fd6c37a2e364736f6c634300080700335375706572706f7765722069732061206d657461646174612d6261736564204e465420617274206578706572696d656e742e204665656c206672656520746f20757365205375706572706f77657220696e20616e792077617920796f752077616e742e3c73766720786d6c6e733d22687474703a2f2f7777772e77332e6f72672f323030302f73766722207072657365727665417370656374526174696f3d22784d696e594d696e206d656574222076696577426f783d223020302033353020333530223e3c726563742077696474683d223130302522206865696768743d2231303025222066696c6c3d22626c61636b223e3c2f726563743e3c7374796c653e2e62617365207b2066696c6c3a2077686974653b20646f6d696e616e742d626173656c696e653a206d6964646c653b20746578742d616e63686f723a2073746172743b20666f6e742d66616d696c793a2022454220476172616d6f6e64222c2073657269663b20666f6e742d73697a653a20313470783b207d202e7469746c65207b66696c6c3a2077686974653b20646f6d696e616e742d626173656c696e653a206d6964646c653b20746578742d616e63686f723a20656e643b20666f6e742d66616d696c793a2022454220476172616d6f6e64222c2073657269663b20666f6e742d73697a653a20313270783b207d3c2f7374796c653e3c7465787420783d223935252220793d2232302220636c6173733d227469746c65223e5375706572706f7765722053657420233c7465787420783d223130252220793d223335252220636c6173733d2262617365223e3c2f746578743e",
  "devdoc": {
    "kind": "dev",
    "methods": {
      "approve(address,uint256)": {
        "details": "See {IERC721-approve}."
      },
      "balanceOf(address)": {
        "details": "See {IERC721-balanceOf}."
      },
      "getApproved(uint256)": {
        "details": "See {IERC721-getApproved}."
      },
      "getRoleAdmin(bytes32)": {
        "details": "Returns the admin role that controls `role`. See {grantRole} and {revokeRole}. To change a role's admin, use {_setRoleAdmin}."
      },
      "grantRole(bytes32,address)": {
        "details": "Grants `role` to `account`. If `account` had not been already granted `role`, emits a {RoleGranted} event. Requirements: - the caller must have ``role``'s admin role."
      },
      "hasRole(bytes32,address)": {
        "details": "Returns `true` if `account` has been granted `role`."
      },
      "isApprovedForAll(address,address)": {
        "details": "See {IERC721-isApprovedForAll}."
      },
      "name()": {
        "details": "See {IERC721Metadata-name}."
      },
      "ownerOf(uint256)": {
        "details": "See {IERC721-ownerOf}."
      },
      "renounceRole(bytes32,address)": {
        "details": "Revokes `role` from the calling account. Roles are often managed via {grantRole} and {revokeRole}: this function's purpose is to provide a mechanism for accounts to lose their privileges if they are compromised (such as when a trusted device is misplaced). If the calling account had been granted `role`, emits a {RoleRevoked} event. Requirements: - the caller must be `account`."
      },
      "revokeRole(bytes32,address)": {
        "details": "Revokes `role` from `account`. If `account` had been granted `role`, emits a {RoleRevoked} event. Requirements: - the caller must have ``role``'s admin role."
      },
      "royaltyInfo(uint256,uint256)": {
        "details": "Called with the sale price to determine how much royalty is owed and to whom.",
        "params": {
          "salePrice": "- the sale price of the NFT asset specified by `tokenId`",
          "tokenId": "- the NFT asset queried for royalty information"
        },
        "returns": {
          "receiver": "- address of who should be sent the royalty payment",
          "royaltyAmount": "- the royalty payment amount for `salePrice`"
        }
      },
      "safeTransferFrom(address,address,uint256)": {
        "details": "See {IERC721-safeTransferFrom}."
      },
      "safeTransferFrom(address,address,uint256,bytes)": {
        "details": "See {IERC721-safeTransferFrom}."
      },
      "setApprovalForAll(address,bool)": {
        "details": "See {IERC721-setApprovalForAll}."
      },
      "symbol()": {
        "details": "See {IERC721Metadata-symbol}."
      },
      "tokenByIndex(uint256)": {
        "details": "See {IERC721Enumerable-tokenByIndex}."
      },
      "tokenOfOwnerByIndex(address,uint256)": {
        "details": "See {IERC721Enumerable-tokenOfOwnerByIndex}."
      },
      "tokenURI(uint256)": {
        "details": "See {IERC721Metadata-tokenURI}."
      },
      "totalSupply()": {
        "details": "See {IERC721Enumerable-totalSupply}."
      },
      "transferFrom(address,address,uint256)": {
        "details": "See {IERC721-transferFrom}."
      }
    },
    "version": 1
  },
  "userdoc": {
    "kind": "user",
    "methods": {},
    "version": 1
  },
  "storageLayout": {
    "storage": [
      {
        "astId": 2859,
        "contract": "contracts/Superpower.sol:Superpower",
        "label": "_name",
        "offset": 0,
        "slot": "0",
        "type": "t_string_storage"
      },
      {
        "astId": 2861,
        "contract": "contracts/Superpower.sol:Superpower",
        "label": "_symbol",
        "offset": 0,
        "slot": "1",
        "type": "t_string_storage"
      },
      {
        "astId": 2865,
        "contract": "contracts/Superpower.sol:Superpower",
        "label": "_owners",
        "offset": 0,
        "slot": "2",
        "type": "t_mapping(t_uint256,t_address)"
      },
      {
        "astId": 2869,
        "contract": "contracts/Superpower.sol:Superpower",
        "label": "_balances",
        "offset": 0,
        "slot": "3",
        "type": "t_mapping(t_address,t_uint256)"
      },
      {
        "astId": 2873,
        "contract": "contracts/Superpower.sol:Superpower",
        "label": "_tokenApprovals",
        "offset": 0,
        "slot": "4",
        "type": "t_mapping(t_uint256,t_address)"
      },
      {
        "astId": 2879,
        "contract": "contracts/Superpower.sol:Superpower",
        "label": "_operatorApprovals",
        "offset": 0,
        "slot": "5",
        "type": "t_mapping(t_address,t_mapping(t_address,t_bool))"
      },
      {
        "astId": 3798,
        "contract": "contracts/Superpower.sol:Superpower",
        "label": "_ownedTokens",
        "offset": 0,
        "slot": "6",
        "type": "t_mapping(t_address,t_mapping(t_uint256,t_uint256))"
      },
      {
        "astId": 3802,
        "contract": "contracts/Superpower.sol:Superpower",
        "label": "_ownedTokensIndex",
        "offset": 0,
        "slot": "7",
        "type": "t_mapping(t_uint256,t_uint256)"
      },
      {
        "astId": 3805,
        "contract": "contracts/Superpower.sol:Superpower",
        "label": "_allTokens",
        "offset": 0,
        "slot": "8",
        "type": "t_array(t_uint256)dyn_storage"
      },
      {
        "astId": 3809,
        "contract": "contracts/Superpower.sol:Superpower",
        "label": "_allTokensIndex",
        "offset": 0,
        "slot": "9",
        "type": "t_mapping(t_uint256,t_uint256)"
      },
      {
        "astId": 24,
        "contract": "contracts/Superpower.sol:Superpower",
        "label": "_roles",
        "offset": 0,
        "slot": "10",
        "type": "t_mapping(t_bytes32,t_struct(RoleData)19_storage)"
      },
      {
        "astId": 811,
        "contract": "contracts/Superpower.sol:Superpower",
        "label": "_status",
        "offset": 0,
        "slot": "11",
        "type": "t_uint256"
      },
      {
        "astId": 5822,
        "contract": "contracts/Superpower.sol:Superpower",
        "label": "vision",
        "offset": 0,
        "slot": "12",
        "type": "t_array(t_string_storage)dyn_storage"
      },
      {
        "astId": 5884,
        "contract": "contracts/Superpower.sol:Superpower",
        "label": "mentalityBasedPower",
        "offset": 0,
        "slot": "13",
        "type": "t_array(t_string_storage)dyn_storage"
      },
      {
        "astId": 5927,
        "contract": "contracts/Superpower.sol:Superpower",
        "label": "personalPhysicalPower",
        "offset": 0,
        "slot": "14",
        "type": "t_array(t_string_storage)dyn_storage"
      },
      {
        "astId": 5957,
        "contract": "contracts/Superpower.sol:Superpower",
        "label": "emission",
        "offset": 0,
        "slot": "15",
        "type": "t_array(t_string_storage)dyn_storage"
      },
      {
        "astId": 5977,
        "contract": "contracts/Superpower.sol:Superpower",
        "label": "adaptation",
        "offset": 0,
        "slot": "16",
        "type": "t_array(t_string_storage)dyn_storage"
      },
      {
        "astId": 6006,
        "contract": "contracts/Superpower.sol:Superpower",
        "label": "enhancedPhysicalSkills",
        "offset": 0,
        "slot": "17",
        "type": "t_array(t_string_storage)dyn_storage"
      },
      {
        "astId": 6029,
        "contract": "contracts/Superpower.sol:Superpower",
        "label": "supernaturalPhysicalSkills",
        "offset": 0,
        "slot": "18",
        "type": "t_array(t_string_storage)dyn_storage"
      },
      {
        "astId": 6127,
        "contract": "contracts/Superpower.sol:Superpower",
        "label": "realityManipulation",
        "offset": 0,
        "slot": "19",
        "type": "t_array(t_string_storage)dyn_storage"
      },
      {
        "astId": 6147,
        "contract": "contracts/Superpower.sol:Superpower",
        "label": "travel",
        "offset": 0,
        "slot": "20",
        "type": "t_array(t_string_storage)dyn_storage"
      },
      {
        "astId": 6183,
        "contract": "contracts/Superpower.sol:Superpower",
        "label": "elementMimicry",
        "offset": 0,
        "slot": "21",
        "type": "t_array(t_string_storage)dyn_storage"
      },
      {
        "astId": 6314,
        "contract": "contracts/Superpower.sol:Superpower",
        "label": "organicMimicry",
        "offset": 0,
        "slot": "22",
        "type": "t_array(t_string_storage)dyn_storage"
      },
      {
        "astId": 6888,
        "contract": "contracts/Superpower.sol:Superpower",
        "label": "tokenDescription",
        "offset": 0,
        "slot": "23",
        "type": "t_string_storage"
      },
      {
        "astId": 6896,
        "contract": "contracts/Superpower.sol:Superpower",
        "label": "svgImageTemplate",
        "offset": 0,
        "slot": "24",
        "type": "t_array(t_string_storage)dyn_storage"
      },
      {
        "astId": 6901,
        "contract": "contracts/Superpower.sol:Superpower",
        "label": "royaltyBps",
        "offset": 0,
        "slot": "25",
        "type": "t_uint256"
      },
      {
        "astId": 6973,
        "contract": "contracts/Superpower.sol:Superpower",
        "label": "currentTokenId",
        "offset": 0,
        "slot": "26",
        "type": "t_uint256"
      },
      {
        "astId": 6976,
        "contract": "contracts/Superpower.sol:Superpower",
        "label": "_claimingStairstepPrice",
        "offset": 0,
        "slot": "27",
        "type": "t_uint256"
      }
    ],
    "types": {
      "t_address": {
        "encoding": "inplace",
        "label": "address",
        "numberOfBytes": "20"
      },
      "t_array(t_string_storage)dyn_storage": {
        "base": "t_string_storage",
        "encoding": "dynamic_array",
        "label": "string[]",
        "numberOfBytes": "32"
      },
      "t_array(t_uint256)dyn_storage": {
        "base": "t_uint256",
        "encoding": "dynamic_array",
        "label": "uint256[]",
        "numberOfBytes": "32"
      },
      "t_bool": {
        "encoding": "inplace",
        "label": "bool",
        "numberOfBytes": "1"
      },
      "t_bytes32": {
        "encoding": "inplace",
        "label": "bytes32",
        "numberOfBytes": "32"
      },
      "t_mapping(t_address,t_bool)": {
        "encoding": "mapping",
        "key": "t_address",
        "label": "mapping(address => bool)",
        "numberOfBytes": "32",
        "value": "t_bool"
      },
      "t_mapping(t_address,t_mapping(t_address,t_bool))": {
        "encoding": "mapping",
        "key": "t_address",
        "label": "mapping(address => mapping(address => bool))",
        "numberOfBytes": "32",
        "value": "t_mapping(t_address,t_bool)"
      },
      "t_mapping(t_address,t_mapping(t_uint256,t_uint256))": {
        "encoding": "mapping",
        "key": "t_address",
        "label": "mapping(address => mapping(uint256 => uint256))",
        "numberOfBytes": "32",
        "value": "t_mapping(t_uint256,t_uint256)"
      },
      "t_mapping(t_address,t_uint256)": {
        "encoding": "mapping",
        "key": "t_address",
        "label": "mapping(address => uint256)",
        "numberOfBytes": "32",
        "value": "t_uint256"
      },
      "t_mapping(t_bytes32,t_struct(RoleData)19_storage)": {
        "encoding": "mapping",
        "key": "t_bytes32",
        "label": "mapping(bytes32 => struct AccessControl.RoleData)",
        "numberOfBytes": "32",
        "value": "t_struct(RoleData)19_storage"
      },
      "t_mapping(t_uint256,t_address)": {
        "encoding": "mapping",
        "key": "t_uint256",
        "label": "mapping(uint256 => address)",
        "numberOfBytes": "32",
        "value": "t_address"
      },
      "t_mapping(t_uint256,t_uint256)": {
        "encoding": "mapping",
        "key": "t_uint256",
        "label": "mapping(uint256 => uint256)",
        "numberOfBytes": "32",
        "value": "t_uint256"
      },
      "t_string_storage": {
        "encoding": "bytes",
        "label": "string",
        "numberOfBytes": "32"
      },
      "t_struct(RoleData)19_storage": {
        "encoding": "inplace",
        "label": "struct AccessControl.RoleData",
        "members": [
          {
            "astId": 16,
            "contract": "contracts/Superpower.sol:Superpower",
            "label": "members",
            "offset": 0,
            "slot": "0",
            "type": "t_mapping(t_address,t_bool)"
          },
          {
            "astId": 18,
            "contract": "contracts/Superpower.sol:Superpower",
            "label": "adminRole",
            "offset": 0,
            "slot": "1",
            "type": "t_bytes32"
          }
        ],
        "numberOfBytes": "64"
      },
      "t_uint256": {
        "encoding": "inplace",
        "label": "uint256",
        "numberOfBytes": "32"
      }
    }
  }
}