{
  "address": "0x5543c894E13e04D04307f66a00cF95e4f0c61217",
  "abi": [
    {
      "inputs": [
        {
          "internalType": "address payable",
          "name": "foundation_",
          "type": "address"
        }
      ],
      "stateMutability": "nonpayable",
      "type": "constructor"
    },
    {
      "anonymous": false,
      "inputs": [
        {
          "indexed": true,
          "internalType": "address",
          "name": "owner",
          "type": "address"
        },
        {
          "indexed": true,
          "internalType": "address",
          "name": "approved",
          "type": "address"
        },
        {
          "indexed": true,
          "internalType": "uint256",
          "name": "tokenId",
          "type": "uint256"
        }
      ],
      "name": "Approval",
      "type": "event"
    },
    {
      "anonymous": false,
      "inputs": [
        {
          "indexed": true,
          "internalType": "address",
          "name": "owner",
          "type": "address"
        },
        {
          "indexed": true,
          "internalType": "address",
          "name": "operator",
          "type": "address"
        },
        {
          "indexed": false,
          "internalType": "bool",
          "name": "approved",
          "type": "bool"
        }
      ],
      "name": "ApprovalForAll",
      "type": "event"
    },
    {
      "anonymous": false,
      "inputs": [
        {
          "indexed": true,
          "internalType": "uint256",
          "name": "tokenId",
          "type": "uint256"
        }
      ],
      "name": "ArtworkMinted",
      "type": "event"
    },
    {
      "anonymous": false,
      "inputs": [
        {
          "indexed": true,
          "internalType": "uint256",
          "name": "tokenId",
          "type": "uint256"
        },
        {
          "indexed": true,
          "internalType": "address",
          "name": "owner",
          "type": "address"
        },
        {
          "indexed": false,
          "internalType": "string",
          "name": "note",
          "type": "string"
        }
      ],
      "name": "ArtworkNoteEngraved",
      "type": "event"
    },
    {
      "anonymous": false,
      "inputs": [
        {
          "indexed": true,
          "internalType": "uint256",
          "name": "tokenId",
          "type": "uint256"
        },
        {
          "indexed": true,
          "internalType": "address",
          "name": "owner",
          "type": "address"
        }
      ],
      "name": "ArtworkNoteErased",
      "type": "event"
    },
    {
      "anonymous": false,
      "inputs": [
        {
          "indexed": true,
          "internalType": "uint256",
          "name": "tokenId",
          "type": "uint256"
        },
        {
          "indexed": true,
          "internalType": "address",
          "name": "winner",
          "type": "address"
        },
        {
          "indexed": false,
          "internalType": "uint256",
          "name": "amount",
          "type": "uint256"
        }
      ],
      "name": "AuctionEnded",
      "type": "event"
    },
    {
      "anonymous": false,
      "inputs": [
        {
          "indexed": true,
          "internalType": "uint256",
          "name": "tokenId",
          "type": "uint256"
        },
        {
          "indexed": true,
          "internalType": "address",
          "name": "bidder",
          "type": "address"
        },
        {
          "indexed": false,
          "internalType": "uint256",
          "name": "amount",
          "type": "uint256"
        }
      ],
      "name": "BidPlaced",
      "type": "event"
    },
    {
      "anonymous": false,
      "inputs": [
        {
          "indexed": true,
          "internalType": "address",
          "name": "bidder",
          "type": "address"
        },
        {
          "indexed": false,
          "internalType": "uint256",
          "name": "amount",
          "type": "uint256"
        }
      ],
      "name": "FundWithdrew",
      "type": "event"
    },
    {
      "anonymous": false,
      "inputs": [
        {
          "indexed": true,
          "internalType": "bytes32",
          "name": "role",
          "type": "bytes32"
        },
        {
          "indexed": true,
          "internalType": "bytes32",
          "name": "previousAdminRole",
          "type": "bytes32"
        },
        {
          "indexed": true,
          "internalType": "bytes32",
          "name": "newAdminRole",
          "type": "bytes32"
        }
      ],
      "name": "RoleAdminChanged",
      "type": "event"
    },
    {
      "anonymous": false,
      "inputs": [
        {
          "indexed": true,
          "internalType": "bytes32",
          "name": "role",
          "type": "bytes32"
        },
        {
          "indexed": true,
          "internalType": "address",
          "name": "account",
          "type": "address"
        },
        {
          "indexed": true,
          "internalType": "address",
          "name": "sender",
          "type": "address"
        }
      ],
      "name": "RoleGranted",
      "type": "event"
    },
    {
      "anonymous": false,
      "inputs": [
        {
          "indexed": true,
          "internalType": "bytes32",
          "name": "role",
          "type": "bytes32"
        },
        {
          "indexed": true,
          "internalType": "address",
          "name": "account",
          "type": "address"
        },
        {
          "indexed": true,
          "internalType": "address",
          "name": "sender",
          "type": "address"
        }
      ],
      "name": "RoleRevoked",
      "type": "event"
    },
    {
      "anonymous": false,
      "inputs": [
        {
          "indexed": true,
          "internalType": "address",
          "name": "from",
          "type": "address"
        },
        {
          "indexed": true,
          "internalType": "address",
          "name": "to",
          "type": "address"
        },
        {
          "indexed": true,
          "internalType": "uint256",
          "name": "tokenId",
          "type": "uint256"
        }
      ],
      "name": "Transfer",
      "type": "event"
    },
    {
      "stateMutability": "payable",
      "type": "fallback"
    },
    {
      "inputs": [],
      "name": "DEFAULT_ADMIN_ROLE",
      "outputs": [
        {
          "internalType": "bytes32",
          "name": "",
          "type": "bytes32"
        }
      ],
      "stateMutability": "view",
      "type": "function"
    },
    {
      "inputs": [
        {
          "internalType": "address",
          "name": "to",
          "type": "address"
        },
        {
          "internalType": "uint256",
          "name": "tokenId",
          "type": "uint256"
        }
      ],
      "name": "approve",
      "outputs": [],
      "stateMutability": "nonpayable",
      "type": "function"
    },
    {
      "inputs": [
        {
          "internalType": "uint256",
          "name": "",
          "type": "uint256"
        }
      ],
      "name": "artworks",
      "outputs": [
        {
          "internalType": "uint256",
          "name": "date",
          "type": "uint256"
        },
        {
          "internalType": "string",
          "name": "note",
          "type": "string"
        }
      ],
      "stateMutability": "view",
      "type": "function"
    },
    {
      "inputs": [
        {
          "internalType": "address",
          "name": "owner",
          "type": "address"
        }
      ],
      "name": "balanceOf",
      "outputs": [
        {
          "internalType": "uint256",
          "name": "",
          "type": "uint256"
        }
      ],
      "stateMutability": "view",
      "type": "function"
    },
    {
      "inputs": [
        {
          "internalType": "uint256",
          "name": "tokenId",
          "type": "uint256"
        }
      ],
      "name": "endAuction",
      "outputs": [],
      "stateMutability": "nonpayable",
      "type": "function"
    },
    {
      "inputs": [
        {
          "internalType": "uint256",
          "name": "tokenId",
          "type": "uint256"
        },
        {
          "internalType": "string",
          "name": "note",
          "type": "string"
        }
      ],
      "name": "engraveArtworkNote",
      "outputs": [],
      "stateMutability": "payable",
      "type": "function"
    },
    {
      "inputs": [
        {
          "internalType": "uint256",
          "name": "tokenId",
          "type": "uint256"
        }
      ],
      "name": "eraseArtworkNote",
      "outputs": [],
      "stateMutability": "payable",
      "type": "function"
    },
    {
      "inputs": [
        {
          "internalType": "uint256",
          "name": "tokenId",
          "type": "uint256"
        }
      ],
      "name": "exists",
      "outputs": [
        {
          "internalType": "bool",
          "name": "",
          "type": "bool"
        }
      ],
      "stateMutability": "view",
      "type": "function"
    },
    {
      "inputs": [
        {
          "internalType": "uint256",
          "name": "tokenId",
          "type": "uint256"
        }
      ],
      "name": "getApproved",
      "outputs": [
        {
          "internalType": "address",
          "name": "",
          "type": "address"
        }
      ],
      "stateMutability": "view",
      "type": "function"
    },
    {
      "inputs": [],
      "name": "getAuctionMinBidIncrementPermyriad",
      "outputs": [
        {
          "internalType": "uint256",
          "name": "minBidIncrementPermyriad",
          "type": "uint256"
        }
      ],
      "stateMutability": "view",
      "type": "function"
    },
    {
      "inputs": [],
      "name": "getAuctionReservePrice",
      "outputs": [
        {
          "internalType": "uint256",
          "name": "reservePrice",
          "type": "uint256"
        }
      ],
      "stateMutability": "view",
      "type": "function"
    },
    {
      "inputs": [],
      "name": "getEngravingPrice",
      "outputs": [
        {
          "internalType": "uint256",
          "name": "",
          "type": "uint256"
        }
      ],
      "stateMutability": "view",
      "type": "function"
    },
    {
      "inputs": [],
      "name": "getErasingPrice",
      "outputs": [
        {
          "internalType": "uint256",
          "name": "",
          "type": "uint256"
        }
      ],
      "stateMutability": "view",
      "type": "function"
    },
    {
      "inputs": [
        {
          "internalType": "uint256",
          "name": "tokenId",
          "type": "uint256"
        }
      ],
      "name": "getHighestBid",
      "outputs": [
        {
          "internalType": "address",
          "name": "bidder",
          "type": "address"
        },
        {
          "internalType": "uint256",
          "name": "amount",
          "type": "uint256"
        }
      ],
      "stateMutability": "view",
      "type": "function"
    },
    {
      "inputs": [],
      "name": "getNoteSizeLimit",
      "outputs": [
        {
          "internalType": "uint256",
          "name": "",
          "type": "uint256"
        }
      ],
      "stateMutability": "view",
      "type": "function"
    },
    {
      "inputs": [
        {
          "internalType": "address",
          "name": "bidder",
          "type": "address"
        }
      ],
      "name": "getPendingReturns",
      "outputs": [
        {
          "internalType": "uint256",
          "name": "amount",
          "type": "uint256"
        }
      ],
      "stateMutability": "view",
      "type": "function"
    },
    {
      "inputs": [
        {
          "internalType": "bytes32",
          "name": "role",
          "type": "bytes32"
        }
      ],
      "name": "getRoleAdmin",
      "outputs": [
        {
          "internalType": "bytes32",
          "name": "",
          "type": "bytes32"
        }
      ],
      "stateMutability": "view",
      "type": "function"
    },
    {
      "inputs": [],
      "name": "getRoyaltyPermyriad",
      "outputs": [
        {
          "internalType": "uint256",
          "name": "royaltyPermyriad",
          "type": "uint256"
        }
      ],
      "stateMutability": "view",
      "type": "function"
    },
    {
      "inputs": [
        {
          "internalType": "bytes32",
          "name": "role",
          "type": "bytes32"
        },
        {
          "internalType": "address",
          "name": "account",
          "type": "address"
        }
      ],
      "name": "grantRole",
      "outputs": [],
      "stateMutability": "nonpayable",
      "type": "function"
    },
    {
      "inputs": [
        {
          "internalType": "bytes32",
          "name": "role",
          "type": "bytes32"
        },
        {
          "internalType": "address",
          "name": "account",
          "type": "address"
        }
      ],
      "name": "hasRole",
      "outputs": [
        {
          "internalType": "bool",
          "name": "",
          "type": "bool"
        }
      ],
      "stateMutability": "view",
      "type": "function"
    },
    {
      "inputs": [
        {
          "internalType": "address",
          "name": "owner",
          "type": "address"
        },
        {
          "internalType": "address",
          "name": "operator",
          "type": "address"
        }
      ],
      "name": "isApprovedForAll",
      "outputs": [
        {
          "internalType": "bool",
          "name": "",
          "type": "bool"
        }
      ],
      "stateMutability": "view",
      "type": "function"
    },
    {
      "inputs": [],
      "name": "name",
      "outputs": [
        {
          "internalType": "string",
          "name": "",
          "type": "string"
        }
      ],
      "stateMutability": "view",
      "type": "function"
    },
    {
      "inputs": [
        {
          "internalType": "address",
          "name": "",
          "type": "address"
        },
        {
          "internalType": "address",
          "name": "",
          "type": "address"
        },
        {
          "internalType": "uint256",
          "name": "",
          "type": "uint256"
        },
        {
          "internalType": "bytes",
          "name": "",
          "type": "bytes"
        }
      ],
      "name": "onERC721Received",
      "outputs": [
        {
          "internalType": "bytes4",
          "name": "",
          "type": "bytes4"
        }
      ],
      "stateMutability": "nonpayable",
      "type": "function"
    },
    {
      "inputs": [
        {
          "internalType": "uint256",
          "name": "tokenId",
          "type": "uint256"
        }
      ],
      "name": "ownerOf",
      "outputs": [
        {
          "internalType": "address",
          "name": "",
          "type": "address"
        }
      ],
      "stateMutability": "view",
      "type": "function"
    },
    {
      "inputs": [
        {
          "internalType": "uint256",
          "name": "tokenId",
          "type": "uint256"
        }
      ],
      "name": "placeBid",
      "outputs": [],
      "stateMutability": "payable",
      "type": "function"
    },
    {
      "inputs": [
        {
          "internalType": "bytes32",
          "name": "role",
          "type": "bytes32"
        },
        {
          "internalType": "address",
          "name": "account",
          "type": "address"
        }
      ],
      "name": "renounceRole",
      "outputs": [],
      "stateMutability": "nonpayable",
      "type": "function"
    },
    {
      "inputs": [
        {
          "internalType": "bytes32",
          "name": "role",
          "type": "bytes32"
        },
        {
          "internalType": "address",
          "name": "account",
          "type": "address"
        }
      ],
      "name": "revokeRole",
      "outputs": [],
      "stateMutability": "nonpayable",
      "type": "function"
    },
    {
      "inputs": [
        {
          "internalType": "uint256",
          "name": "tokenId",
          "type": "uint256"
        },
        {
          "internalType": "uint256",
          "name": "salePrice",
          "type": "uint256"
        }
      ],
      "name": "royaltyInfo",
      "outputs": [
        {
          "internalType": "address",
          "name": "receiver",
          "type": "address"
        },
        {
          "internalType": "uint256",
          "name": "royaltyAmount",
          "type": "uint256"
        }
      ],
      "stateMutability": "view",
      "type": "function"
    },
    {
      "inputs": [
        {
          "internalType": "address",
          "name": "from",
          "type": "address"
        },
        {
          "internalType": "address",
          "name": "to",
          "type": "address"
        },
        {
          "internalType": "uint256",
          "name": "tokenId",
          "type": "uint256"
        }
      ],
      "name": "safeTransferFrom",
      "outputs": [],
      "stateMutability": "nonpayable",
      "type": "function"
    },
    {
      "inputs": [
        {
          "internalType": "address",
          "name": "from",
          "type": "address"
        },
        {
          "internalType": "address",
          "name": "to",
          "type": "address"
        },
        {
          "internalType": "uint256",
          "name": "tokenId",
          "type": "uint256"
        },
        {
          "internalType": "bytes",
          "name": "_data",
          "type": "bytes"
        }
      ],
      "name": "safeTransferFrom",
      "outputs": [],
      "stateMutability": "nonpayable",
      "type": "function"
    },
    {
      "inputs": [
        {
          "internalType": "address",
          "name": "operator",
          "type": "address"
        },
        {
          "internalType": "bool",
          "name": "approved",
          "type": "bool"
        }
      ],
      "name": "setApprovalForAll",
      "outputs": [],
      "stateMutability": "nonpayable",
      "type": "function"
    },
    {
      "inputs": [
        {
          "internalType": "uint256",
          "name": "minBidIncrementPermyriad",
          "type": "uint256"
        }
      ],
      "name": "setAuctionMinBidIncrementPermyriad",
      "outputs": [],
      "stateMutability": "nonpayable",
      "type": "function"
    },
    {
      "inputs": [
        {
          "internalType": "uint256",
          "name": "reservePrice",
          "type": "uint256"
        }
      ],
      "name": "setAuctionReservePrice",
      "outputs": [],
      "stateMutability": "nonpayable",
      "type": "function"
    },
    {
      "inputs": [
        {
          "internalType": "string",
          "name": "baseTokenURI",
          "type": "string"
        }
      ],
      "name": "setBaseURI",
      "outputs": [],
      "stateMutability": "nonpayable",
      "type": "function"
    },
    {
      "inputs": [
        {
          "internalType": "uint256",
          "name": "engravingPrice",
          "type": "uint256"
        }
      ],
      "name": "setEngravingPrice",
      "outputs": [],
      "stateMutability": "nonpayable",
      "type": "function"
    },
    {
      "inputs": [
        {
          "internalType": "uint256",
          "name": "erasingPrice",
          "type": "uint256"
        }
      ],
      "name": "setErasingPrice",
      "outputs": [],
      "stateMutability": "nonpayable",
      "type": "function"
    },
    {
      "inputs": [
        {
          "internalType": "uint256",
          "name": "noteSizeLimit",
          "type": "uint256"
        }
      ],
      "name": "setNoteSizeLimit",
      "outputs": [],
      "stateMutability": "nonpayable",
      "type": "function"
    },
    {
      "inputs": [
        {
          "internalType": "uint256",
          "name": "royaltyPermyriad",
          "type": "uint256"
        }
      ],
      "name": "setRoyaltyPermyriad",
      "outputs": [],
      "stateMutability": "nonpayable",
      "type": "function"
    },
    {
      "inputs": [
        {
          "internalType": "bytes4",
          "name": "interfaceId",
          "type": "bytes4"
        }
      ],
      "name": "supportsInterface",
      "outputs": [
        {
          "internalType": "bool",
          "name": "",
          "type": "bool"
        }
      ],
      "stateMutability": "view",
      "type": "function"
    },
    {
      "inputs": [],
      "name": "symbol",
      "outputs": [
        {
          "internalType": "string",
          "name": "",
          "type": "string"
        }
      ],
      "stateMutability": "view",
      "type": "function"
    },
    {
      "inputs": [
        {
          "internalType": "uint256",
          "name": "index",
          "type": "uint256"
        }
      ],
      "name": "tokenByIndex",
      "outputs": [
        {
          "internalType": "uint256",
          "name": "",
          "type": "uint256"
        }
      ],
      "stateMutability": "view",
      "type": "function"
    },
    {
      "inputs": [
        {
          "internalType": "address",
          "name": "owner",
          "type": "address"
        },
        {
          "internalType": "uint256",
          "name": "index",
          "type": "uint256"
        }
      ],
      "name": "tokenOfOwnerByIndex",
      "outputs": [
        {
          "internalType": "uint256",
          "name": "",
          "type": "uint256"
        }
      ],
      "stateMutability": "view",
      "type": "function"
    },
    {
      "inputs": [
        {
          "internalType": "uint256",
          "name": "tokenId",
          "type": "uint256"
        }
      ],
      "name": "tokenURI",
      "outputs": [
        {
          "internalType": "string",
          "name": "",
          "type": "string"
        }
      ],
      "stateMutability": "view",
      "type": "function"
    },
    {
      "inputs": [],
      "name": "totalSupply",
      "outputs": [
        {
          "internalType": "uint256",
          "name": "",
          "type": "uint256"
        }
      ],
      "stateMutability": "view",
      "type": "function"
    },
    {
      "inputs": [
        {
          "internalType": "address",
          "name": "from",
          "type": "address"
        },
        {
          "internalType": "address",
          "name": "to",
          "type": "address"
        },
        {
          "internalType": "uint256",
          "name": "tokenId",
          "type": "uint256"
        }
      ],
      "name": "transferFrom",
      "outputs": [],
      "stateMutability": "nonpayable",
      "type": "function"
    },
    {
      "inputs": [],
      "name": "withdrawFund",
      "outputs": [],
      "stateMutability": "nonpayable",
      "type": "function"
    },
    {
      "stateMutability": "payable",
      "type": "receive"
    }
  ],
  "transactionHash": "0xf8acd2ecf1926410d3bcddfc63838aca727e6153eceac0f3d08c27e5298ad163",
  "args": [
    "0x2cfd3BbC8dCB14BF6aA4Ea39f2C2Cf883BbEB53e"
  ],
  "solcInputHash": "c3d41251bf33c77e9ffbb0d326e6d505",
  "bytecode": "0x60806040526000601355670de0b6b3a764000060145560646015553480156200002757600080fd5b5060405162003608380380620036088339810160408190526200004a91620002c5565b662386f26fc100006103e88083604051806040016040528060078152602001665468654461746560c81b815250604051806040016040528060048152602001634441544560e01b8152508160009080519060200190620000ac9291906200021f565b508051620000c29060019060208401906200021f565b50506001600b5550600c80546001600160a01b0319166001600160a01b0392909216919091179055600d556012919091556011556200010360008262000156565b6200011060003362000156565b60408051808201909152601e81527f68747470733a2f2f746865646174652e6172742f6170692f746f6b656e2f000060208201526200014f9062000166565b5062000332565b6200016282826200017b565b5050565b8051620001629060169060208401906200021f565b6000828152600a602090815260408083206001600160a01b038516845290915290205460ff1662000162576000828152600a602090815260408083206001600160a01b03851684529091529020805460ff19166001179055620001db3390565b6001600160a01b0316816001600160a01b0316837f2f8788117e7eff1d82e926ec794901d17c78024a50270940304540a733656f0d60405160405180910390a45050565b8280546200022d90620002f5565b90600052602060002090601f0160209004810192826200025157600085556200029c565b82601f106200026c57805160ff19168380011785556200029c565b828001600101855582156200029c579182015b828111156200029c5782518255916020019190600101906200027f565b50620002aa929150620002ae565b5090565b5b80821115620002aa5760008155600101620002af565b600060208284031215620002d7578081fd5b81516001600160a01b0381168114620002ee578182fd5b9392505050565b600181811c908216806200030a57607f821691505b602082108114156200032c57634e487b7160e01b600052602260045260246000fd5b50919050565b6132c680620003426000396000f3fe6080604052600436106102695760003560e01c806367ad0e1c11610143578063a217fddf116100bb578063c87b56dd11610077578063c87b56dd146107bc578063d547741f146107dc578063de0ba020146107fc578063e07fa3c11461081c578063e51cca0714610831578063e985e9c51461084657005b8063a217fddf1461071d578063a22cb46514610732578063b88d4fde14610752578063b9a2de3a14610772578063bc483f6c14610792578063c7a9c871146107a757005b80638f2886441161010a5780638f2886441461065157806391d148541461069557806395d89b41146106b55780639979ef45146106ca5780639daec71e146106dd5780639dc3d812146106fd57005b806367ad0e1c146105b357806370a08231146105c85780637a461219146105e85780637a9ae240146105fb57806383ffda3b1461061b57005b80632f745c59116101e15780634f558e791161019d5780634f558e79146105005780634f6ccce71461052057806355f804b314610540578063598acd26146105605780636216f8f2146105805780636352211e1461059357005b80632f745c591461043d578063353d7b101461045d57806336568abe1461047257806341c2673c1461049257806342842e0e146104b25780634b602673146104d257005b806318160ddd1161023057806318160ddd1461035a578063202fb8af1461037957806323b872dd1461038e578063248a9ca3146103ae5780632a55205a146103de5780632f2ff15d1461041d57005b806301ffc9a71461027257806306fdde03146102a7578063081812fc146102c9578063095ea7b314610301578063150b7a021461032157005b3661027057005b005b34801561027e57600080fd5b5061029261028d366004612dfe565b610866565b60405190151581526020015b60405180910390f35b3480156102b357600080fd5b506102bc610895565b60405161029e9190612fd6565b3480156102d557600080fd5b506102e96102e4366004612dc4565b610927565b6040516001600160a01b03909116815260200161029e565b34801561030d57600080fd5b5061027061031c366004612d9b565b6109b4565b34801561032d57600080fd5b5061034161033c366004612ce8565b610ac5565b6040516001600160e01b0319909116815260200161029e565b34801561036657600080fd5b506008545b60405190815260200161029e565b34801561038557600080fd5b5060125461036b565b34801561039a57600080fd5b506102706103a9366004612cad565b610ad6565b3480156103ba57600080fd5b5061036b6103c9366004612dc4565b6000908152600a602052604090206001015490565b3480156103ea57600080fd5b506103fe6103f9366004612eae565b610b07565b604080516001600160a01b03909316835260208301919091520161029e565b34801561042957600080fd5b50610270610438366004612ddc565b610b42565b34801561044957600080fd5b5061036b610458366004612d9b565b610b68565b34801561046957600080fd5b5060135461036b565b34801561047e57600080fd5b5061027061048d366004612ddc565b610bfe565b34801561049e57600080fd5b506102706104ad366004612dc4565b610c7c565b3480156104be57600080fd5b506102706104cd366004612cad565b610d00565b3480156104de57600080fd5b506104f26104ed366004612dc4565b610d1b565b60405161029e92919061310d565b34801561050c57600080fd5b5061029261051b366004612dc4565b610dc0565b34801561052c57600080fd5b5061036b61053b366004612dc4565b610dcb565b34801561054c57600080fd5b5061027061055b366004612e36565b610e6c565b34801561056c57600080fd5b5061027061057b366004612dc4565b610e7f565b61027061058e366004612e69565b610e91565b34801561059f57600080fd5b506102e96105ae366004612dc4565b611069565b3480156105bf57600080fd5b5060145461036b565b3480156105d457600080fd5b5061036b6105e3366004612c61565b611074565b6102706105f6366004612dc4565b6110fb565b34801561060757600080fd5b50610270610616366004612dc4565b61126a565b34801561062757600080fd5b5061036b610636366004612c61565b6001600160a01b031660009081526010602052604090205490565b34801561065d57600080fd5b506103fe61066c366004612dc4565b6000908152600e6020908152604080832054600f909252909120546001600160a01b0390911691565b3480156106a157600080fd5b506102926106b0366004612ddc565b61127c565b3480156106c157600080fd5b506102bc6112a7565b6102706106d8366004612dc4565b6112b6565b3480156106e957600080fd5b506102706106f8366004612dc4565b6115c9565b34801561070957600080fd5b50610270610718366004612dc4565b6115db565b34801561072957600080fd5b5061036b600081565b34801561073e57600080fd5b5061027061074d366004612d61565b6115ed565b34801561075e57600080fd5b5061027061076d366004612ce8565b6116ae565b34801561077e57600080fd5b5061027061078d366004612dc4565b6116e6565b34801561079e57600080fd5b50600d5461036b565b3480156107b357600080fd5b5060155461036b565b3480156107c857600080fd5b506102bc6107d7366004612dc4565b61198c565b3480156107e857600080fd5b506102706107f7366004612ddc565b611a57565b34801561080857600080fd5b50610270610817366004612dc4565b611a7d565b34801561082857600080fd5b50610270611a8f565b34801561083d57600080fd5b5060115461036b565b34801561085257600080fd5b50610292610861366004612c7b565b611b85565b600061087182611bb3565b80610880575061088082611bd8565b8061088f575061088f82611bf9565b92915050565b6060600080546108a4906131cb565b80601f01602080910402602001604051908101604052809291908181526020018280546108d0906131cb565b801561091d5780601f106108f25761010080835404028352916020019161091d565b820191906000526020600020905b81548152906001019060200180831161090057829003601f168201915b5050505050905090565b600061093282611c1e565b6109985760405162461bcd60e51b815260206004820152602c60248201527f4552433732313a20617070726f76656420717565727920666f72206e6f6e657860448201526b34b9ba32b73a103a37b5b2b760a11b60648201526084015b60405180910390fd5b506000908152600460205260409020546001600160a01b031690565b60006109bf82611c3b565b9050806001600160a01b0316836001600160a01b03161415610a2d5760405162461bcd60e51b815260206004820152602160248201527f4552433732313a20617070726f76616c20746f2063757272656e74206f776e656044820152603960f91b606482015260840161098f565b336001600160a01b0382161480610a495750610a498133611b85565b610ab65760405162461bcd60e51b815260206004820152603860248201527f4552433732313a20617070726f76652063616c6c6572206973206e6f74206f776044820152771b995c881b9bdc88185c1c1c9bdd995908199bdc88185b1b60421b606482015260840161098f565b610ac08383611cb2565b505050565b630a85bd0160e11b5b949350505050565b610ae03382611d20565b610afc5760405162461bcd60e51b815260040161098f90613085565b610ac0838383611de2565b600080610b1c600c546001600160a01b031690565b612710600d5485610b2d9190613152565b610b37919061313e565b915091509250929050565b6000828152600a6020526040902060010154610b5e8133611ded565b610ac08383611e51565b6000610b7383611074565b8210610bd55760405162461bcd60e51b815260206004820152602b60248201527f455243373231456e756d657261626c653a206f776e657220696e646578206f7560448201526a74206f6620626f756e647360a81b606482015260840161098f565b506001600160a01b03919091166000908152600660209081526040808320938352929052205490565b6001600160a01b0381163314610c6e5760405162461bcd60e51b815260206004820152602f60248201527f416363657373436f6e74726f6c3a2063616e206f6e6c792072656e6f756e636560448201526e103937b632b9903337b91039b2b63360891b606482015260840161098f565b610c788282611ed7565b5050565b6000610c888133611ded565b6127108211158015610c98575060015b610cfa5760405162461bcd60e51b815260206004820152602d60248201527f726f79616c74795065726d79726961642073686f756c6420626520776974686960448201526c37102d98161018981818182e9760991b606482015260840161098f565b50600d55565b610ac0838383604051806020016040528060008152506116ae565b60176020526000908152604090208054600182018054919291610d3d906131cb565b80601f0160208091040260200160405190810160405280929190818152602001828054610d69906131cb565b8015610db65780601f10610d8b57610100808354040283529160200191610db6565b820191906000526020600020905b815481529060010190602001808311610d9957829003601f168201915b5050505050905082565b600061088f82611c1e565b6000610dd660085490565b8210610e395760405162461bcd60e51b815260206004820152602c60248201527f455243373231456e756d657261626c653a20676c6f62616c20696e646578206f60448201526b7574206f6620626f756e647360a01b606482015260840161098f565b60088281548110610e5a57634e487b7160e01b600052603260045260246000fd5b90600052602060002001549050919050565b8051610c78906016906020840190612b17565b6000610e8b8133611ded565b50601355565b8133610e9c82611069565b6001600160a01b031614610ec25760405162461bcd60e51b815260040161098f9061303b565b81601554815110610f285760405162461bcd60e51b815260206004820152602a60248201527f4e6f74652073686f756c642062652073686f72746572207468616e206e6f746560448201526929b4bd32a634b6b4ba1760b11b606482015260840161098f565b601354341015610f7a5760405162461bcd60e51b815260206004820152601c60248201527f53686f756c6420706179203e3d20656e67726176696e67507269636500000000604482015260640161098f565b60008481526017602052604090206001018054610f96906131cb565b159050610ff35760405162461bcd60e51b815260206004820152602560248201527f4e6f74652073686f756c6420626520656d707479206265666f726520656e67726044820152646176696e6760d81b606482015260840161098f565b6000848152601760209081526040909120845161101892600190920191860190612b17565b5061102284611069565b6001600160a01b0316847fb6abeec0166d668b4adf2ca7f1b5b105e3009b22f7fc01bde9728c0bf924b15b8560405161105b9190612fd6565b60405180910390a350505050565b600061088f82611c3b565b60006001600160a01b0382166110df5760405162461bcd60e51b815260206004820152602a60248201527f4552433732313a2062616c616e636520717565727920666f7220746865207a65604482015269726f206164647265737360b01b606482015260840161098f565b506001600160a01b031660009081526003602052604090205490565b803361110682611069565b6001600160a01b03161461112c5760405162461bcd60e51b815260040161098f9061303b565b60145434101561117e5760405162461bcd60e51b815260206004820152601a60248201527f53686f756c6420706179203e3d2065726173696e675072696365000000000000604482015260640161098f565b6000828152601760205260408120600101805461119a906131cb565b9050116111f85760405162461bcd60e51b815260206004820152602660248201527f4e6f74652073686f756c64206265206e6f6e656d707479206265666f72652065604482015265726173696e6760d01b606482015260840161098f565b6040805160208082018084526000808452868152601790925292902090516112269260019092019190612b17565b5061123082611069565b6001600160a01b0316827f93aa5a2948969ccaca3d1577b169ef79df08741c096a72ab7e4e4ecc03d428e360405160405180910390a35050565b60006112768133611ded565b50601555565b6000918252600a602090815260408084206001600160a01b0393909316845291905290205460ff1690565b6060600180546108a4906131cb565b6002600b5414156112d95760405162461bcd60e51b815260040161098f906130d6565b6002600b556112eb620151804261313e565b8111156113345760405162461bcd60e51b815260206004820152601760248201527620bab1ba34b7b71034b9903737ba1039ba30b93a32b21760491b604482015260640161098f565b611341620151804261313e565b8110156113845760405162461bcd60e51b815260206004820152601160248201527020bab1ba34b7b71034b99032b73232b21760791b604482015260640161098f565b60125434908110156113e25760405162461bcd60e51b815260206004820152602160248201527f4d7573742073656e64206d6f7265207468616e207265736572766550726963656044820152601760f91b606482015260840161098f565b6000828152600f6020526040902054811161144b5760405162461bcd60e51b8152602060048201526024808201527f4d7573742073656e64206d6f7265207468616e207468652068696768657374206044820152633134b21760e11b606482015260840161098f565b61271060115461271061145e9190613126565b6000848152600f60205260409020546114779190613152565b611481919061313e565b8110156114f25760405162461bcd60e51b815260206004820152603960248201527f4d7573742073656e64206f76657220746865206c61737420626964206279206d60448201527834b72134b224b731b932b6b2b73a103832b936bcb934b0b21760391b606482015260840161098f565b6000828152600e60205260409020546001600160a01b031661151d576115183083611f3e565b611560565b6000828152600f6020908152604080832054600e8352818420546001600160a01b031684526010909252822080549192909161155a908490613126565b90915550505b6000828152600e6020908152604080832080546001600160a01b03191633908117909155600f8352928190208490555183815284917f0e54eff26401bf69b81b26f60bd85ef47f5d85275c1d268d84f68d6897431c47910160405180910390a350506001600b55565b60006115d58133611ded565b50601255565b60006115e78133611ded565b50601455565b6001600160a01b0382163314156116425760405162461bcd60e51b815260206004820152601960248201527822a9219b99189d1030b8383937bb32903a379031b0b63632b960391b604482015260640161098f565b3360008181526005602090815260408083206001600160a01b03871680855290835292819020805460ff191686151590811790915590519081529192917f17307eab39ab6107e8899845ad3d59bd9653f200f220920489ca2b5937696c31910160405180910390a35050565b6116b83383611d20565b6116d45760405162461bcd60e51b815260040161098f90613085565b6116e084848484611fb2565b50505050565b6002600b5414156117095760405162461bcd60e51b815260040161098f906130d6565b6002600b558061171c620151804261313e565b116117625760405162461bcd60e51b815260206004820152601660248201527520bab1ba34b7b7103737ba103cb2ba1032b73232b21760511b604482015260640161098f565b6000818152600e60205260409020546001600160a01b03161580159061179557506000818152600f602052604090205415155b6117f65760405162461bcd60e51b815260206004820152602c60248201527f54686572652073686f756c64206265206174206c65617374206120626964206660448201526b37b9103a3432903230ba329760a11b606482015260840161098f565b3061180082611069565b6001600160a01b0316146118565760405162461bcd60e51b815260206004820152601f60248201527f53686f756c64206e6f74207265636c61696d207468652061756374696f6e2e00604482015260640161098f565b6000818152600e60205260409020546001600160a01b0316331480611881575061188160003361127c565b6118de5760405162461bcd60e51b815260206004820152602860248201527f4f6e6c792077696e6e6572206f722061646d696e2063616e20636c61696d207460448201526734329034ba32b69760c11b606482015260840161098f565b6119076118f3600c546001600160a01b031690565b6000838152600f6020526040902054611fe5565b6000818152600e602052604090205461192b9030906001600160a01b031683611de2565b6000818152600e6020908152604080832054600f8352928190205490519081526001600160a01b039092169183917fd2aa34a4fdbbc6dff6a3e56f46e0f3ae2a31d7785ff3487aa5c95c642acea501910160405180910390a3506001600b55565b606061199782611c1e565b6119fb5760405162461bcd60e51b815260206004820152602f60248201527f4552433732314d657461646174613a2055524920717565727920666f72206e6f60448201526e3732bc34b9ba32b73a103a37b5b2b760891b606482015260840161098f565b6000611a056120fe565b90506000815111611a255760405180602001604052806000815250611a50565b80611a2f8461210d565b604051602001611a40929190612efb565b6040516020818303038152906040525b9392505050565b6000828152600a6020526040902060010154611a738133611ded565b610ac08383611ed7565b6000611a898133611ded565b50601155565b6002600b541415611ab25760405162461bcd60e51b815260040161098f906130d6565b6002600b5533600090815260106020526040902054611b095760405162461bcd60e51b81526020600482015260136024820152722737903832b73234b733903932ba3ab937399760691b604482015260640161098f565b3360008181526010602052604090205490611b249082611fe5565b3360009081526010602052604081208054839290611b43908490613171565b909155505060405181815233907fa5e06c0c537f7a80323b3ffc4c94a001c98b8fc51dfceba143694bf0469adb779060200160405180910390a2506001600b55565b6001600160a01b03918216600090815260056020908152604080832093909416825291909152205460ff1690565b60006001600160e01b0319821663780e9d6360e01b148061088f575061088f82612227565b600063152a902d60e11b6001600160e01b03198316148061088f575061088f825b60006001600160e01b03198216637965db0b60e01b148061088f575061088f82611bb3565b6000908152600260205260409020546001600160a01b0316151590565b6000818152600260205260408120546001600160a01b03168061088f5760405162461bcd60e51b815260206004820152602960248201527f4552433732313a206f776e657220717565727920666f72206e6f6e657869737460448201526832b73a103a37b5b2b760b91b606482015260840161098f565b600081815260046020526040902080546001600160a01b0319166001600160a01b0384169081179091558190611ce782611c3b565b6001600160a01b03167f8c5be1e5ebec7d5bd14f71427d1e84f3dd0314c0f7b2291e5b200ac8c7c3b92560405160405180910390a45050565b6000611d2b82611c1e565b611d8c5760405162461bcd60e51b815260206004820152602c60248201527f4552433732313a206f70657261746f7220717565727920666f72206e6f6e657860448201526b34b9ba32b73a103a37b5b2b760a11b606482015260840161098f565b6000611d9783611c3b565b9050806001600160a01b0316846001600160a01b03161480611dd25750836001600160a01b0316611dc784610927565b6001600160a01b0316145b80610ace5750610ace8185611b85565b610ac0838383612277565b611df7828261127c565b610c7857611e0f816001600160a01b03166014612422565b611e1a836020612422565b604051602001611e2b929190612f2a565b60408051601f198184030181529082905262461bcd60e51b825261098f91600401612fd6565b611e5b828261127c565b610c78576000828152600a602090815260408083206001600160a01b03851684529091529020805460ff19166001179055611e933390565b6001600160a01b0316816001600160a01b0316837f2f8788117e7eff1d82e926ec794901d17c78024a50270940304540a733656f0d60405160405180910390a45050565b611ee1828261127c565b15610c78576000828152600a602090815260408083206001600160a01b0385168085529252808320805460ff1916905551339285917ff6391f5c32d9c69d2a47ea670b442974b53935d1edc7fd64eb21e047a839171b9190a45050565b611f488282612604565b600081815260176020818152604080842085815581518084019283905285815294869052929091529151611f829260019092019190612b17565b5060405181907fa7cff2fe4ba71de839a94bc4b44a410ef51866620f1de09209ec3fc4fdf3926890600090a25050565b611fbd848484611de2565b611fc98484848461261e565b6116e05760405162461bcd60e51b815260040161098f90612fe9565b804710156120355760405162461bcd60e51b815260206004820152601d60248201527f416464726573733a20696e73756666696369656e742062616c616e6365000000604482015260640161098f565b6000826001600160a01b03168260405160006040518083038185875af1925050503d8060008114612082576040519150601f19603f3d011682016040523d82523d6000602084013e612087565b606091505b5050905080610ac05760405162461bcd60e51b815260206004820152603a60248201527f416464726573733a20756e61626c6520746f2073656e642076616c75652c207260448201527f6563697069656e74206d61792068617665207265766572746564000000000000606482015260840161098f565b6060601680546108a4906131cb565b6060816121315750506040805180820190915260018152600360fc1b602082015290565b8160005b811561215b578061214581613206565b91506121549050600a8361313e565b9150612135565b60008167ffffffffffffffff81111561218457634e487b7160e01b600052604160045260246000fd5b6040519080825280601f01601f1916602001820160405280156121ae576020820181803683370190505b5090505b8415610ace576121c3600183613171565b91506121d0600a86613221565b6121db906030613126565b60f81b8183815181106121fe57634e487b7160e01b600052603260045260246000fd5b60200101906001600160f81b031916908160001a905350612220600a8661313e565b94506121b2565b60006001600160e01b031982166380ac58cd60e01b148061225857506001600160e01b03198216635b5e139f60e01b145b8061088f57506301ffc9a760e01b6001600160e01b031983161461088f565b826001600160a01b031661228a82611c3b565b6001600160a01b0316146122f25760405162461bcd60e51b815260206004820152602960248201527f4552433732313a207472616e73666572206f6620746f6b656e2074686174206960448201526839903737ba1037bbb760b91b606482015260840161098f565b6001600160a01b0382166123545760405162461bcd60e51b8152602060048201526024808201527f4552433732313a207472616e7366657220746f20746865207a65726f206164646044820152637265737360e01b606482015260840161098f565b61235f838383612728565b61236a600082611cb2565b6001600160a01b0383166000908152600360205260408120805460019290612393908490613171565b90915550506001600160a01b03821660009081526003602052604081208054600192906123c1908490613126565b909155505060008181526002602052604080822080546001600160a01b0319166001600160a01b0386811691821790925591518493918716917fddf252ad1be2c89b69c2b068fc378daa952ba7f163c4a11628f55a4df523b3ef91a4505050565b60606000612431836002613152565b61243c906002613126565b67ffffffffffffffff81111561246257634e487b7160e01b600052604160045260246000fd5b6040519080825280601f01601f19166020018201604052801561248c576020820181803683370190505b509050600360fc1b816000815181106124b557634e487b7160e01b600052603260045260246000fd5b60200101906001600160f81b031916908160001a905350600f60fb1b816001815181106124f257634e487b7160e01b600052603260045260246000fd5b60200101906001600160f81b031916908160001a9053506000612516846002613152565b612521906001613126565b90505b60018111156125b5576f181899199a1a9b1b9c1cb0b131b232b360811b85600f166010811061256357634e487b7160e01b600052603260045260246000fd5b1a60f81b82828151811061258757634e487b7160e01b600052603260045260246000fd5b60200101906001600160f81b031916908160001a90535060049490941c936125ae816131b4565b9050612524565b508315611a505760405162461bcd60e51b815260206004820181905260248201527f537472696e67733a20686578206c656e67746820696e73756666696369656e74604482015260640161098f565b610c78828260405180602001604052806000815250612733565b60006001600160a01b0384163b1561272057604051630a85bd0160e11b81526001600160a01b0385169063150b7a0290612662903390899088908890600401612f99565b602060405180830381600087803b15801561267c57600080fd5b505af19250505080156126ac575060408051601f3d908101601f191682019092526126a991810190612e1a565b60015b612706573d8080156126da576040519150601f19603f3d011682016040523d82523d6000602084013e6126df565b606091505b5080516126fe5760405162461bcd60e51b815260040161098f90612fe9565b805181602001fd5b6001600160e01b031916630a85bd0160e11b149050610ace565b506001610ace565b610ac0838383612766565b61273d838361281e565b61274a600084848461261e565b610ac05760405162461bcd60e51b815260040161098f90612fe9565b6001600160a01b0383166127c1576127bc81600880546000838152600960205260408120829055600182018355919091527ff3f7a9fe364faab93b216da50a3214154f22a0a2b415b23a84c8169e8b636ee30155565b6127e4565b816001600160a01b0316836001600160a01b0316146127e4576127e4838261295d565b6001600160a01b0382166127fb57610ac0816129fa565b826001600160a01b0316826001600160a01b031614610ac057610ac08282612ad3565b6001600160a01b0382166128745760405162461bcd60e51b815260206004820181905260248201527f4552433732313a206d696e7420746f20746865207a65726f2061646472657373604482015260640161098f565b61287d81611c1e565b156128ca5760405162461bcd60e51b815260206004820152601c60248201527f4552433732313a20746f6b656e20616c7265616479206d696e74656400000000604482015260640161098f565b6128d660008383612728565b6001600160a01b03821660009081526003602052604081208054600192906128ff908490613126565b909155505060008181526002602052604080822080546001600160a01b0319166001600160a01b03861690811790915590518392907fddf252ad1be2c89b69c2b068fc378daa952ba7f163c4a11628f55a4df523b3ef908290a45050565b6000600161296a84611074565b6129749190613171565b6000838152600760205260409020549091508082146129c7576001600160a01b03841660009081526006602090815260408083208584528252808320548484528184208190558352600790915290208190555b5060009182526007602090815260408084208490556001600160a01b039094168352600681528383209183525290812055565b600854600090612a0c90600190613171565b60008381526009602052604081205460088054939450909284908110612a4257634e487b7160e01b600052603260045260246000fd5b906000526020600020015490508060088381548110612a7157634e487b7160e01b600052603260045260246000fd5b6000918252602080832090910192909255828152600990915260408082208490558582528120556008805480612ab757634e487b7160e01b600052603160045260246000fd5b6001900381819060005260206000200160009055905550505050565b6000612ade83611074565b6001600160a01b039093166000908152600660209081526040808320868452825280832085905593825260079052919091209190915550565b828054612b23906131cb565b90600052602060002090601f016020900481019282612b455760008555612b8b565b82601f10612b5e57805160ff1916838001178555612b8b565b82800160010185558215612b8b579182015b82811115612b8b578251825591602001919060010190612b70565b50612b97929150612b9b565b5090565b5b80821115612b975760008155600101612b9c565b600067ffffffffffffffff80841115612bcb57612bcb613261565b604051601f8501601f19908116603f01168101908282118183101715612bf357612bf3613261565b81604052809350858152868686011115612c0c57600080fd5b858560208301376000602087830101525050509392505050565b80356001600160a01b0381168114612c3d57600080fd5b919050565b600082601f830112612c52578081fd5b611a5083833560208501612bb0565b600060208284031215612c72578081fd5b611a5082612c26565b60008060408385031215612c8d578081fd5b612c9683612c26565b9150612ca460208401612c26565b90509250929050565b600080600060608486031215612cc1578081fd5b612cca84612c26565b9250612cd860208501612c26565b9150604084013590509250925092565b60008060008060808587031215612cfd578081fd5b612d0685612c26565b9350612d1460208601612c26565b925060408501359150606085013567ffffffffffffffff811115612d36578182fd5b8501601f81018713612d46578182fd5b612d5587823560208401612bb0565b91505092959194509250565b60008060408385031215612d73578182fd5b612d7c83612c26565b915060208301358015158114612d90578182fd5b809150509250929050565b60008060408385031215612dad578182fd5b612db683612c26565b946020939093013593505050565b600060208284031215612dd5578081fd5b5035919050565b60008060408385031215612dee578182fd5b82359150612ca460208401612c26565b600060208284031215612e0f578081fd5b8135611a5081613277565b600060208284031215612e2b578081fd5b8151611a5081613277565b600060208284031215612e47578081fd5b813567ffffffffffffffff811115612e5d578182fd5b610ace84828501612c42565b60008060408385031215612e7b578182fd5b82359150602083013567ffffffffffffffff811115612e98578182fd5b612ea485828601612c42565b9150509250929050565b60008060408385031215612ec0578182fd5b50508035926020909101359150565b60008151808452612ee7816020860160208601613188565b601f01601f19169290920160200192915050565b60008351612f0d818460208801613188565b835190830190612f21818360208801613188565b01949350505050565b76020b1b1b2b9b9a1b7b73a3937b61d1030b1b1b7bab73a1604d1b815260008351612f5c816017850160208801613188565b7001034b99036b4b9b9b4b733903937b6329607d1b6017918401918201528351612f8d816028840160208801613188565b01602801949350505050565b6001600160a01b0385811682528416602082015260408101839052608060608201819052600090612fcc90830184612ecf565b9695505050505050565b602081526000611a506020830184612ecf565b60208082526032908201527f4552433732313a207472616e7366657220746f206e6f6e20455243373231526560408201527131b2b4bb32b91034b6b83632b6b2b73a32b960711b606082015260800190565b6020808252602a908201527f43616c6c65722073686f756c6420626520746865206f776e6572206f66207468604082015269329030b93a3bb7b9359760b11b606082015260800190565b60208082526031908201527f4552433732313a207472616e736665722063616c6c6572206973206e6f74206f6040820152701ddb995c881b9bdc88185c1c1c9bdd9959607a1b606082015260800190565b6020808252601f908201527f5265656e7472616e637947756172643a207265656e7472616e742063616c6c00604082015260600190565b828152604060208201526000610ace6040830184612ecf565b6000821982111561313957613139613235565b500190565b60008261314d5761314d61324b565b500490565b600081600019048311821515161561316c5761316c613235565b500290565b60008282101561318357613183613235565b500390565b60005b838110156131a357818101518382015260200161318b565b838111156116e05750506000910152565b6000816131c3576131c3613235565b506000190190565b600181811c908216806131df57607f821691505b6020821081141561320057634e487b7160e01b600052602260045260246000fd5b50919050565b600060001982141561321a5761321a613235565b5060010190565b6000826132305761323061324b565b500690565b634e487b7160e01b600052601160045260246000fd5b634e487b7160e01b600052601260045260246000fd5b634e487b7160e01b600052604160045260246000fd5b6001600160e01b03198116811461328d57600080fd5b5056fea2646970667358221220d1580f06aa0dcbff7f6889730c9994bc2720c54ceae8de7c58b95204f784e47d64736f6c63430008040033",
  "devdoc": {
    "kind": "dev",
    "methods": {
      "approve(address,uint256)": {
        "details": "See {IERC721-approve}."
      },
      "balanceOf(address)": {
        "details": "See {IERC721-balanceOf}."
      },
      "getApproved(uint256)": {
        "details": "See {IERC721-getApproved}."
      },
      "getRoleAdmin(bytes32)": {
        "details": "Returns the admin role that controls `role`. See {grantRole} and {revokeRole}. To change a role's admin, use {_setRoleAdmin}."
      },
      "grantRole(bytes32,address)": {
        "details": "Grants `role` to `account`. If `account` had not been already granted `role`, emits a {RoleGranted} event. Requirements: - the caller must have ``role``'s admin role."
      },
      "hasRole(bytes32,address)": {
        "details": "Returns `true` if `account` has been granted `role`."
      },
      "isApprovedForAll(address,address)": {
        "details": "See {IERC721-isApprovedForAll}."
      },
      "name()": {
        "details": "See {IERC721Metadata-name}."
      },
      "onERC721Received(address,address,uint256,bytes)": {
        "details": "See {IERC721Receiver-onERC721Received}. Always returns `IERC721Receiver.onERC721Received.selector`."
      },
      "renounceRole(bytes32,address)": {
        "details": "Revokes `role` from the calling account. Roles are often managed via {grantRole} and {revokeRole}: this function's purpose is to provide a mechanism for accounts to lose their privileges if they are compromised (such as when a trusted device is misplaced). If the calling account had been granted `role`, emits a {RoleRevoked} event. Requirements: - the caller must be `account`."
      },
      "revokeRole(bytes32,address)": {
        "details": "Revokes `role` from `account`. If `account` had been granted `role`, emits a {RoleRevoked} event. Requirements: - the caller must have ``role``'s admin role."
      },
      "royaltyInfo(uint256,uint256)": {
        "params": {
          "salePrice": "- the sale price of the NFT asset specified by _tokenId",
          "tokenId": "- the NFT asset queried for royalty information"
        },
        "returns": {
          "receiver": "- address of who should be sent the royalty payment",
          "royaltyAmount": "- the royalty payment amount for _salePrice"
        }
      },
      "safeTransferFrom(address,address,uint256)": {
        "details": "See {IERC721-safeTransferFrom}."
      },
      "safeTransferFrom(address,address,uint256,bytes)": {
        "details": "See {IERC721-safeTransferFrom}."
      },
      "setApprovalForAll(address,bool)": {
        "details": "See {IERC721-setApprovalForAll}."
      },
      "symbol()": {
        "details": "See {IERC721Metadata-symbol}."
      },
      "tokenByIndex(uint256)": {
        "details": "See {IERC721Enumerable-tokenByIndex}."
      },
      "tokenOfOwnerByIndex(address,uint256)": {
        "details": "See {IERC721Enumerable-tokenOfOwnerByIndex}."
      },
      "tokenURI(uint256)": {
        "details": "See {IERC721Metadata-tokenURI}."
      },
      "totalSupply()": {
        "details": "See {IERC721Enumerable-totalSupply}."
      },
      "transferFrom(address,address,uint256)": {
        "details": "See {IERC721-transferFrom}."
      }
    },
    "version": 1
  },
  "userdoc": {
    "kind": "user",
    "methods": {
      "endAuction(uint256)": {
        "notice": "End the auction and send the highest bid to the beneficiary."
      },
      "royaltyInfo(uint256,uint256)": {
        "notice": "Called with the sale price to determine how much royalty is owed and to whom."
      }
    },
    "version": 1
  },
  "storageLayout": {
    "storage": [
      {
        "astId": 818,
        "contract": "contracts/TheDate.sol:TheDate",
        "label": "_name",
        "offset": 0,
        "slot": "0",
        "type": "t_string_storage"
      },
      {
        "astId": 820,
        "contract": "contracts/TheDate.sol:TheDate",
        "label": "_symbol",
        "offset": 0,
        "slot": "1",
        "type": "t_string_storage"
      },
      {
        "astId": 824,
        "contract": "contracts/TheDate.sol:TheDate",
        "label": "_owners",
        "offset": 0,
        "slot": "2",
        "type": "t_mapping(t_uint256,t_address)"
      },
      {
        "astId": 828,
        "contract": "contracts/TheDate.sol:TheDate",
        "label": "_balances",
        "offset": 0,
        "slot": "3",
        "type": "t_mapping(t_address,t_uint256)"
      },
      {
        "astId": 832,
        "contract": "contracts/TheDate.sol:TheDate",
        "label": "_tokenApprovals",
        "offset": 0,
        "slot": "4",
        "type": "t_mapping(t_uint256,t_address)"
      },
      {
        "astId": 838,
        "contract": "contracts/TheDate.sol:TheDate",
        "label": "_operatorApprovals",
        "offset": 0,
        "slot": "5",
        "type": "t_mapping(t_address,t_mapping(t_address,t_bool))"
      },
      {
        "astId": 1757,
        "contract": "contracts/TheDate.sol:TheDate",
        "label": "_ownedTokens",
        "offset": 0,
        "slot": "6",
        "type": "t_mapping(t_address,t_mapping(t_uint256,t_uint256))"
      },
      {
        "astId": 1761,
        "contract": "contracts/TheDate.sol:TheDate",
        "label": "_ownedTokensIndex",
        "offset": 0,
        "slot": "7",
        "type": "t_mapping(t_uint256,t_uint256)"
      },
      {
        "astId": 1764,
        "contract": "contracts/TheDate.sol:TheDate",
        "label": "_allTokens",
        "offset": 0,
        "slot": "8",
        "type": "t_array(t_uint256)dyn_storage"
      },
      {
        "astId": 1768,
        "contract": "contracts/TheDate.sol:TheDate",
        "label": "_allTokensIndex",
        "offset": 0,
        "slot": "9",
        "type": "t_mapping(t_uint256,t_uint256)"
      },
      {
        "astId": 24,
        "contract": "contracts/TheDate.sol:TheDate",
        "label": "_roles",
        "offset": 0,
        "slot": "10",
        "type": "t_mapping(t_bytes32,t_struct(RoleData)19_storage)"
      },
      {
        "astId": 685,
        "contract": "contracts/TheDate.sol:TheDate",
        "label": "_status",
        "offset": 0,
        "slot": "11",
        "type": "t_uint256"
      },
      {
        "astId": 3928,
        "contract": "contracts/TheDate.sol:TheDate",
        "label": "_foundation",
        "offset": 0,
        "slot": "12",
        "type": "t_address_payable"
      },
      {
        "astId": 3962,
        "contract": "contracts/TheDate.sol:TheDate",
        "label": "_royaltyPermyriad",
        "offset": 0,
        "slot": "13",
        "type": "t_uint256"
      },
      {
        "astId": 3538,
        "contract": "contracts/TheDate.sol:TheDate",
        "label": "_highestBidder",
        "offset": 0,
        "slot": "14",
        "type": "t_mapping(t_uint256,t_address)"
      },
      {
        "astId": 3542,
        "contract": "contracts/TheDate.sol:TheDate",
        "label": "_highestBid",
        "offset": 0,
        "slot": "15",
        "type": "t_mapping(t_uint256,t_uint256)"
      },
      {
        "astId": 3546,
        "contract": "contracts/TheDate.sol:TheDate",
        "label": "_pendingReturns",
        "offset": 0,
        "slot": "16",
        "type": "t_mapping(t_address,t_uint256)"
      },
      {
        "astId": 3548,
        "contract": "contracts/TheDate.sol:TheDate",
        "label": "_minBidIncrementPermyriad",
        "offset": 0,
        "slot": "17",
        "type": "t_uint256"
      },
      {
        "astId": 3550,
        "contract": "contracts/TheDate.sol:TheDate",
        "label": "_reservePrice",
        "offset": 0,
        "slot": "18",
        "type": "t_uint256"
      },
      {
        "astId": 4127,
        "contract": "contracts/TheDate.sol:TheDate",
        "label": "_engravingPrice",
        "offset": 0,
        "slot": "19",
        "type": "t_uint256"
      },
      {
        "astId": 4130,
        "contract": "contracts/TheDate.sol:TheDate",
        "label": "_erasingPrice",
        "offset": 0,
        "slot": "20",
        "type": "t_uint256"
      },
      {
        "astId": 4133,
        "contract": "contracts/TheDate.sol:TheDate",
        "label": "_noteSizeLimit",
        "offset": 0,
        "slot": "21",
        "type": "t_uint256"
      },
      {
        "astId": 4198,
        "contract": "contracts/TheDate.sol:TheDate",
        "label": "_baseTokenURI",
        "offset": 0,
        "slot": "22",
        "type": "t_string_storage"
      },
      {
        "astId": 4374,
        "contract": "contracts/TheDate.sol:TheDate",
        "label": "artworks",
        "offset": 0,
        "slot": "23",
        "type": "t_mapping(t_uint256,t_struct(TheDateArtwork)4369_storage)"
      }
    ],
    "types": {
      "t_address": {
        "encoding": "inplace",
        "label": "address",
        "numberOfBytes": "20"
      },
      "t_address_payable": {
        "encoding": "inplace",
        "label": "address payable",
        "numberOfBytes": "20"
      },
      "t_array(t_uint256)dyn_storage": {
        "base": "t_uint256",
        "encoding": "dynamic_array",
        "label": "uint256[]",
        "numberOfBytes": "32"
      },
      "t_bool": {
        "encoding": "inplace",
        "label": "bool",
        "numberOfBytes": "1"
      },
      "t_bytes32": {
        "encoding": "inplace",
        "label": "bytes32",
        "numberOfBytes": "32"
      },
      "t_mapping(t_address,t_bool)": {
        "encoding": "mapping",
        "key": "t_address",
        "label": "mapping(address => bool)",
        "numberOfBytes": "32",
        "value": "t_bool"
      },
      "t_mapping(t_address,t_mapping(t_address,t_bool))": {
        "encoding": "mapping",
        "key": "t_address",
        "label": "mapping(address => mapping(address => bool))",
        "numberOfBytes": "32",
        "value": "t_mapping(t_address,t_bool)"
      },
      "t_mapping(t_address,t_mapping(t_uint256,t_uint256))": {
        "encoding": "mapping",
        "key": "t_address",
        "label": "mapping(address => mapping(uint256 => uint256))",
        "numberOfBytes": "32",
        "value": "t_mapping(t_uint256,t_uint256)"
      },
      "t_mapping(t_address,t_uint256)": {
        "encoding": "mapping",
        "key": "t_address",
        "label": "mapping(address => uint256)",
        "numberOfBytes": "32",
        "value": "t_uint256"
      },
      "t_mapping(t_bytes32,t_struct(RoleData)19_storage)": {
        "encoding": "mapping",
        "key": "t_bytes32",
        "label": "mapping(bytes32 => struct AccessControl.RoleData)",
        "numberOfBytes": "32",
        "value": "t_struct(RoleData)19_storage"
      },
      "t_mapping(t_uint256,t_address)": {
        "encoding": "mapping",
        "key": "t_uint256",
        "label": "mapping(uint256 => address)",
        "numberOfBytes": "32",
        "value": "t_address"
      },
      "t_mapping(t_uint256,t_struct(TheDateArtwork)4369_storage)": {
        "encoding": "mapping",
        "key": "t_uint256",
        "label": "mapping(uint256 => struct TheDate.TheDateArtwork)",
        "numberOfBytes": "32",
        "value": "t_struct(TheDateArtwork)4369_storage"
      },
      "t_mapping(t_uint256,t_uint256)": {
        "encoding": "mapping",
        "key": "t_uint256",
        "label": "mapping(uint256 => uint256)",
        "numberOfBytes": "32",
        "value": "t_uint256"
      },
      "t_string_storage": {
        "encoding": "bytes",
        "label": "string",
        "numberOfBytes": "32"
      },
      "t_struct(RoleData)19_storage": {
        "encoding": "inplace",
        "label": "struct AccessControl.RoleData",
        "members": [
          {
            "astId": 16,
            "contract": "contracts/TheDate.sol:TheDate",
            "label": "members",
            "offset": 0,
            "slot": "0",
            "type": "t_mapping(t_address,t_bool)"
          },
          {
            "astId": 18,
            "contract": "contracts/TheDate.sol:TheDate",
            "label": "adminRole",
            "offset": 0,
            "slot": "1",
            "type": "t_bytes32"
          }
        ],
        "numberOfBytes": "64"
      },
      "t_struct(TheDateArtwork)4369_storage": {
        "encoding": "inplace",
        "label": "struct TheDate.TheDateArtwork",
        "members": [
          {
            "astId": 4366,
            "contract": "contracts/TheDate.sol:TheDate",
            "label": "date",
            "offset": 0,
            "slot": "0",
            "type": "t_uint256"
          },
          {
            "astId": 4368,
            "contract": "contracts/TheDate.sol:TheDate",
            "label": "note",
            "offset": 0,
            "slot": "1",
            "type": "t_string_storage"
          }
        ],
        "numberOfBytes": "64"
      },
      "t_uint256": {
        "encoding": "inplace",
        "label": "uint256",
        "numberOfBytes": "32"
      }
    }
  }
}