{
  "address": "0x6e3B8f8Cb545c2F080103DAac07A38DB68E5E6A0",
  "abi": [
    {
      "inputs": [
        {
          "internalType": "address",
          "name": "foundation_",
          "type": "address"
        },
        {
          "internalType": "address",
          "name": "weth_",
          "type": "address"
        },
        {
          "internalType": "address",
          "name": "loot_",
          "type": "address"
        }
      ],
      "stateMutability": "nonpayable",
      "type": "constructor"
    },
    {
      "anonymous": false,
      "inputs": [
        {
          "indexed": true,
          "internalType": "address",
          "name": "owner",
          "type": "address"
        },
        {
          "indexed": true,
          "internalType": "address",
          "name": "approved",
          "type": "address"
        },
        {
          "indexed": true,
          "internalType": "uint256",
          "name": "tokenId",
          "type": "uint256"
        }
      ],
      "name": "Approval",
      "type": "event"
    },
    {
      "anonymous": false,
      "inputs": [
        {
          "indexed": true,
          "internalType": "address",
          "name": "owner",
          "type": "address"
        },
        {
          "indexed": true,
          "internalType": "address",
          "name": "operator",
          "type": "address"
        },
        {
          "indexed": false,
          "internalType": "bool",
          "name": "approved",
          "type": "bool"
        }
      ],
      "name": "ApprovalForAll",
      "type": "event"
    },
    {
      "anonymous": false,
      "inputs": [
        {
          "indexed": true,
          "internalType": "uint256",
          "name": "tokenId",
          "type": "uint256"
        },
        {
          "indexed": true,
          "internalType": "address",
          "name": "owner",
          "type": "address"
        }
      ],
      "name": "ArtworkAirdropped",
      "type": "event"
    },
    {
      "anonymous": false,
      "inputs": [
        {
          "indexed": true,
          "internalType": "uint256",
          "name": "tokenId",
          "type": "uint256"
        },
        {
          "indexed": true,
          "internalType": "address",
          "name": "owner",
          "type": "address"
        }
      ],
      "name": "ArtworkClaimed",
      "type": "event"
    },
    {
      "anonymous": false,
      "inputs": [
        {
          "indexed": false,
          "internalType": "uint256",
          "name": "minBidIncrementBps",
          "type": "uint256"
        }
      ],
      "name": "AuctionMinBidIncrementBpsChanged",
      "type": "event"
    },
    {
      "anonymous": false,
      "inputs": [
        {
          "indexed": false,
          "internalType": "uint256",
          "name": "reservePrice",
          "type": "uint256"
        }
      ],
      "name": "AuctionReservePriceChanged",
      "type": "event"
    },
    {
      "anonymous": false,
      "inputs": [
        {
          "indexed": true,
          "internalType": "uint256",
          "name": "tokenId",
          "type": "uint256"
        },
        {
          "indexed": true,
          "internalType": "address",
          "name": "winner",
          "type": "address"
        },
        {
          "indexed": false,
          "internalType": "uint256",
          "name": "amount",
          "type": "uint256"
        }
      ],
      "name": "AuctionSettled",
      "type": "event"
    },
    {
      "anonymous": false,
      "inputs": [
        {
          "indexed": true,
          "internalType": "uint256",
          "name": "tokenId",
          "type": "uint256"
        },
        {
          "indexed": true,
          "internalType": "address",
          "name": "bidder",
          "type": "address"
        },
        {
          "indexed": false,
          "internalType": "uint256",
          "name": "amount",
          "type": "uint256"
        }
      ],
      "name": "BidPlaced",
      "type": "event"
    },
    {
      "anonymous": false,
      "inputs": [
        {
          "indexed": false,
          "internalType": "uint256",
          "name": "claimingPrice",
          "type": "uint256"
        }
      ],
      "name": "ClaimingPriceChanged",
      "type": "event"
    },
    {
      "anonymous": false,
      "inputs": [
        {
          "indexed": false,
          "internalType": "uint256",
          "name": "amount",
          "type": "uint256"
        }
      ],
      "name": "EngravingPriceChanged",
      "type": "event"
    },
    {
      "anonymous": false,
      "inputs": [
        {
          "indexed": false,
          "internalType": "uint256",
          "name": "amount",
          "type": "uint256"
        }
      ],
      "name": "ErasingPriceChanged",
      "type": "event"
    },
    {
      "anonymous": false,
      "inputs": [
        {
          "indexed": true,
          "internalType": "uint256",
          "name": "tokenId",
          "type": "uint256"
        },
        {
          "indexed": true,
          "internalType": "address",
          "name": "owner",
          "type": "address"
        },
        {
          "indexed": false,
          "internalType": "string",
          "name": "note",
          "type": "string"
        }
      ],
      "name": "NoteEngraved",
      "type": "event"
    },
    {
      "anonymous": false,
      "inputs": [
        {
          "indexed": true,
          "internalType": "uint256",
          "name": "tokenId",
          "type": "uint256"
        },
        {
          "indexed": true,
          "internalType": "address",
          "name": "owner",
          "type": "address"
        }
      ],
      "name": "NoteErased",
      "type": "event"
    },
    {
      "anonymous": false,
      "inputs": [
        {
          "indexed": false,
          "internalType": "uint256",
          "name": "length",
          "type": "uint256"
        }
      ],
      "name": "NoteSizeLimitChanged",
      "type": "event"
    },
    {
      "anonymous": false,
      "inputs": [
        {
          "indexed": true,
          "internalType": "bytes32",
          "name": "role",
          "type": "bytes32"
        },
        {
          "indexed": true,
          "internalType": "bytes32",
          "name": "previousAdminRole",
          "type": "bytes32"
        },
        {
          "indexed": true,
          "internalType": "bytes32",
          "name": "newAdminRole",
          "type": "bytes32"
        }
      ],
      "name": "RoleAdminChanged",
      "type": "event"
    },
    {
      "anonymous": false,
      "inputs": [
        {
          "indexed": true,
          "internalType": "bytes32",
          "name": "role",
          "type": "bytes32"
        },
        {
          "indexed": true,
          "internalType": "address",
          "name": "account",
          "type": "address"
        },
        {
          "indexed": true,
          "internalType": "address",
          "name": "sender",
          "type": "address"
        }
      ],
      "name": "RoleGranted",
      "type": "event"
    },
    {
      "anonymous": false,
      "inputs": [
        {
          "indexed": true,
          "internalType": "bytes32",
          "name": "role",
          "type": "bytes32"
        },
        {
          "indexed": true,
          "internalType": "address",
          "name": "account",
          "type": "address"
        },
        {
          "indexed": true,
          "internalType": "address",
          "name": "sender",
          "type": "address"
        }
      ],
      "name": "RoleRevoked",
      "type": "event"
    },
    {
      "anonymous": false,
      "inputs": [
        {
          "indexed": true,
          "internalType": "address",
          "name": "from",
          "type": "address"
        },
        {
          "indexed": true,
          "internalType": "address",
          "name": "to",
          "type": "address"
        },
        {
          "indexed": true,
          "internalType": "uint256",
          "name": "tokenId",
          "type": "uint256"
        }
      ],
      "name": "Transfer",
      "type": "event"
    },
    {
      "stateMutability": "payable",
      "type": "fallback"
    },
    {
      "inputs": [],
      "name": "DAO_ROLE",
      "outputs": [
        {
          "internalType": "bytes32",
          "name": "",
          "type": "bytes32"
        }
      ],
      "stateMutability": "view",
      "type": "function"
    },
    {
      "inputs": [],
      "name": "DEFAULT_ADMIN_ROLE",
      "outputs": [
        {
          "internalType": "bytes32",
          "name": "",
          "type": "bytes32"
        }
      ],
      "stateMutability": "view",
      "type": "function"
    },
    {
      "inputs": [
        {
          "internalType": "address[]",
          "name": "addresses",
          "type": "address[]"
        },
        {
          "internalType": "uint256[]",
          "name": "tokenIds",
          "type": "uint256[]"
        }
      ],
      "name": "airdrop",
      "outputs": [],
      "stateMutability": "nonpayable",
      "type": "function"
    },
    {
      "inputs": [
        {
          "internalType": "address",
          "name": "to",
          "type": "address"
        },
        {
          "internalType": "uint256",
          "name": "tokenId",
          "type": "uint256"
        }
      ],
      "name": "approve",
      "outputs": [],
      "stateMutability": "nonpayable",
      "type": "function"
    },
    {
      "inputs": [
        {
          "internalType": "address",
          "name": "owner",
          "type": "address"
        }
      ],
      "name": "balanceOf",
      "outputs": [
        {
          "internalType": "uint256",
          "name": "",
          "type": "uint256"
        }
      ],
      "stateMutability": "view",
      "type": "function"
    },
    {
      "inputs": [
        {
          "internalType": "uint256",
          "name": "tokenId",
          "type": "uint256"
        }
      ],
      "name": "claim",
      "outputs": [],
      "stateMutability": "payable",
      "type": "function"
    },
    {
      "inputs": [],
      "name": "claimingPrice",
      "outputs": [
        {
          "internalType": "uint256",
          "name": "",
          "type": "uint256"
        }
      ],
      "stateMutability": "view",
      "type": "function"
    },
    {
      "inputs": [
        {
          "internalType": "uint256",
          "name": "_days",
          "type": "uint256"
        }
      ],
      "name": "daysToDate",
      "outputs": [
        {
          "internalType": "uint256",
          "name": "year",
          "type": "uint256"
        },
        {
          "internalType": "uint256",
          "name": "month",
          "type": "uint256"
        },
        {
          "internalType": "uint256",
          "name": "day",
          "type": "uint256"
        }
      ],
      "stateMutability": "pure",
      "type": "function"
    },
    {
      "inputs": [
        {
          "internalType": "uint256",
          "name": "tokenId",
          "type": "uint256"
        },
        {
          "internalType": "string",
          "name": "note",
          "type": "string"
        }
      ],
      "name": "engraveNote",
      "outputs": [],
      "stateMutability": "payable",
      "type": "function"
    },
    {
      "inputs": [],
      "name": "engravingPrice",
      "outputs": [
        {
          "internalType": "uint256",
          "name": "",
          "type": "uint256"
        }
      ],
      "stateMutability": "view",
      "type": "function"
    },
    {
      "inputs": [
        {
          "internalType": "uint256",
          "name": "tokenId",
          "type": "uint256"
        }
      ],
      "name": "eraseNote",
      "outputs": [],
      "stateMutability": "payable",
      "type": "function"
    },
    {
      "inputs": [],
      "name": "erasingPrice",
      "outputs": [
        {
          "internalType": "uint256",
          "name": "",
          "type": "uint256"
        }
      ],
      "stateMutability": "view",
      "type": "function"
    },
    {
      "inputs": [
        {
          "internalType": "uint256",
          "name": "tokenId",
          "type": "uint256"
        }
      ],
      "name": "exists",
      "outputs": [
        {
          "internalType": "bool",
          "name": "",
          "type": "bool"
        }
      ],
      "stateMutability": "view",
      "type": "function"
    },
    {
      "inputs": [
        {
          "internalType": "uint256",
          "name": "tokenId",
          "type": "uint256"
        }
      ],
      "name": "generateMetadata",
      "outputs": [
        {
          "internalType": "string",
          "name": "",
          "type": "string"
        }
      ],
      "stateMutability": "view",
      "type": "function"
    },
    {
      "inputs": [
        {
          "internalType": "uint256",
          "name": "tokenId",
          "type": "uint256"
        }
      ],
      "name": "generateSVGImage",
      "outputs": [
        {
          "internalType": "string",
          "name": "",
          "type": "string"
        }
      ],
      "stateMutability": "view",
      "type": "function"
    },
    {
      "inputs": [
        {
          "internalType": "uint256",
          "name": "tokenId",
          "type": "uint256"
        }
      ],
      "name": "getApproved",
      "outputs": [
        {
          "internalType": "address",
          "name": "",
          "type": "address"
        }
      ],
      "stateMutability": "view",
      "type": "function"
    },
    {
      "inputs": [],
      "name": "getCurrentAuctionTokenId",
      "outputs": [
        {
          "internalType": "uint256",
          "name": "",
          "type": "uint256"
        }
      ],
      "stateMutability": "view",
      "type": "function"
    },
    {
      "inputs": [],
      "name": "getCurrentMinimumBid",
      "outputs": [
        {
          "internalType": "uint256",
          "name": "amount",
          "type": "uint256"
        }
      ],
      "stateMutability": "view",
      "type": "function"
    },
    {
      "inputs": [
        {
          "internalType": "uint256",
          "name": "tokenId",
          "type": "uint256"
        }
      ],
      "name": "getDate",
      "outputs": [
        {
          "internalType": "string",
          "name": "",
          "type": "string"
        }
      ],
      "stateMutability": "pure",
      "type": "function"
    },
    {
      "inputs": [
        {
          "internalType": "uint256",
          "name": "tokenId",
          "type": "uint256"
        }
      ],
      "name": "getHighestBid",
      "outputs": [
        {
          "internalType": "address",
          "name": "bidder",
          "type": "address"
        },
        {
          "internalType": "uint256",
          "name": "amount",
          "type": "uint256"
        }
      ],
      "stateMutability": "view",
      "type": "function"
    },
    {
      "inputs": [
        {
          "internalType": "uint256",
          "name": "tokenId",
          "type": "uint256"
        }
      ],
      "name": "getNote",
      "outputs": [
        {
          "internalType": "string",
          "name": "",
          "type": "string"
        }
      ],
      "stateMutability": "view",
      "type": "function"
    },
    {
      "inputs": [
        {
          "internalType": "bytes32",
          "name": "role",
          "type": "bytes32"
        }
      ],
      "name": "getRoleAdmin",
      "outputs": [
        {
          "internalType": "bytes32",
          "name": "",
          "type": "bytes32"
        }
      ],
      "stateMutability": "view",
      "type": "function"
    },
    {
      "inputs": [
        {
          "internalType": "bytes32",
          "name": "role",
          "type": "bytes32"
        },
        {
          "internalType": "address",
          "name": "account",
          "type": "address"
        }
      ],
      "name": "grantRole",
      "outputs": [],
      "stateMutability": "nonpayable",
      "type": "function"
    },
    {
      "inputs": [
        {
          "internalType": "bytes32",
          "name": "role",
          "type": "bytes32"
        },
        {
          "internalType": "address",
          "name": "account",
          "type": "address"
        }
      ],
      "name": "hasRole",
      "outputs": [
        {
          "internalType": "bool",
          "name": "",
          "type": "bool"
        }
      ],
      "stateMutability": "view",
      "type": "function"
    },
    {
      "inputs": [
        {
          "internalType": "address",
          "name": "owner",
          "type": "address"
        },
        {
          "internalType": "address",
          "name": "operator",
          "type": "address"
        }
      ],
      "name": "isApprovedForAll",
      "outputs": [
        {
          "internalType": "bool",
          "name": "",
          "type": "bool"
        }
      ],
      "stateMutability": "view",
      "type": "function"
    },
    {
      "inputs": [],
      "name": "minBidIncrementBps",
      "outputs": [
        {
          "internalType": "uint256",
          "name": "",
          "type": "uint256"
        }
      ],
      "stateMutability": "view",
      "type": "function"
    },
    {
      "inputs": [],
      "name": "name",
      "outputs": [
        {
          "internalType": "string",
          "name": "",
          "type": "string"
        }
      ],
      "stateMutability": "view",
      "type": "function"
    },
    {
      "inputs": [],
      "name": "noteSizeLimit",
      "outputs": [
        {
          "internalType": "uint256",
          "name": "",
          "type": "uint256"
        }
      ],
      "stateMutability": "view",
      "type": "function"
    },
    {
      "inputs": [
        {
          "internalType": "uint256",
          "name": "tokenId",
          "type": "uint256"
        }
      ],
      "name": "ownerOf",
      "outputs": [
        {
          "internalType": "address",
          "name": "",
          "type": "address"
        }
      ],
      "stateMutability": "view",
      "type": "function"
    },
    {
      "inputs": [],
      "name": "placeBid",
      "outputs": [],
      "stateMutability": "payable",
      "type": "function"
    },
    {
      "inputs": [
        {
          "internalType": "bytes32",
          "name": "role",
          "type": "bytes32"
        },
        {
          "internalType": "address",
          "name": "account",
          "type": "address"
        }
      ],
      "name": "renounceRole",
      "outputs": [],
      "stateMutability": "nonpayable",
      "type": "function"
    },
    {
      "inputs": [],
      "name": "reservePrice",
      "outputs": [
        {
          "internalType": "uint256",
          "name": "",
          "type": "uint256"
        }
      ],
      "stateMutability": "view",
      "type": "function"
    },
    {
      "inputs": [
        {
          "internalType": "bytes32",
          "name": "role",
          "type": "bytes32"
        },
        {
          "internalType": "address",
          "name": "account",
          "type": "address"
        }
      ],
      "name": "revokeRole",
      "outputs": [],
      "stateMutability": "nonpayable",
      "type": "function"
    },
    {
      "inputs": [],
      "name": "royaltyBps",
      "outputs": [
        {
          "internalType": "uint256",
          "name": "",
          "type": "uint256"
        }
      ],
      "stateMutability": "view",
      "type": "function"
    },
    {
      "inputs": [
        {
          "internalType": "uint256",
          "name": "tokenId",
          "type": "uint256"
        },
        {
          "internalType": "uint256",
          "name": "salePrice",
          "type": "uint256"
        }
      ],
      "name": "royaltyInfo",
      "outputs": [
        {
          "internalType": "address",
          "name": "receiver",
          "type": "address"
        },
        {
          "internalType": "uint256",
          "name": "royaltyAmount",
          "type": "uint256"
        }
      ],
      "stateMutability": "view",
      "type": "function"
    },
    {
      "inputs": [
        {
          "internalType": "address",
          "name": "from",
          "type": "address"
        },
        {
          "internalType": "address",
          "name": "to",
          "type": "address"
        },
        {
          "internalType": "uint256",
          "name": "tokenId",
          "type": "uint256"
        }
      ],
      "name": "safeTransferFrom",
      "outputs": [],
      "stateMutability": "nonpayable",
      "type": "function"
    },
    {
      "inputs": [
        {
          "internalType": "address",
          "name": "from",
          "type": "address"
        },
        {
          "internalType": "address",
          "name": "to",
          "type": "address"
        },
        {
          "internalType": "uint256",
          "name": "tokenId",
          "type": "uint256"
        },
        {
          "internalType": "bytes",
          "name": "_data",
          "type": "bytes"
        }
      ],
      "name": "safeTransferFrom",
      "outputs": [],
      "stateMutability": "nonpayable",
      "type": "function"
    },
    {
      "inputs": [
        {
          "internalType": "address",
          "name": "operator",
          "type": "address"
        },
        {
          "internalType": "bool",
          "name": "approved",
          "type": "bool"
        }
      ],
      "name": "setApprovalForAll",
      "outputs": [],
      "stateMutability": "nonpayable",
      "type": "function"
    },
    {
      "inputs": [
        {
          "internalType": "uint256",
          "name": "minBidIncrementBps_",
          "type": "uint256"
        }
      ],
      "name": "setAuctionMinBidIncrementBps",
      "outputs": [],
      "stateMutability": "nonpayable",
      "type": "function"
    },
    {
      "inputs": [
        {
          "internalType": "uint256",
          "name": "reservePrice_",
          "type": "uint256"
        }
      ],
      "name": "setAuctionReservePrice",
      "outputs": [],
      "stateMutability": "nonpayable",
      "type": "function"
    },
    {
      "inputs": [
        {
          "internalType": "uint256",
          "name": "claimingPrice_",
          "type": "uint256"
        }
      ],
      "name": "setClaimingPrice",
      "outputs": [],
      "stateMutability": "nonpayable",
      "type": "function"
    },
    {
      "inputs": [
        {
          "internalType": "uint256",
          "name": "engravingPrice_",
          "type": "uint256"
        }
      ],
      "name": "setEngravingPrice",
      "outputs": [],
      "stateMutability": "nonpayable",
      "type": "function"
    },
    {
      "inputs": [
        {
          "internalType": "uint256",
          "name": "erasingPrice_",
          "type": "uint256"
        }
      ],
      "name": "setErasingPrice",
      "outputs": [],
      "stateMutability": "nonpayable",
      "type": "function"
    },
    {
      "inputs": [
        {
          "internalType": "uint256",
          "name": "noteSizeLimit_",
          "type": "uint256"
        }
      ],
      "name": "setNoteSizeLimit",
      "outputs": [],
      "stateMutability": "nonpayable",
      "type": "function"
    },
    {
      "inputs": [
        {
          "internalType": "uint256",
          "name": "royaltyBps_",
          "type": "uint256"
        }
      ],
      "name": "setRoyaltyBps",
      "outputs": [],
      "stateMutability": "nonpayable",
      "type": "function"
    },
    {
      "inputs": [
        {
          "internalType": "string[]",
          "name": "svgImageTemplate_",
          "type": "string[]"
        }
      ],
      "name": "setSVGImageTemplate",
      "outputs": [],
      "stateMutability": "nonpayable",
      "type": "function"
    },
    {
      "inputs": [
        {
          "internalType": "string",
          "name": "tokenDescription_",
          "type": "string"
        }
      ],
      "name": "setTokenDescription",
      "outputs": [],
      "stateMutability": "nonpayable",
      "type": "function"
    },
    {
      "inputs": [],
      "name": "settleLastAuction",
      "outputs": [],
      "stateMutability": "nonpayable",
      "type": "function"
    },
    {
      "inputs": [
        {
          "internalType": "bytes4",
          "name": "interfaceId",
          "type": "bytes4"
        }
      ],
      "name": "supportsInterface",
      "outputs": [
        {
          "internalType": "bool",
          "name": "",
          "type": "bool"
        }
      ],
      "stateMutability": "view",
      "type": "function"
    },
    {
      "inputs": [
        {
          "internalType": "uint256",
          "name": "",
          "type": "uint256"
        }
      ],
      "name": "svgImageTemplate",
      "outputs": [
        {
          "internalType": "string",
          "name": "",
          "type": "string"
        }
      ],
      "stateMutability": "view",
      "type": "function"
    },
    {
      "inputs": [],
      "name": "symbol",
      "outputs": [
        {
          "internalType": "string",
          "name": "",
          "type": "string"
        }
      ],
      "stateMutability": "view",
      "type": "function"
    },
    {
      "inputs": [
        {
          "internalType": "uint256",
          "name": "index",
          "type": "uint256"
        }
      ],
      "name": "tokenByIndex",
      "outputs": [
        {
          "internalType": "uint256",
          "name": "",
          "type": "uint256"
        }
      ],
      "stateMutability": "view",
      "type": "function"
    },
    {
      "inputs": [],
      "name": "tokenDescription",
      "outputs": [
        {
          "internalType": "string",
          "name": "",
          "type": "string"
        }
      ],
      "stateMutability": "view",
      "type": "function"
    },
    {
      "inputs": [
        {
          "internalType": "address",
          "name": "owner",
          "type": "address"
        },
        {
          "internalType": "uint256",
          "name": "index",
          "type": "uint256"
        }
      ],
      "name": "tokenOfOwnerByIndex",
      "outputs": [
        {
          "internalType": "uint256",
          "name": "",
          "type": "uint256"
        }
      ],
      "stateMutability": "view",
      "type": "function"
    },
    {
      "inputs": [
        {
          "internalType": "uint256",
          "name": "tokenId",
          "type": "uint256"
        }
      ],
      "name": "tokenURI",
      "outputs": [
        {
          "internalType": "string",
          "name": "",
          "type": "string"
        }
      ],
      "stateMutability": "view",
      "type": "function"
    },
    {
      "inputs": [],
      "name": "totalSupply",
      "outputs": [
        {
          "internalType": "uint256",
          "name": "",
          "type": "uint256"
        }
      ],
      "stateMutability": "view",
      "type": "function"
    },
    {
      "inputs": [
        {
          "internalType": "address",
          "name": "from",
          "type": "address"
        },
        {
          "internalType": "address",
          "name": "to",
          "type": "address"
        },
        {
          "internalType": "uint256",
          "name": "tokenId",
          "type": "uint256"
        }
      ],
      "name": "transferFrom",
      "outputs": [],
      "stateMutability": "nonpayable",
      "type": "function"
    },
    {
      "stateMutability": "payable",
      "type": "receive"
    }
  ],
  "transactionHash": "0xf168ead04821a33d88f079dec5ea1915d7fc2bf98f0501c8690998c03c2c3812",
  "args": [
    "0x694D1C96AE25476a16054454e6d575ea5077E413",
    "0xc778417E063141139Fce010982780140Aa0cD5Ab",
    "0x79E2d470f950f2Cf78eeF41720E8ff2cf4B3CD78"
  ],
  "solcInputHash": "73b1a6d5882b94494f775abaddf92acb",
  "bytecode": "0x66b1a2bc2ec50000600c5567016345785d8a0000600d8190556103e8600e819055662386f26fc10000600f55601091909155606460115560125561024060405261012760e08181529062004ea66101003980516200006691601391602090910190620002eb565b50604080516101e0810190915261010a60a08201818152829162004d9c60c08401398152602001604051806040016040528060088152602001677b7b646174657d7d60c01b81525081526020016040518060a00160405280607f815260200162004d1d607f91398152602001604051806040016040528060088152602001677b7b6e6f74657d7d60c01b81525081526020016040518060400160405280600d81526020016c1e17ba32bc3a1f1e17b9bb339f60991b8152508152506014906005620001339291906200037a565b5060006018553480156200014657600080fd5b5060405162004fcd38038062004fcd833981016040819052620001699162000471565b6040805180820182526008815267546865204461746560c01b6020808301918252835180850190945260048452634441544560e01b908401528151919291620001b591600091620002eb565b508051620001cb906001906020840190620002eb565b50506001600b55506001600160601b0319606084811b821660805283811b821660a05282901b1660c0526200020260003362000237565b6200022e7f3b5d4cc60d3ec3516ee8ae083bd60934f6eb2a6c54b1229985c41bfb092b26033362000237565b505050620004f8565b62000243828262000247565b5050565b6000828152600a602090815260408083206001600160a01b038516845290915290205460ff1662000243576000828152600a602090815260408083206001600160a01b03851684529091529020805460ff19166001179055620002a73390565b6001600160a01b0316816001600160a01b0316837f2f8788117e7eff1d82e926ec794901d17c78024a50270940304540a733656f0d60405160405180910390a45050565b828054620002f990620004bb565b90600052602060002090601f0160209004810192826200031d576000855562000368565b82601f106200033857805160ff191683800117855562000368565b8280016001018555821562000368579182015b82811115620003685782518255916020019190600101906200034b565b5062000376929150620003da565b5090565b828054828255906000526020600020908101928215620003cc579160200282015b82811115620003cc5782518051620003bb918491602090910190620002eb565b50916020019190600101906200039b565b5062000376929150620003f1565b5b80821115620003765760008155600101620003db565b808211156200037657600062000408828262000412565b50600101620003f1565b5080546200042090620004bb565b6000825580601f1062000431575050565b601f016020900490600052602060002090810190620004519190620003da565b50565b80516001600160a01b03811681146200046c57600080fd5b919050565b6000806000606084860312156200048757600080fd5b620004928462000454565b9250620004a26020850162000454565b9150620004b26040850162000454565b90509250925092565b600181811c90821680620004d057607f821691505b60208210811415620004f257634e487b7160e01b600052602260045260246000fd5b50919050565b60805160601c60a05160601c60c05160601c6147c96200055460003960006113d40152600081816125b5015261264a01526000818161113c015281816114ed0152818161170c0152818161239801526130a101526147c96000f3fe6080604052600436106103495760003560e01c8063598acd26116101b9578063a74a3e9f116100f6578063da7a739f1161009a578063ecfc7ecc1161006c578063ecfc7ecc14610a14578063f070d81d14610a1c578063f3f5d36b14610a2f578063fc43dbd014610a4557005b8063da7a739f1461097d578063db2e1eed14610993578063e985e9c5146109a9578063e9c26518146109f257005b8063b88d4fde116100d3578063b88d4fde14610907578063c63adb2b14610927578063c87b56dd1461093d578063d547741f1461095d57005b8063a74a3e9f146108bc578063a8818847146108d1578063a965a941146108e757005b806391d148541161015d5780639daec71e1161013a5780639daec71e146108475780639dc3d81214610867578063a217fddf14610887578063a22cb4651461089c57005b806391d14854146107f257806395d89b4114610812578063970c43101461082757005b806370a082311161019657806370a08231146107585780637a9ae240146107785780638dfd1ec8146107985780638f288644146107ae57005b8063598acd26146106f85780636352211e14610718578063672434821461073857005b80632a55205a116102875780633c085e121161022b578063499305c411610208578063499305c4146106785780634d58364b146106985780634f558e79146106b85780634f6ccce7146106d857005b80633c085e12146106255780633fe800ef1461063857806342842e0e1461065857005b80632f745c59116102645780632f745c59146105bd57806336568abe146105dd578063379607f5146105fd578063396961a31461061057005b80632a55205a1461053e5780632b57298b1461057d5780632f2ff15d1461059d57005b806318160ddd116102ee5780631f72d831116102cb5780631f72d831146104b957806323b872dd146104d9578063248a9ca3146104f957806325e6f5161461052957005b806318160ddd1461046e5780631c117150146104835780631e826bc01461049957005b806306fdde031161032757806306fdde03146103de578063081812fc146103f35780630954305d1461042b578063095ea7b31461044e57005b8062d5da0214610358578063015e1a0b1461037857806301ffc9a7146103ae57005b3661035657610356610a80565b005b34801561036457600080fd5b50610356610373366004613eae565b610c4e565b34801561038457600080fd5b50610398610393366004613e38565b610c72565b6040516103a591906142d4565b60405180910390f35b3480156103ba57600080fd5b506103ce6103c9366004613e74565b610d1a565b60405190151581526020016103a5565b3480156103ea57600080fd5b50610398610d70565b3480156103ff57600080fd5b5061041361040e366004613e38565b610e02565b6040516001600160a01b0390911681526020016103a5565b34801561043757600080fd5b50610440610e8a565b6040519081526020016103a5565b34801561045a57600080fd5b50610356610469366004613c72565b610e9e565b34801561047a57600080fd5b50600854610440565b34801561048f57600080fd5b50610440600e5481565b3480156104a557600080fd5b506103566104b4366004613e38565b610faf565b3480156104c557600080fd5b506103566104d4366004613e38565b611005565b3480156104e557600080fd5b506103566104f4366004613b83565b611078565b34801561050557600080fd5b50610440610514366004613e38565b6000908152600a602052604090206001015490565b34801561053557600080fd5b506103986110a9565b34801561054a57600080fd5b5061055e610559366004613f39565b611137565b604080516001600160a01b0390931683526020830191909152016103a5565b34801561058957600080fd5b50610398610598366004613e38565b611181565b3480156105a957600080fd5b506103566105b8366004613e51565b611249565b3480156105c957600080fd5b506104406105d8366004613c72565b61126f565b3480156105e957600080fd5b506103566105f8366004613e51565b611305565b61035661060b366004613e38565b611383565b34801561061c57600080fd5b5061035661156c565b610356610633366004613e38565b6115dc565b34801561064457600080fd5b50610398610653366004613e38565b611798565b34801561066457600080fd5b50610356610673366004613b83565b611ac0565b34801561068457600080fd5b50610356610693366004613d63565b611adb565b3480156106a457600080fd5b506103986106b3366004613e38565b611afa565b3480156106c457600080fd5b506103ce6106d3366004613e38565b611b25565b3480156106e457600080fd5b506104406106f3366004613e38565b611b30565b34801561070457600080fd5b50610356610713366004613e38565b611bc3565b34801561072457600080fd5b50610413610733366004613e38565b611c11565b34801561074457600080fd5b50610356610753366004613c9c565b611c88565b34801561076457600080fd5b50610440610773366004613b35565b611d6a565b34801561078457600080fd5b50610356610793366004613e38565b611df1565b3480156107a457600080fd5b50610440600c5481565b3480156107ba57600080fd5b5061055e6107c9366004613e38565b6000908152601660209081526040808320546017909252909120546001600160a01b0390911691565b3480156107fe57600080fd5b506103ce61080d366004613e51565b611e3f565b34801561081e57600080fd5b50610398611e6a565b34801561083357600080fd5b50610356610842366004613e38565b611e79565b34801561085357600080fd5b50610356610862366004613e38565b611ec7565b34801561087357600080fd5b50610356610882366004613e38565b611f15565b34801561089357600080fd5b50610440600081565b3480156108a857600080fd5b506103566108b7366004613c3b565b611f63565b3480156108c857600080fd5b50610440612028565b3480156108dd57600080fd5b5061044060105481565b3480156108f357600080fd5b50610398610902366004613e38565b612088565b34801561091357600080fd5b50610356610922366004613bbf565b61212a565b34801561093357600080fd5b5061044060125481565b34801561094957600080fd5b50610398610958366004613e38565b612162565b34801561096957600080fd5b50610356610978366004613e51565b6121e7565b34801561098957600080fd5b50610440600f5481565b34801561099f57600080fd5b50610440600d5481565b3480156109b557600080fd5b506103ce6109c4366004613b50565b6001600160a01b03918216600090815260056020908152604080832093909416825291909152205460ff1690565b3480156109fe57600080fd5b5061044060008051602061473483398151915281565b610356610a80565b610356610a2a366004613efc565b61220d565b348015610a3b57600080fd5b5061044060115481565b348015610a5157600080fd5b50610a65610a60366004613e38565b612431565b604080519384526020840192909252908201526060016103a5565b6002600b541415610aac5760405162461bcd60e51b8152600401610aa3906143d3565b60405180910390fd5b6002600b556000610ac062015180426144e6565b600d549091503490811015610b175760405162461bcd60e51b815260206004820181905260248201527f4d7573742073656e64206d6f7265207468616e207265736572766550726963656044820152606401610aa3565b610b1f612028565b811015610b895760405162461bcd60e51b815260206004820152603260248201527f4d7573742073656e64206d6f7265207468616e206c61737420626964206279206044820152716d696e426964496e6372656d656e7442707360701b6064820152608401610aa3565b6000828152601660205260409020546001600160a01b0316610bb757610bad61156c565b6018829055610be5565b600082815260166020908152604080832054601790925290912054610be5916001600160a01b0316906125a5565b600082815260166020908152604080832080546001600160a01b0319163390811790915560178352928190208490555183815284917f0e54eff26401bf69b81b26f60bd85ef47f5d85275c1d268d84f68d6897431c47910160405180910390a350506001600b55565b6000610c5a81336126ca565b8151610c6d9060139060208501906138e6565b505050565b6060610c7d8261272e565b610cc35760405162461bcd60e51b81526020600482015260176024820152761d1bdad95b9259081a5cc81b9bdb8b595e1a5cdd195b9d604a1b6044820152606401610aa3565b6000610cd6610cd184611798565b61274b565b90506000610ce3846128b3565b610cec85611181565b601384604051602001610d029493929190614071565b60408051601f19818403018152919052949350505050565b6000610d25826129b9565b80610d345750610d34826129de565b80610d4f575063152a902d60e11b6001600160e01b03198316145b80610d6a57506301ffc9a760e01b6001600160e01b03198316145b92915050565b606060008054610d7f90614637565b80601f0160208091040260200160405190810160405280929190818152602001828054610dab90614637565b8015610df85780601f10610dcd57610100808354040283529160200191610df8565b820191906000526020600020905b815481529060010190602001808311610ddb57829003601f168201915b5050505050905090565b6000610e0d8261272e565b610e6e5760405162461bcd60e51b815260206004820152602c60248201527f4552433732313a20617070726f76656420717565727920666f72206e6f6e657860448201526b34b9ba32b73a103a37b5b2b760a11b6064820152608401610aa3565b506000908152600460205260409020546001600160a01b031690565b6000610e9962015180426144e6565b905090565b6000610ea982611c11565b9050806001600160a01b0316836001600160a01b03161415610f175760405162461bcd60e51b815260206004820152602160248201527f4552433732313a20617070726f76616c20746f2063757272656e74206f776e656044820152603960f91b6064820152608401610aa3565b336001600160a01b0382161480610f335750610f3381336109c4565b610fa55760405162461bcd60e51b815260206004820152603860248201527f4552433732313a20617070726f76652063616c6c6572206973206e6f74206f7760448201527f6e6572206e6f7220617070726f76656420666f7220616c6c00000000000000006064820152608401610aa3565b610c6d8383612a03565b600080516020614734833981519152610fc881336126ca565b600c8290556040518281527f696ca9f32ad4aedb63d39a2bc82f3a93b74dd917d4c64f03b7dd37a2bfa79c3e906020015b60405180910390a15050565b600061101181336126ca565b6127108211156110725760405162461bcd60e51b815260206004820152602660248201527f726f79616c74794270732073686f756c642062652077697468696e205b302c2060448201526531303030305d60d01b6064820152608401610aa3565b50601255565b6110823382612a71565b61109e5760405162461bcd60e51b8152600401610aa390614382565b610c6d838383612b57565b601380546110b690614637565b80601f01602080910402602001604051908101604052809291908181526020018280546110e290614637565b801561112f5780601f106111045761010080835404028352916020019161112f565b820191906000526020600020905b81548152906001019060200180831161111257829003601f168201915b505050505081565b6000807f00000000000000000000000000000000000000000000000000000000000000006127106012548561116c919061457f565b61117691906144e6565b915091509250929050565b6060600080600061119185612431565b92509250925060006111a2846128b3565b905060006111af846128b3565b90508051600114156111de57806040516020016111cc9190614048565b60405160208183030381529060405290505b60006111e9846128b3565b905080516001141561121857806040516020016112069190614048565b60405160208183030381529060405290505b82828260405160200161122d93929190613fee565b6040516020818303038152906040529650505050505050919050565b6000828152600a602052604090206001015461126581336126ca565b610c6d8383612d02565b600061127a83611d6a565b82106112dc5760405162461bcd60e51b815260206004820152602b60248201527f455243373231456e756d657261626c653a206f776e657220696e646578206f7560448201526a74206f6620626f756e647360a81b6064820152608401610aa3565b506001600160a01b03919091166000908152600660209081526040808320938352929052205490565b6001600160a01b03811633146113755760405162461bcd60e51b815260206004820152602f60248201527f416363657373436f6e74726f6c3a2063616e206f6e6c792072656e6f756e636560448201526e103937b632b9903337b91039b2b63360891b6064820152608401610aa3565b61137f8282612d88565b5050565b6002600b5414156113a65760405162461bcd60e51b8152600401610aa3906143d3565b6002600b556113b6600033611e3f565b8061145857506040516370a0823160e01b81523360048201526000907f00000000000000000000000000000000000000000000000000000000000000006001600160a01b0316906370a082319060240160206040518083038186803b15801561141e57600080fd5b505afa158015611432573d6000803e3d6000fd5b505050506040513d601f19601f820116820180604052508101906114569190613ee3565b115b806114655750600c543410155b6114c85760405162461bcd60e51b815260206004820152602e60248201527f53686f756c6420706179203e3d20636c61696d696e67207072696365206f722060448201526d1bdddb881848131bdbdd0813919560921b6064820152608401610aa3565b6114d061156c565b6114da3382612def565b3415611537576040516001600160a01b037f000000000000000000000000000000000000000000000000000000000000000016903480156108fc02916000818181858888f19350505050158015611535573d6000803e3d6000fd5b505b604051339082907fce8230f82e484df1d81d3f449132eed44e758f95df463079b72a869f75d341cf90600090a3506001600b55565b6018548061157d62015180426144e6565b1180156115a057506000818152601660205260409020546001600160a01b031615155b80156115b9575060008181526017602052604090205415155b80156115cb57506115c98161272e565b155b156115d9576115d981612f27565b50565b80336115e782611c11565b6001600160a01b03161461160d5760405162461bcd60e51b8152600401610aa390614339565b60105434101561165f5760405162461bcd60e51b815260206004820152601a60248201527f53686f756c6420706179203e3d2065726173696e6750726963650000000000006044820152606401610aa3565b6000828152601560205260408120805461167890614637565b9050116116d65760405162461bcd60e51b815260206004820152602660248201527f4e6f74652073686f756c64206265206e6f6e656d707479206265666f72652065604482015265726173696e6760d01b6064820152608401610aa3565b6040805160208082018084526000808452868152601590925292902090516116fe92906138e6565b506040516001600160a01b037f000000000000000000000000000000000000000000000000000000000000000016903480156108fc02916000818181858888f19350505050158015611754573d6000803e3d6000fd5b5061175e82611c11565b6001600160a01b0316827ff5cd03e250f4dc67cb934696b1ae84a530d007600f8c2b64cb1097e04cd49ae960405160405180910390a35050565b60606117a38261272e565b6117e95760405162461bcd60e51b81526020600482015260176024820152761d1bdad95b9259081a5cc81b9bdb8b595e1a5cdd195b9d604a1b6044820152606401610aa3565b60006117f483611181565b9050600061180184612088565b60408051602081019091526000808252919250905b601454811015611ab75760606118f160148381548110611838576118386146e3565b90600052602060002001805461184d90614637565b80601f016020809104026020016040519081016040528092919081815260200182805461187990614637565b80156118c65780601f1061189b576101008083540402835291602001916118c6565b820191906000526020600020905b8154815290600101906020018083116118a957829003601f168201915b5050505050604051806040016040528060088152602001677b7b646174657d7d60c01b815250613145565b156118fd575083611a81565b6119cc60148381548110611913576119136146e3565b90600052602060002001805461192890614637565b80601f016020809104026020016040519081016040528092919081815260200182805461195490614637565b80156119a15780601f10611976576101008083540402835291602001916119a1565b820191906000526020600020905b81548152906001019060200180831161198457829003601f168201915b5050505050604051806040016040528060088152602001677b7b6e6f74657d7d60c01b815250613145565b156119d8575082611a81565b601482815481106119eb576119eb6146e3565b906000526020600020018054611a0090614637565b80601f0160208091040260200160405190810160405280929190818152602001828054611a2c90614637565b8015611a795780601f10611a4e57610100808354040283529160200191611a79565b820191906000526020600020905b815481529060010190602001808311611a5c57829003601f168201915b505050505090505b8281604051602001611a94929190613fbf565b60405160208183030381529060405292505080611ab090614672565b9050611816565b50949350505050565b610c6d8383836040518060200160405280600081525061212a565b6000611ae781336126ca565b8151610c6d90601490602085019061396a565b60148181548110611b0a57600080fd5b9060005260206000200160009150905080546110b690614637565b6000610d6a8261272e565b6000611b3b60085490565b8210611b9e5760405162461bcd60e51b815260206004820152602c60248201527f455243373231456e756d657261626c653a20676c6f62616c20696e646578206f60448201526b7574206f6620626f756e647360a01b6064820152608401610aa3565b60088281548110611bb157611bb16146e3565b90600052602060002001549050919050565b600080516020614734833981519152611bdc81336126ca565b600f8290556040518281527f6ea43baebf767c8984d2da6f4e06b71e7093fcb9d3c0c516cd51ac6b15fa11d790602001610ff9565b6000818152600260205260408120546001600160a01b031680610d6a5760405162461bcd60e51b815260206004820152602960248201527f4552433732313a206f776e657220717565727920666f72206e6f6e657869737460448201526832b73a103a37b5b2b760b91b6064820152608401610aa3565b6002600b541415611cab5760405162461bcd60e51b8152600401610aa3906143d3565b6002600b556000611cbc81336126ca565b611cc461156c565b60005b8251811015611d5f576000848281518110611ce457611ce46146e3565b602002602001015190506000848381518110611d0257611d026146e3565b60200260200101519050611d168282612def565b6040516001600160a01b0383169082907f6f1a5977e7036a4d672e1db1ca046ec0bd742ef9a38fe8d46823fd17dae6083190600090a3505080611d5890614672565b9050611cc7565b50506001600b555050565b60006001600160a01b038216611dd55760405162461bcd60e51b815260206004820152602a60248201527f4552433732313a2062616c616e636520717565727920666f7220746865207a65604482015269726f206164647265737360b01b6064820152608401610aa3565b506001600160a01b031660009081526003602052604090205490565b600080516020614734833981519152611e0a81336126ca565b60118290556040518281527f808020969425956198bf055c9d59c389614dd21f915904f05b2d21ea161cd4ec90602001610ff9565b6000918252600a602090815260408084206001600160a01b0393909316845291905290205460ff1690565b606060018054610d7f90614637565b600080516020614734833981519152611e9281336126ca565b600e8290556040518281527ff4ec2a844abf83d803887787f1c1ce8de91c40e66ea4a395779beb8c0d904a4190602001610ff9565b600080516020614734833981519152611ee081336126ca565b600d8290556040518281527f921c658aa55473adf5c5112e48ef56de846ddb3e4e57e8888cb24a81b3b2727390602001610ff9565b600080516020614734833981519152611f2e81336126ca565b60108290556040518281527f1b5c73c6da4bab6f305baea61b3dfd41973701830ad8e35dfdf24eba3d3d6de090602001610ff9565b6001600160a01b038216331415611fbc5760405162461bcd60e51b815260206004820152601960248201527f4552433732313a20617070726f766520746f2063616c6c6572000000000000006044820152606401610aa3565b3360008181526005602090815260408083206001600160a01b03871680855290835292819020805460ff191686151590811790915590519081529192917f17307eab39ab6107e8899845ad3d59bd9653f200f220920489ca2b5937696c31910160405180910390a35050565b60008061203862015180426144e6565b90506000612710600e5461271061204f91906144a0565b600084815260176020526040902054612068919061457f565b61207291906144e6565b905080600d541115610d6a5750600d5492915050565b60008181526015602052604090208054606091906120a590614637565b80601f01602080910402602001604051908101604052809291908181526020018280546120d190614637565b801561211e5780601f106120f35761010080835404028352916020019161211e565b820191906000526020600020905b81548152906001019060200180831161210157829003601f168201915b50505050509050919050565b6121343383612a71565b6121505760405162461bcd60e51b8152600401610aa390614382565b61215c848484846131aa565b50505050565b606061216d8261272e565b6121b25760405162461bcd60e51b81526020600482015260166024820152751d1bdad95b9259081a5cc81b9bdb995e1a5cdd195b9d60521b6044820152606401610aa3565b60006121c0610cd184610c72565b6040516020016121d091906141dd565b60408051601f198184030181529190529392505050565b6000828152600a602052604090206001015461220381336126ca565b610c6d8383612d88565b813361221882611c11565b6001600160a01b03161461223e5760405162461bcd60e51b8152600401610aa390614339565b816011548151106122a35760405162461bcd60e51b815260206004820152602960248201527f4e6f74652073686f756c642062652073686f72746572207468616e206e6f746560448201526814da5e99531a5b5a5d60ba1b6064820152608401610aa3565b600f543410156122f55760405162461bcd60e51b815260206004820152601c60248201527f53686f756c6420706179203e3d20656e67726176696e675072696365000000006044820152606401610aa3565b6000848152601560205260409020805461230e90614637565b15905061236b5760405162461bcd60e51b815260206004820152602560248201527f4e6f74652073686f756c6420626520656d707479206265666f726520656e67726044820152646176696e6760d81b6064820152608401610aa3565b6000848152601560209081526040909120845161238a928601906138e6565b506040516001600160a01b037f000000000000000000000000000000000000000000000000000000000000000016903480156108fc02916000818181858888f193505050501580156123e0573d6000803e3d6000fd5b506123ea84611c11565b6001600160a01b0316847fed9e0bea058528ee91b5c24513bbdb6ad21da03e6bc7108b7623af9d1231e07b8560405161242391906142d4565b60405180910390a350505050565b60008080838162253d8c6124488362010bd961445f565b612452919061445f565b9050600062023ab16124658360046144fa565b61246f91906144b8565b905060046124808262023ab16144fa565b61248b90600361445f565b61249591906144b8565b61249f908361459e565b9150600062164b096124b284600161445f565b6124be90610fa06144fa565b6124c891906144b8565b905060046124d8826105b56144fa565b6124e291906144b8565b6124ec908461459e565b6124f790601f61445f565b9250600061098f6125098560506144fa565b61251391906144b8565b9050600060506125258361098f6144fa565b61252f91906144b8565b612539908661459e565b9050612546600b836144b8565b945061255385600c6144fa565b61255e83600261445f565b612568919061459e565b9150848361257760318761459e565b6125829060646144fa565b61258c919061445f565b612596919061445f565b9a919950975095505050505050565b6125af82826131dd565b61137f577f00000000000000000000000000000000000000000000000000000000000000006001600160a01b031663d0e30db0826040518263ffffffff1660e01b81526004016000604051808303818588803b15801561260e57600080fd5b505af1158015612622573d6000803e3d6000fd5b505060405163a9059cbb60e01b81526001600160a01b038681166004830152602482018690527f000000000000000000000000000000000000000000000000000000000000000016935063a9059cbb92506044019050602060405180830381600087803b15801561269257600080fd5b505af11580156126a6573d6000803e3d6000fd5b505050506040513d601f19601f82011682018060405250810190610c6d9190613e1b565b6126d48282611e3f565b61137f576126ec816001600160a01b0316601461325b565b6126f783602061325b565b604051602001612708929190614222565b60408051601f198184030181529082905262461bcd60e51b8252610aa3916004016142d4565b6000908152600260205260409020546001600160a01b0316151590565b606081516000141561276b57505060408051602081019091526000815290565b6000604051806060016040528060408152602001614754604091399050600060038451600261279a91906144a0565b6127a491906144e6565b6127af90600461457f565b905060006127be8260206144a0565b67ffffffffffffffff8111156127d6576127d66146f9565b6040519080825280601f01601f191660200182016040528015612800576020820181803683370190505b509050818152600183018586518101602084015b8183101561286e5760039283018051603f601282901c811687015160f890811b8552600c83901c8216880151811b6001860152600683901c8216880151811b60028601529116860151901b93820193909352600401612814565b6003895106600181146128885760028114612899576128a5565b613d3d60f01b6001198301526128a5565b603d60f81b6000198301525b509398975050505050505050565b6060816128d75750506040805180820190915260018152600360fc1b602082015290565b8160005b811561290157806128eb81614672565b91506128fa9050600a836144e6565b91506128db565b60008167ffffffffffffffff81111561291c5761291c6146f9565b6040519080825280601f01601f191660200182016040528015612946576020820181803683370190505b5090505b84156129b15761295b6001836145dd565b9150612968600a8661468d565b6129739060306144a0565b60f81b818381518110612988576129886146e3565b60200101906001600160f81b031916908160001a9053506129aa600a866144e6565b945061294a565b949350505050565b60006001600160e01b0319821663780e9d6360e01b1480610d6a5750610d6a826133f7565b60006001600160e01b03198216637965db0b60e01b1480610d6a5750610d6a826129b9565b600081815260046020526040902080546001600160a01b0319166001600160a01b0384169081179091558190612a3882611c11565b6001600160a01b03167f8c5be1e5ebec7d5bd14f71427d1e84f3dd0314c0f7b2291e5b200ac8c7c3b92560405160405180910390a45050565b6000612a7c8261272e565b612add5760405162461bcd60e51b815260206004820152602c60248201527f4552433732313a206f70657261746f7220717565727920666f72206e6f6e657860448201526b34b9ba32b73a103a37b5b2b760a11b6064820152608401610aa3565b6000612ae883611c11565b9050806001600160a01b0316846001600160a01b03161480612b235750836001600160a01b0316612b1884610e02565b6001600160a01b0316145b806129b157506001600160a01b0380821660009081526005602090815260408083209388168352929052205460ff166129b1565b826001600160a01b0316612b6a82611c11565b6001600160a01b031614612bd25760405162461bcd60e51b815260206004820152602960248201527f4552433732313a207472616e73666572206f6620746f6b656e2074686174206960448201526839903737ba1037bbb760b91b6064820152608401610aa3565b6001600160a01b038216612c345760405162461bcd60e51b8152602060048201526024808201527f4552433732313a207472616e7366657220746f20746865207a65726f206164646044820152637265737360e01b6064820152608401610aa3565b612c3f838383613447565b612c4a600082612a03565b6001600160a01b0383166000908152600360205260408120805460019290612c739084906145dd565b90915550506001600160a01b0382166000908152600360205260408120805460019290612ca19084906144a0565b909155505060008181526002602052604080822080546001600160a01b0319166001600160a01b0386811691821790925591518493918716917fddf252ad1be2c89b69c2b068fc378daa952ba7f163c4a11628f55a4df523b3ef91a4505050565b612d0c8282611e3f565b61137f576000828152600a602090815260408083206001600160a01b03851684529091529020805460ff19166001179055612d443390565b6001600160a01b0316816001600160a01b0316837f2f8788117e7eff1d82e926ec794901d17c78024a50270940304540a733656f0d60405160405180910390a45050565b612d928282611e3f565b1561137f576000828152600a602090815260408083206001600160a01b0385168085529252808320805460ff1916905551339285917ff6391f5c32d9c69d2a47ea670b442974b53935d1edc7fd64eb21e047a839171b9190a45050565b612dfc62015180426144e6565b8110612e4a5760405162461bcd60e51b815260206004820152601e60248201527f4f6e6c79207061737420746f6b656e496420697320636c61696d61626c6500006044820152606401610aa3565b6000818152601660205260409020546001600160a01b0316158015612e7b5750600081815260176020526040902054155b612ec75760405162461bcd60e51b815260206004820152601f60248201527f746f6b656e49642073686f756c64206e6f742062652061756374696f6e6564006044820152606401610aa3565b612ed08161272e565b15612f1d5760405162461bcd60e51b815260206004820152601d60248201527f746f6b656e49642073686f756c64206e6f7420626520636c61696d65640000006044820152606401610aa3565b61137f8282613452565b80612f3562015180426144e6565b11612f7a5760405162461bcd60e51b8152602060048201526015602482015274105d58dd1a5bdb881b9bdd081e595d08195b991959605a1b6044820152606401610aa3565b6000818152601660205260409020546001600160a01b031615801590612fad575060008181526017602052604090205415155b61300d5760405162461bcd60e51b815260206004820152602b60248201527f54686572652073686f756c64206265206174206c65617374206120626964206660448201526a6f7220746865206461746560a81b6064820152608401610aa3565b6130168161272e565b156130635760405162461bcd60e51b815260206004820152601e60248201527f53686f756c64206e6f74207265636c61696d207468652061756374696f6e00006044820152606401610aa3565b600081815260166020526040902054613085906001600160a01b031682613452565b6000818152601760205260408082205490516001600160a01b037f0000000000000000000000000000000000000000000000000000000000000000169282156108fc02929190818181858888f193505050501580156130e8573d6000803e3d6000fd5b5060008181526016602090815260408083205460178352928190205490519081526001600160a01b039092169183917fc9f72b276a388619c6d185d146697036241880c36654b1a3ffdad07c24038d99910160405180910390a350565b6000815183511480156131a35750816040516020016131649190613fa3565b604051602081830303815290604052805190602001208360405160200161318b9190613fa3565b60405160208183030381529060405280519060200120145b9392505050565b6131b5848484612b57565b6131c184848484613591565b61215c5760405162461bcd60e51b8152600401610aa3906142e7565b6040805160008082526020820190925281906001600160a01b0385169061753090859060405161320d9190613fa3565b600060405180830381858888f193505050503d806000811461324b576040519150601f19603f3d011682016040523d82523d6000602084013e613250565b606091505b509095945050505050565b6060600061326a83600261457f565b6132759060026144a0565b67ffffffffffffffff81111561328d5761328d6146f9565b6040519080825280601f01601f1916602001820160405280156132b7576020820181803683370190505b509050600360fc1b816000815181106132d2576132d26146e3565b60200101906001600160f81b031916908160001a905350600f60fb1b81600181518110613301576133016146e3565b60200101906001600160f81b031916908160001a905350600061332584600261457f565b6133309060016144a0565b90505b60018111156133a8576f181899199a1a9b1b9c1cb0b131b232b360811b85600f1660108110613364576133646146e3565b1a60f81b82828151811061337a5761337a6146e3565b60200101906001600160f81b031916908160001a90535060049490941c936133a181614620565b9050613333565b5083156131a35760405162461bcd60e51b815260206004820181905260248201527f537472696e67733a20686578206c656e67746820696e73756666696369656e746044820152606401610aa3565b60006001600160e01b031982166380ac58cd60e01b148061342857506001600160e01b03198216635b5e139f60e01b145b80610d6a57506301ffc9a760e01b6001600160e01b0319831614610d6a565b610c6d83838361369e565b6001600160a01b0382166134a85760405162461bcd60e51b815260206004820181905260248201527f4552433732313a206d696e7420746f20746865207a65726f20616464726573736044820152606401610aa3565b6134b18161272e565b156134fe5760405162461bcd60e51b815260206004820152601c60248201527f4552433732313a20746f6b656e20616c7265616479206d696e746564000000006044820152606401610aa3565b61350a60008383613447565b6001600160a01b03821660009081526003602052604081208054600192906135339084906144a0565b909155505060008181526002602052604080822080546001600160a01b0319166001600160a01b03861690811790915590518392907fddf252ad1be2c89b69c2b068fc378daa952ba7f163c4a11628f55a4df523b3ef908290a45050565b60006001600160a01b0384163b1561369357604051630a85bd0160e11b81526001600160a01b0385169063150b7a02906135d5903390899088908890600401614297565b602060405180830381600087803b1580156135ef57600080fd5b505af192505050801561361f575060408051601f3d908101601f1916820190925261361c91810190613e91565b60015b613679573d80801561364d576040519150601f19603f3d011682016040523d82523d6000602084013e613652565b606091505b5080516136715760405162461bcd60e51b8152600401610aa3906142e7565b805181602001fd5b6001600160e01b031916630a85bd0160e11b1490506129b1565b506001949350505050565b6001600160a01b0383166136f9576136f481600880546000838152600960205260408120829055600182018355919091527ff3f7a9fe364faab93b216da50a3214154f22a0a2b415b23a84c8169e8b636ee30155565b61371c565b816001600160a01b0316836001600160a01b03161461371c5761371c8382613756565b6001600160a01b03821661373357610c6d816137f3565b826001600160a01b0316826001600160a01b031614610c6d57610c6d82826138a2565b6000600161376384611d6a565b61376d91906145dd565b6000838152600760205260409020549091508082146137c0576001600160a01b03841660009081526006602090815260408083208584528252808320548484528184208190558352600790915290208190555b5060009182526007602090815260408084208490556001600160a01b039094168352600681528383209183525290812055565b600854600090613805906001906145dd565b6000838152600960205260408120546008805493945090928490811061382d5761382d6146e3565b90600052602060002001549050806008838154811061384e5761384e6146e3565b6000918252602080832090910192909255828152600990915260408082208490558582528120556008805480613886576138866146cd565b6001900381819060005260206000200160009055905550505050565b60006138ad83611d6a565b6001600160a01b039093166000908152600660209081526040808320868452825280832085905593825260079052919091209190915550565b8280546138f290614637565b90600052602060002090601f016020900481019282613914576000855561395a565b82601f1061392d57805160ff191683800117855561395a565b8280016001018555821561395a579182015b8281111561395a57825182559160200191906001019061393f565b506139669291506139c3565b5090565b8280548282559060005260206000209081019282156139b7579160200282015b828111156139b757825180516139a79184916020909101906138e6565b509160200191906001019061398a565b506139669291506139d8565b5b8082111561396657600081556001016139c4565b808211156139665760006139ec82826139f5565b506001016139d8565b508054613a0190614637565b6000825580601f10613a11575050565b601f0160209004906000526020600020908101906115d991906139c3565b600067ffffffffffffffff831115613a4957613a496146f9565b613a5c601f8401601f191660200161440a565b9050828152838383011115613a7057600080fd5b828260208301376000602084830101529392505050565b80356001600160a01b0381168114613a9e57600080fd5b919050565b600082601f830112613ab457600080fd5b81356020613ac9613ac48361443b565b61440a565b80838252828201915082860187848660051b8901011115613ae957600080fd5b60005b85811015613b0857813584529284019290840190600101613aec565b5090979650505050505050565b600082601f830112613b2657600080fd5b6131a383833560208501613a2f565b600060208284031215613b4757600080fd5b6131a382613a87565b60008060408385031215613b6357600080fd5b613b6c83613a87565b9150613b7a60208401613a87565b90509250929050565b600080600060608486031215613b9857600080fd5b613ba184613a87565b9250613baf60208501613a87565b9150604084013590509250925092565b60008060008060808587031215613bd557600080fd5b613bde85613a87565b9350613bec60208601613a87565b925060408501359150606085013567ffffffffffffffff811115613c0f57600080fd5b8501601f81018713613c2057600080fd5b613c2f87823560208401613a2f565b91505092959194509250565b60008060408385031215613c4e57600080fd5b613c5783613a87565b91506020830135613c678161470f565b809150509250929050565b60008060408385031215613c8557600080fd5b613c8e83613a87565b946020939093013593505050565b60008060408385031215613caf57600080fd5b823567ffffffffffffffff80821115613cc757600080fd5b818501915085601f830112613cdb57600080fd5b81356020613ceb613ac48361443b565b8083825282820191508286018a848660051b8901011115613d0b57600080fd5b600096505b84871015613d3557613d2181613a87565b835260019690960195918301918301613d10565b5096505086013592505080821115613d4c57600080fd5b50613d5985828601613aa3565b9150509250929050565b60006020808385031215613d7657600080fd5b823567ffffffffffffffff80821115613d8e57600080fd5b818501915085601f830112613da257600080fd5b8135613db0613ac48261443b565b80828252858201915085850189878560051b8801011115613dd057600080fd5b6000805b85811015613e0b57823587811115613dea578283fd5b613df88d8b838c0101613b15565b8652509388019391880191600101613dd4565b50919a9950505050505050505050565b600060208284031215613e2d57600080fd5b81516131a38161470f565b600060208284031215613e4a57600080fd5b5035919050565b60008060408385031215613e6457600080fd5b82359150613b7a60208401613a87565b600060208284031215613e8657600080fd5b81356131a38161471d565b600060208284031215613ea357600080fd5b81516131a38161471d565b600060208284031215613ec057600080fd5b813567ffffffffffffffff811115613ed757600080fd5b6129b184828501613b15565b600060208284031215613ef557600080fd5b5051919050565b60008060408385031215613f0f57600080fd5b82359150602083013567ffffffffffffffff811115613f2d57600080fd5b613d5985828601613b15565b60008060408385031215613f4c57600080fd5b50508035926020909101359150565b60008151808452613f738160208601602086016145f4565b601f01601f19169290920160200192915050565b60008151613f998185602086016145f4565b9290920192915050565b60008251613fb58184602087016145f4565b9190910192915050565b60008351613fd18184602088016145f4565b835190830190613fe58183602088016145f4565b01949350505050565b600084516140008184602089016145f4565b8083019050602d60f81b8082528551614020816001850160208a016145f4565b6001920191820152835161403b8160028401602088016145f4565b0160020195945050505050565b600360fc1b8152600082516140648160018501602087016145f4565b9190910160010192915050565b737b226e616d65223a20225468652044617465202360601b8152845160009060206140a28260148601838b016145f4565b6101d160f51b60149285019283015286516140c38160168501848b016145f4565b72111610113232b9b1b934b83a34b7b7111d101160691b601693909101928301528554602990600090600181811c908083168061410157607f831692505b86831081141561411f57634e487b7160e01b85526022600452602485fd5b808015614133576001811461414857614179565b60ff1985168988015283890187019550614179565b60008d81526020902060005b8581101561416f5781548b82018a0152908401908901614154565b505086848a010195505b50507f222c2022696d616765223a2022646174613a696d6167652f7376672b786d6c3b845250506618985cd94d8d0b60ca1b6020830152506141cf6141c16027830189613f87565b61227d60f01b815260020190565b9a9950505050505050505050565b7f646174613a6170706c69636174696f6e2f6a736f6e3b6261736536342c00000081526000825161421581601d8501602087016145f4565b91909101601d0192915050565b7f416363657373436f6e74726f6c3a206163636f756e742000000000000000000081526000835161425a8160178501602088016145f4565b7001034b99036b4b9b9b4b733903937b6329607d1b601791840191820152835161428b8160288401602088016145f4565b01602801949350505050565b6001600160a01b03858116825284166020820152604081018390526080606082018190526000906142ca90830184613f5b565b9695505050505050565b6020815260006131a36020830184613f5b565b60208082526032908201527f4552433732313a207472616e7366657220746f206e6f6e20455243373231526560408201527131b2b4bb32b91034b6b83632b6b2b73a32b960711b606082015260800190565b60208082526029908201527f43616c6c65722073686f756c6420626520746865206f776e6572206f662074686040820152686520617274776f726b60b81b606082015260800190565b60208082526031908201527f4552433732313a207472616e736665722063616c6c6572206973206e6f74206f6040820152701ddb995c881b9bdc88185c1c1c9bdd9959607a1b606082015260800190565b6020808252601f908201527f5265656e7472616e637947756172643a207265656e7472616e742063616c6c00604082015260600190565b604051601f8201601f1916810167ffffffffffffffff81118282101715614433576144336146f9565b604052919050565b600067ffffffffffffffff821115614455576144556146f9565b5060051b60200190565b600080821280156001600160ff1b0384900385131615614481576144816146a1565b600160ff1b839003841281161561449a5761449a6146a1565b50500190565b600082198211156144b3576144b36146a1565b500190565b6000826144c7576144c76146b7565b600160ff1b8214600019841416156144e1576144e16146a1565b500590565b6000826144f5576144f56146b7565b500490565b60006001600160ff1b0381841382841380821686840486111615614520576145206146a1565b600160ff1b600087128281168783058912161561453f5761453f6146a1565b6000871292508782058712848416161561455b5761455b6146a1565b87850587128184161615614571576145716146a1565b505050929093029392505050565b6000816000190483118215151615614599576145996146a1565b500290565b60008083128015600160ff1b8501841216156145bc576145bc6146a1565b6001600160ff1b03840183138116156145d7576145d76146a1565b50500390565b6000828210156145ef576145ef6146a1565b500390565b60005b8381101561460f5781810151838201526020016145f7565b8381111561215c5750506000910152565b60008161462f5761462f6146a1565b506000190190565b600181811c9082168061464b57607f821691505b6020821081141561466c57634e487b7160e01b600052602260045260246000fd5b50919050565b6000600019821415614686576146866146a1565b5060010190565b60008261469c5761469c6146b7565b500690565b634e487b7160e01b600052601160045260246000fd5b634e487b7160e01b600052601260045260246000fd5b634e487b7160e01b600052603160045260246000fd5b634e487b7160e01b600052603260045260246000fd5b634e487b7160e01b600052604160045260246000fd5b80151581146115d957600080fd5b6001600160e01b0319811681146115d957600080fdfe3b5d4cc60d3ec3516ee8ae083bd60934f6eb2a6c54b1229985c41bfb092b26034142434445464748494a4b4c4d4e4f505152535455565758595a6162636465666768696a6b6c6d6e6f707172737475767778797a303132333435363738392b2fa264697066735822122087f88ad6a83d34fe4c07ee189e8c41b0913376e93f9f5a7606f18ad8f6d1995a64736f6c634300080700333c2f746578743e3c7465787420783d223530252220793d223930252220666f6e7453697a653d2231307078222066696c6c3d2277686974652220666f6e7446616d696c793d226d6f6e6f73706163652220646f6d696e616e74426173656c696e653d226d6964646c65222074657874416e63686f723d226d6964646c65223e3c73766720786d6c6e733d22687474703a2f2f7777772e77332e6f72672f323030302f73766722207072657365727665417370656374526174696f3d22784d696e594d696e206d656574222076696577426f783d223020302035303020353030223e3c726563742077696474683d223130302522206865696768743d2231303025222066696c6c3d22626c61636b22202f3e3c7465787420783d223530252220793d223530252220666f6e7453697a653d2235307078222066696c6c3d2277686974652220666f6e7446616d696c793d226d6f6e6f73706163652220646f6d696e616e74426173656c696e653d226d6964646c65222074657874416e63686f723d226d6964646c65223e54686520446174652069732061206d657461646174612d6261736564204e465420617274206578706572696d656e742061626f75742074696d6520616e6420626c6f636b636861696e2e204561636820666c656574696e672064617920776f756c6420626520696d7072696e74656420696e746f20616e204e465420617274776f726b206f6e20626c6f636b636861696e20696d6d757461626c792e204f7074696f6e616c6c792c20746865206f776e65722063616e20656e6772617665206f722065726173652061206e6f7465206f6e2074686520617274776f726b20617320616e206164646974696f6e616c206d657461646174612e204665656c206672656520746f2075736520746865204461746520696e20616e792077617920796f752077616e742e",
  "devdoc": {
    "kind": "dev",
    "methods": {
      "approve(address,uint256)": {
        "details": "See {IERC721-approve}."
      },
      "balanceOf(address)": {
        "details": "See {IERC721-balanceOf}."
      },
      "getApproved(uint256)": {
        "details": "See {IERC721-getApproved}."
      },
      "getRoleAdmin(bytes32)": {
        "details": "Returns the admin role that controls `role`. See {grantRole} and {revokeRole}. To change a role's admin, use {_setRoleAdmin}."
      },
      "grantRole(bytes32,address)": {
        "details": "Grants `role` to `account`. If `account` had not been already granted `role`, emits a {RoleGranted} event. Requirements: - the caller must have ``role``'s admin role."
      },
      "hasRole(bytes32,address)": {
        "details": "Returns `true` if `account` has been granted `role`."
      },
      "isApprovedForAll(address,address)": {
        "details": "See {IERC721-isApprovedForAll}."
      },
      "name()": {
        "details": "See {IERC721Metadata-name}."
      },
      "ownerOf(uint256)": {
        "details": "See {IERC721-ownerOf}."
      },
      "renounceRole(bytes32,address)": {
        "details": "Revokes `role` from the calling account. Roles are often managed via {grantRole} and {revokeRole}: this function's purpose is to provide a mechanism for accounts to lose their privileges if they are compromised (such as when a trusted device is misplaced). If the calling account had been granted `role`, emits a {RoleRevoked} event. Requirements: - the caller must be `account`."
      },
      "revokeRole(bytes32,address)": {
        "details": "Revokes `role` from `account`. If `account` had been granted `role`, emits a {RoleRevoked} event. Requirements: - the caller must have ``role``'s admin role."
      },
      "royaltyInfo(uint256,uint256)": {
        "details": "Called with the sale price to determine how much royalty is owed and to whom.",
        "params": {
          "salePrice": "- the sale price of the NFT asset specified by `tokenId`",
          "tokenId": "- the NFT asset queried for royalty information"
        },
        "returns": {
          "receiver": "- address of who should be sent the royalty payment",
          "royaltyAmount": "- the royalty payment amount for `salePrice`"
        }
      },
      "safeTransferFrom(address,address,uint256)": {
        "details": "See {IERC721-safeTransferFrom}."
      },
      "safeTransferFrom(address,address,uint256,bytes)": {
        "details": "See {IERC721-safeTransferFrom}."
      },
      "setApprovalForAll(address,bool)": {
        "details": "See {IERC721-setApprovalForAll}."
      },
      "symbol()": {
        "details": "See {IERC721Metadata-symbol}."
      },
      "tokenByIndex(uint256)": {
        "details": "See {IERC721Enumerable-tokenByIndex}."
      },
      "tokenOfOwnerByIndex(address,uint256)": {
        "details": "See {IERC721Enumerable-tokenOfOwnerByIndex}."
      },
      "tokenURI(uint256)": {
        "details": "See {IERC721Metadata-tokenURI}."
      },
      "totalSupply()": {
        "details": "See {IERC721Enumerable-totalSupply}."
      },
      "transferFrom(address,address,uint256)": {
        "details": "See {IERC721-transferFrom}."
      }
    },
    "version": 1
  },
  "userdoc": {
    "kind": "user",
    "methods": {},
    "version": 1
  },
  "storageLayout": {
    "storage": [
      {
        "astId": 2859,
        "contract": "contracts/TheDate.sol:TheDate",
        "label": "_name",
        "offset": 0,
        "slot": "0",
        "type": "t_string_storage"
      },
      {
        "astId": 2861,
        "contract": "contracts/TheDate.sol:TheDate",
        "label": "_symbol",
        "offset": 0,
        "slot": "1",
        "type": "t_string_storage"
      },
      {
        "astId": 2865,
        "contract": "contracts/TheDate.sol:TheDate",
        "label": "_owners",
        "offset": 0,
        "slot": "2",
        "type": "t_mapping(t_uint256,t_address)"
      },
      {
        "astId": 2869,
        "contract": "contracts/TheDate.sol:TheDate",
        "label": "_balances",
        "offset": 0,
        "slot": "3",
        "type": "t_mapping(t_address,t_uint256)"
      },
      {
        "astId": 2873,
        "contract": "contracts/TheDate.sol:TheDate",
        "label": "_tokenApprovals",
        "offset": 0,
        "slot": "4",
        "type": "t_mapping(t_uint256,t_address)"
      },
      {
        "astId": 2879,
        "contract": "contracts/TheDate.sol:TheDate",
        "label": "_operatorApprovals",
        "offset": 0,
        "slot": "5",
        "type": "t_mapping(t_address,t_mapping(t_address,t_bool))"
      },
      {
        "astId": 3798,
        "contract": "contracts/TheDate.sol:TheDate",
        "label": "_ownedTokens",
        "offset": 0,
        "slot": "6",
        "type": "t_mapping(t_address,t_mapping(t_uint256,t_uint256))"
      },
      {
        "astId": 3802,
        "contract": "contracts/TheDate.sol:TheDate",
        "label": "_ownedTokensIndex",
        "offset": 0,
        "slot": "7",
        "type": "t_mapping(t_uint256,t_uint256)"
      },
      {
        "astId": 3805,
        "contract": "contracts/TheDate.sol:TheDate",
        "label": "_allTokens",
        "offset": 0,
        "slot": "8",
        "type": "t_array(t_uint256)dyn_storage"
      },
      {
        "astId": 3809,
        "contract": "contracts/TheDate.sol:TheDate",
        "label": "_allTokensIndex",
        "offset": 0,
        "slot": "9",
        "type": "t_mapping(t_uint256,t_uint256)"
      },
      {
        "astId": 24,
        "contract": "contracts/TheDate.sol:TheDate",
        "label": "_roles",
        "offset": 0,
        "slot": "10",
        "type": "t_mapping(t_bytes32,t_struct(RoleData)19_storage)"
      },
      {
        "astId": 811,
        "contract": "contracts/TheDate.sol:TheDate",
        "label": "_status",
        "offset": 0,
        "slot": "11",
        "type": "t_uint256"
      },
      {
        "astId": 7130,
        "contract": "contracts/TheDate.sol:TheDate",
        "label": "claimingPrice",
        "offset": 0,
        "slot": "12",
        "type": "t_uint256"
      },
      {
        "astId": 7133,
        "contract": "contracts/TheDate.sol:TheDate",
        "label": "reservePrice",
        "offset": 0,
        "slot": "13",
        "type": "t_uint256"
      },
      {
        "astId": 7136,
        "contract": "contracts/TheDate.sol:TheDate",
        "label": "minBidIncrementBps",
        "offset": 0,
        "slot": "14",
        "type": "t_uint256"
      },
      {
        "astId": 7139,
        "contract": "contracts/TheDate.sol:TheDate",
        "label": "engravingPrice",
        "offset": 0,
        "slot": "15",
        "type": "t_uint256"
      },
      {
        "astId": 7142,
        "contract": "contracts/TheDate.sol:TheDate",
        "label": "erasingPrice",
        "offset": 0,
        "slot": "16",
        "type": "t_uint256"
      },
      {
        "astId": 7145,
        "contract": "contracts/TheDate.sol:TheDate",
        "label": "noteSizeLimit",
        "offset": 0,
        "slot": "17",
        "type": "t_uint256"
      },
      {
        "astId": 7148,
        "contract": "contracts/TheDate.sol:TheDate",
        "label": "royaltyBps",
        "offset": 0,
        "slot": "18",
        "type": "t_uint256"
      },
      {
        "astId": 7151,
        "contract": "contracts/TheDate.sol:TheDate",
        "label": "tokenDescription",
        "offset": 0,
        "slot": "19",
        "type": "t_string_storage"
      },
      {
        "astId": 7160,
        "contract": "contracts/TheDate.sol:TheDate",
        "label": "svgImageTemplate",
        "offset": 0,
        "slot": "20",
        "type": "t_array(t_string_storage)dyn_storage"
      },
      {
        "astId": 7236,
        "contract": "contracts/TheDate.sol:TheDate",
        "label": "_notes",
        "offset": 0,
        "slot": "21",
        "type": "t_mapping(t_uint256,t_string_storage)"
      },
      {
        "astId": 7240,
        "contract": "contracts/TheDate.sol:TheDate",
        "label": "_highestBidder",
        "offset": 0,
        "slot": "22",
        "type": "t_mapping(t_uint256,t_address)"
      },
      {
        "astId": 7244,
        "contract": "contracts/TheDate.sol:TheDate",
        "label": "_highestBid",
        "offset": 0,
        "slot": "23",
        "type": "t_mapping(t_uint256,t_uint256)"
      },
      {
        "astId": 7247,
        "contract": "contracts/TheDate.sol:TheDate",
        "label": "_lastUnchaimedAuctionedTokenId",
        "offset": 0,
        "slot": "24",
        "type": "t_uint256"
      }
    ],
    "types": {
      "t_address": {
        "encoding": "inplace",
        "label": "address",
        "numberOfBytes": "20"
      },
      "t_array(t_string_storage)dyn_storage": {
        "base": "t_string_storage",
        "encoding": "dynamic_array",
        "label": "string[]",
        "numberOfBytes": "32"
      },
      "t_array(t_uint256)dyn_storage": {
        "base": "t_uint256",
        "encoding": "dynamic_array",
        "label": "uint256[]",
        "numberOfBytes": "32"
      },
      "t_bool": {
        "encoding": "inplace",
        "label": "bool",
        "numberOfBytes": "1"
      },
      "t_bytes32": {
        "encoding": "inplace",
        "label": "bytes32",
        "numberOfBytes": "32"
      },
      "t_mapping(t_address,t_bool)": {
        "encoding": "mapping",
        "key": "t_address",
        "label": "mapping(address => bool)",
        "numberOfBytes": "32",
        "value": "t_bool"
      },
      "t_mapping(t_address,t_mapping(t_address,t_bool))": {
        "encoding": "mapping",
        "key": "t_address",
        "label": "mapping(address => mapping(address => bool))",
        "numberOfBytes": "32",
        "value": "t_mapping(t_address,t_bool)"
      },
      "t_mapping(t_address,t_mapping(t_uint256,t_uint256))": {
        "encoding": "mapping",
        "key": "t_address",
        "label": "mapping(address => mapping(uint256 => uint256))",
        "numberOfBytes": "32",
        "value": "t_mapping(t_uint256,t_uint256)"
      },
      "t_mapping(t_address,t_uint256)": {
        "encoding": "mapping",
        "key": "t_address",
        "label": "mapping(address => uint256)",
        "numberOfBytes": "32",
        "value": "t_uint256"
      },
      "t_mapping(t_bytes32,t_struct(RoleData)19_storage)": {
        "encoding": "mapping",
        "key": "t_bytes32",
        "label": "mapping(bytes32 => struct AccessControl.RoleData)",
        "numberOfBytes": "32",
        "value": "t_struct(RoleData)19_storage"
      },
      "t_mapping(t_uint256,t_address)": {
        "encoding": "mapping",
        "key": "t_uint256",
        "label": "mapping(uint256 => address)",
        "numberOfBytes": "32",
        "value": "t_address"
      },
      "t_mapping(t_uint256,t_string_storage)": {
        "encoding": "mapping",
        "key": "t_uint256",
        "label": "mapping(uint256 => string)",
        "numberOfBytes": "32",
        "value": "t_string_storage"
      },
      "t_mapping(t_uint256,t_uint256)": {
        "encoding": "mapping",
        "key": "t_uint256",
        "label": "mapping(uint256 => uint256)",
        "numberOfBytes": "32",
        "value": "t_uint256"
      },
      "t_string_storage": {
        "encoding": "bytes",
        "label": "string",
        "numberOfBytes": "32"
      },
      "t_struct(RoleData)19_storage": {
        "encoding": "inplace",
        "label": "struct AccessControl.RoleData",
        "members": [
          {
            "astId": 16,
            "contract": "contracts/TheDate.sol:TheDate",
            "label": "members",
            "offset": 0,
            "slot": "0",
            "type": "t_mapping(t_address,t_bool)"
          },
          {
            "astId": 18,
            "contract": "contracts/TheDate.sol:TheDate",
            "label": "adminRole",
            "offset": 0,
            "slot": "1",
            "type": "t_bytes32"
          }
        ],
        "numberOfBytes": "64"
      },
      "t_uint256": {
        "encoding": "inplace",
        "label": "uint256",
        "numberOfBytes": "32"
      }
    }
  }
}