{
  "address": "0x19415395680F16f1f8d3ff7E15DDb1Cb6A5f2b5a",
  "abi": [
    {
      "inputs": [
        {
          "internalType": "address",
          "name": "foundation_",
          "type": "address"
        },
        {
          "internalType": "address",
          "name": "weth_",
          "type": "address"
        },
        {
          "internalType": "address",
          "name": "loot_",
          "type": "address"
        }
      ],
      "stateMutability": "nonpayable",
      "type": "constructor"
    },
    {
      "anonymous": false,
      "inputs": [
        {
          "indexed": true,
          "internalType": "address",
          "name": "owner",
          "type": "address"
        },
        {
          "indexed": true,
          "internalType": "address",
          "name": "approved",
          "type": "address"
        },
        {
          "indexed": true,
          "internalType": "uint256",
          "name": "tokenId",
          "type": "uint256"
        }
      ],
      "name": "Approval",
      "type": "event"
    },
    {
      "anonymous": false,
      "inputs": [
        {
          "indexed": true,
          "internalType": "address",
          "name": "owner",
          "type": "address"
        },
        {
          "indexed": true,
          "internalType": "address",
          "name": "operator",
          "type": "address"
        },
        {
          "indexed": false,
          "internalType": "bool",
          "name": "approved",
          "type": "bool"
        }
      ],
      "name": "ApprovalForAll",
      "type": "event"
    },
    {
      "anonymous": false,
      "inputs": [
        {
          "indexed": true,
          "internalType": "uint256",
          "name": "tokenId",
          "type": "uint256"
        },
        {
          "indexed": true,
          "internalType": "address",
          "name": "owner",
          "type": "address"
        }
      ],
      "name": "ArtworkAirdropped",
      "type": "event"
    },
    {
      "anonymous": false,
      "inputs": [
        {
          "indexed": true,
          "internalType": "uint256",
          "name": "tokenId",
          "type": "uint256"
        },
        {
          "indexed": true,
          "internalType": "address",
          "name": "owner",
          "type": "address"
        }
      ],
      "name": "ArtworkClaimed",
      "type": "event"
    },
    {
      "anonymous": false,
      "inputs": [
        {
          "indexed": false,
          "internalType": "uint256",
          "name": "minBidIncrementBps",
          "type": "uint256"
        }
      ],
      "name": "AuctionMinBidIncrementBpsChanged",
      "type": "event"
    },
    {
      "anonymous": false,
      "inputs": [
        {
          "indexed": false,
          "internalType": "uint256",
          "name": "reservePrice",
          "type": "uint256"
        }
      ],
      "name": "AuctionReservePriceChanged",
      "type": "event"
    },
    {
      "anonymous": false,
      "inputs": [
        {
          "indexed": true,
          "internalType": "uint256",
          "name": "tokenId",
          "type": "uint256"
        },
        {
          "indexed": true,
          "internalType": "address",
          "name": "winner",
          "type": "address"
        },
        {
          "indexed": false,
          "internalType": "uint256",
          "name": "amount",
          "type": "uint256"
        }
      ],
      "name": "AuctionSettled",
      "type": "event"
    },
    {
      "anonymous": false,
      "inputs": [
        {
          "indexed": true,
          "internalType": "uint256",
          "name": "tokenId",
          "type": "uint256"
        },
        {
          "indexed": true,
          "internalType": "address",
          "name": "bidder",
          "type": "address"
        },
        {
          "indexed": false,
          "internalType": "uint256",
          "name": "amount",
          "type": "uint256"
        }
      ],
      "name": "BidPlaced",
      "type": "event"
    },
    {
      "anonymous": false,
      "inputs": [
        {
          "indexed": false,
          "internalType": "uint256",
          "name": "claimingPrice",
          "type": "uint256"
        }
      ],
      "name": "ClaimingPriceChanged",
      "type": "event"
    },
    {
      "anonymous": false,
      "inputs": [
        {
          "indexed": false,
          "internalType": "uint256",
          "name": "amount",
          "type": "uint256"
        }
      ],
      "name": "EngravingPriceChanged",
      "type": "event"
    },
    {
      "anonymous": false,
      "inputs": [
        {
          "indexed": false,
          "internalType": "uint256",
          "name": "amount",
          "type": "uint256"
        }
      ],
      "name": "ErasingPriceChanged",
      "type": "event"
    },
    {
      "anonymous": false,
      "inputs": [
        {
          "indexed": true,
          "internalType": "uint256",
          "name": "tokenId",
          "type": "uint256"
        },
        {
          "indexed": true,
          "internalType": "address",
          "name": "owner",
          "type": "address"
        },
        {
          "indexed": false,
          "internalType": "string",
          "name": "note",
          "type": "string"
        }
      ],
      "name": "NoteEngraved",
      "type": "event"
    },
    {
      "anonymous": false,
      "inputs": [
        {
          "indexed": true,
          "internalType": "uint256",
          "name": "tokenId",
          "type": "uint256"
        },
        {
          "indexed": true,
          "internalType": "address",
          "name": "owner",
          "type": "address"
        }
      ],
      "name": "NoteErased",
      "type": "event"
    },
    {
      "anonymous": false,
      "inputs": [
        {
          "indexed": false,
          "internalType": "uint256",
          "name": "length",
          "type": "uint256"
        }
      ],
      "name": "NoteSizeLimitChanged",
      "type": "event"
    },
    {
      "anonymous": false,
      "inputs": [
        {
          "indexed": true,
          "internalType": "bytes32",
          "name": "role",
          "type": "bytes32"
        },
        {
          "indexed": true,
          "internalType": "bytes32",
          "name": "previousAdminRole",
          "type": "bytes32"
        },
        {
          "indexed": true,
          "internalType": "bytes32",
          "name": "newAdminRole",
          "type": "bytes32"
        }
      ],
      "name": "RoleAdminChanged",
      "type": "event"
    },
    {
      "anonymous": false,
      "inputs": [
        {
          "indexed": true,
          "internalType": "bytes32",
          "name": "role",
          "type": "bytes32"
        },
        {
          "indexed": true,
          "internalType": "address",
          "name": "account",
          "type": "address"
        },
        {
          "indexed": true,
          "internalType": "address",
          "name": "sender",
          "type": "address"
        }
      ],
      "name": "RoleGranted",
      "type": "event"
    },
    {
      "anonymous": false,
      "inputs": [
        {
          "indexed": true,
          "internalType": "bytes32",
          "name": "role",
          "type": "bytes32"
        },
        {
          "indexed": true,
          "internalType": "address",
          "name": "account",
          "type": "address"
        },
        {
          "indexed": true,
          "internalType": "address",
          "name": "sender",
          "type": "address"
        }
      ],
      "name": "RoleRevoked",
      "type": "event"
    },
    {
      "anonymous": false,
      "inputs": [
        {
          "indexed": true,
          "internalType": "address",
          "name": "from",
          "type": "address"
        },
        {
          "indexed": true,
          "internalType": "address",
          "name": "to",
          "type": "address"
        },
        {
          "indexed": true,
          "internalType": "uint256",
          "name": "tokenId",
          "type": "uint256"
        }
      ],
      "name": "Transfer",
      "type": "event"
    },
    {
      "stateMutability": "payable",
      "type": "fallback"
    },
    {
      "inputs": [],
      "name": "DAO_ROLE",
      "outputs": [
        {
          "internalType": "bytes32",
          "name": "",
          "type": "bytes32"
        }
      ],
      "stateMutability": "view",
      "type": "function"
    },
    {
      "inputs": [],
      "name": "DEFAULT_ADMIN_ROLE",
      "outputs": [
        {
          "internalType": "bytes32",
          "name": "",
          "type": "bytes32"
        }
      ],
      "stateMutability": "view",
      "type": "function"
    },
    {
      "inputs": [
        {
          "internalType": "address[]",
          "name": "addresses",
          "type": "address[]"
        },
        {
          "internalType": "uint256[]",
          "name": "tokenIds",
          "type": "uint256[]"
        }
      ],
      "name": "airdrop",
      "outputs": [],
      "stateMutability": "nonpayable",
      "type": "function"
    },
    {
      "inputs": [
        {
          "internalType": "address",
          "name": "to",
          "type": "address"
        },
        {
          "internalType": "uint256",
          "name": "tokenId",
          "type": "uint256"
        }
      ],
      "name": "approve",
      "outputs": [],
      "stateMutability": "nonpayable",
      "type": "function"
    },
    {
      "inputs": [
        {
          "internalType": "uint256",
          "name": "tokenId",
          "type": "uint256"
        }
      ],
      "name": "available",
      "outputs": [
        {
          "internalType": "bool",
          "name": "",
          "type": "bool"
        }
      ],
      "stateMutability": "view",
      "type": "function"
    },
    {
      "inputs": [
        {
          "internalType": "address",
          "name": "owner",
          "type": "address"
        }
      ],
      "name": "balanceOf",
      "outputs": [
        {
          "internalType": "uint256",
          "name": "",
          "type": "uint256"
        }
      ],
      "stateMutability": "view",
      "type": "function"
    },
    {
      "inputs": [
        {
          "internalType": "uint256",
          "name": "tokenId",
          "type": "uint256"
        }
      ],
      "name": "claim",
      "outputs": [],
      "stateMutability": "payable",
      "type": "function"
    },
    {
      "inputs": [],
      "name": "claimingPrice",
      "outputs": [
        {
          "internalType": "uint256",
          "name": "",
          "type": "uint256"
        }
      ],
      "stateMutability": "view",
      "type": "function"
    },
    {
      "inputs": [
        {
          "internalType": "uint256",
          "name": "_days",
          "type": "uint256"
        }
      ],
      "name": "daysToDate",
      "outputs": [
        {
          "internalType": "uint256",
          "name": "year",
          "type": "uint256"
        },
        {
          "internalType": "uint256",
          "name": "month",
          "type": "uint256"
        },
        {
          "internalType": "uint256",
          "name": "day",
          "type": "uint256"
        }
      ],
      "stateMutability": "pure",
      "type": "function"
    },
    {
      "inputs": [
        {
          "internalType": "uint256",
          "name": "tokenId",
          "type": "uint256"
        },
        {
          "internalType": "string",
          "name": "note",
          "type": "string"
        }
      ],
      "name": "engraveNote",
      "outputs": [],
      "stateMutability": "payable",
      "type": "function"
    },
    {
      "inputs": [],
      "name": "engravingPrice",
      "outputs": [
        {
          "internalType": "uint256",
          "name": "",
          "type": "uint256"
        }
      ],
      "stateMutability": "view",
      "type": "function"
    },
    {
      "inputs": [
        {
          "internalType": "uint256",
          "name": "tokenId",
          "type": "uint256"
        }
      ],
      "name": "eraseNote",
      "outputs": [],
      "stateMutability": "payable",
      "type": "function"
    },
    {
      "inputs": [],
      "name": "erasingPrice",
      "outputs": [
        {
          "internalType": "uint256",
          "name": "",
          "type": "uint256"
        }
      ],
      "stateMutability": "view",
      "type": "function"
    },
    {
      "inputs": [
        {
          "internalType": "string",
          "name": "s",
          "type": "string"
        }
      ],
      "name": "escapeHTML",
      "outputs": [
        {
          "internalType": "string",
          "name": "",
          "type": "string"
        }
      ],
      "stateMutability": "pure",
      "type": "function"
    },
    {
      "inputs": [
        {
          "internalType": "string",
          "name": "symbol",
          "type": "string"
        }
      ],
      "name": "escapeQuotes",
      "outputs": [
        {
          "internalType": "string",
          "name": "",
          "type": "string"
        }
      ],
      "stateMutability": "pure",
      "type": "function"
    },
    {
      "inputs": [
        {
          "internalType": "uint256",
          "name": "tokenId",
          "type": "uint256"
        }
      ],
      "name": "exists",
      "outputs": [
        {
          "internalType": "bool",
          "name": "",
          "type": "bool"
        }
      ],
      "stateMutability": "view",
      "type": "function"
    },
    {
      "inputs": [
        {
          "internalType": "uint256",
          "name": "tokenId",
          "type": "uint256"
        }
      ],
      "name": "generateMetadata",
      "outputs": [
        {
          "internalType": "string",
          "name": "",
          "type": "string"
        }
      ],
      "stateMutability": "view",
      "type": "function"
    },
    {
      "inputs": [
        {
          "internalType": "uint256",
          "name": "tokenId",
          "type": "uint256"
        }
      ],
      "name": "generateSVGImage",
      "outputs": [
        {
          "internalType": "string",
          "name": "",
          "type": "string"
        }
      ],
      "stateMutability": "view",
      "type": "function"
    },
    {
      "inputs": [
        {
          "internalType": "uint256",
          "name": "tokenId",
          "type": "uint256"
        }
      ],
      "name": "getApproved",
      "outputs": [
        {
          "internalType": "address",
          "name": "",
          "type": "address"
        }
      ],
      "stateMutability": "view",
      "type": "function"
    },
    {
      "inputs": [],
      "name": "getCurrentAuctionTokenId",
      "outputs": [
        {
          "internalType": "uint256",
          "name": "",
          "type": "uint256"
        }
      ],
      "stateMutability": "view",
      "type": "function"
    },
    {
      "inputs": [],
      "name": "getCurrentMinimumBid",
      "outputs": [
        {
          "internalType": "uint256",
          "name": "amount",
          "type": "uint256"
        }
      ],
      "stateMutability": "view",
      "type": "function"
    },
    {
      "inputs": [
        {
          "internalType": "uint256",
          "name": "tokenId",
          "type": "uint256"
        }
      ],
      "name": "getDate",
      "outputs": [
        {
          "internalType": "string",
          "name": "",
          "type": "string"
        }
      ],
      "stateMutability": "pure",
      "type": "function"
    },
    {
      "inputs": [
        {
          "internalType": "uint256",
          "name": "tokenId",
          "type": "uint256"
        }
      ],
      "name": "getHighestBid",
      "outputs": [
        {
          "internalType": "address",
          "name": "bidder",
          "type": "address"
        },
        {
          "internalType": "uint256",
          "name": "amount",
          "type": "uint256"
        }
      ],
      "stateMutability": "view",
      "type": "function"
    },
    {
      "inputs": [
        {
          "internalType": "uint256",
          "name": "tokenId",
          "type": "uint256"
        }
      ],
      "name": "getNote",
      "outputs": [
        {
          "internalType": "string",
          "name": "",
          "type": "string"
        }
      ],
      "stateMutability": "view",
      "type": "function"
    },
    {
      "inputs": [
        {
          "internalType": "bytes32",
          "name": "role",
          "type": "bytes32"
        }
      ],
      "name": "getRoleAdmin",
      "outputs": [
        {
          "internalType": "bytes32",
          "name": "",
          "type": "bytes32"
        }
      ],
      "stateMutability": "view",
      "type": "function"
    },
    {
      "inputs": [
        {
          "internalType": "bytes32",
          "name": "role",
          "type": "bytes32"
        },
        {
          "internalType": "address",
          "name": "account",
          "type": "address"
        }
      ],
      "name": "grantRole",
      "outputs": [],
      "stateMutability": "nonpayable",
      "type": "function"
    },
    {
      "inputs": [
        {
          "internalType": "bytes32",
          "name": "role",
          "type": "bytes32"
        },
        {
          "internalType": "address",
          "name": "account",
          "type": "address"
        }
      ],
      "name": "hasRole",
      "outputs": [
        {
          "internalType": "bool",
          "name": "",
          "type": "bool"
        }
      ],
      "stateMutability": "view",
      "type": "function"
    },
    {
      "inputs": [
        {
          "internalType": "address",
          "name": "owner",
          "type": "address"
        },
        {
          "internalType": "address",
          "name": "operator",
          "type": "address"
        }
      ],
      "name": "isApprovedForAll",
      "outputs": [
        {
          "internalType": "bool",
          "name": "",
          "type": "bool"
        }
      ],
      "stateMutability": "view",
      "type": "function"
    },
    {
      "inputs": [],
      "name": "minBidIncrementBps",
      "outputs": [
        {
          "internalType": "uint256",
          "name": "",
          "type": "uint256"
        }
      ],
      "stateMutability": "view",
      "type": "function"
    },
    {
      "inputs": [],
      "name": "name",
      "outputs": [
        {
          "internalType": "string",
          "name": "",
          "type": "string"
        }
      ],
      "stateMutability": "view",
      "type": "function"
    },
    {
      "inputs": [],
      "name": "noteSizeLimit",
      "outputs": [
        {
          "internalType": "uint256",
          "name": "",
          "type": "uint256"
        }
      ],
      "stateMutability": "view",
      "type": "function"
    },
    {
      "inputs": [
        {
          "internalType": "uint256",
          "name": "tokenId",
          "type": "uint256"
        }
      ],
      "name": "ownerOf",
      "outputs": [
        {
          "internalType": "address",
          "name": "",
          "type": "address"
        }
      ],
      "stateMutability": "view",
      "type": "function"
    },
    {
      "inputs": [],
      "name": "placeBid",
      "outputs": [],
      "stateMutability": "payable",
      "type": "function"
    },
    {
      "inputs": [
        {
          "internalType": "bytes32",
          "name": "role",
          "type": "bytes32"
        },
        {
          "internalType": "address",
          "name": "account",
          "type": "address"
        }
      ],
      "name": "renounceRole",
      "outputs": [],
      "stateMutability": "nonpayable",
      "type": "function"
    },
    {
      "inputs": [],
      "name": "reservePrice",
      "outputs": [
        {
          "internalType": "uint256",
          "name": "",
          "type": "uint256"
        }
      ],
      "stateMutability": "view",
      "type": "function"
    },
    {
      "inputs": [
        {
          "internalType": "bytes32",
          "name": "role",
          "type": "bytes32"
        },
        {
          "internalType": "address",
          "name": "account",
          "type": "address"
        }
      ],
      "name": "revokeRole",
      "outputs": [],
      "stateMutability": "nonpayable",
      "type": "function"
    },
    {
      "inputs": [],
      "name": "royaltyBps",
      "outputs": [
        {
          "internalType": "uint256",
          "name": "",
          "type": "uint256"
        }
      ],
      "stateMutability": "view",
      "type": "function"
    },
    {
      "inputs": [
        {
          "internalType": "uint256",
          "name": "tokenId",
          "type": "uint256"
        },
        {
          "internalType": "uint256",
          "name": "salePrice",
          "type": "uint256"
        }
      ],
      "name": "royaltyInfo",
      "outputs": [
        {
          "internalType": "address",
          "name": "receiver",
          "type": "address"
        },
        {
          "internalType": "uint256",
          "name": "royaltyAmount",
          "type": "uint256"
        }
      ],
      "stateMutability": "view",
      "type": "function"
    },
    {
      "inputs": [
        {
          "internalType": "address",
          "name": "from",
          "type": "address"
        },
        {
          "internalType": "address",
          "name": "to",
          "type": "address"
        },
        {
          "internalType": "uint256",
          "name": "tokenId",
          "type": "uint256"
        }
      ],
      "name": "safeTransferFrom",
      "outputs": [],
      "stateMutability": "nonpayable",
      "type": "function"
    },
    {
      "inputs": [
        {
          "internalType": "address",
          "name": "from",
          "type": "address"
        },
        {
          "internalType": "address",
          "name": "to",
          "type": "address"
        },
        {
          "internalType": "uint256",
          "name": "tokenId",
          "type": "uint256"
        },
        {
          "internalType": "bytes",
          "name": "_data",
          "type": "bytes"
        }
      ],
      "name": "safeTransferFrom",
      "outputs": [],
      "stateMutability": "nonpayable",
      "type": "function"
    },
    {
      "inputs": [
        {
          "internalType": "address",
          "name": "operator",
          "type": "address"
        },
        {
          "internalType": "bool",
          "name": "approved",
          "type": "bool"
        }
      ],
      "name": "setApprovalForAll",
      "outputs": [],
      "stateMutability": "nonpayable",
      "type": "function"
    },
    {
      "inputs": [
        {
          "internalType": "uint256",
          "name": "minBidIncrementBps_",
          "type": "uint256"
        }
      ],
      "name": "setAuctionMinBidIncrementBps",
      "outputs": [],
      "stateMutability": "nonpayable",
      "type": "function"
    },
    {
      "inputs": [
        {
          "internalType": "uint256",
          "name": "reservePrice_",
          "type": "uint256"
        }
      ],
      "name": "setAuctionReservePrice",
      "outputs": [],
      "stateMutability": "nonpayable",
      "type": "function"
    },
    {
      "inputs": [
        {
          "internalType": "uint256",
          "name": "claimingPrice_",
          "type": "uint256"
        }
      ],
      "name": "setClaimingPrice",
      "outputs": [],
      "stateMutability": "nonpayable",
      "type": "function"
    },
    {
      "inputs": [
        {
          "internalType": "uint256",
          "name": "engravingPrice_",
          "type": "uint256"
        }
      ],
      "name": "setEngravingPrice",
      "outputs": [],
      "stateMutability": "nonpayable",
      "type": "function"
    },
    {
      "inputs": [
        {
          "internalType": "uint256",
          "name": "erasingPrice_",
          "type": "uint256"
        }
      ],
      "name": "setErasingPrice",
      "outputs": [],
      "stateMutability": "nonpayable",
      "type": "function"
    },
    {
      "inputs": [
        {
          "internalType": "uint256",
          "name": "noteSizeLimit_",
          "type": "uint256"
        }
      ],
      "name": "setNoteSizeLimit",
      "outputs": [],
      "stateMutability": "nonpayable",
      "type": "function"
    },
    {
      "inputs": [
        {
          "internalType": "uint256",
          "name": "royaltyBps_",
          "type": "uint256"
        }
      ],
      "name": "setRoyaltyBps",
      "outputs": [],
      "stateMutability": "nonpayable",
      "type": "function"
    },
    {
      "inputs": [
        {
          "internalType": "string[]",
          "name": "svgImageTemplate_",
          "type": "string[]"
        }
      ],
      "name": "setSVGImageTemplate",
      "outputs": [],
      "stateMutability": "nonpayable",
      "type": "function"
    },
    {
      "inputs": [
        {
          "internalType": "string",
          "name": "tokenDescription_",
          "type": "string"
        }
      ],
      "name": "setTokenDescription",
      "outputs": [],
      "stateMutability": "nonpayable",
      "type": "function"
    },
    {
      "inputs": [],
      "name": "settleLastAuction",
      "outputs": [],
      "stateMutability": "nonpayable",
      "type": "function"
    },
    {
      "inputs": [
        {
          "internalType": "bytes4",
          "name": "interfaceId",
          "type": "bytes4"
        }
      ],
      "name": "supportsInterface",
      "outputs": [
        {
          "internalType": "bool",
          "name": "",
          "type": "bool"
        }
      ],
      "stateMutability": "view",
      "type": "function"
    },
    {
      "inputs": [
        {
          "internalType": "uint256",
          "name": "",
          "type": "uint256"
        }
      ],
      "name": "svgImageTemplate",
      "outputs": [
        {
          "internalType": "string",
          "name": "",
          "type": "string"
        }
      ],
      "stateMutability": "view",
      "type": "function"
    },
    {
      "inputs": [],
      "name": "symbol",
      "outputs": [
        {
          "internalType": "string",
          "name": "",
          "type": "string"
        }
      ],
      "stateMutability": "view",
      "type": "function"
    },
    {
      "inputs": [
        {
          "internalType": "uint256",
          "name": "index",
          "type": "uint256"
        }
      ],
      "name": "tokenByIndex",
      "outputs": [
        {
          "internalType": "uint256",
          "name": "",
          "type": "uint256"
        }
      ],
      "stateMutability": "view",
      "type": "function"
    },
    {
      "inputs": [],
      "name": "tokenDescription",
      "outputs": [
        {
          "internalType": "string",
          "name": "",
          "type": "string"
        }
      ],
      "stateMutability": "view",
      "type": "function"
    },
    {
      "inputs": [
        {
          "internalType": "address",
          "name": "owner",
          "type": "address"
        },
        {
          "internalType": "uint256",
          "name": "index",
          "type": "uint256"
        }
      ],
      "name": "tokenOfOwnerByIndex",
      "outputs": [
        {
          "internalType": "uint256",
          "name": "",
          "type": "uint256"
        }
      ],
      "stateMutability": "view",
      "type": "function"
    },
    {
      "inputs": [
        {
          "internalType": "uint256",
          "name": "tokenId",
          "type": "uint256"
        }
      ],
      "name": "tokenURI",
      "outputs": [
        {
          "internalType": "string",
          "name": "",
          "type": "string"
        }
      ],
      "stateMutability": "view",
      "type": "function"
    },
    {
      "inputs": [],
      "name": "totalSupply",
      "outputs": [
        {
          "internalType": "uint256",
          "name": "",
          "type": "uint256"
        }
      ],
      "stateMutability": "view",
      "type": "function"
    },
    {
      "inputs": [
        {
          "internalType": "address",
          "name": "from",
          "type": "address"
        },
        {
          "internalType": "address",
          "name": "to",
          "type": "address"
        },
        {
          "internalType": "uint256",
          "name": "tokenId",
          "type": "uint256"
        }
      ],
      "name": "transferFrom",
      "outputs": [],
      "stateMutability": "nonpayable",
      "type": "function"
    },
    {
      "stateMutability": "payable",
      "type": "receive"
    }
  ],
  "transactionHash": "0x804d93981f695b78e397f6a771ba112f5900e4e31c939b5f680ccbc8869f150e",
  "args": [
    "0xF62b87b7e21a758474a998dB9F64A734B5cf69F1",
    "0xc778417E063141139Fce010982780140Aa0cD5Ab",
    "0x79E2d470f950f2Cf78eeF41720E8ff2cf4B3CD78"
  ],
  "solcInputHash": "71f58fbaf8a70ed83a1db272b9bd43c2",
  "bytecode": "0x662386f26fc10000600c819055600d556103e8600e81905566b1a2bc2ec50000600f5567016345785d8a0000601055606460115560125561024060405261012160e081815290620055276101003980516200006391601391602090910190620002e8565b5060408051610200810190915261013360a082018181528291620053b960c08401398152602001604051806040016040528060088152602001677b7b646174657d7d60c01b81525081526020016040518060600160405280603b8152602001620054ec603b91398152602001604051806040016040528060088152602001677b7b6e6f74657d7d60c01b81525081526020016040518060400160405280600d81526020016c1e17ba32bc3a1f1e17b9bb339f60991b81525081525060149060056200013092919062000377565b5060006018553480156200014357600080fd5b50604051620056483803806200564883398101604081905262000166916200046e565b6040805180820182526008815267546865204461746560c01b6020808301918252835180850190945260048452634441544560e01b908401528151919291620001b291600091620002e8565b508051620001c8906001906020840190620002e8565b50506001600b55506001600160601b0319606084811b821660805283811b821660a05282901b1660c052620001ff60003362000234565b6200022b7f3b5d4cc60d3ec3516ee8ae083bd60934f6eb2a6c54b1229985c41bfb092b26033362000234565b505050620004f4565b62000240828262000244565b5050565b6000828152600a602090815260408083206001600160a01b038516845290915290205460ff1662000240576000828152600a602090815260408083206001600160a01b03851684529091529020805460ff19166001179055620002a43390565b6001600160a01b0316816001600160a01b0316837f2f8788117e7eff1d82e926ec794901d17c78024a50270940304540a733656f0d60405160405180910390a45050565b828054620002f690620004b7565b90600052602060002090601f0160209004810192826200031a576000855562000365565b82601f106200033557805160ff191683800117855562000365565b8280016001018555821562000365579182015b828111156200036557825182559160200191906001019062000348565b5062000373929150620003d7565b5090565b828054828255906000526020600020908101928215620003c9579160200282015b82811115620003c95782518051620003b8918491602090910190620002e8565b509160200191906001019062000398565b5062000373929150620003ee565b5b80821115620003735760008155600101620003d8565b80821115620003735760006200040582826200040f565b50600101620003ee565b5080546200041d90620004b7565b6000825580601f106200042e575050565b601f0160209004906000526020600020908101906200044e9190620003d7565b50565b80516001600160a01b03811681146200046957600080fd5b919050565b60008060006060848603121562000483578283fd5b6200048e8462000451565b92506200049e6020850162000451565b9150620004ae6040850162000451565b90509250925092565b600181811c90821680620004cc57607f821691505b60208210811415620004ee57634e487b7160e01b600052602260045260246000fd5b50919050565b60805160601c60a05160601c60c05160601c614e696200055060003960006114e6015260008181612bb80152612c4d01526000818161124e015281816115fb0152818161182c0152818161299b01526136ce0152614e696000f3fe60806040526004361061036a5760003560e01c8063598acd26116101c4578063a74a3e9f116100f6578063da7a739f1161009a578063ecfc7ecc1161006c578063ecfc7ecc14610a95578063f070d81d14610a9d578063f3f5d36b14610ab0578063fc43dbd014610ac657005b8063da7a739f146109fe578063db2e1eed14610a14578063e985e9c514610a2a578063e9c2651814610a7357005b8063b88d4fde116100d3578063b88d4fde14610988578063c63adb2b146109a8578063c87b56dd146109be578063d547741f146109de57005b8063a74a3e9f1461093d578063a881884714610952578063a965a9411461096857005b806391d14854116101685780639daec71e1161013a5780639daec71e146108c85780639dc3d812146108e8578063a217fddf14610908578063a22cb4651461091d57005b806391d148541461085357806395d89b411461087357806396e494e814610888578063970c4310146108a857005b806370a08231116101a157806370a08231146107b95780637a9ae240146107d95780638dfd1ec8146107f95780638f2886441461080f57005b8063598acd26146107595780636352211e14610779578063672434821461079957005b80632b57298b1161029d5780633fe800ef116102415780634d58364b116102135780634d58364b146106d95780634f558e79146106f95780634f6ccce7146107195780635738f36f1461073957005b80633fe800ef1461065957806342842e0e1461067957806347b8903114610699578063499305c4146106b957005b806336568abe1161027a57806336568abe146105fe578063379607f51461061e578063396961a3146106315780633c085e121461064657005b80632b57298b1461059e5780632f2ff15d146105be5780632f745c59146105de57005b806318160ddd1161030f57806323b872dd116102e157806323b872dd146104fa578063248a9ca31461051a57806325e6f5161461054a5780632a55205a1461055f57005b806318160ddd1461048f5780631c117150146104a45780631e826bc0146104ba5780631f72d831146104da57005b806306fdde031161034857806306fdde03146103ff578063081812fc146104145780630954305d1461044c578063095ea7b31461046f57005b8062d5da0214610379578063015e1a0b1461039957806301ffc9a7146103cf57005b3661037757610377610b01565b005b34801561038557600080fd5b5061037761039436600461451d565b610ccf565b3480156103a557600080fd5b506103b96103b43660046144ab565b610cf3565b6040516103c691906149a2565b60405180910390f35b3480156103db57600080fd5b506103ef6103ea3660046144e5565b610e2c565b60405190151581526020016103c6565b34801561040b57600080fd5b506103b9610e82565b34801561042057600080fd5b5061043461042f3660046144ab565b610f14565b6040516001600160a01b0390911681526020016103c6565b34801561045857600080fd5b50610461610f9c565b6040519081526020016103c6565b34801561047b57600080fd5b5061037761048a3660046142f4565b610fb0565b34801561049b57600080fd5b50600854610461565b3480156104b057600080fd5b50610461600e5481565b3480156104c657600080fd5b506103776104d53660046144ab565b6110c1565b3480156104e657600080fd5b506103776104f53660046144ab565b611117565b34801561050657600080fd5b5061037761051536600461420a565b61118a565b34801561052657600080fd5b506104616105353660046144ab565b6000908152600a602052604090206001015490565b34801561055657600080fd5b506103b96111bb565b34801561056b57600080fd5b5061057f61057a3660046145a3565b611249565b604080516001600160a01b0390931683526020830191909152016103c6565b3480156105aa57600080fd5b506103b96105b93660046144ab565b611293565b3480156105ca57600080fd5b506103776105d93660046144c3565b61135b565b3480156105ea57600080fd5b506104616105f93660046142f4565b611381565b34801561060a57600080fd5b506103776106193660046144c3565b611417565b61037761062c3660046144ab565b611495565b34801561063d57600080fd5b5061037761167a565b6103776106543660046144ab565b6116ea565b34801561066557600080fd5b506103b96106743660046144ab565b6118b8565b34801561068557600080fd5b5061037761069436600461420a565b611c13565b3480156106a557600080fd5b506103b96106b436600461451d565b611c2e565b3480156106c557600080fd5b506103776106d43660046143de565b611e28565b3480156106e557600080fd5b506103b96106f43660046144ab565b611e47565b34801561070557600080fd5b506103ef6107143660046144ab565b611e72565b34801561072557600080fd5b506104616107343660046144ab565b611e7d565b34801561074557600080fd5b506103b961075436600461451d565b611f1e565b34801561076557600080fd5b506103776107743660046144ab565b612138565b34801561078557600080fd5b506104346107943660046144ab565b612186565b3480156107a557600080fd5b506103776107b436600461431d565b6121fd565b3480156107c557600080fd5b506104616107d43660046141be565b6122fb565b3480156107e557600080fd5b506103776107f43660046144ab565b612382565b34801561080557600080fd5b50610461600c5481565b34801561081b57600080fd5b5061057f61082a3660046144ab565b6000908152601660209081526040808320546017909252909120546001600160a01b0390911691565b34801561085f57600080fd5b506103ef61086e3660046144c3565b6123d0565b34801561087f57600080fd5b506103b96123fb565b34801561089457600080fd5b506103ef6108a33660046144ab565b61240a565b3480156108b457600080fd5b506103776108c33660046144ab565b61246a565b3480156108d457600080fd5b506103776108e33660046144ab565b6124b8565b3480156108f457600080fd5b506103776109033660046144ab565b612506565b34801561091457600080fd5b50610461600081565b34801561092957600080fd5b506103776109383660046142be565b612554565b34801561094957600080fd5b50610461612619565b34801561095e57600080fd5b5061046160105481565b34801561097457600080fd5b506103b96109833660046144ab565b612679565b34801561099457600080fd5b506103776109a3366004614245565b61271b565b3480156109b457600080fd5b5061046160125481565b3480156109ca57600080fd5b506103b96109d93660046144ab565b612753565b3480156109ea57600080fd5b506103776109f93660046144c3565b6127d8565b348015610a0a57600080fd5b50610461600f5481565b348015610a2057600080fd5b50610461600d5481565b348015610a3657600080fd5b506103ef610a453660046141d8565b6001600160a01b03918216600090815260056020908152604080832093909416825291909152205460ff1690565b348015610a7f57600080fd5b50610461600080516020614dd483398151915281565b610377610b01565b610377610aab366004614568565b6127fe565b348015610abc57600080fd5b5061046160115481565b348015610ad257600080fd5b50610ae6610ae13660046144ab565b612a34565b604080519384526020840192909252908201526060016103c6565b6002600b541415610b2d5760405162461bcd60e51b8152600401610b2490614aa1565b60405180910390fd5b6002600b556000610b416201518042614bb4565b600d549091503490811015610b985760405162461bcd60e51b815260206004820181905260248201527f4d7573742073656e64206d6f7265207468616e207265736572766550726963656044820152606401610b24565b610ba0612619565b811015610c0a5760405162461bcd60e51b815260206004820152603260248201527f4d7573742073656e64206d6f7265207468616e206c61737420626964206279206044820152716d696e426964496e6372656d656e7442707360701b6064820152608401610b24565b6000828152601660205260409020546001600160a01b0316610c3857610c2e61167a565b6018829055610c66565b600082815260166020908152604080832054601790925290912054610c66916001600160a01b031690612ba8565b600082815260166020908152604080832080546001600160a01b0319163390811790915560178352928190208490555183815284917f0e54eff26401bf69b81b26f60bd85ef47f5d85275c1d268d84f68d6897431c47910160405180910390a350506001600b55565b6000610cdb8133612ccd565b8151610cee906013906020850190613f73565b505050565b6060610cfe82612d31565b610d445760405162461bcd60e51b81526020600482015260176024820152761d1bdad95b9259081a5cc81b9bdb8b595e1a5cdd195b9d604a1b6044820152606401610b24565b6000610d57610d52846118b8565b612d4e565b90506000610d6484612ec4565b610d6d85611293565b610e0060138054610d7d90614d03565b80601f0160208091040260200160405190810160405280929190818152602001828054610da990614d03565b8015610df65780601f10610dcb57610100808354040283529160200191610df6565b820191906000526020600020905b815481529060010190602001808311610dd957829003601f168201915b5050505050611c2e565b84604051602001610e1494939291906147ba565b60408051601f19818403018152919052949350505050565b6000610e3782612fe6565b80610e465750610e468261300b565b80610e61575063152a902d60e11b6001600160e01b03198316145b80610e7c57506301ffc9a760e01b6001600160e01b03198316145b92915050565b606060008054610e9190614d03565b80601f0160208091040260200160405190810160405280929190818152602001828054610ebd90614d03565b8015610f0a5780601f10610edf57610100808354040283529160200191610f0a565b820191906000526020600020905b815481529060010190602001808311610eed57829003601f168201915b5050505050905090565b6000610f1f82612d31565b610f805760405162461bcd60e51b815260206004820152602c60248201527f4552433732313a20617070726f76656420717565727920666f72206e6f6e657860448201526b34b9ba32b73a103a37b5b2b760a11b6064820152608401610b24565b506000908152600460205260409020546001600160a01b031690565b6000610fab6201518042614bb4565b905090565b6000610fbb82612186565b9050806001600160a01b0316836001600160a01b031614156110295760405162461bcd60e51b815260206004820152602160248201527f4552433732313a20617070726f76616c20746f2063757272656e74206f776e656044820152603960f91b6064820152608401610b24565b336001600160a01b038216148061104557506110458133610a45565b6110b75760405162461bcd60e51b815260206004820152603860248201527f4552433732313a20617070726f76652063616c6c6572206973206e6f74206f7760448201527f6e6572206e6f7220617070726f76656420666f7220616c6c00000000000000006064820152608401610b24565b610cee8383613030565b600080516020614dd48339815191526110da8133612ccd565b600c8290556040518281527f696ca9f32ad4aedb63d39a2bc82f3a93b74dd917d4c64f03b7dd37a2bfa79c3e906020015b60405180910390a15050565b60006111238133612ccd565b6127108211156111845760405162461bcd60e51b815260206004820152602660248201527f726f79616c74794270732073686f756c642062652077697468696e205b302c2060448201526531303030305d60d01b6064820152608401610b24565b50601255565b611194338261309e565b6111b05760405162461bcd60e51b8152600401610b2490614a50565b610cee838383613184565b601380546111c890614d03565b80601f01602080910402602001604051908101604052809291908181526020018280546111f490614d03565b80156112415780601f1061121657610100808354040283529160200191611241565b820191906000526020600020905b81548152906001019060200180831161122457829003601f168201915b505050505081565b6000807f00000000000000000000000000000000000000000000000000000000000000006127106012548561127e9190614c4b565b6112889190614bb4565b915091509250929050565b606060008060006112a385612a34565b92509250925060006112b484612ec4565b905060006112c184612ec4565b90508051600114156112f057806040516020016112de9190614791565b60405160208183030381529060405290505b60006112fb84612ec4565b905080516001141561132a57806040516020016113189190614791565b60405160208183030381529060405290505b82828260405160200161133f9392919061470e565b6040516020818303038152906040529650505050505050919050565b6000828152600a60205260409020600101546113778133612ccd565b610cee838361332f565b600061138c836122fb565b82106113ee5760405162461bcd60e51b815260206004820152602b60248201527f455243373231456e756d657261626c653a206f776e657220696e646578206f7560448201526a74206f6620626f756e647360a81b6064820152608401610b24565b506001600160a01b03919091166000908152600660209081526040808320938352929052205490565b6001600160a01b03811633146114875760405162461bcd60e51b815260206004820152602f60248201527f416363657373436f6e74726f6c3a2063616e206f6e6c792072656e6f756e636560448201526e103937b632b9903337b91039b2b63360891b6064820152608401610b24565b61149182826133b5565b5050565b6002600b5414156114b85760405162461bcd60e51b8152600401610b2490614aa1565b6002600b556114c86000336123d0565b8061156a57506040516370a0823160e01b81523360048201526000907f00000000000000000000000000000000000000000000000000000000000000006001600160a01b0316906370a082319060240160206040518083038186803b15801561153057600080fd5b505afa158015611544573d6000803e3d6000fd5b505050506040513d601f19601f820116820180604052508101906115689190614550565b115b806115775750600c543410155b6115d65760405162461bcd60e51b815260206004820152602a60248201527f53686f756c642070617920636c61696d696e675072696365206f72206f776e206044820152691848131bdbdd0813919560b21b6064820152608401610b24565b6115de61167a565b6115e8338261341c565b3415611645576040516001600160a01b037f000000000000000000000000000000000000000000000000000000000000000016903480156108fc02916000818181858888f19350505050158015611643573d6000803e3d6000fd5b505b604051339082907fce8230f82e484df1d81d3f449132eed44e758f95df463079b72a869f75d341cf90600090a3506001600b55565b6018548061168b6201518042614bb4565b1180156116ae57506000818152601660205260409020546001600160a01b031615155b80156116c7575060008181526017602052604090205415155b80156116d957506116d781612d31565b155b156116e7576116e781613554565b50565b80336116f582612186565b6001600160a01b03161461171b5760405162461bcd60e51b8152600401610b2490614a07565b6117266000336123d0565b8061173357506010543410155b61177f5760405162461bcd60e51b815260206004820152601760248201527f53686f756c64207061792065726173696e6750726963650000000000000000006044820152606401610b24565b6000828152601560205260408120805461179890614d03565b9050116117f65760405162461bcd60e51b815260206004820152602660248201527f4e6f74652073686f756c64206265206e6f6e656d707479206265666f72652065604482015265726173696e6760d01b6064820152608401610b24565b60408051602080820180845260008084528681526015909252929020905161181e9290613f73565b506040516001600160a01b037f000000000000000000000000000000000000000000000000000000000000000016903480156108fc02916000818181858888f19350505050158015611874573d6000803e3d6000fd5b5061187e82612186565b6001600160a01b0316827ff5cd03e250f4dc67cb934696b1ae84a530d007600f8c2b64cb1097e04cd49ae960405160405180910390a35050565b60606118c382612d31565b6119095760405162461bcd60e51b81526020600482015260176024820152761d1bdad95b9259081a5cc81b9bdb8b595e1a5cdd195b9d604a1b6044820152606401610b24565b600061191483611293565b9050600061192184612679565b60408051602081019091526000808252919250905b601454811015611c0a576060611a1f6014838154811061196657634e487b7160e01b600052603260045260246000fd5b90600052602060002001805461197b90614d03565b80601f01602080910402602001604051908101604052809291908181526020018280546119a790614d03565b80156119f45780601f106119c9576101008083540402835291602001916119f4565b820191906000526020600020905b8154815290600101906020018083116119d757829003601f168201915b5050505050604051806040016040528060088152602001677b7b646174657d7d60c01b815250613772565b15611a2b575083611bd4565b611b0860148381548110611a4f57634e487b7160e01b600052603260045260246000fd5b906000526020600020018054611a6490614d03565b80601f0160208091040260200160405190810160405280929190818152602001828054611a9090614d03565b8015611add5780601f10611ab257610100808354040283529160200191611add565b820191906000526020600020905b815481529060010190602001808311611ac057829003601f168201915b5050505050604051806040016040528060088152602001677b7b6e6f74657d7d60c01b815250613772565b15611b1d57611b1684611f1e565b9050611bd4565b60148281548110611b3e57634e487b7160e01b600052603260045260246000fd5b906000526020600020018054611b5390614d03565b80601f0160208091040260200160405190810160405280929190818152602001828054611b7f90614d03565b8015611bcc5780601f10611ba157610100808354040283529160200191611bcc565b820191906000526020600020905b815481529060010190602001808311611baf57829003601f168201915b505050505090505b8281604051602001611be792919061463b565b60405160208183030381529060405292505080611c0390614d3e565b9050611936565b50949350505050565b610cee8383836040518060200160405280600081525061271b565b6060816000805b8251811015611c9957828181518110611c5e57634e487b7160e01b600052603260045260246000fd5b6020910101516001600160f81b031916601160f91b1415611c875781611c8381614d3e565b9250505b80611c9181614d3e565b915050611c35565b508015611e20576000818351611caf9190614b6e565b67ffffffffffffffff811115611cd557634e487b7160e01b600052604160045260246000fd5b6040519080825280601f01601f191660200182016040528015611cff576020820181803683370190505b5090506000805b8451811015611e1557848181518110611d2f57634e487b7160e01b600052603260045260246000fd5b6020910101516001600160f81b031916601160f91b1415611d9257601760fa1b8383611d5a81614d3e565b945081518110611d7a57634e487b7160e01b600052603260045260246000fd5b60200101906001600160f81b031916908160001a9053505b848181518110611db257634e487b7160e01b600052603260045260246000fd5b01602001516001600160f81b0319168383611dcc81614d3e565b945081518110611dec57634e487b7160e01b600052603260045260246000fd5b60200101906001600160f81b031916908160001a90535080611e0d81614d3e565b915050611d06565b509095945050505050565b509192915050565b6000611e348133612ccd565b8151610cee906014906020850190613ff7565b60148181548110611e5757600080fd5b9060005260206000200160009150905080546111c890614d03565b6000610e7c82612d31565b6000611e8860085490565b8210611eeb5760405162461bcd60e51b815260206004820152602c60248201527f455243373231456e756d657261626c653a20676c6f62616c20696e646578206f60448201526b7574206f6620626f756e647360a01b6064820152608401610b24565b60088281548110611f0c57634e487b7160e01b600052603260045260246000fd5b90600052602060002001549050919050565b6040805160208101909152600080825260609183915b825181101561213057828181518110611f5d57634e487b7160e01b600052603260045260246000fd5b6020910101516001600160f81b031916600f60fa1b1415611f9f5781604051602001611f899190614694565b604051602081830303815290604052915061211e565b828181518110611fbf57634e487b7160e01b600052603260045260246000fd5b6020910101516001600160f81b031916601f60f91b1415611feb5781604051602001611f8991906146bc565b82818151811061200b57634e487b7160e01b600052603260045260246000fd5b6020910101516001600160f81b031916601360f91b14156120375781604051602001611f899190614768565b82818151811061205757634e487b7160e01b600052603260045260246000fd5b6020910101516001600160f81b031916601160f91b14156120835781604051602001611f8991906146e4565b8281815181106120a357634e487b7160e01b600052603260045260246000fd5b6020910101516001600160f81b031916602760f81b14156120cf5781604051602001611f89919061466a565b818382815181106120f057634e487b7160e01b600052603260045260246000fd5b602001015160f81c60f81b60405160200161210c92919061460c565b60405160208183030381529060405291505b8061212881614d3e565b915050611f34565b509392505050565b600080516020614dd48339815191526121518133612ccd565b600f8290556040518281527f6ea43baebf767c8984d2da6f4e06b71e7093fcb9d3c0c516cd51ac6b15fa11d79060200161110b565b6000818152600260205260408120546001600160a01b031680610e7c5760405162461bcd60e51b815260206004820152602960248201527f4552433732313a206f776e657220717565727920666f72206e6f6e657869737460448201526832b73a103a37b5b2b760b91b6064820152608401610b24565b6002600b5414156122205760405162461bcd60e51b8152600401610b2490614aa1565b6002600b5560006122318133612ccd565b61223961167a565b60005b82518110156122f057600084828151811061226757634e487b7160e01b600052603260045260246000fd5b60200260200101519050600084838151811061229357634e487b7160e01b600052603260045260246000fd5b602002602001015190506122a7828261341c565b6040516001600160a01b0383169082907f6f1a5977e7036a4d672e1db1ca046ec0bd742ef9a38fe8d46823fd17dae6083190600090a35050806122e990614d3e565b905061223c565b50506001600b555050565b60006001600160a01b0382166123665760405162461bcd60e51b815260206004820152602a60248201527f4552433732313a2062616c616e636520717565727920666f7220746865207a65604482015269726f206164647265737360b01b6064820152608401610b24565b506001600160a01b031660009081526003602052604090205490565b600080516020614dd483398151915261239b8133612ccd565b60118290556040518281527f808020969425956198bf055c9d59c389614dd21f915904f05b2d21ea161cd4ec9060200161110b565b6000918252600a602090815260408084206001600160a01b0393909316845291905290205460ff1690565b606060018054610e9190614d03565b60006124196201518042614bb4565b8210801561245357506000828152601660205260409020546001600160a01b03161580156124535750600082815260176020526040902054155b8015610e7c575061246382612d31565b1592915050565b600080516020614dd48339815191526124838133612ccd565b600e8290556040518281527ff4ec2a844abf83d803887787f1c1ce8de91c40e66ea4a395779beb8c0d904a419060200161110b565b600080516020614dd48339815191526124d18133612ccd565b600d8290556040518281527f921c658aa55473adf5c5112e48ef56de846ddb3e4e57e8888cb24a81b3b272739060200161110b565b600080516020614dd483398151915261251f8133612ccd565b60108290556040518281527f1b5c73c6da4bab6f305baea61b3dfd41973701830ad8e35dfdf24eba3d3d6de09060200161110b565b6001600160a01b0382163314156125ad5760405162461bcd60e51b815260206004820152601960248201527f4552433732313a20617070726f766520746f2063616c6c6572000000000000006044820152606401610b24565b3360008181526005602090815260408083206001600160a01b03871680855290835292819020805460ff191686151590811790915590519081529192917f17307eab39ab6107e8899845ad3d59bd9653f200f220920489ca2b5937696c31910160405180910390a35050565b6000806126296201518042614bb4565b90506000612710600e546127106126409190614b6e565b6000848152601760205260409020546126599190614c4b565b6126639190614bb4565b905080600d541115610e7c5750600d5492915050565b600081815260156020526040902080546060919061269690614d03565b80601f01602080910402602001604051908101604052809291908181526020018280546126c290614d03565b801561270f5780601f106126e45761010080835404028352916020019161270f565b820191906000526020600020905b8154815290600101906020018083116126f257829003601f168201915b50505050509050919050565b612725338361309e565b6127415760405162461bcd60e51b8152600401610b2490614a50565b61274d848484846137d7565b50505050565b606061275e82612d31565b6127a35760405162461bcd60e51b81526020600482015260166024820152751d1bdad95b9259081a5cc81b9bdb995e1a5cdd195b9d60521b6044820152606401610b24565b60006127b1610d5284610cf3565b6040516020016127c191906148ab565b60408051601f198184030181529190529392505050565b6000828152600a60205260409020600101546127f48133612ccd565b610cee83836133b5565b813361280982612186565b6001600160a01b03161461282f5760405162461bcd60e51b8152600401610b2490614a07565b816011548151106128945760405162461bcd60e51b815260206004820152602960248201527f4e6f74652073686f756c642062652073686f72746572207468616e206e6f746560448201526814da5e99531a5b5a5d60ba1b6064820152608401610b24565b61289f6000336123d0565b806128ac5750600f543410155b6128f85760405162461bcd60e51b815260206004820152601960248201527f53686f756c642070617920656e67726176696e675072696365000000000000006044820152606401610b24565b6000848152601560205260409020805461291190614d03565b15905061296e5760405162461bcd60e51b815260206004820152602560248201527f4e6f74652073686f756c6420626520656d707479206265666f726520656e67726044820152646176696e6760d81b6064820152608401610b24565b6000848152601560209081526040909120845161298d92860190613f73565b506040516001600160a01b037f000000000000000000000000000000000000000000000000000000000000000016903480156108fc02916000818181858888f193505050501580156129e3573d6000803e3d6000fd5b506129ed84612186565b6001600160a01b0316847fed9e0bea058528ee91b5c24513bbdb6ad21da03e6bc7108b7623af9d1231e07b85604051612a2691906149a2565b60405180910390a350505050565b60008080838162253d8c612a4b8362010bd9614b2d565b612a559190614b2d565b9050600062023ab1612a68836004614bc8565b612a729190614b86565b90506004612a838262023ab1614bc8565b612a8e906003614b2d565b612a989190614b86565b612aa29083614c6a565b9150600062164b09612ab5846001614b2d565b612ac190610fa0614bc8565b612acb9190614b86565b90506004612adb826105b5614bc8565b612ae59190614b86565b612aef9084614c6a565b612afa90601f614b2d565b9250600061098f612b0c856050614bc8565b612b169190614b86565b905060006050612b288361098f614bc8565b612b329190614b86565b612b3c9086614c6a565b9050612b49600b83614b86565b9450612b5685600c614bc8565b612b61836002614b2d565b612b6b9190614c6a565b91508483612b7a603187614c6a565b612b85906064614bc8565b612b8f9190614b2d565b612b999190614b2d565b9a919950975095505050505050565b612bb2828261380a565b611491577f00000000000000000000000000000000000000000000000000000000000000006001600160a01b031663d0e30db0826040518263ffffffff1660e01b81526004016000604051808303818588803b158015612c1157600080fd5b505af1158015612c25573d6000803e3d6000fd5b505060405163a9059cbb60e01b81526001600160a01b038681166004830152602482018690527f000000000000000000000000000000000000000000000000000000000000000016935063a9059cbb92506044019050602060405180830381600087803b158015612c9557600080fd5b505af1158015612ca9573d6000803e3d6000fd5b505050506040513d601f19601f82011682018060405250810190610cee919061448f565b612cd782826123d0565b61149157612cef816001600160a01b03166014613878565b612cfa836020613878565b604051602001612d0b9291906148f0565b60408051601f198184030181529082905262461bcd60e51b8252610b24916004016149a2565b6000908152600260205260409020546001600160a01b0316151590565b6060815160001415612d6e57505060408051602081019091526000815290565b6000604051806060016040528060408152602001614df46040913990506000600384516002612d9d9190614b6e565b612da79190614bb4565b612db2906004614c4b565b90506000612dc1826020614b6e565b67ffffffffffffffff811115612de757634e487b7160e01b600052604160045260246000fd5b6040519080825280601f01601f191660200182016040528015612e11576020820181803683370190505b509050818152600183018586518101602084015b81831015612e7f5760039283018051603f601282901c811687015160f890811b8552600c83901c8216880151811b6001860152600683901c8216880151811b60028601529116860151901b93820193909352600401612e25565b600389510660018114612e995760028114612eaa57612eb6565b613d3d60f01b600119830152612eb6565b603d60f81b6000198301525b509398975050505050505050565b606081612ee85750506040805180820190915260018152600360fc1b602082015290565b8160005b8115612f125780612efc81614d3e565b9150612f0b9050600a83614bb4565b9150612eec565b60008167ffffffffffffffff811115612f3b57634e487b7160e01b600052604160045260246000fd5b6040519080825280601f01601f191660200182016040528015612f65576020820181803683370190505b5090505b8415612fde57612f7a600183614ca9565b9150612f87600a86614d59565b612f92906030614b6e565b60f81b818381518110612fb557634e487b7160e01b600052603260045260246000fd5b60200101906001600160f81b031916908160001a905350612fd7600a86614bb4565b9450612f69565b949350505050565b60006001600160e01b0319821663780e9d6360e01b1480610e7c5750610e7c82613a5a565b60006001600160e01b03198216637965db0b60e01b1480610e7c5750610e7c82612fe6565b600081815260046020526040902080546001600160a01b0319166001600160a01b038416908117909155819061306582612186565b6001600160a01b03167f8c5be1e5ebec7d5bd14f71427d1e84f3dd0314c0f7b2291e5b200ac8c7c3b92560405160405180910390a45050565b60006130a982612d31565b61310a5760405162461bcd60e51b815260206004820152602c60248201527f4552433732313a206f70657261746f7220717565727920666f72206e6f6e657860448201526b34b9ba32b73a103a37b5b2b760a11b6064820152608401610b24565b600061311583612186565b9050806001600160a01b0316846001600160a01b031614806131505750836001600160a01b031661314584610f14565b6001600160a01b0316145b80612fde57506001600160a01b0380821660009081526005602090815260408083209388168352929052205460ff16612fde565b826001600160a01b031661319782612186565b6001600160a01b0316146131ff5760405162461bcd60e51b815260206004820152602960248201527f4552433732313a207472616e73666572206f6620746f6b656e2074686174206960448201526839903737ba1037bbb760b91b6064820152608401610b24565b6001600160a01b0382166132615760405162461bcd60e51b8152602060048201526024808201527f4552433732313a207472616e7366657220746f20746865207a65726f206164646044820152637265737360e01b6064820152608401610b24565b61326c838383613aaa565b613277600082613030565b6001600160a01b03831660009081526003602052604081208054600192906132a0908490614ca9565b90915550506001600160a01b03821660009081526003602052604081208054600192906132ce908490614b6e565b909155505060008181526002602052604080822080546001600160a01b0319166001600160a01b0386811691821790925591518493918716917fddf252ad1be2c89b69c2b068fc378daa952ba7f163c4a11628f55a4df523b3ef91a4505050565b61333982826123d0565b611491576000828152600a602090815260408083206001600160a01b03851684529091529020805460ff191660011790556133713390565b6001600160a01b0316816001600160a01b0316837f2f8788117e7eff1d82e926ec794901d17c78024a50270940304540a733656f0d60405160405180910390a45050565b6133bf82826123d0565b15611491576000828152600a602090815260408083206001600160a01b0385168085529252808320805460ff1916905551339285917ff6391f5c32d9c69d2a47ea670b442974b53935d1edc7fd64eb21e047a839171b9190a45050565b6134296201518042614bb4565b81106134775760405162461bcd60e51b815260206004820152601e60248201527f4f6e6c79207061737420746f6b656e496420697320636c61696d61626c6500006044820152606401610b24565b6000818152601660205260409020546001600160a01b03161580156134a85750600081815260176020526040902054155b6134f45760405162461bcd60e51b815260206004820152601f60248201527f746f6b656e49642073686f756c64206e6f742062652061756374696f6e6564006044820152606401610b24565b6134fd81612d31565b1561354a5760405162461bcd60e51b815260206004820152601d60248201527f746f6b656e49642073686f756c64206e6f7420626520636c61696d65640000006044820152606401610b24565b6114918282613ab5565b806135626201518042614bb4565b116135a75760405162461bcd60e51b8152602060048201526015602482015274105d58dd1a5bdb881b9bdd081e595d08195b991959605a1b6044820152606401610b24565b6000818152601660205260409020546001600160a01b0316158015906135da575060008181526017602052604090205415155b61363a5760405162461bcd60e51b815260206004820152602b60248201527f54686572652073686f756c64206265206174206c65617374206120626964206660448201526a6f7220746865206461746560a81b6064820152608401610b24565b61364381612d31565b156136905760405162461bcd60e51b815260206004820152601e60248201527f53686f756c64206e6f74207265636c61696d207468652061756374696f6e00006044820152606401610b24565b6000818152601660205260409020546136b2906001600160a01b031682613ab5565b6000818152601760205260408082205490516001600160a01b037f0000000000000000000000000000000000000000000000000000000000000000169282156108fc02929190818181858888f19350505050158015613715573d6000803e3d6000fd5b5060008181526016602090815260408083205460178352928190205490519081526001600160a01b039092169183917fc9f72b276a388619c6d185d146697036241880c36654b1a3ffdad07c24038d99910160405180910390a350565b6000815183511480156137d057508160405160200161379191906145f0565b60405160208183030381529060405280519060200120836040516020016137b891906145f0565b60405160208183030381529060405280519060200120145b9392505050565b6137e2848484613184565b6137ee84848484613bf4565b61274d5760405162461bcd60e51b8152600401610b24906149b5565b6040805160008082526020820190925281906001600160a01b0385169061753090859060405161383a91906145f0565b600060405180830381858888f193505050503d8060008114611e15576040519150601f19603f3d011682016040523d82523d6000602084013e611e15565b60606000613887836002614c4b565b613892906002614b6e565b67ffffffffffffffff8111156138b857634e487b7160e01b600052604160045260246000fd5b6040519080825280601f01601f1916602001820160405280156138e2576020820181803683370190505b509050600360fc1b8160008151811061390b57634e487b7160e01b600052603260045260246000fd5b60200101906001600160f81b031916908160001a905350600f60fb1b8160018151811061394857634e487b7160e01b600052603260045260246000fd5b60200101906001600160f81b031916908160001a905350600061396c846002614c4b565b613977906001614b6e565b90505b6001811115613a0b576f181899199a1a9b1b9c1cb0b131b232b360811b85600f16601081106139b957634e487b7160e01b600052603260045260246000fd5b1a60f81b8282815181106139dd57634e487b7160e01b600052603260045260246000fd5b60200101906001600160f81b031916908160001a90535060049490941c93613a0481614cec565b905061397a565b5083156137d05760405162461bcd60e51b815260206004820181905260248201527f537472696e67733a20686578206c656e67746820696e73756666696369656e746044820152606401610b24565b60006001600160e01b031982166380ac58cd60e01b1480613a8b57506001600160e01b03198216635b5e139f60e01b145b80610e7c57506301ffc9a760e01b6001600160e01b0319831614610e7c565b610cee838383613d01565b6001600160a01b038216613b0b5760405162461bcd60e51b815260206004820181905260248201527f4552433732313a206d696e7420746f20746865207a65726f20616464726573736044820152606401610b24565b613b1481612d31565b15613b615760405162461bcd60e51b815260206004820152601c60248201527f4552433732313a20746f6b656e20616c7265616479206d696e746564000000006044820152606401610b24565b613b6d60008383613aaa565b6001600160a01b0382166000908152600360205260408120805460019290613b96908490614b6e565b909155505060008181526002602052604080822080546001600160a01b0319166001600160a01b03861690811790915590518392907fddf252ad1be2c89b69c2b068fc378daa952ba7f163c4a11628f55a4df523b3ef908290a45050565b60006001600160a01b0384163b15613cf657604051630a85bd0160e11b81526001600160a01b0385169063150b7a0290613c38903390899088908890600401614965565b602060405180830381600087803b158015613c5257600080fd5b505af1925050508015613c82575060408051601f3d908101601f19168201909252613c7f91810190614501565b60015b613cdc573d808015613cb0576040519150601f19603f3d011682016040523d82523d6000602084013e613cb5565b606091505b508051613cd45760405162461bcd60e51b8152600401610b24906149b5565b805181602001fd5b6001600160e01b031916630a85bd0160e11b149050612fde565b506001949350505050565b6001600160a01b038316613d5c57613d5781600880546000838152600960205260408120829055600182018355919091527ff3f7a9fe364faab93b216da50a3214154f22a0a2b415b23a84c8169e8b636ee30155565b613d7f565b816001600160a01b0316836001600160a01b031614613d7f57613d7f8382613db9565b6001600160a01b038216613d9657610cee81613e56565b826001600160a01b0316826001600160a01b031614610cee57610cee8282613f2f565b60006001613dc6846122fb565b613dd09190614ca9565b600083815260076020526040902054909150808214613e23576001600160a01b03841660009081526006602090815260408083208584528252808320548484528184208190558352600790915290208190555b5060009182526007602090815260408084208490556001600160a01b039094168352600681528383209183525290812055565b600854600090613e6890600190614ca9565b60008381526009602052604081205460088054939450909284908110613e9e57634e487b7160e01b600052603260045260246000fd5b906000526020600020015490508060088381548110613ecd57634e487b7160e01b600052603260045260246000fd5b6000918252602080832090910192909255828152600990915260408082208490558582528120556008805480613f1357634e487b7160e01b600052603160045260246000fd5b6001900381819060005260206000200160009055905550505050565b6000613f3a836122fb565b6001600160a01b039093166000908152600660209081526040808320868452825280832085905593825260079052919091209190915550565b828054613f7f90614d03565b90600052602060002090601f016020900481019282613fa15760008555613fe7565b82601f10613fba57805160ff1916838001178555613fe7565b82800160010185558215613fe7579182015b82811115613fe7578251825591602001919060010190613fcc565b50613ff3929150614050565b5090565b828054828255906000526020600020908101928215614044579160200282015b828111156140445782518051614034918491602090910190613f73565b5091602001919060010190614017565b50613ff3929150614065565b5b80821115613ff35760008155600101614051565b80821115613ff35760006140798282614082565b50600101614065565b50805461408e90614d03565b6000825580601f1061409e575050565b601f0160209004906000526020600020908101906116e79190614050565b600067ffffffffffffffff8311156140d6576140d6614d99565b6140e9601f8401601f1916602001614ad8565b90508281528383830111156140fd57600080fd5b828260208301376000602084830101529392505050565b80356001600160a01b038116811461412b57600080fd5b919050565b600082601f830112614140578081fd5b8135602061415561415083614b09565b614ad8565b80838252828201915082860187848660051b8901011115614174578586fd5b855b8581101561419257813584529284019290840190600101614176565b5090979650505050505050565b600082601f8301126141af578081fd5b6137d0838335602085016140bc565b6000602082840312156141cf578081fd5b6137d082614114565b600080604083850312156141ea578081fd5b6141f383614114565b915061420160208401614114565b90509250929050565b60008060006060848603121561421e578081fd5b61422784614114565b925061423560208501614114565b9150604084013590509250925092565b6000806000806080858703121561425a578081fd5b61426385614114565b935061427160208601614114565b925060408501359150606085013567ffffffffffffffff811115614293578182fd5b8501601f810187136142a3578182fd5b6142b2878235602084016140bc565b91505092959194509250565b600080604083850312156142d0578182fd5b6142d983614114565b915060208301356142e981614daf565b809150509250929050565b60008060408385031215614306578182fd5b61430f83614114565b946020939093013593505050565b6000806040838503121561432f578182fd5b823567ffffffffffffffff80821115614346578384fd5b818501915085601f830112614359578384fd5b8135602061436961415083614b09565b8083825282820191508286018a848660051b8901011115614388578889fd5b8896505b848710156143b15761439d81614114565b83526001969096019591830191830161438c565b50965050860135925050808211156143c7578283fd5b506143d485828601614130565b9150509250929050565b600060208083850312156143f0578182fd5b823567ffffffffffffffff80821115614407578384fd5b818501915085601f83011261441a578384fd5b813561442861415082614b09565b80828252858201915085850189878560051b8801011115614447578788fd5b875b848110156144805781358681111561445f57898afd5b61446d8c8a838b010161419f565b8552509287019290870190600101614449565b50909998505050505050505050565b6000602082840312156144a0578081fd5b81516137d081614daf565b6000602082840312156144bc578081fd5b5035919050565b600080604083850312156144d5578182fd5b8235915061420160208401614114565b6000602082840312156144f6578081fd5b81356137d081614dbd565b600060208284031215614512578081fd5b81516137d081614dbd565b60006020828403121561452e578081fd5b813567ffffffffffffffff811115614544578182fd5b612fde8482850161419f565b600060208284031215614561578081fd5b5051919050565b6000806040838503121561457a578182fd5b82359150602083013567ffffffffffffffff811115614597578182fd5b6143d48582860161419f565b600080604083850312156145b5578182fd5b50508035926020909101359150565b600081518084526145dc816020860160208601614cc0565b601f01601f19169290920160200192915050565b60008251614602818460208701614cc0565b9190910192915050565b6000835161461e818460208801614cc0565b6001600160f81b0319939093169190920190815260010192915050565b6000835161464d818460208801614cc0565b835190830190614661818360208801614cc0565b01949350505050565b6000825161467c818460208701614cc0565b652661706f733b60d01b920191825250600601919050565b600082516146a6818460208701614cc0565b63266c743b60e01b920191825250600401919050565b600082516146ce818460208701614cc0565b632667743b60e01b920191825250600401919050565b600082516146f6818460208701614cc0565b652671756f743b60d01b920191825250600601919050565b60008451614720818460208901614cc0565b8083019050602d60f81b8082528551614740816001850160208a01614cc0565b6001920191820152835161475b816002840160208801614cc0565b0160020195945050505050565b6000825161477a818460208701614cc0565b6426616d703b60d81b920191825250600501919050565b600360fc1b8152600082516147ad816001850160208701614cc0565b9190910160010192915050565b737b226e616d65223a20225468652044617465202360601b815284516000906147ea816014850160208a01614cc0565b6101d160f51b601491840191820152855161480c816016840160208a01614cc0565b72111610113232b9b1b934b83a34b7b7111d101160691b601692909101918201528451614840816029840160208901614cc0565b7f222c2022696d616765223a2022646174613a696d6167652f7376672b786d6c3b602992909101918201526618985cd94d8d0b60ca1b6049820152835161488e816050840160208801614cc0565b61227d60f01b605092909101918201526052019695505050505050565b7f646174613a6170706c69636174696f6e2f6a736f6e3b6261736536342c0000008152600082516148e381601d850160208701614cc0565b91909101601d0192915050565b7f416363657373436f6e74726f6c3a206163636f756e7420000000000000000000815260008351614928816017850160208801614cc0565b7001034b99036b4b9b9b4b733903937b6329607d1b6017918401918201528351614959816028840160208801614cc0565b01602801949350505050565b6001600160a01b0385811682528416602082015260408101839052608060608201819052600090614998908301846145c4565b9695505050505050565b6020815260006137d060208301846145c4565b60208082526032908201527f4552433732313a207472616e7366657220746f206e6f6e20455243373231526560408201527131b2b4bb32b91034b6b83632b6b2b73a32b960711b606082015260800190565b60208082526029908201527f43616c6c65722073686f756c6420626520746865206f776e6572206f662074686040820152686520617274776f726b60b81b606082015260800190565b60208082526031908201527f4552433732313a207472616e736665722063616c6c6572206973206e6f74206f6040820152701ddb995c881b9bdc88185c1c1c9bdd9959607a1b606082015260800190565b6020808252601f908201527f5265656e7472616e637947756172643a207265656e7472616e742063616c6c00604082015260600190565b604051601f8201601f1916810167ffffffffffffffff81118282101715614b0157614b01614d99565b604052919050565b600067ffffffffffffffff821115614b2357614b23614d99565b5060051b60200190565b600080821280156001600160ff1b0384900385131615614b4f57614b4f614d6d565b600160ff1b8390038412811615614b6857614b68614d6d565b50500190565b60008219821115614b8157614b81614d6d565b500190565b600082614b9557614b95614d83565b600160ff1b821460001984141615614baf57614baf614d6d565b500590565b600082614bc357614bc3614d83565b500490565b60006001600160ff1b0381841382841380821686840486111615614bee57614bee614d6d565b600160ff1b84871282811687830589121615614c0c57614c0c614d6d565b858712925087820587128484161615614c2757614c27614d6d565b87850587128184161615614c3d57614c3d614d6d565b505050929093029392505050565b6000816000190483118215151615614c6557614c65614d6d565b500290565b60008083128015600160ff1b850184121615614c8857614c88614d6d565b6001600160ff1b0384018313811615614ca357614ca3614d6d565b50500390565b600082821015614cbb57614cbb614d6d565b500390565b60005b83811015614cdb578181015183820152602001614cc3565b8381111561274d5750506000910152565b600081614cfb57614cfb614d6d565b506000190190565b600181811c90821680614d1757607f821691505b60208210811415614d3857634e487b7160e01b600052602260045260246000fd5b50919050565b6000600019821415614d5257614d52614d6d565b5060010190565b600082614d6857614d68614d83565b500690565b634e487b7160e01b600052601160045260246000fd5b634e487b7160e01b600052601260045260246000fd5b634e487b7160e01b600052604160045260246000fd5b80151581146116e757600080fd5b6001600160e01b0319811681146116e757600080fdfe3b5d4cc60d3ec3516ee8ae083bd60934f6eb2a6c54b1229985c41bfb092b26034142434445464748494a4b4c4d4e4f505152535455565758595a6162636465666768696a6b6c6d6e6f707172737475767778797a303132333435363738392b2fa26469706673582212200297dfc6f502bbb3ec8ca26a1f5677a58f20cfc3c2d6642a2955e5780f0957ce64736f6c634300080400333c73766720786d6c6e733d22687474703a2f2f7777772e77332e6f72672f323030302f73766722207072657365727665417370656374526174696f3d22784d696e594d696e206d656574222076696577426f783d223020302035303020353030223e3c726563742077696474683d223130302522206865696768743d2231303025222066696c6c3d22626c61636b22202f3e3c7374796c653e2e62617365207b2066696c6c3a2077686974653b20666f6e742d66616d696c793a206d6f6e6f73706163653b20646f6d696e616e742d626173656c696e653a206d6964646c653b20746578742d616e63686f723a206d6964646c653b207d3c2f7374796c653e3c7465787420783d223530252220793d223530252220666f6e742d73697a653d22353070782220636c6173733d2262617365223e3c2f746578743e3c7465787420783d223530252220793d223930252220666f6e742d73697a653d22313070782220636c6173733d2262617365223e54686520446174652069732061206d657461646174612d6261736564204e4654206172742070726f6a6563742061626f75742074696d652e204561636820666c656574696e672064617920776f756c6420626520696d7072696e74656420696e746f20616e204e465420617274776f726b20696d6d757461626c79206c617374696e6720666f72657665722e20546865206f776e65722063616e20656e6772617665206f722065726173652061206e6f7465206f6e2074686520617274776f726b20617320616e206164646974696f6e616c206d657461646174612e205468652044617465206973206d657461646174612e204665656c206672656520746f2075736520546865204461746520696e20616e792077617920796f752077616e742e",
  "devdoc": {
    "kind": "dev",
    "methods": {
      "approve(address,uint256)": {
        "details": "See {IERC721-approve}."
      },
      "balanceOf(address)": {
        "details": "See {IERC721-balanceOf}."
      },
      "getApproved(uint256)": {
        "details": "See {IERC721-getApproved}."
      },
      "getRoleAdmin(bytes32)": {
        "details": "Returns the admin role that controls `role`. See {grantRole} and {revokeRole}. To change a role's admin, use {_setRoleAdmin}."
      },
      "grantRole(bytes32,address)": {
        "details": "Grants `role` to `account`. If `account` had not been already granted `role`, emits a {RoleGranted} event. Requirements: - the caller must have ``role``'s admin role."
      },
      "hasRole(bytes32,address)": {
        "details": "Returns `true` if `account` has been granted `role`."
      },
      "isApprovedForAll(address,address)": {
        "details": "See {IERC721-isApprovedForAll}."
      },
      "name()": {
        "details": "See {IERC721Metadata-name}."
      },
      "ownerOf(uint256)": {
        "details": "See {IERC721-ownerOf}."
      },
      "renounceRole(bytes32,address)": {
        "details": "Revokes `role` from the calling account. Roles are often managed via {grantRole} and {revokeRole}: this function's purpose is to provide a mechanism for accounts to lose their privileges if they are compromised (such as when a trusted device is misplaced). If the calling account had been granted `role`, emits a {RoleRevoked} event. Requirements: - the caller must be `account`."
      },
      "revokeRole(bytes32,address)": {
        "details": "Revokes `role` from `account`. If `account` had been granted `role`, emits a {RoleRevoked} event. Requirements: - the caller must have ``role``'s admin role."
      },
      "royaltyInfo(uint256,uint256)": {
        "details": "Called with the sale price to determine how much royalty is owed and to whom.",
        "params": {
          "salePrice": "- the sale price of the NFT asset specified by `tokenId`",
          "tokenId": "- the NFT asset queried for royalty information"
        },
        "returns": {
          "receiver": "- address of who should be sent the royalty payment",
          "royaltyAmount": "- the royalty payment amount for `salePrice`"
        }
      },
      "safeTransferFrom(address,address,uint256)": {
        "details": "See {IERC721-safeTransferFrom}."
      },
      "safeTransferFrom(address,address,uint256,bytes)": {
        "details": "See {IERC721-safeTransferFrom}."
      },
      "setApprovalForAll(address,bool)": {
        "details": "See {IERC721-setApprovalForAll}."
      },
      "symbol()": {
        "details": "See {IERC721Metadata-symbol}."
      },
      "tokenByIndex(uint256)": {
        "details": "See {IERC721Enumerable-tokenByIndex}."
      },
      "tokenOfOwnerByIndex(address,uint256)": {
        "details": "See {IERC721Enumerable-tokenOfOwnerByIndex}."
      },
      "tokenURI(uint256)": {
        "details": "See {IERC721Metadata-tokenURI}."
      },
      "totalSupply()": {
        "details": "See {IERC721Enumerable-totalSupply}."
      },
      "transferFrom(address,address,uint256)": {
        "details": "See {IERC721-transferFrom}."
      }
    },
    "version": 1
  },
  "userdoc": {
    "kind": "user",
    "methods": {},
    "version": 1
  },
  "storageLayout": {
    "storage": [
      {
        "astId": 2859,
        "contract": "contracts/TheDate.sol:TheDate",
        "label": "_name",
        "offset": 0,
        "slot": "0",
        "type": "t_string_storage"
      },
      {
        "astId": 2861,
        "contract": "contracts/TheDate.sol:TheDate",
        "label": "_symbol",
        "offset": 0,
        "slot": "1",
        "type": "t_string_storage"
      },
      {
        "astId": 2865,
        "contract": "contracts/TheDate.sol:TheDate",
        "label": "_owners",
        "offset": 0,
        "slot": "2",
        "type": "t_mapping(t_uint256,t_address)"
      },
      {
        "astId": 2869,
        "contract": "contracts/TheDate.sol:TheDate",
        "label": "_balances",
        "offset": 0,
        "slot": "3",
        "type": "t_mapping(t_address,t_uint256)"
      },
      {
        "astId": 2873,
        "contract": "contracts/TheDate.sol:TheDate",
        "label": "_tokenApprovals",
        "offset": 0,
        "slot": "4",
        "type": "t_mapping(t_uint256,t_address)"
      },
      {
        "astId": 2879,
        "contract": "contracts/TheDate.sol:TheDate",
        "label": "_operatorApprovals",
        "offset": 0,
        "slot": "5",
        "type": "t_mapping(t_address,t_mapping(t_address,t_bool))"
      },
      {
        "astId": 3798,
        "contract": "contracts/TheDate.sol:TheDate",
        "label": "_ownedTokens",
        "offset": 0,
        "slot": "6",
        "type": "t_mapping(t_address,t_mapping(t_uint256,t_uint256))"
      },
      {
        "astId": 3802,
        "contract": "contracts/TheDate.sol:TheDate",
        "label": "_ownedTokensIndex",
        "offset": 0,
        "slot": "7",
        "type": "t_mapping(t_uint256,t_uint256)"
      },
      {
        "astId": 3805,
        "contract": "contracts/TheDate.sol:TheDate",
        "label": "_allTokens",
        "offset": 0,
        "slot": "8",
        "type": "t_array(t_uint256)dyn_storage"
      },
      {
        "astId": 3809,
        "contract": "contracts/TheDate.sol:TheDate",
        "label": "_allTokensIndex",
        "offset": 0,
        "slot": "9",
        "type": "t_mapping(t_uint256,t_uint256)"
      },
      {
        "astId": 24,
        "contract": "contracts/TheDate.sol:TheDate",
        "label": "_roles",
        "offset": 0,
        "slot": "10",
        "type": "t_mapping(t_bytes32,t_struct(RoleData)19_storage)"
      },
      {
        "astId": 811,
        "contract": "contracts/TheDate.sol:TheDate",
        "label": "_status",
        "offset": 0,
        "slot": "11",
        "type": "t_uint256"
      },
      {
        "astId": 6826,
        "contract": "contracts/TheDate.sol:TheDate",
        "label": "claimingPrice",
        "offset": 0,
        "slot": "12",
        "type": "t_uint256"
      },
      {
        "astId": 6829,
        "contract": "contracts/TheDate.sol:TheDate",
        "label": "reservePrice",
        "offset": 0,
        "slot": "13",
        "type": "t_uint256"
      },
      {
        "astId": 6832,
        "contract": "contracts/TheDate.sol:TheDate",
        "label": "minBidIncrementBps",
        "offset": 0,
        "slot": "14",
        "type": "t_uint256"
      },
      {
        "astId": 6835,
        "contract": "contracts/TheDate.sol:TheDate",
        "label": "engravingPrice",
        "offset": 0,
        "slot": "15",
        "type": "t_uint256"
      },
      {
        "astId": 6838,
        "contract": "contracts/TheDate.sol:TheDate",
        "label": "erasingPrice",
        "offset": 0,
        "slot": "16",
        "type": "t_uint256"
      },
      {
        "astId": 6841,
        "contract": "contracts/TheDate.sol:TheDate",
        "label": "noteSizeLimit",
        "offset": 0,
        "slot": "17",
        "type": "t_uint256"
      },
      {
        "astId": 6844,
        "contract": "contracts/TheDate.sol:TheDate",
        "label": "royaltyBps",
        "offset": 0,
        "slot": "18",
        "type": "t_uint256"
      },
      {
        "astId": 6847,
        "contract": "contracts/TheDate.sol:TheDate",
        "label": "tokenDescription",
        "offset": 0,
        "slot": "19",
        "type": "t_string_storage"
      },
      {
        "astId": 6856,
        "contract": "contracts/TheDate.sol:TheDate",
        "label": "svgImageTemplate",
        "offset": 0,
        "slot": "20",
        "type": "t_array(t_string_storage)dyn_storage"
      },
      {
        "astId": 6932,
        "contract": "contracts/TheDate.sol:TheDate",
        "label": "_notes",
        "offset": 0,
        "slot": "21",
        "type": "t_mapping(t_uint256,t_string_storage)"
      },
      {
        "astId": 6936,
        "contract": "contracts/TheDate.sol:TheDate",
        "label": "_highestBidder",
        "offset": 0,
        "slot": "22",
        "type": "t_mapping(t_uint256,t_address)"
      },
      {
        "astId": 6940,
        "contract": "contracts/TheDate.sol:TheDate",
        "label": "_highestBid",
        "offset": 0,
        "slot": "23",
        "type": "t_mapping(t_uint256,t_uint256)"
      },
      {
        "astId": 6943,
        "contract": "contracts/TheDate.sol:TheDate",
        "label": "_lastUnchaimedAuctionedTokenId",
        "offset": 0,
        "slot": "24",
        "type": "t_uint256"
      }
    ],
    "types": {
      "t_address": {
        "encoding": "inplace",
        "label": "address",
        "numberOfBytes": "20"
      },
      "t_array(t_string_storage)dyn_storage": {
        "base": "t_string_storage",
        "encoding": "dynamic_array",
        "label": "string[]",
        "numberOfBytes": "32"
      },
      "t_array(t_uint256)dyn_storage": {
        "base": "t_uint256",
        "encoding": "dynamic_array",
        "label": "uint256[]",
        "numberOfBytes": "32"
      },
      "t_bool": {
        "encoding": "inplace",
        "label": "bool",
        "numberOfBytes": "1"
      },
      "t_bytes32": {
        "encoding": "inplace",
        "label": "bytes32",
        "numberOfBytes": "32"
      },
      "t_mapping(t_address,t_bool)": {
        "encoding": "mapping",
        "key": "t_address",
        "label": "mapping(address => bool)",
        "numberOfBytes": "32",
        "value": "t_bool"
      },
      "t_mapping(t_address,t_mapping(t_address,t_bool))": {
        "encoding": "mapping",
        "key": "t_address",
        "label": "mapping(address => mapping(address => bool))",
        "numberOfBytes": "32",
        "value": "t_mapping(t_address,t_bool)"
      },
      "t_mapping(t_address,t_mapping(t_uint256,t_uint256))": {
        "encoding": "mapping",
        "key": "t_address",
        "label": "mapping(address => mapping(uint256 => uint256))",
        "numberOfBytes": "32",
        "value": "t_mapping(t_uint256,t_uint256)"
      },
      "t_mapping(t_address,t_uint256)": {
        "encoding": "mapping",
        "key": "t_address",
        "label": "mapping(address => uint256)",
        "numberOfBytes": "32",
        "value": "t_uint256"
      },
      "t_mapping(t_bytes32,t_struct(RoleData)19_storage)": {
        "encoding": "mapping",
        "key": "t_bytes32",
        "label": "mapping(bytes32 => struct AccessControl.RoleData)",
        "numberOfBytes": "32",
        "value": "t_struct(RoleData)19_storage"
      },
      "t_mapping(t_uint256,t_address)": {
        "encoding": "mapping",
        "key": "t_uint256",
        "label": "mapping(uint256 => address)",
        "numberOfBytes": "32",
        "value": "t_address"
      },
      "t_mapping(t_uint256,t_string_storage)": {
        "encoding": "mapping",
        "key": "t_uint256",
        "label": "mapping(uint256 => string)",
        "numberOfBytes": "32",
        "value": "t_string_storage"
      },
      "t_mapping(t_uint256,t_uint256)": {
        "encoding": "mapping",
        "key": "t_uint256",
        "label": "mapping(uint256 => uint256)",
        "numberOfBytes": "32",
        "value": "t_uint256"
      },
      "t_string_storage": {
        "encoding": "bytes",
        "label": "string",
        "numberOfBytes": "32"
      },
      "t_struct(RoleData)19_storage": {
        "encoding": "inplace",
        "label": "struct AccessControl.RoleData",
        "members": [
          {
            "astId": 16,
            "contract": "contracts/TheDate.sol:TheDate",
            "label": "members",
            "offset": 0,
            "slot": "0",
            "type": "t_mapping(t_address,t_bool)"
          },
          {
            "astId": 18,
            "contract": "contracts/TheDate.sol:TheDate",
            "label": "adminRole",
            "offset": 0,
            "slot": "1",
            "type": "t_bytes32"
          }
        ],
        "numberOfBytes": "64"
      },
      "t_uint256": {
        "encoding": "inplace",
        "label": "uint256",
        "numberOfBytes": "32"
      }
    }
  }
}