{
  "address": "0xa3878d56f92E8C3391a62Fb756aD4C08E0d44874",
  "abi": [
    {
      "inputs": [
        {
          "internalType": "address payable",
          "name": "foundation_",
          "type": "address"
        }
      ],
      "stateMutability": "nonpayable",
      "type": "constructor"
    },
    {
      "anonymous": false,
      "inputs": [
        {
          "indexed": true,
          "internalType": "address",
          "name": "owner",
          "type": "address"
        },
        {
          "indexed": true,
          "internalType": "address",
          "name": "approved",
          "type": "address"
        },
        {
          "indexed": true,
          "internalType": "uint256",
          "name": "tokenId",
          "type": "uint256"
        }
      ],
      "name": "Approval",
      "type": "event"
    },
    {
      "anonymous": false,
      "inputs": [
        {
          "indexed": true,
          "internalType": "address",
          "name": "owner",
          "type": "address"
        },
        {
          "indexed": true,
          "internalType": "address",
          "name": "operator",
          "type": "address"
        },
        {
          "indexed": false,
          "internalType": "bool",
          "name": "approved",
          "type": "bool"
        }
      ],
      "name": "ApprovalForAll",
      "type": "event"
    },
    {
      "anonymous": false,
      "inputs": [
        {
          "indexed": true,
          "internalType": "uint256",
          "name": "tokenId",
          "type": "uint256"
        }
      ],
      "name": "ArtworkMinted",
      "type": "event"
    },
    {
      "anonymous": false,
      "inputs": [
        {
          "indexed": true,
          "internalType": "uint256",
          "name": "tokenId",
          "type": "uint256"
        },
        {
          "indexed": true,
          "internalType": "address",
          "name": "owner",
          "type": "address"
        },
        {
          "indexed": false,
          "internalType": "string",
          "name": "note",
          "type": "string"
        }
      ],
      "name": "ArtworkNoteEngraved",
      "type": "event"
    },
    {
      "anonymous": false,
      "inputs": [
        {
          "indexed": true,
          "internalType": "uint256",
          "name": "tokenId",
          "type": "uint256"
        },
        {
          "indexed": true,
          "internalType": "address",
          "name": "owner",
          "type": "address"
        }
      ],
      "name": "ArtworkNoteErased",
      "type": "event"
    },
    {
      "anonymous": false,
      "inputs": [
        {
          "indexed": true,
          "internalType": "uint256",
          "name": "tokenId",
          "type": "uint256"
        },
        {
          "indexed": true,
          "internalType": "address",
          "name": "winner",
          "type": "address"
        },
        {
          "indexed": false,
          "internalType": "uint256",
          "name": "amount",
          "type": "uint256"
        }
      ],
      "name": "AuctionEnded",
      "type": "event"
    },
    {
      "anonymous": false,
      "inputs": [
        {
          "indexed": true,
          "internalType": "uint256",
          "name": "tokenId",
          "type": "uint256"
        },
        {
          "indexed": true,
          "internalType": "address",
          "name": "bidder",
          "type": "address"
        },
        {
          "indexed": false,
          "internalType": "uint256",
          "name": "amount",
          "type": "uint256"
        }
      ],
      "name": "BidPlaced",
      "type": "event"
    },
    {
      "anonymous": false,
      "inputs": [
        {
          "indexed": true,
          "internalType": "address",
          "name": "bidder",
          "type": "address"
        },
        {
          "indexed": false,
          "internalType": "uint256",
          "name": "amount",
          "type": "uint256"
        }
      ],
      "name": "FundWithdrew",
      "type": "event"
    },
    {
      "anonymous": false,
      "inputs": [
        {
          "indexed": true,
          "internalType": "bytes32",
          "name": "role",
          "type": "bytes32"
        },
        {
          "indexed": true,
          "internalType": "bytes32",
          "name": "previousAdminRole",
          "type": "bytes32"
        },
        {
          "indexed": true,
          "internalType": "bytes32",
          "name": "newAdminRole",
          "type": "bytes32"
        }
      ],
      "name": "RoleAdminChanged",
      "type": "event"
    },
    {
      "anonymous": false,
      "inputs": [
        {
          "indexed": true,
          "internalType": "bytes32",
          "name": "role",
          "type": "bytes32"
        },
        {
          "indexed": true,
          "internalType": "address",
          "name": "account",
          "type": "address"
        },
        {
          "indexed": true,
          "internalType": "address",
          "name": "sender",
          "type": "address"
        }
      ],
      "name": "RoleGranted",
      "type": "event"
    },
    {
      "anonymous": false,
      "inputs": [
        {
          "indexed": true,
          "internalType": "bytes32",
          "name": "role",
          "type": "bytes32"
        },
        {
          "indexed": true,
          "internalType": "address",
          "name": "account",
          "type": "address"
        },
        {
          "indexed": true,
          "internalType": "address",
          "name": "sender",
          "type": "address"
        }
      ],
      "name": "RoleRevoked",
      "type": "event"
    },
    {
      "anonymous": false,
      "inputs": [
        {
          "indexed": true,
          "internalType": "address",
          "name": "from",
          "type": "address"
        },
        {
          "indexed": true,
          "internalType": "address",
          "name": "to",
          "type": "address"
        },
        {
          "indexed": true,
          "internalType": "uint256",
          "name": "tokenId",
          "type": "uint256"
        }
      ],
      "name": "Transfer",
      "type": "event"
    },
    {
      "stateMutability": "payable",
      "type": "fallback"
    },
    {
      "inputs": [],
      "name": "DEFAULT_ADMIN_ROLE",
      "outputs": [
        {
          "internalType": "bytes32",
          "name": "",
          "type": "bytes32"
        }
      ],
      "stateMutability": "view",
      "type": "function"
    },
    {
      "inputs": [
        {
          "internalType": "address",
          "name": "to",
          "type": "address"
        },
        {
          "internalType": "uint256",
          "name": "tokenId",
          "type": "uint256"
        }
      ],
      "name": "approve",
      "outputs": [],
      "stateMutability": "nonpayable",
      "type": "function"
    },
    {
      "inputs": [
        {
          "internalType": "uint256",
          "name": "",
          "type": "uint256"
        }
      ],
      "name": "artworks",
      "outputs": [
        {
          "internalType": "uint256",
          "name": "date",
          "type": "uint256"
        },
        {
          "internalType": "string",
          "name": "note",
          "type": "string"
        }
      ],
      "stateMutability": "view",
      "type": "function"
    },
    {
      "inputs": [
        {
          "internalType": "address",
          "name": "owner",
          "type": "address"
        }
      ],
      "name": "balanceOf",
      "outputs": [
        {
          "internalType": "uint256",
          "name": "",
          "type": "uint256"
        }
      ],
      "stateMutability": "view",
      "type": "function"
    },
    {
      "inputs": [
        {
          "internalType": "uint256",
          "name": "tokenId",
          "type": "uint256"
        }
      ],
      "name": "endAuction",
      "outputs": [],
      "stateMutability": "nonpayable",
      "type": "function"
    },
    {
      "inputs": [
        {
          "internalType": "uint256",
          "name": "tokenId",
          "type": "uint256"
        },
        {
          "internalType": "string",
          "name": "note",
          "type": "string"
        }
      ],
      "name": "engraveArtworkNote",
      "outputs": [],
      "stateMutability": "payable",
      "type": "function"
    },
    {
      "inputs": [
        {
          "internalType": "uint256",
          "name": "tokenId",
          "type": "uint256"
        }
      ],
      "name": "eraseArtworkNote",
      "outputs": [],
      "stateMutability": "payable",
      "type": "function"
    },
    {
      "inputs": [
        {
          "internalType": "uint256",
          "name": "tokenId",
          "type": "uint256"
        }
      ],
      "name": "getApproved",
      "outputs": [
        {
          "internalType": "address",
          "name": "",
          "type": "address"
        }
      ],
      "stateMutability": "view",
      "type": "function"
    },
    {
      "inputs": [],
      "name": "getAuctionMinBidIncrementPermyriad",
      "outputs": [
        {
          "internalType": "uint256",
          "name": "minBidIncrementPermyriad",
          "type": "uint256"
        }
      ],
      "stateMutability": "view",
      "type": "function"
    },
    {
      "inputs": [],
      "name": "getAuctionReservePrice",
      "outputs": [
        {
          "internalType": "uint256",
          "name": "reservePrice",
          "type": "uint256"
        }
      ],
      "stateMutability": "view",
      "type": "function"
    },
    {
      "inputs": [],
      "name": "getEngravingPrice",
      "outputs": [
        {
          "internalType": "uint256",
          "name": "",
          "type": "uint256"
        }
      ],
      "stateMutability": "view",
      "type": "function"
    },
    {
      "inputs": [],
      "name": "getErasingPrice",
      "outputs": [
        {
          "internalType": "uint256",
          "name": "",
          "type": "uint256"
        }
      ],
      "stateMutability": "view",
      "type": "function"
    },
    {
      "inputs": [
        {
          "internalType": "uint256",
          "name": "tokenId",
          "type": "uint256"
        }
      ],
      "name": "getHighestBid",
      "outputs": [
        {
          "internalType": "address",
          "name": "bidder",
          "type": "address"
        },
        {
          "internalType": "uint256",
          "name": "amount",
          "type": "uint256"
        }
      ],
      "stateMutability": "view",
      "type": "function"
    },
    {
      "inputs": [],
      "name": "getNoteSizeLimit",
      "outputs": [
        {
          "internalType": "uint256",
          "name": "",
          "type": "uint256"
        }
      ],
      "stateMutability": "view",
      "type": "function"
    },
    {
      "inputs": [
        {
          "internalType": "address",
          "name": "bidder",
          "type": "address"
        }
      ],
      "name": "getPendingReturns",
      "outputs": [
        {
          "internalType": "uint256",
          "name": "amount",
          "type": "uint256"
        }
      ],
      "stateMutability": "view",
      "type": "function"
    },
    {
      "inputs": [
        {
          "internalType": "bytes32",
          "name": "role",
          "type": "bytes32"
        }
      ],
      "name": "getRoleAdmin",
      "outputs": [
        {
          "internalType": "bytes32",
          "name": "",
          "type": "bytes32"
        }
      ],
      "stateMutability": "view",
      "type": "function"
    },
    {
      "inputs": [],
      "name": "getRoyaltyPermyriad",
      "outputs": [
        {
          "internalType": "uint256",
          "name": "royaltyPermyriad",
          "type": "uint256"
        }
      ],
      "stateMutability": "view",
      "type": "function"
    },
    {
      "inputs": [
        {
          "internalType": "bytes32",
          "name": "role",
          "type": "bytes32"
        },
        {
          "internalType": "address",
          "name": "account",
          "type": "address"
        }
      ],
      "name": "grantRole",
      "outputs": [],
      "stateMutability": "nonpayable",
      "type": "function"
    },
    {
      "inputs": [
        {
          "internalType": "bytes32",
          "name": "role",
          "type": "bytes32"
        },
        {
          "internalType": "address",
          "name": "account",
          "type": "address"
        }
      ],
      "name": "hasRole",
      "outputs": [
        {
          "internalType": "bool",
          "name": "",
          "type": "bool"
        }
      ],
      "stateMutability": "view",
      "type": "function"
    },
    {
      "inputs": [
        {
          "internalType": "address",
          "name": "owner",
          "type": "address"
        },
        {
          "internalType": "address",
          "name": "operator",
          "type": "address"
        }
      ],
      "name": "isApprovedForAll",
      "outputs": [
        {
          "internalType": "bool",
          "name": "",
          "type": "bool"
        }
      ],
      "stateMutability": "view",
      "type": "function"
    },
    {
      "inputs": [],
      "name": "name",
      "outputs": [
        {
          "internalType": "string",
          "name": "",
          "type": "string"
        }
      ],
      "stateMutability": "view",
      "type": "function"
    },
    {
      "inputs": [
        {
          "internalType": "address",
          "name": "",
          "type": "address"
        },
        {
          "internalType": "address",
          "name": "",
          "type": "address"
        },
        {
          "internalType": "uint256",
          "name": "",
          "type": "uint256"
        },
        {
          "internalType": "bytes",
          "name": "",
          "type": "bytes"
        }
      ],
      "name": "onERC721Received",
      "outputs": [
        {
          "internalType": "bytes4",
          "name": "",
          "type": "bytes4"
        }
      ],
      "stateMutability": "nonpayable",
      "type": "function"
    },
    {
      "inputs": [
        {
          "internalType": "uint256",
          "name": "tokenId",
          "type": "uint256"
        }
      ],
      "name": "ownerOf",
      "outputs": [
        {
          "internalType": "address",
          "name": "",
          "type": "address"
        }
      ],
      "stateMutability": "view",
      "type": "function"
    },
    {
      "inputs": [
        {
          "internalType": "uint256",
          "name": "tokenId",
          "type": "uint256"
        }
      ],
      "name": "placeBid",
      "outputs": [],
      "stateMutability": "payable",
      "type": "function"
    },
    {
      "inputs": [
        {
          "internalType": "bytes32",
          "name": "role",
          "type": "bytes32"
        },
        {
          "internalType": "address",
          "name": "account",
          "type": "address"
        }
      ],
      "name": "renounceRole",
      "outputs": [],
      "stateMutability": "nonpayable",
      "type": "function"
    },
    {
      "inputs": [
        {
          "internalType": "bytes32",
          "name": "role",
          "type": "bytes32"
        },
        {
          "internalType": "address",
          "name": "account",
          "type": "address"
        }
      ],
      "name": "revokeRole",
      "outputs": [],
      "stateMutability": "nonpayable",
      "type": "function"
    },
    {
      "inputs": [
        {
          "internalType": "uint256",
          "name": "tokenId",
          "type": "uint256"
        },
        {
          "internalType": "uint256",
          "name": "salePrice",
          "type": "uint256"
        }
      ],
      "name": "royaltyInfo",
      "outputs": [
        {
          "internalType": "address",
          "name": "receiver",
          "type": "address"
        },
        {
          "internalType": "uint256",
          "name": "royaltyAmount",
          "type": "uint256"
        }
      ],
      "stateMutability": "view",
      "type": "function"
    },
    {
      "inputs": [
        {
          "internalType": "address",
          "name": "from",
          "type": "address"
        },
        {
          "internalType": "address",
          "name": "to",
          "type": "address"
        },
        {
          "internalType": "uint256",
          "name": "tokenId",
          "type": "uint256"
        }
      ],
      "name": "safeTransferFrom",
      "outputs": [],
      "stateMutability": "nonpayable",
      "type": "function"
    },
    {
      "inputs": [
        {
          "internalType": "address",
          "name": "from",
          "type": "address"
        },
        {
          "internalType": "address",
          "name": "to",
          "type": "address"
        },
        {
          "internalType": "uint256",
          "name": "tokenId",
          "type": "uint256"
        },
        {
          "internalType": "bytes",
          "name": "_data",
          "type": "bytes"
        }
      ],
      "name": "safeTransferFrom",
      "outputs": [],
      "stateMutability": "nonpayable",
      "type": "function"
    },
    {
      "inputs": [
        {
          "internalType": "address",
          "name": "operator",
          "type": "address"
        },
        {
          "internalType": "bool",
          "name": "approved",
          "type": "bool"
        }
      ],
      "name": "setApprovalForAll",
      "outputs": [],
      "stateMutability": "nonpayable",
      "type": "function"
    },
    {
      "inputs": [
        {
          "internalType": "uint256",
          "name": "minBidIncrementPermyriad",
          "type": "uint256"
        }
      ],
      "name": "setAuctionMinBidIncrementPermyriad",
      "outputs": [],
      "stateMutability": "nonpayable",
      "type": "function"
    },
    {
      "inputs": [
        {
          "internalType": "uint256",
          "name": "reservePrice",
          "type": "uint256"
        }
      ],
      "name": "setAuctionReservePrice",
      "outputs": [],
      "stateMutability": "nonpayable",
      "type": "function"
    },
    {
      "inputs": [
        {
          "internalType": "string",
          "name": "baseTokenURI",
          "type": "string"
        }
      ],
      "name": "setBaseURI",
      "outputs": [],
      "stateMutability": "nonpayable",
      "type": "function"
    },
    {
      "inputs": [
        {
          "internalType": "uint256",
          "name": "engravingPrice",
          "type": "uint256"
        }
      ],
      "name": "setEngravingPrice",
      "outputs": [],
      "stateMutability": "nonpayable",
      "type": "function"
    },
    {
      "inputs": [
        {
          "internalType": "uint256",
          "name": "erasingPrice",
          "type": "uint256"
        }
      ],
      "name": "setErasingPrice",
      "outputs": [],
      "stateMutability": "nonpayable",
      "type": "function"
    },
    {
      "inputs": [
        {
          "internalType": "uint256",
          "name": "noteSizeLimit",
          "type": "uint256"
        }
      ],
      "name": "setNoteSizeLimit",
      "outputs": [],
      "stateMutability": "nonpayable",
      "type": "function"
    },
    {
      "inputs": [
        {
          "internalType": "uint256",
          "name": "royaltyPermyriad",
          "type": "uint256"
        }
      ],
      "name": "setRoyaltyPermyriad",
      "outputs": [],
      "stateMutability": "nonpayable",
      "type": "function"
    },
    {
      "inputs": [
        {
          "internalType": "bytes4",
          "name": "interfaceId",
          "type": "bytes4"
        }
      ],
      "name": "supportsInterface",
      "outputs": [
        {
          "internalType": "bool",
          "name": "",
          "type": "bool"
        }
      ],
      "stateMutability": "view",
      "type": "function"
    },
    {
      "inputs": [],
      "name": "symbol",
      "outputs": [
        {
          "internalType": "string",
          "name": "",
          "type": "string"
        }
      ],
      "stateMutability": "view",
      "type": "function"
    },
    {
      "inputs": [
        {
          "internalType": "uint256",
          "name": "index",
          "type": "uint256"
        }
      ],
      "name": "tokenByIndex",
      "outputs": [
        {
          "internalType": "uint256",
          "name": "",
          "type": "uint256"
        }
      ],
      "stateMutability": "view",
      "type": "function"
    },
    {
      "inputs": [
        {
          "internalType": "address",
          "name": "owner",
          "type": "address"
        },
        {
          "internalType": "uint256",
          "name": "index",
          "type": "uint256"
        }
      ],
      "name": "tokenOfOwnerByIndex",
      "outputs": [
        {
          "internalType": "uint256",
          "name": "",
          "type": "uint256"
        }
      ],
      "stateMutability": "view",
      "type": "function"
    },
    {
      "inputs": [
        {
          "internalType": "uint256",
          "name": "tokenId",
          "type": "uint256"
        }
      ],
      "name": "tokenURI",
      "outputs": [
        {
          "internalType": "string",
          "name": "",
          "type": "string"
        }
      ],
      "stateMutability": "view",
      "type": "function"
    },
    {
      "inputs": [],
      "name": "totalSupply",
      "outputs": [
        {
          "internalType": "uint256",
          "name": "",
          "type": "uint256"
        }
      ],
      "stateMutability": "view",
      "type": "function"
    },
    {
      "inputs": [
        {
          "internalType": "address",
          "name": "from",
          "type": "address"
        },
        {
          "internalType": "address",
          "name": "to",
          "type": "address"
        },
        {
          "internalType": "uint256",
          "name": "tokenId",
          "type": "uint256"
        }
      ],
      "name": "transferFrom",
      "outputs": [],
      "stateMutability": "nonpayable",
      "type": "function"
    },
    {
      "inputs": [],
      "name": "withdrawFund",
      "outputs": [],
      "stateMutability": "nonpayable",
      "type": "function"
    },
    {
      "stateMutability": "payable",
      "type": "receive"
    }
  ],
  "transactionHash": "0xa3c5c7c55873f19a441f238c7a188ad94b8b0e20b6ad1030d571f512798f70a2",
  "args": [
    "0xD0225bA44169EDA912D7d19d7b95b2548e9b489a"
  ],
  "solcInputHash": "da45d3b4ab76d9fb09b309d703e8059a",
  "bytecode": "0x60806040526000601355670de0b6b3a764000060145560646015553480156200002757600080fd5b50604051620035d2380380620035d28339810160408190526200004a91620002c5565b662386f26fc100006103e88083604051806040016040528060078152602001665468654461746560c81b815250604051806040016040528060048152602001634441544560e01b8152508160009080519060200190620000ac9291906200021f565b508051620000c29060019060208401906200021f565b50506001600b5550600c80546001600160a01b0319166001600160a01b0392909216919091179055600d556012919091556011556200010360008262000156565b6200011060003362000156565b60408051808201909152601e81527f68747470733a2f2f746865646174652e6172742f6170692f746f6b656e2f000060208201526200014f9062000166565b5062000332565b6200016282826200017b565b5050565b8051620001629060169060208401906200021f565b6000828152600a602090815260408083206001600160a01b038516845290915290205460ff1662000162576000828152600a602090815260408083206001600160a01b03851684529091529020805460ff19166001179055620001db3390565b6001600160a01b0316816001600160a01b0316837f2f8788117e7eff1d82e926ec794901d17c78024a50270940304540a733656f0d60405160405180910390a45050565b8280546200022d90620002f5565b90600052602060002090601f0160209004810192826200025157600085556200029c565b82601f106200026c57805160ff19168380011785556200029c565b828001600101855582156200029c579182015b828111156200029c5782518255916020019190600101906200027f565b50620002aa929150620002ae565b5090565b5b80821115620002aa5760008155600101620002af565b600060208284031215620002d7578081fd5b81516001600160a01b0381168114620002ee578182fd5b9392505050565b600181811c908216806200030a57607f821691505b602082108114156200032c57634e487b7160e01b600052602260045260246000fd5b50919050565b61329080620003426000396000f3fe60806040526004361061025e5760003560e01c806367ad0e1c11610143578063a217fddf116100bb578063c87b56dd11610077578063c87b56dd14610791578063d547741f146107b1578063de0ba020146107d1578063e07fa3c1146107f1578063e51cca0714610806578063e985e9c51461081b57005b8063a217fddf146106f2578063a22cb46514610707578063b88d4fde14610727578063b9a2de3a14610747578063bc483f6c14610767578063c7a9c8711461077c57005b80638f2886441161010a5780638f2886441461062657806391d148541461066a57806395d89b411461068a5780639979ef451461069f5780639daec71e146106b25780639dc3d812146106d257005b806367ad0e1c1461058857806370a082311461059d5780637a461219146105bd5780637a9ae240146105d057806383ffda3b146105f057005b80632f745c59116101d65780634b6026731161019d5780634b602673146104c75780634f6ccce7146104f557806355f804b314610515578063598acd26146105355780636216f8f2146105555780636352211e1461056857005b80632f745c5914610432578063353d7b101461045257806336568abe1461046757806341c2673c1461048757806342842e0e146104a757005b806318160ddd1161022557806318160ddd1461034f578063202fb8af1461036e57806323b872dd14610383578063248a9ca3146103a35780632a55205a146103d35780632f2ff15d1461041257005b806301ffc9a71461026757806306fdde031461029c578063081812fc146102be578063095ea7b3146102f6578063150b7a021461031657005b3661026557005b005b34801561027357600080fd5b50610287610282366004612dc8565b61083b565b60405190151581526020015b60405180910390f35b3480156102a857600080fd5b506102b161086a565b6040516102939190612fa0565b3480156102ca57600080fd5b506102de6102d9366004612d8e565b6108fc565b6040516001600160a01b039091168152602001610293565b34801561030257600080fd5b50610265610311366004612d65565b610989565b34801561032257600080fd5b50610336610331366004612cb2565b610a9a565b6040516001600160e01b03199091168152602001610293565b34801561035b57600080fd5b506008545b604051908152602001610293565b34801561037a57600080fd5b50601254610360565b34801561038f57600080fd5b5061026561039e366004612c77565b610aab565b3480156103af57600080fd5b506103606103be366004612d8e565b6000908152600a602052604090206001015490565b3480156103df57600080fd5b506103f36103ee366004612e78565b610adc565b604080516001600160a01b039093168352602083019190915201610293565b34801561041e57600080fd5b5061026561042d366004612da6565b610b17565b34801561043e57600080fd5b5061036061044d366004612d65565b610b3d565b34801561045e57600080fd5b50601354610360565b34801561047357600080fd5b50610265610482366004612da6565b610bd3565b34801561049357600080fd5b506102656104a2366004612d8e565b610c51565b3480156104b357600080fd5b506102656104c2366004612c77565b610cd5565b3480156104d357600080fd5b506104e76104e2366004612d8e565b610cf0565b6040516102939291906130d7565b34801561050157600080fd5b50610360610510366004612d8e565b610d95565b34801561052157600080fd5b50610265610530366004612e00565b610e36565b34801561054157600080fd5b50610265610550366004612d8e565b610e49565b610265610563366004612e33565b610e5b565b34801561057457600080fd5b506102de610583366004612d8e565b611033565b34801561059457600080fd5b50601454610360565b3480156105a957600080fd5b506103606105b8366004612c2b565b61103e565b6102656105cb366004612d8e565b6110c5565b3480156105dc57600080fd5b506102656105eb366004612d8e565b611234565b3480156105fc57600080fd5b5061036061060b366004612c2b565b6001600160a01b031660009081526010602052604090205490565b34801561063257600080fd5b506103f3610641366004612d8e565b6000908152600e6020908152604080832054600f909252909120546001600160a01b0390911691565b34801561067657600080fd5b50610287610685366004612da6565b611246565b34801561069657600080fd5b506102b1611271565b6102656106ad366004612d8e565b611280565b3480156106be57600080fd5b506102656106cd366004612d8e565b611593565b3480156106de57600080fd5b506102656106ed366004612d8e565b6115a5565b3480156106fe57600080fd5b50610360600081565b34801561071357600080fd5b50610265610722366004612d2b565b6115b7565b34801561073357600080fd5b50610265610742366004612cb2565b611678565b34801561075357600080fd5b50610265610762366004612d8e565b6116b0565b34801561077357600080fd5b50600d54610360565b34801561078857600080fd5b50601554610360565b34801561079d57600080fd5b506102b16107ac366004612d8e565b611956565b3480156107bd57600080fd5b506102656107cc366004612da6565b611a21565b3480156107dd57600080fd5b506102656107ec366004612d8e565b611a47565b3480156107fd57600080fd5b50610265611a59565b34801561081257600080fd5b50601154610360565b34801561082757600080fd5b50610287610836366004612c45565b611b4f565b600061084682611b7d565b80610855575061085582611ba2565b80610864575061086482611bc3565b92915050565b60606000805461087990613195565b80601f01602080910402602001604051908101604052809291908181526020018280546108a590613195565b80156108f25780601f106108c7576101008083540402835291602001916108f2565b820191906000526020600020905b8154815290600101906020018083116108d557829003601f168201915b5050505050905090565b600061090782611be8565b61096d5760405162461bcd60e51b815260206004820152602c60248201527f4552433732313a20617070726f76656420717565727920666f72206e6f6e657860448201526b34b9ba32b73a103a37b5b2b760a11b60648201526084015b60405180910390fd5b506000908152600460205260409020546001600160a01b031690565b600061099482611c05565b9050806001600160a01b0316836001600160a01b03161415610a025760405162461bcd60e51b815260206004820152602160248201527f4552433732313a20617070726f76616c20746f2063757272656e74206f776e656044820152603960f91b6064820152608401610964565b336001600160a01b0382161480610a1e5750610a1e8133611b4f565b610a8b5760405162461bcd60e51b815260206004820152603860248201527f4552433732313a20617070726f76652063616c6c6572206973206e6f74206f776044820152771b995c881b9bdc88185c1c1c9bdd995908199bdc88185b1b60421b6064820152608401610964565b610a958383611c7c565b505050565b630a85bd0160e11b5b949350505050565b610ab53382611cea565b610ad15760405162461bcd60e51b81526004016109649061304f565b610a95838383611dac565b600080610af1600c546001600160a01b031690565b612710600d5485610b02919061311c565b610b0c9190613108565b915091509250929050565b6000828152600a6020526040902060010154610b338133611db7565b610a958383611e1b565b6000610b488361103e565b8210610baa5760405162461bcd60e51b815260206004820152602b60248201527f455243373231456e756d657261626c653a206f776e657220696e646578206f7560448201526a74206f6620626f756e647360a81b6064820152608401610964565b506001600160a01b03919091166000908152600660209081526040808320938352929052205490565b6001600160a01b0381163314610c435760405162461bcd60e51b815260206004820152602f60248201527f416363657373436f6e74726f6c3a2063616e206f6e6c792072656e6f756e636560448201526e103937b632b9903337b91039b2b63360891b6064820152608401610964565b610c4d8282611ea1565b5050565b6000610c5d8133611db7565b6127108211158015610c6d575060015b610ccf5760405162461bcd60e51b815260206004820152602d60248201527f726f79616c74795065726d79726961642073686f756c6420626520776974686960448201526c37102d98161018981818182e9760991b6064820152608401610964565b50600d55565b610a9583838360405180602001604052806000815250611678565b60176020526000908152604090208054600182018054919291610d1290613195565b80601f0160208091040260200160405190810160405280929190818152602001828054610d3e90613195565b8015610d8b5780601f10610d6057610100808354040283529160200191610d8b565b820191906000526020600020905b815481529060010190602001808311610d6e57829003601f168201915b5050505050905082565b6000610da060085490565b8210610e035760405162461bcd60e51b815260206004820152602c60248201527f455243373231456e756d657261626c653a20676c6f62616c20696e646578206f60448201526b7574206f6620626f756e647360a01b6064820152608401610964565b60088281548110610e2457634e487b7160e01b600052603260045260246000fd5b90600052602060002001549050919050565b8051610c4d906016906020840190612ae1565b6000610e558133611db7565b50601355565b8133610e6682611033565b6001600160a01b031614610e8c5760405162461bcd60e51b815260040161096490613005565b81601554815110610ef25760405162461bcd60e51b815260206004820152602a60248201527f4e6f74652073686f756c642062652073686f72746572207468616e206e6f746560448201526929b4bd32a634b6b4ba1760b11b6064820152608401610964565b601354341015610f445760405162461bcd60e51b815260206004820152601c60248201527f53686f756c6420706179203e3d20656e67726176696e675072696365000000006044820152606401610964565b60008481526017602052604090206001018054610f6090613195565b159050610fbd5760405162461bcd60e51b815260206004820152602560248201527f4e6f74652073686f756c6420626520656d707479206265666f726520656e67726044820152646176696e6760d81b6064820152608401610964565b60008481526017602090815260409091208451610fe292600190920191860190612ae1565b50610fec84611033565b6001600160a01b0316847fb6abeec0166d668b4adf2ca7f1b5b105e3009b22f7fc01bde9728c0bf924b15b856040516110259190612fa0565b60405180910390a350505050565b600061086482611c05565b60006001600160a01b0382166110a95760405162461bcd60e51b815260206004820152602a60248201527f4552433732313a2062616c616e636520717565727920666f7220746865207a65604482015269726f206164647265737360b01b6064820152608401610964565b506001600160a01b031660009081526003602052604090205490565b80336110d082611033565b6001600160a01b0316146110f65760405162461bcd60e51b815260040161096490613005565b6014543410156111485760405162461bcd60e51b815260206004820152601a60248201527f53686f756c6420706179203e3d2065726173696e6750726963650000000000006044820152606401610964565b6000828152601760205260408120600101805461116490613195565b9050116111c25760405162461bcd60e51b815260206004820152602660248201527f4e6f74652073686f756c64206265206e6f6e656d707479206265666f72652065604482015265726173696e6760d01b6064820152608401610964565b6040805160208082018084526000808452868152601790925292902090516111f09260019092019190612ae1565b506111fa82611033565b6001600160a01b0316827f93aa5a2948969ccaca3d1577b169ef79df08741c096a72ab7e4e4ecc03d428e360405160405180910390a35050565b60006112408133611db7565b50601555565b6000918252600a602090815260408084206001600160a01b0393909316845291905290205460ff1690565b60606001805461087990613195565b6002600b5414156112a35760405162461bcd60e51b8152600401610964906130a0565b6002600b556112b56201518042613108565b8111156112fe5760405162461bcd60e51b815260206004820152601760248201527620bab1ba34b7b71034b9903737ba1039ba30b93a32b21760491b6044820152606401610964565b61130b6201518042613108565b81101561134e5760405162461bcd60e51b815260206004820152601160248201527020bab1ba34b7b71034b99032b73232b21760791b6044820152606401610964565b60125434908110156113ac5760405162461bcd60e51b815260206004820152602160248201527f4d7573742073656e64206d6f7265207468616e207265736572766550726963656044820152601760f91b6064820152608401610964565b6000828152600f602052604090205481116114155760405162461bcd60e51b8152602060048201526024808201527f4d7573742073656e64206d6f7265207468616e207468652068696768657374206044820152633134b21760e11b6064820152608401610964565b61271060115461271061142891906130f0565b6000848152600f6020526040902054611441919061311c565b61144b9190613108565b8110156114bc5760405162461bcd60e51b815260206004820152603960248201527f4d7573742073656e64206f76657220746865206c61737420626964206279206d60448201527834b72134b224b731b932b6b2b73a103832b936bcb934b0b21760391b6064820152608401610964565b6000828152600e60205260409020546001600160a01b03166114e7576114e23083611f08565b61152a565b6000828152600f6020908152604080832054600e8352818420546001600160a01b03168452601090925282208054919290916115249084906130f0565b90915550505b6000828152600e6020908152604080832080546001600160a01b03191633908117909155600f8352928190208490555183815284917f0e54eff26401bf69b81b26f60bd85ef47f5d85275c1d268d84f68d6897431c47910160405180910390a350506001600b55565b600061159f8133611db7565b50601255565b60006115b18133611db7565b50601455565b6001600160a01b03821633141561160c5760405162461bcd60e51b815260206004820152601960248201527822a9219b99189d1030b8383937bb32903a379031b0b63632b960391b6044820152606401610964565b3360008181526005602090815260408083206001600160a01b03871680855290835292819020805460ff191686151590811790915590519081529192917f17307eab39ab6107e8899845ad3d59bd9653f200f220920489ca2b5937696c31910160405180910390a35050565b6116823383611cea565b61169e5760405162461bcd60e51b81526004016109649061304f565b6116aa84848484611f7c565b50505050565b6002600b5414156116d35760405162461bcd60e51b8152600401610964906130a0565b6002600b55806116e66201518042613108565b1161172c5760405162461bcd60e51b815260206004820152601660248201527520bab1ba34b7b7103737ba103cb2ba1032b73232b21760511b6044820152606401610964565b6000818152600e60205260409020546001600160a01b03161580159061175f57506000818152600f602052604090205415155b6117c05760405162461bcd60e51b815260206004820152602c60248201527f54686572652073686f756c64206265206174206c65617374206120626964206660448201526b37b9103a3432903230ba329760a11b6064820152608401610964565b306117ca82611033565b6001600160a01b0316146118205760405162461bcd60e51b815260206004820152601f60248201527f53686f756c64206e6f74207265636c61696d207468652061756374696f6e2e006044820152606401610964565b6000818152600e60205260409020546001600160a01b031633148061184b575061184b600033611246565b6118a85760405162461bcd60e51b815260206004820152602860248201527f4f6e6c792077696e6e6572206f722061646d696e2063616e20636c61696d207460448201526734329034ba32b69760c11b6064820152608401610964565b6118d16118bd600c546001600160a01b031690565b6000838152600f6020526040902054611faf565b6000818152600e60205260409020546118f59030906001600160a01b031683611dac565b6000818152600e6020908152604080832054600f8352928190205490519081526001600160a01b039092169183917fd2aa34a4fdbbc6dff6a3e56f46e0f3ae2a31d7785ff3487aa5c95c642acea501910160405180910390a3506001600b55565b606061196182611be8565b6119c55760405162461bcd60e51b815260206004820152602f60248201527f4552433732314d657461646174613a2055524920717565727920666f72206e6f60448201526e3732bc34b9ba32b73a103a37b5b2b760891b6064820152608401610964565b60006119cf6120c8565b905060008151116119ef5760405180602001604052806000815250611a1a565b806119f9846120d7565b604051602001611a0a929190612ec5565b6040516020818303038152906040525b9392505050565b6000828152600a6020526040902060010154611a3d8133611db7565b610a958383611ea1565b6000611a538133611db7565b50601155565b6002600b541415611a7c5760405162461bcd60e51b8152600401610964906130a0565b6002600b5533600090815260106020526040902054611ad35760405162461bcd60e51b81526020600482015260136024820152722737903832b73234b733903932ba3ab937399760691b6044820152606401610964565b3360008181526010602052604090205490611aee9082611faf565b3360009081526010602052604081208054839290611b0d90849061313b565b909155505060405181815233907fa5e06c0c537f7a80323b3ffc4c94a001c98b8fc51dfceba143694bf0469adb779060200160405180910390a2506001600b55565b6001600160a01b03918216600090815260056020908152604080832093909416825291909152205460ff1690565b60006001600160e01b0319821663780e9d6360e01b14806108645750610864826121f1565b600063152a902d60e11b6001600160e01b0319831614806108645750610864825b60006001600160e01b03198216637965db0b60e01b1480610864575061086482611b7d565b6000908152600260205260409020546001600160a01b0316151590565b6000818152600260205260408120546001600160a01b0316806108645760405162461bcd60e51b815260206004820152602960248201527f4552433732313a206f776e657220717565727920666f72206e6f6e657869737460448201526832b73a103a37b5b2b760b91b6064820152608401610964565b600081815260046020526040902080546001600160a01b0319166001600160a01b0384169081179091558190611cb182611c05565b6001600160a01b03167f8c5be1e5ebec7d5bd14f71427d1e84f3dd0314c0f7b2291e5b200ac8c7c3b92560405160405180910390a45050565b6000611cf582611be8565b611d565760405162461bcd60e51b815260206004820152602c60248201527f4552433732313a206f70657261746f7220717565727920666f72206e6f6e657860448201526b34b9ba32b73a103a37b5b2b760a11b6064820152608401610964565b6000611d6183611c05565b9050806001600160a01b0316846001600160a01b03161480611d9c5750836001600160a01b0316611d91846108fc565b6001600160a01b0316145b80610aa35750610aa38185611b4f565b610a95838383612241565b611dc18282611246565b610c4d57611dd9816001600160a01b031660146123ec565b611de48360206123ec565b604051602001611df5929190612ef4565b60408051601f198184030181529082905262461bcd60e51b825261096491600401612fa0565b611e258282611246565b610c4d576000828152600a602090815260408083206001600160a01b03851684529091529020805460ff19166001179055611e5d3390565b6001600160a01b0316816001600160a01b0316837f2f8788117e7eff1d82e926ec794901d17c78024a50270940304540a733656f0d60405160405180910390a45050565b611eab8282611246565b15610c4d576000828152600a602090815260408083206001600160a01b0385168085529252808320805460ff1916905551339285917ff6391f5c32d9c69d2a47ea670b442974b53935d1edc7fd64eb21e047a839171b9190a45050565b611f1282826125ce565b600081815260176020818152604080842085815581518084019283905285815294869052929091529151611f4c9260019092019190612ae1565b5060405181907fa7cff2fe4ba71de839a94bc4b44a410ef51866620f1de09209ec3fc4fdf3926890600090a25050565b611f87848484611dac565b611f93848484846125e8565b6116aa5760405162461bcd60e51b815260040161096490612fb3565b80471015611fff5760405162461bcd60e51b815260206004820152601d60248201527f416464726573733a20696e73756666696369656e742062616c616e63650000006044820152606401610964565b6000826001600160a01b03168260405160006040518083038185875af1925050503d806000811461204c576040519150601f19603f3d011682016040523d82523d6000602084013e612051565b606091505b5050905080610a955760405162461bcd60e51b815260206004820152603a60248201527f416464726573733a20756e61626c6520746f2073656e642076616c75652c207260448201527f6563697069656e74206d617920686176652072657665727465640000000000006064820152608401610964565b60606016805461087990613195565b6060816120fb5750506040805180820190915260018152600360fc1b602082015290565b8160005b8115612125578061210f816131d0565b915061211e9050600a83613108565b91506120ff565b60008167ffffffffffffffff81111561214e57634e487b7160e01b600052604160045260246000fd5b6040519080825280601f01601f191660200182016040528015612178576020820181803683370190505b5090505b8415610aa35761218d60018361313b565b915061219a600a866131eb565b6121a59060306130f0565b60f81b8183815181106121c857634e487b7160e01b600052603260045260246000fd5b60200101906001600160f81b031916908160001a9053506121ea600a86613108565b945061217c565b60006001600160e01b031982166380ac58cd60e01b148061222257506001600160e01b03198216635b5e139f60e01b145b8061086457506301ffc9a760e01b6001600160e01b0319831614610864565b826001600160a01b031661225482611c05565b6001600160a01b0316146122bc5760405162461bcd60e51b815260206004820152602960248201527f4552433732313a207472616e73666572206f6620746f6b656e2074686174206960448201526839903737ba1037bbb760b91b6064820152608401610964565b6001600160a01b03821661231e5760405162461bcd60e51b8152602060048201526024808201527f4552433732313a207472616e7366657220746f20746865207a65726f206164646044820152637265737360e01b6064820152608401610964565b6123298383836126f2565b612334600082611c7c565b6001600160a01b038316600090815260036020526040812080546001929061235d90849061313b565b90915550506001600160a01b038216600090815260036020526040812080546001929061238b9084906130f0565b909155505060008181526002602052604080822080546001600160a01b0319166001600160a01b0386811691821790925591518493918716917fddf252ad1be2c89b69c2b068fc378daa952ba7f163c4a11628f55a4df523b3ef91a4505050565b606060006123fb83600261311c565b6124069060026130f0565b67ffffffffffffffff81111561242c57634e487b7160e01b600052604160045260246000fd5b6040519080825280601f01601f191660200182016040528015612456576020820181803683370190505b509050600360fc1b8160008151811061247f57634e487b7160e01b600052603260045260246000fd5b60200101906001600160f81b031916908160001a905350600f60fb1b816001815181106124bc57634e487b7160e01b600052603260045260246000fd5b60200101906001600160f81b031916908160001a90535060006124e084600261311c565b6124eb9060016130f0565b90505b600181111561257f576f181899199a1a9b1b9c1cb0b131b232b360811b85600f166010811061252d57634e487b7160e01b600052603260045260246000fd5b1a60f81b82828151811061255157634e487b7160e01b600052603260045260246000fd5b60200101906001600160f81b031916908160001a90535060049490941c936125788161317e565b90506124ee565b508315611a1a5760405162461bcd60e51b815260206004820181905260248201527f537472696e67733a20686578206c656e67746820696e73756666696369656e746044820152606401610964565b610c4d8282604051806020016040528060008152506126fd565b60006001600160a01b0384163b156126ea57604051630a85bd0160e11b81526001600160a01b0385169063150b7a029061262c903390899088908890600401612f63565b602060405180830381600087803b15801561264657600080fd5b505af1925050508015612676575060408051601f3d908101601f1916820190925261267391810190612de4565b60015b6126d0573d8080156126a4576040519150601f19603f3d011682016040523d82523d6000602084013e6126a9565b606091505b5080516126c85760405162461bcd60e51b815260040161096490612fb3565b805181602001fd5b6001600160e01b031916630a85bd0160e11b149050610aa3565b506001610aa3565b610a95838383612730565b61270783836127e8565b61271460008484846125e8565b610a955760405162461bcd60e51b815260040161096490612fb3565b6001600160a01b03831661278b5761278681600880546000838152600960205260408120829055600182018355919091527ff3f7a9fe364faab93b216da50a3214154f22a0a2b415b23a84c8169e8b636ee30155565b6127ae565b816001600160a01b0316836001600160a01b0316146127ae576127ae8382612927565b6001600160a01b0382166127c557610a95816129c4565b826001600160a01b0316826001600160a01b031614610a9557610a958282612a9d565b6001600160a01b03821661283e5760405162461bcd60e51b815260206004820181905260248201527f4552433732313a206d696e7420746f20746865207a65726f20616464726573736044820152606401610964565b61284781611be8565b156128945760405162461bcd60e51b815260206004820152601c60248201527f4552433732313a20746f6b656e20616c7265616479206d696e746564000000006044820152606401610964565b6128a0600083836126f2565b6001600160a01b03821660009081526003602052604081208054600192906128c99084906130f0565b909155505060008181526002602052604080822080546001600160a01b0319166001600160a01b03861690811790915590518392907fddf252ad1be2c89b69c2b068fc378daa952ba7f163c4a11628f55a4df523b3ef908290a45050565b600060016129348461103e565b61293e919061313b565b600083815260076020526040902054909150808214612991576001600160a01b03841660009081526006602090815260408083208584528252808320548484528184208190558352600790915290208190555b5060009182526007602090815260408084208490556001600160a01b039094168352600681528383209183525290812055565b6008546000906129d69060019061313b565b60008381526009602052604081205460088054939450909284908110612a0c57634e487b7160e01b600052603260045260246000fd5b906000526020600020015490508060088381548110612a3b57634e487b7160e01b600052603260045260246000fd5b6000918252602080832090910192909255828152600990915260408082208490558582528120556008805480612a8157634e487b7160e01b600052603160045260246000fd5b6001900381819060005260206000200160009055905550505050565b6000612aa88361103e565b6001600160a01b039093166000908152600660209081526040808320868452825280832085905593825260079052919091209190915550565b828054612aed90613195565b90600052602060002090601f016020900481019282612b0f5760008555612b55565b82601f10612b2857805160ff1916838001178555612b55565b82800160010185558215612b55579182015b82811115612b55578251825591602001919060010190612b3a565b50612b61929150612b65565b5090565b5b80821115612b615760008155600101612b66565b600067ffffffffffffffff80841115612b9557612b9561322b565b604051601f8501601f19908116603f01168101908282118183101715612bbd57612bbd61322b565b81604052809350858152868686011115612bd657600080fd5b858560208301376000602087830101525050509392505050565b80356001600160a01b0381168114612c0757600080fd5b919050565b600082601f830112612c1c578081fd5b611a1a83833560208501612b7a565b600060208284031215612c3c578081fd5b611a1a82612bf0565b60008060408385031215612c57578081fd5b612c6083612bf0565b9150612c6e60208401612bf0565b90509250929050565b600080600060608486031215612c8b578081fd5b612c9484612bf0565b9250612ca260208501612bf0565b9150604084013590509250925092565b60008060008060808587031215612cc7578081fd5b612cd085612bf0565b9350612cde60208601612bf0565b925060408501359150606085013567ffffffffffffffff811115612d00578182fd5b8501601f81018713612d10578182fd5b612d1f87823560208401612b7a565b91505092959194509250565b60008060408385031215612d3d578182fd5b612d4683612bf0565b915060208301358015158114612d5a578182fd5b809150509250929050565b60008060408385031215612d77578182fd5b612d8083612bf0565b946020939093013593505050565b600060208284031215612d9f578081fd5b5035919050565b60008060408385031215612db8578182fd5b82359150612c6e60208401612bf0565b600060208284031215612dd9578081fd5b8135611a1a81613241565b600060208284031215612df5578081fd5b8151611a1a81613241565b600060208284031215612e11578081fd5b813567ffffffffffffffff811115612e27578182fd5b610aa384828501612c0c565b60008060408385031215612e45578182fd5b82359150602083013567ffffffffffffffff811115612e62578182fd5b612e6e85828601612c0c565b9150509250929050565b60008060408385031215612e8a578182fd5b50508035926020909101359150565b60008151808452612eb1816020860160208601613152565b601f01601f19169290920160200192915050565b60008351612ed7818460208801613152565b835190830190612eeb818360208801613152565b01949350505050565b76020b1b1b2b9b9a1b7b73a3937b61d1030b1b1b7bab73a1604d1b815260008351612f26816017850160208801613152565b7001034b99036b4b9b9b4b733903937b6329607d1b6017918401918201528351612f57816028840160208801613152565b01602801949350505050565b6001600160a01b0385811682528416602082015260408101839052608060608201819052600090612f9690830184612e99565b9695505050505050565b602081526000611a1a6020830184612e99565b60208082526032908201527f4552433732313a207472616e7366657220746f206e6f6e20455243373231526560408201527131b2b4bb32b91034b6b83632b6b2b73a32b960711b606082015260800190565b6020808252602a908201527f43616c6c65722073686f756c6420626520746865206f776e6572206f66207468604082015269329030b93a3bb7b9359760b11b606082015260800190565b60208082526031908201527f4552433732313a207472616e736665722063616c6c6572206973206e6f74206f6040820152701ddb995c881b9bdc88185c1c1c9bdd9959607a1b606082015260800190565b6020808252601f908201527f5265656e7472616e637947756172643a207265656e7472616e742063616c6c00604082015260600190565b828152604060208201526000610aa36040830184612e99565b60008219821115613103576131036131ff565b500190565b60008261311757613117613215565b500490565b6000816000190483118215151615613136576131366131ff565b500290565b60008282101561314d5761314d6131ff565b500390565b60005b8381101561316d578181015183820152602001613155565b838111156116aa5750506000910152565b60008161318d5761318d6131ff565b506000190190565b600181811c908216806131a957607f821691505b602082108114156131ca57634e487b7160e01b600052602260045260246000fd5b50919050565b60006000198214156131e4576131e46131ff565b5060010190565b6000826131fa576131fa613215565b500690565b634e487b7160e01b600052601160045260246000fd5b634e487b7160e01b600052601260045260246000fd5b634e487b7160e01b600052604160045260246000fd5b6001600160e01b03198116811461325757600080fd5b5056fea2646970667358221220fba02888629c8fb19bf652bf56e9211fe109365782632214b2a96f29d62846e764736f6c63430008040033",
  "devdoc": {
    "kind": "dev",
    "methods": {
      "approve(address,uint256)": {
        "details": "See {IERC721-approve}."
      },
      "balanceOf(address)": {
        "details": "See {IERC721-balanceOf}."
      },
      "getApproved(uint256)": {
        "details": "See {IERC721-getApproved}."
      },
      "getRoleAdmin(bytes32)": {
        "details": "Returns the admin role that controls `role`. See {grantRole} and {revokeRole}. To change a role's admin, use {_setRoleAdmin}."
      },
      "grantRole(bytes32,address)": {
        "details": "Grants `role` to `account`. If `account` had not been already granted `role`, emits a {RoleGranted} event. Requirements: - the caller must have ``role``'s admin role."
      },
      "hasRole(bytes32,address)": {
        "details": "Returns `true` if `account` has been granted `role`."
      },
      "isApprovedForAll(address,address)": {
        "details": "See {IERC721-isApprovedForAll}."
      },
      "name()": {
        "details": "See {IERC721Metadata-name}."
      },
      "onERC721Received(address,address,uint256,bytes)": {
        "details": "See {IERC721Receiver-onERC721Received}. Always returns `IERC721Receiver.onERC721Received.selector`."
      },
      "renounceRole(bytes32,address)": {
        "details": "Revokes `role` from the calling account. Roles are often managed via {grantRole} and {revokeRole}: this function's purpose is to provide a mechanism for accounts to lose their privileges if they are compromised (such as when a trusted device is misplaced). If the calling account had been granted `role`, emits a {RoleRevoked} event. Requirements: - the caller must be `account`."
      },
      "revokeRole(bytes32,address)": {
        "details": "Revokes `role` from `account`. If `account` had been granted `role`, emits a {RoleRevoked} event. Requirements: - the caller must have ``role``'s admin role."
      },
      "royaltyInfo(uint256,uint256)": {
        "params": {
          "salePrice": "- the sale price of the NFT asset specified by _tokenId",
          "tokenId": "- the NFT asset queried for royalty information"
        },
        "returns": {
          "receiver": "- address of who should be sent the royalty payment",
          "royaltyAmount": "- the royalty payment amount for _salePrice"
        }
      },
      "safeTransferFrom(address,address,uint256)": {
        "details": "See {IERC721-safeTransferFrom}."
      },
      "safeTransferFrom(address,address,uint256,bytes)": {
        "details": "See {IERC721-safeTransferFrom}."
      },
      "setApprovalForAll(address,bool)": {
        "details": "See {IERC721-setApprovalForAll}."
      },
      "symbol()": {
        "details": "See {IERC721Metadata-symbol}."
      },
      "tokenByIndex(uint256)": {
        "details": "See {IERC721Enumerable-tokenByIndex}."
      },
      "tokenOfOwnerByIndex(address,uint256)": {
        "details": "See {IERC721Enumerable-tokenOfOwnerByIndex}."
      },
      "tokenURI(uint256)": {
        "details": "See {IERC721Metadata-tokenURI}."
      },
      "totalSupply()": {
        "details": "See {IERC721Enumerable-totalSupply}."
      },
      "transferFrom(address,address,uint256)": {
        "details": "See {IERC721-transferFrom}."
      }
    },
    "version": 1
  },
  "userdoc": {
    "kind": "user",
    "methods": {
      "endAuction(uint256)": {
        "notice": "End the auction and send the highest bid to the beneficiary."
      },
      "royaltyInfo(uint256,uint256)": {
        "notice": "Called with the sale price to determine how much royalty is owed and to whom."
      }
    },
    "version": 1
  },
  "storageLayout": {
    "storage": [
      {
        "astId": 818,
        "contract": "contracts/TheDate.sol:TheDate",
        "label": "_name",
        "offset": 0,
        "slot": "0",
        "type": "t_string_storage"
      },
      {
        "astId": 820,
        "contract": "contracts/TheDate.sol:TheDate",
        "label": "_symbol",
        "offset": 0,
        "slot": "1",
        "type": "t_string_storage"
      },
      {
        "astId": 824,
        "contract": "contracts/TheDate.sol:TheDate",
        "label": "_owners",
        "offset": 0,
        "slot": "2",
        "type": "t_mapping(t_uint256,t_address)"
      },
      {
        "astId": 828,
        "contract": "contracts/TheDate.sol:TheDate",
        "label": "_balances",
        "offset": 0,
        "slot": "3",
        "type": "t_mapping(t_address,t_uint256)"
      },
      {
        "astId": 832,
        "contract": "contracts/TheDate.sol:TheDate",
        "label": "_tokenApprovals",
        "offset": 0,
        "slot": "4",
        "type": "t_mapping(t_uint256,t_address)"
      },
      {
        "astId": 838,
        "contract": "contracts/TheDate.sol:TheDate",
        "label": "_operatorApprovals",
        "offset": 0,
        "slot": "5",
        "type": "t_mapping(t_address,t_mapping(t_address,t_bool))"
      },
      {
        "astId": 1757,
        "contract": "contracts/TheDate.sol:TheDate",
        "label": "_ownedTokens",
        "offset": 0,
        "slot": "6",
        "type": "t_mapping(t_address,t_mapping(t_uint256,t_uint256))"
      },
      {
        "astId": 1761,
        "contract": "contracts/TheDate.sol:TheDate",
        "label": "_ownedTokensIndex",
        "offset": 0,
        "slot": "7",
        "type": "t_mapping(t_uint256,t_uint256)"
      },
      {
        "astId": 1764,
        "contract": "contracts/TheDate.sol:TheDate",
        "label": "_allTokens",
        "offset": 0,
        "slot": "8",
        "type": "t_array(t_uint256)dyn_storage"
      },
      {
        "astId": 1768,
        "contract": "contracts/TheDate.sol:TheDate",
        "label": "_allTokensIndex",
        "offset": 0,
        "slot": "9",
        "type": "t_mapping(t_uint256,t_uint256)"
      },
      {
        "astId": 24,
        "contract": "contracts/TheDate.sol:TheDate",
        "label": "_roles",
        "offset": 0,
        "slot": "10",
        "type": "t_mapping(t_bytes32,t_struct(RoleData)19_storage)"
      },
      {
        "astId": 685,
        "contract": "contracts/TheDate.sol:TheDate",
        "label": "_status",
        "offset": 0,
        "slot": "11",
        "type": "t_uint256"
      },
      {
        "astId": 3928,
        "contract": "contracts/TheDate.sol:TheDate",
        "label": "_foundation",
        "offset": 0,
        "slot": "12",
        "type": "t_address_payable"
      },
      {
        "astId": 3962,
        "contract": "contracts/TheDate.sol:TheDate",
        "label": "_royaltyPermyriad",
        "offset": 0,
        "slot": "13",
        "type": "t_uint256"
      },
      {
        "astId": 3538,
        "contract": "contracts/TheDate.sol:TheDate",
        "label": "_highestBidder",
        "offset": 0,
        "slot": "14",
        "type": "t_mapping(t_uint256,t_address)"
      },
      {
        "astId": 3542,
        "contract": "contracts/TheDate.sol:TheDate",
        "label": "_highestBid",
        "offset": 0,
        "slot": "15",
        "type": "t_mapping(t_uint256,t_uint256)"
      },
      {
        "astId": 3546,
        "contract": "contracts/TheDate.sol:TheDate",
        "label": "_pendingReturns",
        "offset": 0,
        "slot": "16",
        "type": "t_mapping(t_address,t_uint256)"
      },
      {
        "astId": 3548,
        "contract": "contracts/TheDate.sol:TheDate",
        "label": "_minBidIncrementPermyriad",
        "offset": 0,
        "slot": "17",
        "type": "t_uint256"
      },
      {
        "astId": 3550,
        "contract": "contracts/TheDate.sol:TheDate",
        "label": "_reservePrice",
        "offset": 0,
        "slot": "18",
        "type": "t_uint256"
      },
      {
        "astId": 4127,
        "contract": "contracts/TheDate.sol:TheDate",
        "label": "_engravingPrice",
        "offset": 0,
        "slot": "19",
        "type": "t_uint256"
      },
      {
        "astId": 4130,
        "contract": "contracts/TheDate.sol:TheDate",
        "label": "_erasingPrice",
        "offset": 0,
        "slot": "20",
        "type": "t_uint256"
      },
      {
        "astId": 4133,
        "contract": "contracts/TheDate.sol:TheDate",
        "label": "_noteSizeLimit",
        "offset": 0,
        "slot": "21",
        "type": "t_uint256"
      },
      {
        "astId": 4198,
        "contract": "contracts/TheDate.sol:TheDate",
        "label": "_baseTokenURI",
        "offset": 0,
        "slot": "22",
        "type": "t_string_storage"
      },
      {
        "astId": 4361,
        "contract": "contracts/TheDate.sol:TheDate",
        "label": "artworks",
        "offset": 0,
        "slot": "23",
        "type": "t_mapping(t_uint256,t_struct(TheDateArtwork)4356_storage)"
      }
    ],
    "types": {
      "t_address": {
        "encoding": "inplace",
        "label": "address",
        "numberOfBytes": "20"
      },
      "t_address_payable": {
        "encoding": "inplace",
        "label": "address payable",
        "numberOfBytes": "20"
      },
      "t_array(t_uint256)dyn_storage": {
        "base": "t_uint256",
        "encoding": "dynamic_array",
        "label": "uint256[]",
        "numberOfBytes": "32"
      },
      "t_bool": {
        "encoding": "inplace",
        "label": "bool",
        "numberOfBytes": "1"
      },
      "t_bytes32": {
        "encoding": "inplace",
        "label": "bytes32",
        "numberOfBytes": "32"
      },
      "t_mapping(t_address,t_bool)": {
        "encoding": "mapping",
        "key": "t_address",
        "label": "mapping(address => bool)",
        "numberOfBytes": "32",
        "value": "t_bool"
      },
      "t_mapping(t_address,t_mapping(t_address,t_bool))": {
        "encoding": "mapping",
        "key": "t_address",
        "label": "mapping(address => mapping(address => bool))",
        "numberOfBytes": "32",
        "value": "t_mapping(t_address,t_bool)"
      },
      "t_mapping(t_address,t_mapping(t_uint256,t_uint256))": {
        "encoding": "mapping",
        "key": "t_address",
        "label": "mapping(address => mapping(uint256 => uint256))",
        "numberOfBytes": "32",
        "value": "t_mapping(t_uint256,t_uint256)"
      },
      "t_mapping(t_address,t_uint256)": {
        "encoding": "mapping",
        "key": "t_address",
        "label": "mapping(address => uint256)",
        "numberOfBytes": "32",
        "value": "t_uint256"
      },
      "t_mapping(t_bytes32,t_struct(RoleData)19_storage)": {
        "encoding": "mapping",
        "key": "t_bytes32",
        "label": "mapping(bytes32 => struct AccessControl.RoleData)",
        "numberOfBytes": "32",
        "value": "t_struct(RoleData)19_storage"
      },
      "t_mapping(t_uint256,t_address)": {
        "encoding": "mapping",
        "key": "t_uint256",
        "label": "mapping(uint256 => address)",
        "numberOfBytes": "32",
        "value": "t_address"
      },
      "t_mapping(t_uint256,t_struct(TheDateArtwork)4356_storage)": {
        "encoding": "mapping",
        "key": "t_uint256",
        "label": "mapping(uint256 => struct TheDate.TheDateArtwork)",
        "numberOfBytes": "32",
        "value": "t_struct(TheDateArtwork)4356_storage"
      },
      "t_mapping(t_uint256,t_uint256)": {
        "encoding": "mapping",
        "key": "t_uint256",
        "label": "mapping(uint256 => uint256)",
        "numberOfBytes": "32",
        "value": "t_uint256"
      },
      "t_string_storage": {
        "encoding": "bytes",
        "label": "string",
        "numberOfBytes": "32"
      },
      "t_struct(RoleData)19_storage": {
        "encoding": "inplace",
        "label": "struct AccessControl.RoleData",
        "members": [
          {
            "astId": 16,
            "contract": "contracts/TheDate.sol:TheDate",
            "label": "members",
            "offset": 0,
            "slot": "0",
            "type": "t_mapping(t_address,t_bool)"
          },
          {
            "astId": 18,
            "contract": "contracts/TheDate.sol:TheDate",
            "label": "adminRole",
            "offset": 0,
            "slot": "1",
            "type": "t_bytes32"
          }
        ],
        "numberOfBytes": "64"
      },
      "t_struct(TheDateArtwork)4356_storage": {
        "encoding": "inplace",
        "label": "struct TheDate.TheDateArtwork",
        "members": [
          {
            "astId": 4353,
            "contract": "contracts/TheDate.sol:TheDate",
            "label": "date",
            "offset": 0,
            "slot": "0",
            "type": "t_uint256"
          },
          {
            "astId": 4355,
            "contract": "contracts/TheDate.sol:TheDate",
            "label": "note",
            "offset": 0,
            "slot": "1",
            "type": "t_string_storage"
          }
        ],
        "numberOfBytes": "64"
      },
      "t_uint256": {
        "encoding": "inplace",
        "label": "uint256",
        "numberOfBytes": "32"
      }
    }
  }
}